{
  "contractName": "AccessControl",
  "abi": [
    {
      "constant": true,
      "inputs": [],
      "name": "AIRLINE_REGISTRATION_ROLE",
      "outputs": [
        {
          "name": "",
          "type": "bytes32"
        }
      ],
      "payable": false,
      "stateMutability": "view",
      "type": "function"
    },
    {
      "constant": true,
      "inputs": [],
      "name": "AUTHORIZE_CONTRACT_ROLE",
      "outputs": [
        {
          "name": "",
          "type": "bytes32"
        }
      ],
      "payable": false,
      "stateMutability": "view",
      "type": "function"
    },
    {
      "constant": true,
      "inputs": [],
      "name": "ERROR_MISSING_CLAIMS_PAYOUT_ROLE",
      "outputs": [
        {
          "name": "",
          "type": "string"
        }
      ],
      "payable": false,
      "stateMutability": "view",
      "type": "function"
    },
    {
      "constant": true,
      "inputs": [],
      "name": "CLAIMS_PAYOUT_ROLE",
      "outputs": [
        {
          "name": "",
          "type": "bytes32"
        }
      ],
      "payable": false,
      "stateMutability": "view",
      "type": "function"
    },
    {
      "constant": true,
      "inputs": [],
      "name": "ERROR_MISSING_FLIGHT_REGISTRATION_PERMISSION",
      "outputs": [
        {
          "name": "",
          "type": "string"
        }
      ],
      "payable": false,
      "stateMutability": "view",
      "type": "function"
    },
    {
      "constant": true,
      "inputs": [],
      "name": "ERROR_MISSING_AIRLINE_REGISTRATION_PERMISSION",
      "outputs": [
        {
          "name": "",
          "type": "string"
        }
      ],
      "payable": false,
      "stateMutability": "view",
      "type": "function"
    },
    {
      "constant": true,
      "inputs": [],
      "name": "FLIGHT_REGISTRATION_ROLE",
      "outputs": [
        {
          "name": "",
          "type": "bytes32"
        }
      ],
      "payable": false,
      "stateMutability": "view",
      "type": "function"
    },
    {
      "inputs": [],
      "payable": false,
      "stateMutability": "nonpayable",
      "type": "constructor"
    }
  ],
  "bytecode": "0x608060405234801561001057600080fd5b5061005e60405180807f415554484f52495a455f434f4e54524143545f524f4c450000000000000000008152506017019050604051809103902061014a640100000000026401000000009004565b6100ab60405180807f4149524c494e455f524547495354524154494f4e5f524f4c45000000000000008152506019019050604051809103902061014a640100000000026401000000009004565b6100f860405180807f464c494748545f524547495354524154494f4e5f524f4c4500000000000000008152506018019050604051809103902061014a640100000000026401000000009004565b61014560405180807f434c41494d535f5041594f55545f524f4c4500000000000000000000000000008152506012019050604051809103902061014a640100000000026401000000009004565b6102fb565b600061016482610240640100000000026401000000009004565b905060001515600080836000191660001916815260200190815260200160002060009054906101000a900460ff161515141515610209576040517f08c379a00000000000000000000000000000000000000000000000000000000081526004018080602001828103825260138152602001807f526f6c6520416c7265616479204578697374730000000000000000000000000081525060200191505060405180910390fd5b6001600080836000191660001916815260200190815260200160002060006101000a81548160ff0219169083151502179055505050565b60008160405160200180807f524f4c450000000000000000000000000000000000000000000000000000000081525060040182600019166000191681526020019150506040516020818303038152906040526040518082805190602001908083835b6020831015156102c757805182526020820191506020810190506020830392506102a2565b6001836020036101000a03801982511681845116808217855250505050505090500191505060405180910390209050919050565b61050d8061030a6000396000f300608060405260043610610083576000357c0100000000000000000000000000000000000000000000000000000000900463ffffffff1680630c6d1af51461008857806347cad4b1146100bb578063717cb5f1146100ee578063969b30871461017e5780639dba96a7146101b1578063ac9eccc314610241578063c28ffa9c146102d1575b600080fd5b34801561009457600080fd5b5061009d610304565b60405180826000191660001916815260200191505060405180910390f35b3480156100c757600080fd5b506100d061033d565b60405180826000191660001916815260200191505060405180910390f35b3480156100fa57600080fd5b50610103610376565b6040518080602001828103825283818151815260200191508051906020019080838360005b83811015610143578082015181840152602081019050610128565b50505050905090810190601f1680156101705780820380516001836020036101000a031916815260200191505b509250505060405180910390f35b34801561018a57600080fd5b506101936103af565b60405180826000191660001916815260200191505060405180910390f35b3480156101bd57600080fd5b506101c66103e8565b6040518080602001828103825283818151815260200191508051906020019080838360005b838110156102065780820151818401526020810190506101eb565b50505050905090810190601f1680156102335780820380516001836020036101000a031916815260200191505b509250505060405180910390f35b34801561024d57600080fd5b50610256610448565b6040518080602001828103825283818151815260200191508051906020019080838360005b8381101561029657808201518184015260208101905061027b565b50505050905090810190601f1680156102c35780820380516001836020036101000a031916815260200191505b509250505060405180910390f35b3480156102dd57600080fd5b506102e66104a8565b60405180826000191660001916815260200191505060405180910390f35b60405180807f4149524c494e455f524547495354524154494f4e5f524f4c45000000000000008152506019019050604051809103902081565b60405180807f415554484f52495a455f434f4e54524143545f524f4c450000000000000000008152506017019050604051809103902081565b6040805190810160405280602081526020017f4552524f525f4d495353494e475f434c41494d535f5041594f55545f524f4c4581525081565b60405180807f434c41494d535f5041594f55545f524f4c4500000000000000000000000000008152506012019050604051809103902081565b606060405190810160405280602c81526020017f4552524f525f4d495353494e475f464c494748545f524547495354524154494f81526020017f4e5f5045524d495353494f4e000000000000000000000000000000000000000081525081565b606060405190810160405280602d81526020017f4552524f525f4d495353494e475f4149524c494e455f5245474953545241544981526020017f4f4e5f5045524d495353494f4e0000000000000000000000000000000000000081525081565b60405180807f464c494748545f524547495354524154494f4e5f524f4c45000000000000000081525060180190506040518091039020815600a165627a7a7230582065f53c48c2a83d23b6d7142aaa37435b4224aeeff186c38dffac6ab3b32e57e90029",
  "source": "pragma solidity ^0.4.24;\n\n// Define a contract 'Supplychain'\ncontract AccessControl{\n    mapping (bytes32 => bool) internal roles;\n    mapping (bytes32 => bool) internal permissions;\n\n    string public constant ERROR_MISSING_AIRLINE_REGISTRATION_PERMISSION = \"ERROR_MISSING_AIRLINE_REGISTRATION_PERMISSION\";\n    string public constant ERROR_MISSING_FLIGHT_REGISTRATION_PERMISSION = \"ERROR_MISSING_FLIGHT_REGISTRATION_PERMISSION\";\n    string public constant ERROR_MISSING_CLAIMS_PAYOUT_ROLE = \"ERROR_MISSING_CLAIMS_PAYOUT_ROLE\";\n\n    bytes32 public constant AUTHORIZE_CONTRACT_ROLE = keccak256(\"AUTHORIZE_CONTRACT_ROLE\");\n    bytes32 public constant AIRLINE_REGISTRATION_ROLE = keccak256(\"AIRLINE_REGISTRATION_ROLE\");\n    bytes32 public constant FLIGHT_REGISTRATION_ROLE = keccak256(\"FLIGHT_REGISTRATION_ROLE\");\n    bytes32 public constant CLAIMS_PAYOUT_ROLE = keccak256(\"CLAIMS_PAYOUT_ROLE\");\n\n\n    modifier canPayoutClaims(address _who) {\n        require(has(CLAIMS_PAYOUT_ROLE, _who, \"\"), ERROR_MISSING_CLAIMS_PAYOUT_ROLE);\n        _;\n    }\n\n    constructor() public {\n        addRole(AUTHORIZE_CONTRACT_ROLE);\n        addRole(AIRLINE_REGISTRATION_ROLE);\n        addRole(FLIGHT_REGISTRATION_ROLE);\n        addRole(CLAIMS_PAYOUT_ROLE);\n    }\n\n    function roleHash(bytes32 _role) internal pure returns (bytes32) {\n        return keccak256(abi.encodePacked(\"ROLE\", _role));\n    }\n\n    function permissionHash(address _who, bytes32 _role, bytes32 _for) internal pure returns (bytes32) {\n        return keccak256(abi.encodePacked(\"PERMISSION\", _who, _role, _for));\n    }\n\n    function addRole(bytes32 _role) internal {\n        bytes32 thisRoleHash = roleHash(_role);\n        require(roles[thisRoleHash] == false, \"Role Already Exists\");\n        roles[thisRoleHash] = true;\n    }\n\n    function addPermission(bytes32 _role, address _who, bytes32 _for) internal {\n        bytes32 thisRoleHash = roleHash(_role);\n        require(roles[thisRoleHash] == true, \"Role Does Not Exists\");\n        bytes32 thisPermissionHash = permissionHash(_who, _role, _for);\n        //require(permissions[thisPermissionHash] == false, \"Permission Already Exists\");\n        permissions[thisPermissionHash] = true;\n    }\n\n    modifier hasPermission(bytes32 _role, address _who, bytes32 _for, string _message){\n        require(has(_role, _who, _for), _message);\n        _;\n    }\n\n\n    /**\n    * @dev check if an account has this role\n    * @return bool\n    */\n    function has(bytes32 _role, address _who, bytes32 _for)\n      internal\n      view\n      returns (bool)\n    {\n        //require(_who != address(0), \"Cannot check address of contract owner\");\n        bytes32 thisPermissionHash = permissionHash(_who, _role, _for);\n        return permissions[thisPermissionHash];\n    }\n\n}",
  "sourcePath": "/Users/Tony/Documents/Projects2018/BlockChain/flightSurety/contracts/Accesscontrol.sol",
  "compiler": {
    "name": "solc",
    "version": "0.4.25+commit.59dbf8f1.Emscripten.clang"
  },
  "schemaVersion": "2.0.1",
  "updatedAt": "2019-04-04T19:20:39.123Z"
}