{
  "contractName": "AccessControl",
  "abi": [
    {
      "constant": true,
      "inputs": [],
      "name": "REGISTRATION_ROLE",
      "outputs": [
        {
          "name": "",
          "type": "bytes32"
        }
      ],
      "payable": false,
      "stateMutability": "view",
      "type": "function"
    },
    {
      "inputs": [],
      "payable": false,
      "stateMutability": "nonpayable",
      "type": "constructor"
    }
  ],
  "bytecode": "0x608060405234801561001057600080fd5b5061005e60405180807f524547495354524154494f4e5f524f4c4500000000000000000000000000000081525060110190506040518091039020610063640100000000026401000000009004565b610214565b600061007d82610159640100000000026401000000009004565b905060001515600080836000191660001916815260200190815260200160002060009054906101000a900460ff161515141515610122576040517f08c379a00000000000000000000000000000000000000000000000000000000081526004018080602001828103825260138152602001807f526f6c6520416c7265616479204578697374730000000000000000000000000081525060200191505060405180910390fd5b6001600080836000191660001916815260200190815260200160002060006101000a81548160ff0219169083151502179055505050565b60008160405160200180807f524f4c450000000000000000000000000000000000000000000000000000000081525060040182600019166000191681526020019150506040516020818303038152906040526040518082805190602001908083835b6020831015156101e057805182526020820191506020810190506020830392506101bb565b6001836020036101000a03801982511681845116808217855250505050505090500191505060405180910390209050919050565b60d9806102226000396000f300608060405260043610603f576000357c0100000000000000000000000000000000000000000000000000000000900463ffffffff168063fc65b841146044575b600080fd5b348015604f57600080fd5b5060566074565b60405180826000191660001916815260200191505060405180910390f35b60405180807f524547495354524154494f4e5f524f4c4500000000000000000000000000000081525060110190506040518091039020815600a165627a7a723058203b3cb3aee4556f1d3c785ca8c337e45c541d68e173126518bf2620198616728b0029",
  "source": "pragma solidity ^0.4.24;\n\n// Define a contract 'Supplychain'\ncontract AccessControl{\n    mapping (bytes32 => bool) internal roles;\n    mapping (bytes32 => bool) internal permissions;\n\n    string private constant ERROR_MISSING_REGISTRATION_PERMISSION = \"ERROR_MISSING_REGISTRATION_PERMISSION\";\n\n    bytes32 public constant REGISTRATION_ROLE = keccak256(\"REGISTRATION_ROLE\");\n\n    modifier canRegister() {\n        require(has(REGISTRATION_ROLE, msg.sender, \"\"), ERROR_MISSING_REGISTRATION_PERMISSION);\n        _;\n    }\n\n\n    constructor() public {\n        addRole(REGISTRATION_ROLE);\n    }\n\n    function roleHash(bytes32 _role) internal pure returns (bytes32) {\n        return keccak256(abi.encodePacked(\"ROLE\", _role));\n    }\n\n    function permissionHash(address _who, bytes32 _role, bytes32 _for) internal pure returns (bytes32) {\n        return keccak256(abi.encodePacked(\"PERMISSION\", _who, _role, _for));\n    }\n\n    function addRole(bytes32 _role) internal {\n        bytes32 thisRoleHash = roleHash(_role);\n        require(roles[thisRoleHash] == false, \"Role Already Exists\");\n        roles[thisRoleHash] = true;\n    }\n\n    function addPermission(bytes32 _role, address _who, bytes32 _for) internal {\n        bytes32 thisRoleHash = roleHash(_role);\n        require(roles[thisRoleHash] == true, \"Role Does Not Exists\");\n        bytes32 thisPermissionHash = permissionHash(_who, _role, _for);\n        require(permissions[thisPermissionHash] == false, \"Permission Already Exists\");\n        permissions[thisPermissionHash] = true;\n    }\n\n    modifier hasPermission(bytes32 _role, address _who, bytes32 _for, string _message){\n        require(has(_role, _who, _for), _message);\n        _;\n    }\n\n    /**\n    * @dev check if an account has this role\n    * @return bool\n    */\n    function has(bytes32 _role, address _who, bytes32 _for)\n      internal\n      view\n      returns (bool)\n    {\n        //require(_who != address(0), \"Cannot check address of contract owner\");\n        bytes32 thisPermissionHash = permissionHash(_who, _role, _for);\n        return permissions[thisPermissionHash];\n    }\n\n}",
  "sourcePath": "/Users/Tony/Documents/Udacity/BlockchainNanoDegree/flightsurety/contracts/Accesscontrol.sol",
  "compiler": {
    "name": "solc",
    "version": "0.4.25+commit.59dbf8f1.Emscripten.clang"
  },
  "schemaVersion": "2.0.1",
  "updatedAt": "2019-03-09T05:02:51.395Z"
}