{
  "contractName": "FlightSuretyApp",
  "abi": [
    {
      "constant": true,
      "inputs": [
        {
          "name": "_who",
          "type": "address"
        }
      ],
      "name": "isAirline",
      "outputs": [
        {
          "name": "",
          "type": "bool"
        }
      ],
      "payable": false,
      "stateMutability": "view",
      "type": "function"
    },
    {
      "constant": false,
      "inputs": [
        {
          "name": "mode",
          "type": "bool"
        }
      ],
      "name": "setOperatingStatus",
      "outputs": [],
      "payable": false,
      "stateMutability": "nonpayable",
      "type": "function"
    },
    {
      "constant": true,
      "inputs": [],
      "name": "pay",
      "outputs": [],
      "payable": false,
      "stateMutability": "pure",
      "type": "function"
    },
    {
      "constant": true,
      "inputs": [],
      "name": "creditInsurees",
      "outputs": [],
      "payable": false,
      "stateMutability": "pure",
      "type": "function"
    },
    {
      "constant": true,
      "inputs": [],
      "name": "REGISTRATION_FEE",
      "outputs": [
        {
          "name": "",
          "type": "uint256"
        }
      ],
      "payable": false,
      "stateMutability": "view",
      "type": "function"
    },
    {
      "constant": false,
      "inputs": [],
      "name": "buy",
      "outputs": [],
      "payable": true,
      "stateMutability": "payable",
      "type": "function"
    },
    {
      "constant": true,
      "inputs": [],
      "name": "REGISTRATION_ROLE",
      "outputs": [
        {
          "name": "",
          "type": "bytes32"
        }
      ],
      "payable": false,
      "stateMutability": "view",
      "type": "function"
    },
    {
      "inputs": [],
      "payable": false,
      "stateMutability": "nonpayable",
      "type": "constructor"
    },
    {
      "payable": true,
      "stateMutability": "payable",
      "type": "fallback"
    },
    {
      "anonymous": false,
      "inputs": [
        {
          "indexed": false,
          "name": "airline",
          "type": "address"
        },
        {
          "indexed": false,
          "name": "flight",
          "type": "string"
        },
        {
          "indexed": false,
          "name": "timestamp",
          "type": "uint256"
        },
        {
          "indexed": false,
          "name": "status",
          "type": "uint8"
        }
      ],
      "name": "FlightStatusInfo",
      "type": "event"
    },
    {
      "anonymous": false,
      "inputs": [
        {
          "indexed": false,
          "name": "airline",
          "type": "address"
        },
        {
          "indexed": false,
          "name": "flight",
          "type": "string"
        },
        {
          "indexed": false,
          "name": "timestamp",
          "type": "uint256"
        },
        {
          "indexed": false,
          "name": "status",
          "type": "uint8"
        }
      ],
      "name": "OracleReport",
      "type": "event"
    },
    {
      "anonymous": false,
      "inputs": [
        {
          "indexed": false,
          "name": "index",
          "type": "uint8"
        },
        {
          "indexed": false,
          "name": "airline",
          "type": "address"
        },
        {
          "indexed": false,
          "name": "flight",
          "type": "string"
        },
        {
          "indexed": false,
          "name": "timestamp",
          "type": "uint256"
        }
      ],
      "name": "OracleRequest",
      "type": "event"
    },
    {
      "constant": true,
      "inputs": [],
      "name": "isOperational",
      "outputs": [
        {
          "name": "",
          "type": "bool"
        }
      ],
      "payable": false,
      "stateMutability": "view",
      "type": "function"
    },
    {
      "constant": false,
      "inputs": [
        {
          "name": "_airlineAddress",
          "type": "address"
        }
      ],
      "name": "registerAirline",
      "outputs": [
        {
          "name": "success",
          "type": "bool"
        },
        {
          "name": "votes",
          "type": "uint256"
        },
        {
          "name": "pendingVotes",
          "type": "uint256"
        }
      ],
      "payable": false,
      "stateMutability": "nonpayable",
      "type": "function"
    },
    {
      "constant": false,
      "inputs": [],
      "name": "fund",
      "outputs": [],
      "payable": true,
      "stateMutability": "payable",
      "type": "function"
    },
    {
      "constant": true,
      "inputs": [],
      "name": "registerFlight",
      "outputs": [],
      "payable": false,
      "stateMutability": "pure",
      "type": "function"
    },
    {
      "constant": false,
      "inputs": [
        {
          "name": "airline",
          "type": "address"
        },
        {
          "name": "flight",
          "type": "string"
        },
        {
          "name": "timestamp",
          "type": "uint256"
        }
      ],
      "name": "fetchFlightStatus",
      "outputs": [],
      "payable": false,
      "stateMutability": "nonpayable",
      "type": "function"
    },
    {
      "constant": true,
      "inputs": [],
      "name": "hasQuorum",
      "outputs": [
        {
          "name": "hasQuorum_",
          "type": "bool"
        }
      ],
      "payable": false,
      "stateMutability": "view",
      "type": "function"
    },
    {
      "constant": true,
      "inputs": [],
      "name": "fetchAirlinesSummary",
      "outputs": [
        {
          "name": "registered_",
          "type": "uint256"
        },
        {
          "name": "registrationQueue_",
          "type": "uint256"
        },
        {
          "name": "quorum_",
          "type": "uint256"
        },
        {
          "name": "consensusPercentage_",
          "type": "uint256"
        },
        {
          "name": "consensus_",
          "type": "uint256"
        }
      ],
      "payable": false,
      "stateMutability": "view",
      "type": "function"
    },
    {
      "constant": true,
      "inputs": [
        {
          "name": "_airlineAddress",
          "type": "address"
        }
      ],
      "name": "fetchAirlineSummary",
      "outputs": [
        {
          "name": "votes_",
          "type": "uint256"
        },
        {
          "name": "isRegistered_",
          "type": "bool"
        },
        {
          "name": "contribution_",
          "type": "uint256"
        }
      ],
      "payable": false,
      "stateMutability": "view",
      "type": "function"
    },
    {
      "constant": false,
      "inputs": [],
      "name": "registerOracle",
      "outputs": [],
      "payable": true,
      "stateMutability": "payable",
      "type": "function"
    },
    {
      "constant": true,
      "inputs": [],
      "name": "getMyIndexes",
      "outputs": [
        {
          "name": "",
          "type": "uint8[3]"
        }
      ],
      "payable": false,
      "stateMutability": "view",
      "type": "function"
    },
    {
      "constant": false,
      "inputs": [
        {
          "name": "index",
          "type": "uint8"
        },
        {
          "name": "airline",
          "type": "address"
        },
        {
          "name": "flight",
          "type": "string"
        },
        {
          "name": "timestamp",
          "type": "uint256"
        },
        {
          "name": "statusCode",
          "type": "uint8"
        }
      ],
      "name": "submitOracleResponse",
      "outputs": [],
      "payable": false,
      "stateMutability": "nonpayable",
      "type": "function"
    }
  ],
  "bytecode": "0x60806040526001600060146101000a81548160ff02191690831515021790555060006001556000600860146101000a81548160ff021916908360ff1602179055503480156200004d57600080fd5b506000336000806101000a81548173ffffffffffffffffffffffffffffffffffffffff021916908373ffffffffffffffffffffffffffffffffffffffff160217905550620000df60405180807f524547495354524154494f4e5f524f4c45000000000000000000000000000000815250601101905060405180910390206200015d640100000000026401000000009004565b33600860006101000a81548173ffffffffffffffffffffffffffffffffffffffff021916908373ffffffffffffffffffffffffffffffffffffffff1602179055506200013a3362000258640100000000026401000000009004565b9050620001568162000477640100000000026401000000009004565b5062000618565b6000620001798262000508640100000000026401000000009004565b90506000151560066000836000191660001916815260200190815260200160002060009054906101000a900460ff16151514151562000220576040517f08c379a00000000000000000000000000000000000000000000000000000000081526004018080602001828103825260138152602001807f526f6c6520416c7265616479204578697374730000000000000000000000000081525060200191505060405180910390fd5b600160066000836000191660001916815260200190815260200160002060006101000a81548160ff0219169083151502179055505050565b60008160001515600260008373ffffffffffffffffffffffffffffffffffffffff1673ffffffffffffffffffffffffffffffffffffffff16815260200190815260200160002060030160009054906101000a900460ff161515146040805190810160405280601e81526020017f4552524f525f4149524c494e455f414c52454144595f454e4c4953544544000081525090151562000394576040517f08c379a00000000000000000000000000000000000000000000000000000000081526004018080602001828103825283818151815260200191508051906020019080838360005b83811015620003585780820151818401526020810190506200033b565b50505050905090810190601f168015620003865780820380516001836020036101000a031916815260200191505b509250505060405180910390fd5b50600260008473ffffffffffffffffffffffffffffffffffffffff1673ffffffffffffffffffffffffffffffffffffffff1681526020019081526020016000209150828260000160006101000a81548173ffffffffffffffffffffffffffffffffffffffff021916908373ffffffffffffffffffffffffffffffffffffffff1602179055506000826001018190555060008260030160016101000a81548160ff02191690831515021790555060018260030160006101000a81548160ff021916908315150217905550600160046000828254019250508190555081915050919050565b60018160030160016101000a81548160ff02191690831515021790555060016003600082825401925050819055506001600460008282540392505081905550620004ff6064620004e26032600354620005c5640100000000026200254b179091906401000000009004565b620006016401000000000262002583179091906401000000009004565b60018190555050565b60008160405160200180807f524f4c450000000000000000000000000000000000000000000000000000000081525060040182600019166000191681526020019150506040516020818303038152906040526040518082805190602001908083835b6020831015156200059157805182526020820191506020810190506020830392506200056a565b6001836020036101000a03801982511681845116808217855250505050505090500191505060405180910390209050919050565b600080831415620005da5760009050620005fb565b8183029050818382811515620005ec57fe5b04141515620005f757fe5b8090505b92915050565b600081838115156200060f57fe5b04905092915050565b6126b280620006286000396000f3006080604052600436106100fc576000357c0100000000000000000000000000000000000000000000000000000000900463ffffffff1680630e248a1114610106578063110466ed146101615780631b9265b814610190578063339d2590146101a757806336cee484146101b15780635f1cc0e6146101c857806364b4f7511461021b578063815b4d1b14610246578063865561f7146102755780639a67c593146102de578063a6f2ae3a14610325578063ae6f17e01461032f578063b60d428814610346578063bdfd987714610350578063c10f2700146103b9578063cd905dff14610438578063f83f11c014610467578063fc65b841146104cc575b6101046104ff565b005b34801561011257600080fd5b50610147600480360381019080803573ffffffffffffffffffffffffffffffffffffffff1690602001909291905050506106e2565b604051808215151515815260200191505060405180910390f35b34801561016d57600080fd5b5061018e60048036038101908080351515906020019092919050505061073b565b005b34801561019c57600080fd5b506101a5610888565b005b6101af61088a565b005b3480156101bd57600080fd5b506101c66109b2565b005b3480156101d457600080fd5b506101dd6109b4565b6040518082600360200280838360005b838110156102085780820151818401526020810190506101ed565b5050505090500191505060405180910390f35b34801561022757600080fd5b50610230610b29565b6040518082815260200191505060405180910390f35b34801561025257600080fd5b5061025b610b35565b604051808215151515815260200191505060405180910390f35b34801561028157600080fd5b506102b6600480360381019080803573ffffffffffffffffffffffffffffffffffffffff169060200190929190505050610b43565b6040518084815260200183151515158152602001828152602001935050505060405180910390f35b3480156102ea57600080fd5b506102f3610cec565b604051808681526020018581526020018481526020018381526020018281526020019550505050505060405180910390f35b61032d610d12565b005b34801561033b57600080fd5b50610344610d14565b005b61034e6104ff565b005b34801561035c57600080fd5b50610391600480360381019080803573ffffffffffffffffffffffffffffffffffffffff169060200190929190505050610d16565b6040518084151515158152602001838152602001828152602001935050505060405180910390f35b3480156103c557600080fd5b50610436600480360381019080803560ff169060200190929190803573ffffffffffffffffffffffffffffffffffffffff16906020019092919080359060200190820180359060200191909192939192939080359060200190929190803560ff16906020019092919050505061108f565b005b34801561044457600080fd5b5061044d6116a8565b604051808215151515815260200191505060405180910390f35b34801561047357600080fd5b506104ca600480360381019080803573ffffffffffffffffffffffffffffffffffffffff169060200190929190803590602001908201803590602001919091929391929390803590602001909291905050506116b1565b005b3480156104d857600080fd5b506104e161191b565b60405180826000191660001916815260200191505060405180910390f35b6000336000600260008373ffffffffffffffffffffffffffffffffffffffff1673ffffffffffffffffffffffffffffffffffffffff1681526020019081526020016000209050600115158160030160019054906101000a900460ff161515146040805190810160405280601f81526020017f4552524f525f4149524c494e455f49535f4e4f545f524547495354455245440081525090151561063c576040517f08c379a00000000000000000000000000000000000000000000000000000000081526004018080602001828103825283818151815260200191508051906020019080838360005b838110156106015780820151818401526020810190506105e6565b50505050905090810190601f16801561062e5780820380516001836020036101000a031916815260200191505b509250505060405180910390fd5b50610645611954565b600260003373ffffffffffffffffffffffffffffffffffffffff1673ffffffffffffffffffffffffffffffffffffffff1681526020019081526020016000209250678ac7230489e8000083600401541015156106dd576106dc60405180807f524547495354524154494f4e5f524f4c45000000000000000000000000000000815250601101905060405180910390203360006119ac565b5b505050565b6000600260008373ffffffffffffffffffffffffffffffffffffffff1673ffffffffffffffffffffffffffffffffffffffff16815260200190815260200160002060030160009054906101000a900460ff169050919050565b600860009054906101000a900473ffffffffffffffffffffffffffffffffffffffff1673ffffffffffffffffffffffffffffffffffffffff163373ffffffffffffffffffffffffffffffffffffffff16146040805190810160405280601f81526020017f4552524f525f43414c4c45525f4e4f545f434f4e54524143545f4f574e45520081525090151561086a576040517f08c379a00000000000000000000000000000000000000000000000000000000081526004018080602001828103825283818151815260200191508051906020019080838360005b8381101561082f578082015181840152602081019050610814565b50505050905090810190601f16801561085c5780820380516001836020036101000a031916815260200191505b509250505060405180910390fd5b5080600060146101000a81548160ff02191690831515021790555050565b565b610892612599565b670de0b6b3a76400003410151515610912576040517f08c379a000000000000000000000000000000000000000000000000000000000815260040180806020018281038252601c8152602001807f526567697374726174696f6e206665652069732072657175697265640000000081525060200191505060405180910390fd5b61091b33611b4a565b9050604080519081016040528060011515815260200182815250600960003373ffffffffffffffffffffffffffffffffffffffff1673ffffffffffffffffffffffffffffffffffffffff16815260200190815260200160002060008201518160000160006101000a81548160ff0219169083151502179055506020820151816001019060036109ab9291906125bc565b5090505050565b565b6109bc612599565b600960003373ffffffffffffffffffffffffffffffffffffffff1673ffffffffffffffffffffffffffffffffffffffff16815260200190815260200160002060000160009054906101000a900460ff161515610a80576040517f08c379a000000000000000000000000000000000000000000000000000000000815260040180806020018281038252601b8152602001807f4e6f74207265676973746572656420617320616e206f7261636c65000000000081525060200191505060405180910390fd5b600960003373ffffffffffffffffffffffffffffffffffffffff1673ffffffffffffffffffffffffffffffffffffffff168152602001908152602001600020600101600380602002604051908101604052809291908260038015610b1f576020028201916000905b82829054906101000a900460ff1660ff1681526020019060010190602082600001049283019260010382029150808411610ae85790505b5050505050905090565b670de0b6b3a764000081565b600060046003541015905090565b6000806000808460011515600260008373ffffffffffffffffffffffffffffffffffffffff1673ffffffffffffffffffffffffffffffffffffffff16815260200190815260200160002060030160009054906101000a900460ff161515146040805190810160405280601a81526020017f4552524f525f4149524c494e455f4e4f545f454e4c4953544544000000000000815250901515610c7f576040517f08c379a00000000000000000000000000000000000000000000000000000000081526004018080602001828103825283818151815260200191508051906020019080838360005b83811015610c44578082015181840152602081019050610c29565b50505050905090810190601f168015610c715780820380516001836020036101000a031916815260200191505b509250505060405180910390fd5b50600260008773ffffffffffffffffffffffffffffffffffffffff1673ffffffffffffffffffffffffffffffffffffffff1681526020019081526020016000209150816001015494508160030160019054906101000a900460ff1693508160040154925050509193909250565b600080600080600060035494506004549350600492506032915060015490509091929394565b565b565b600080600080610d5d60405180807f524547495354524154494f4e5f524f4c4500000000000000000000000000000081525060110190506040518091039020336000611cf0565b606060405190810160405280602581526020017f4552524f525f4d495353494e475f524547495354524154494f4e5f5045524d4981526020017f5353494f4e000000000000000000000000000000000000000000000000000000815250901515610e62576040517f08c379a00000000000000000000000000000000000000000000000000000000081526004018080602001828103825283818151815260200191508051906020019080838360005b83811015610e27578082015181840152602081019050610e0c565b50505050905090810190601f168015610e545780820380516001836020036101000a031916815260200191505b509250505060405180910390fd5b50846000600260008373ffffffffffffffffffffffffffffffffffffffff1673ffffffffffffffffffffffffffffffffffffffff1681526020019081526020016000209050600015158160030160019054906101000a900460ff16151514606060405190810160405280602381526020017f4552524f525f4149524c494e455f49535f414c52454144595f5245474953544581526020017f5245440000000000000000000000000000000000000000000000000000000000815250901515610fc5576040517f08c379a00000000000000000000000000000000000000000000000000000000081526004018080602001828103825283818151815260200191508051906020019080838360005b83811015610f8a578082015181840152602081019050610f6f565b50505050905090810190601f168015610fb75780820380516001836020036101000a031916815260200191505b509250505060405180910390fd5b50600260008873ffffffffffffffffffffffffffffffffffffffff1673ffffffffffffffffffffffffffffffffffffffff1681526020019081526020016000209250600015158360030160009054906101000a900460ff16151514156110685761102e87611d33565b92506000151561103c610b35565b151514156110675761104d83611f4e565b600195508583600101546000809050955095509550611085565b5b61107183611fbf565b955085836001015460008090509550955095505b5050509193909250565b60008660ff16600960003373ffffffffffffffffffffffffffffffffffffffff1673ffffffffffffffffffffffffffffffffffffffff16815260200190815260200160002060010160006003811015156110e557fe5b602091828204019190069054906101000a900460ff1660ff16148061117457508660ff16600960003373ffffffffffffffffffffffffffffffffffffffff1673ffffffffffffffffffffffffffffffffffffffff168152602001908152602001600020600101600160038110151561115957fe5b602091828204019190069054906101000a900460ff1660ff16145b806111e957508660ff16600960003373ffffffffffffffffffffffffffffffffffffffff1673ffffffffffffffffffffffffffffffffffffffff16815260200190815260200160002060010160026003811015156111ce57fe5b602091828204019190069054906101000a900460ff1660ff16145b1515611283576040517f08c379a00000000000000000000000000000000000000000000000000000000081526004018080602001828103825260238152602001807f496e64657820646f6573206e6f74206d61746368206f7261636c65207265717581526020017f657374000000000000000000000000000000000000000000000000000000000081525060400191505060405180910390fd5b8686868686604051602001808660ff1660ff167f01000000000000000000000000000000000000000000000000000000000000000281526001018573ffffffffffffffffffffffffffffffffffffffff1673ffffffffffffffffffffffffffffffffffffffff166c010000000000000000000000000281526014018484808284378201915050828152602001955050505050506040516020818303038152906040526040518082805190602001908083835b60208310151561135a5780518252602082019150602081019050602083039250611335565b6001836020036101000a03801982511681845116808217855250505050505090500191505060405180910390209050600a6000826000191660001916815260200190815260200160002060000160149054906101000a900460ff16151561144f576040517f08c379a000000000000000000000000000000000000000000000000000000000815260040180806020018281038252602f8152602001807f466c69676874206f722074696d657374616d7020646f206e6f74206d6174636881526020017f206f7261636c652072657175657374000000000000000000000000000000000081525060400191505060405180910390fd5b600a6000826000191660001916815260200190815260200160002060010160008360ff1660ff1681526020019081526020016000203390806001815401808255809150509060018203906000526020600020016000909192909190916101000a81548173ffffffffffffffffffffffffffffffffffffffff021916908373ffffffffffffffffffffffffffffffffffffffff160217905550507f43c853095c2752648493c88b4baac4d580d2594ffb00c6f1d4242d844514f7838686868686604051808673ffffffffffffffffffffffffffffffffffffffff1673ffffffffffffffffffffffffffffffffffffffff168152602001806020018481526020018360ff1660ff16815260200182810382528686828181526020019250808284378201915050965050505050505060405180910390a16003600a6000836000191660001916815260200190815260200160002060010160008460ff1660ff1681526020019081526020016000208054905010151561169f577fe23f5229de535c091e3b7bec2665f5d698192d3b31393066e8987b7a05076b6c8686868686604051808673ffffffffffffffffffffffffffffffffffffffff1673ffffffffffffffffffffffffffffffffffffffff168152602001806020018481526020018360ff1660ff16815260200182810382528686828181526020019250808284378201915050965050505050505060405180910390a161169e8686868080601f0160208091040260200160405190810160405280939291908181526020018383808284378201915050505050508585612218565b5b50505050505050565b60006001905090565b6000806116bd3361221e565b91508186868686604051602001808660ff1660ff167f01000000000000000000000000000000000000000000000000000000000000000281526001018573ffffffffffffffffffffffffffffffffffffffff1673ffffffffffffffffffffffffffffffffffffffff166c010000000000000000000000000281526014018484808284378201915050828152602001955050505050506040516020818303038152906040526040518082805190602001908083835b6020831015156117965780518252602082019150602081019050602083039250611771565b6001836020036101000a0380198251168184511680821785525050505050509050019150506040518091039020905060408051908101604052803373ffffffffffffffffffffffffffffffffffffffff16815260200160011515815250600a6000836000191660001916815260200190815260200160002060008201518160000160006101000a81548173ffffffffffffffffffffffffffffffffffffffff021916908373ffffffffffffffffffffffffffffffffffffffff16021790555060208201518160000160146101000a81548160ff0219169083151502179055509050507f3ed01f2c3fc24c6b329d931e35b03e390d23497d22b3f90e15b600343e93df118287878787604051808660ff1660ff1681526020018573ffffffffffffffffffffffffffffffffffffffff1673ffffffffffffffffffffffffffffffffffffffff1681526020018060200183815260200182810382528585828181526020019250808284378201915050965050505050505060405180910390a1505050505050565b60405180807f524547495354524154494f4e5f524f4c450000000000000000000000000000008152506011019050604051809103902081565b6000600260003373ffffffffffffffffffffffffffffffffffffffff1673ffffffffffffffffffffffffffffffffffffffff168152602001908152602001600020905034816004016000828254019250508190555050565b6000806119b885612380565b91506001151560066000846000191660001916815260200190815260200160002060009054906101000a900460ff161515141515611a5e576040517f08c379a00000000000000000000000000000000000000000000000000000000081526004018080602001828103825260148152602001807f526f6c6520446f6573204e6f742045786973747300000000000000000000000081525060200191505060405180910390fd5b611a6984868561243b565b90506000151560076000836000191660001916815260200190815260200160002060009054906101000a900460ff161515141515611b0f576040517f08c379a00000000000000000000000000000000000000000000000000000000081526004018080602001828103825260198152602001807f5065726d697373696f6e20416c7265616479204578697374730000000000000081525060200191505060405180910390fd5b600160076000836000191660001916815260200190815260200160002060006101000a81548160ff0219169083151502179055505050505050565b611b52612599565b611b5a612599565b611b638361221e565b816000600381101515611b7257fe5b602002019060ff16908160ff1681525050806000600381101515611b9257fe5b6020020151816001600381101515611ba657fe5b602002019060ff16908160ff16815250505b806000600381101515611bc757fe5b602002015160ff16816001600381101515611bde57fe5b602002015160ff161415611c1a57611bf58361221e565b816001600381101515611c0457fe5b602002019060ff16908160ff1681525050611bb8565b806001600381101515611c2957fe5b6020020151816002600381101515611c3d57fe5b602002019060ff16908160ff16815250505b806000600381101515611c5e57fe5b602002015160ff16816002600381101515611c7557fe5b602002015160ff161480611cb45750806001600381101515611c9357fe5b602002015160ff16816002600381101515611caa57fe5b602002015160ff16145b15611ce757611cc28361221e565b816002600381101515611cd157fe5b602002019060ff16908160ff1681525050611c4f565b80915050919050565b600080611cfe84868561243b565b905060076000826000191660001916815260200190815260200160002060009054906101000a900460ff169150509392505050565b60008160001515600260008373ffffffffffffffffffffffffffffffffffffffff1673ffffffffffffffffffffffffffffffffffffffff16815260200190815260200160002060030160009054906101000a900460ff161515146040805190810160405280601e81526020017f4552524f525f4149524c494e455f414c52454144595f454e4c49535445440000815250901515611e6b576040517f08c379a00000000000000000000000000000000000000000000000000000000081526004018080602001828103825283818151815260200191508051906020019080838360005b83811015611e30578082015181840152602081019050611e15565b50505050905090810190601f168015611e5d5780820380516001836020036101000a031916815260200191505b509250505060405180910390fd5b50600260008473ffffffffffffffffffffffffffffffffffffffff1673ffffffffffffffffffffffffffffffffffffffff1681526020019081526020016000209150828260000160006101000a81548173ffffffffffffffffffffffffffffffffffffffff021916908373ffffffffffffffffffffffffffffffffffffffff1602179055506000826001018190555060008260030160016101000a81548160ff02191690831515021790555060018260030160006101000a81548160ff021916908315150217905550600160046000828254019250508190555081915050919050565b60018160030160016101000a81548160ff02191690831515021790555060016003600082825401925050819055506001600460008282540392505081905550611fb66064611fa8603260035461254b90919063ffffffff16565b61258390919063ffffffff16565b60018190555050565b6000338260000160009054906101000a900473ffffffffffffffffffffffffffffffffffffffff166000600260008373ffffffffffffffffffffffffffffffffffffffff1673ffffffffffffffffffffffffffffffffffffffff1681526020019081526020016000209050600015158160020160008573ffffffffffffffffffffffffffffffffffffffff1673ffffffffffffffffffffffffffffffffffffffff16815260200190815260200160002060009054906101000a900460ff16151514606060405190810160405280603081526020017f4552524f525f4149524c494e455f4841535f414c52454144595f564f5445445f81526020017f464f525f544849535f4149524c494e4500000000000000000000000000000000815250901515612185576040517f08c379a00000000000000000000000000000000000000000000000000000000081526004018080602001828103825283818151815260200191508051906020019080838360005b8381101561214a57808201518184015260208101905061212f565b50505050905090810190601f1680156121775780820380516001836020036101000a031916815260200191505b509250505060405180910390fd5b506001856001016000828254019250508190555060018560020160003373ffffffffffffffffffffffffffffffffffffffff1673ffffffffffffffffffffffffffffffffffffffff16815260200190815260200160002060006101000a81548160ff02191690831515021790555084600101546001541115156122105761220b85611f4e565b600193505b505050919050565b50505050565b6000806000600a91508160ff166008601481819054906101000a900460ff168092919060010191906101000a81548160ff021916908360ff16021790555060ff16430340856040516020018083600019166000191681526020018273ffffffffffffffffffffffffffffffffffffffff1673ffffffffffffffffffffffffffffffffffffffff166c01000000000000000000000000028152601401925050506040516020818303038152906040526040518082805190602001908083835b60208310151561230157805182526020820191506020810190506020830392506122dc565b6001836020036101000a03801982511681845116808217855250505050505090500191505060405180910390206001900481151561233b57fe5b06905060fa600860149054906101000a900460ff1660ff161115612376576000600860146101000a81548160ff021916908360ff1602179055505b8092505050919050565b60008160405160200180807f524f4c450000000000000000000000000000000000000000000000000000000081525060040182600019166000191681526020019150506040516020818303038152906040526040518082805190602001908083835b60208310151561240757805182526020820191506020810190506020830392506123e2565b6001836020036101000a03801982511681845116808217855250505050505090500191505060405180910390209050919050565b600083838360405160200180807f5045524d495353494f4e00000000000000000000000000000000000000000000815250600a018473ffffffffffffffffffffffffffffffffffffffff1673ffffffffffffffffffffffffffffffffffffffff166c010000000000000000000000000281526014018360001916600019168152602001826000191660001916815260200193505050506040516020818303038152906040526040518082805190602001908083835b60208310151561251557805182526020820191506020810190506020830392506124f0565b6001836020036101000a038019825116818451168082178552505050505050905001915050604051809103902090509392505050565b60008083141561255e576000905061257d565b818302905081838281151561256f57fe5b0414151561257957fe5b8090505b92915050565b6000818381151561259057fe5b04905092915050565b606060405190810160405280600390602082028038833980820191505090505090565b826003601f016020900481019282156126455791602002820160005b8382111561261657835183826101000a81548160ff021916908360ff16021790555092602001926001016020816000010492830192600103026125d8565b80156126435782816101000a81549060ff0219169055600101602081600001049283019260010302612616565b505b5090506126529190612656565b5090565b61268391905b8082111561267f57600081816101000a81549060ff02191690555060010161265c565b5090565b905600a165627a7a72305820d1c3e1c6d80ee6ab60d057e7aa8f86a9a25183280d50e5f33700ae4b6314e7980029",
  "source": "pragma solidity ^0.4.25;\n\n// It's important to avoid vulnerabilities due to numeric overflow bugs\n// OpenZeppelin's SafeMath library, when used correctly, protects agains such bugs\n// More info: https://www.nccgroup.trust/us/about-us/newsroom-and-events/blog/2018/november/smart-contract-insecurity-bad-arithmetic/\n\nimport \"../node_modules/openzeppelin-solidity/contracts/math/SafeMath.sol\";\nimport \"./Accesscontrol.sol\";\nimport \"./flightSuretyData.sol\";\n/************************************************** */\n/* FlightSurety Smart Contract                      */\n/************************************************** */\ncontract FlightSuretyApp is FlightSuretyData, AccessControl {\n    using SafeMath for uint256; // Allow SafeMath functions to be called for all uint256 types (similar to \"prototype\" in Javascript)\n\n    /********************************************************************************************/\n    /*                                       DATA VARIABLES                                     */\n    /********************************************************************************************/\n\n    // Flight status codees\n    uint8 private constant STATUS_CODE_UNKNOWN = 0;\n    uint8 private constant STATUS_CODE_ON_TIME = 10;\n    uint8 private constant STATUS_CODE_LATE_AIRLINE = 20;\n    uint8 private constant STATUS_CODE_LATE_WEATHER = 30;\n    uint8 private constant STATUS_CODE_LATE_TECHNICAL = 40;\n    uint8 private constant STATUS_CODE_LATE_OTHER = 50;\n\n    string private constant ERROR_CONTRACT_NOT_OPERATIONAL = \"ERROR_CONTRACT_NOT_OPERATIONAL\";\n    string private constant ERROR_CALLER_NOT_CONTRACT_OWNER = \"ERROR_CALLER_NOT_CONTRACT_OWNER\";\n    string private constant ERROR_AIRLINE_IS_NOT_REGISTERED = \"ERROR_AIRLINE_IS_NOT_REGISTERED\";\n    string private constant ERROR_AIRLINE_IS_ALREADY_REGISTERED = \"ERROR_AIRLINE_IS_ALREADY_REGISTERED\";\n    string private constant ERROR_AIRLINE_ALREADY_VOTED = \"ERROR_AIRLINE_HAS_ALREADY_VOTED_FOR_THIS_AIRLINE\";\n\n\n    address private contractOwner;          // Account used to deploy contract\n\n    /********************************************************************************************/\n    /*                                       FUNCTION MODIFIERS                                 */\n    /********************************************************************************************/\n\n    // Modifiers help avoid duplication of code. They are typically used to validate something\n    // before a function is allowed to be executed.\n\n    /**\n    * @dev Modifier that requires the \"operational\" boolean variable to be \"true\"\n    *      This is used on all state changing functions to pause the contract in\n    *      the event there is an issue that needs to be fixed\n    */\n    modifier requireIsOperational()\n    {\n         // Modify to call data contract's status\n        require(true, ERROR_CONTRACT_NOT_OPERATIONAL);\n        _;  // All modifiers require an \"_\" which indicates where the function body will be added\n    }\n\n    modifier requireIsRegistered(address _airlineAddress)\n    {\n        Airline airline_ = airlines[_airlineAddress];\n        require(airline_.isRegistered == true, ERROR_AIRLINE_IS_NOT_REGISTERED);\n        _;\n    }\n\n    modifier requireNotRegistered(address _airlineAddress)\n    {\n        Airline airline_ = airlines[_airlineAddress];\n        require(airline_.isRegistered == false, ERROR_AIRLINE_IS_ALREADY_REGISTERED);\n        _;\n    }\n\n\n    /**\n    * @dev Modifier that requires the \"ContractOwner\" account to be the function caller\n    */\n    modifier requireContractOwner()\n    {\n        require(msg.sender == contractOwner, ERROR_CALLER_NOT_CONTRACT_OWNER);\n        _;\n    }\n\n\n\n    modifier requireNotYetVoted(address _voter, address _votingFor)\n    {\n        Airline airline_ = airlines[_votingFor];\n        require(airline_.votedBy[_voter] == false, ERROR_AIRLINE_ALREADY_VOTED);\n        _;\n    }\n\n    /********************************************************************************************/\n    /*                                       CONSTRUCTOR                                        */\n    /********************************************************************************************/\n\n    /**\n    * @dev Contract constructor\n    *\n    */\n    constructor() public\n    {\n        contractOwner = msg.sender;\n        Airline storage airline_ = addAirline(msg.sender);\n        incorporateAirline(airline_);\n    }\n\n    /********************************************************************************************/\n    /*                                       UTILITY FUNCTIONS                                  */\n    /********************************************************************************************/\n\n    function isOperational()\n                            public\n                            view\n                            returns(bool)\n    {\n        return true;  // Modify to call data contract's status\n    }\n\n    /********************************************************************************************/\n    /*                                     SMART CONTRACT FUNCTIONS                             */\n    /********************************************************************************************/\n\n\n   /**\n    * @dev Add an airline to the registration queue\n    *\n    */\n    function registerAirline(address _airlineAddress)\n                            public\n                            canRegister()\n                            requireNotRegistered(_airlineAddress)\n                            returns(bool success, uint256 votes, uint256 pendingVotes)\n    {\n        Airline storage airline_ = airlines[_airlineAddress];\n        if (airline_.exists == false) {\n            airline_ = addAirline(_airlineAddress);\n            if (hasQuorum() == false){\n                incorporateAirline(airline_);\n                success = true;\n                return (success, airline_.votes, 0);\n            }\n        }\n\n        success = vote(airline_);\n\n        return (success, airline_.votes, 0);\n    }\n\n    function incorporateAirline(Airline storage _airline)\n                            private\n    {\n        _airline.isRegistered = true;\n        registered += 1;\n        registrationQueue -= 1;\n        consensus = registered.mul(consensusPercentage).div(100);\n    }\n\n\n    function vote(Airline storage _airline)\n                            private\n                            requireNotYetVoted(msg.sender, _airline.id)\n                            returns(bool isRegistered_)\n    {\n        _airline.votes += 1;\n        _airline.votedBy[msg.sender] = true;\n        if (consensus <= _airline.votes){\n            incorporateAirline(_airline);\n            isRegistered_ = true;\n        }\n    }\n\n    /**\n    * @dev Initial funding for the insurance. Unless there are too many delayed flights\n    *      resulting in insurance payouts, the contract should be self-sustaining\n    *\n    */\n    function fund\n                            (\n                            )\n                            public\n                            requireIsRegistered(msg.sender)\n                            payable\n    {\n        contribute();\n        Airline storage airline_ = airlines[msg.sender];\n        if (airline_.contribution >= minimumContribution){\n            addPermission(REGISTRATION_ROLE, msg.sender, \"\");\n        }\n    }\n\n    /**\n    * @dev Fallback function for funding smart contract.\n    *\n    */\n    function()\n                            external\n                            payable\n    {\n        fund();\n    }\n\n   /**\n    * @dev Register a future flight for insuring.\n    *\n    */\n    function registerFlight\n                                (\n                                )\n                                external\n                                pure\n    {\n\n    }\n\n   /**\n    * @dev Called after oracle has updated flight status\n    *\n    */\n    function processFlightStatus\n    (\n        address         airline,\n        string memory   flight,\n        uint256         timestamp,\n        uint8           statusCode\n    )\n    internal\n    pure\n    {\n    }\n\n\n    // Generate a request for oracles to fetch flight information\n    function fetchFlightStatus\n    (\n        address     airline,\n        string      flight,\n        uint256     timestamp\n    )\n    external\n    {\n        uint8 index = getRandomIndex(msg.sender);\n\n        // Generate a unique key for storing the request\n        bytes32 key = keccak256(abi.encodePacked(index, airline, flight, timestamp));\n        oracleResponses[key] = ResponseInfo({requester: msg.sender, isOpen: true});\n\n        emit OracleRequest(index, airline, flight, timestamp);\n    }\n\n    function hasQuorum()  public view returns(bool hasQuorum_){\n        hasQuorum_ = registered >= quorum;\n    }\n\n    function fetchAirlinesSummary() public view returns\n    (\n        uint256     registered_,\n        uint256     registrationQueue_,\n        uint256     quorum_,\n        uint256     consensusPercentage_,\n        uint256     consensus_\n    )\n    {\n        registered_ = registered;\n        registrationQueue_ = registrationQueue;\n        quorum_ = quorum;\n        consensusPercentage_ = consensusPercentage;\n        consensus_ = consensus;\n    }\n\n    function fetchAirlineSummary(address _airlineAddress) public requireAirlineExist(_airlineAddress) view returns\n    (\n        uint256     votes_,\n        bool        isRegistered_,\n        uint256     contribution_\n    )\n    {\n        Airline storage airline_ = airlines[_airlineAddress];\n        votes_ = airline_.votes;\n        isRegistered_ = airline_.isRegistered;\n        contribution_ = airline_.contribution;\n    }\n\n// region ORACLE MANAGEMENT\n\n    // Incremented to add pseudo-randomness at various points\n    uint8 private nonce = 0;\n\n    // Fee to be paid when registering oracle\n    uint256 public constant REGISTRATION_FEE = 1 ether;\n\n    // Number of oracles that must respond for valid status\n    uint256 private constant MIN_RESPONSES = 3;\n\n\n    struct Oracle {\n        bool isRegistered;\n        uint8[3] indexes;\n    }\n\n    // Track all registered oracles\n    mapping(address => Oracle) private oracles;\n\n    // Model for responses from oracles\n    struct ResponseInfo {\n        address requester;                              // Account that requested status\n        bool isOpen;                                    // If open, oracle responses are accepted\n        mapping(uint8 => address[]) responses;          // Mapping key is the status code reported\n                                                        // This lets us group responses and identify\n                                                        // the response that majority of the oracles\n    }\n\n    // Track all oracle responses\n    // Key = hash(index, flight, timestamp)\n    mapping(bytes32 => ResponseInfo) private oracleResponses;\n\n    // Event fired each time an oracle submits a response\n    event FlightStatusInfo(address airline, string flight, uint256 timestamp, uint8 status);\n\n    event OracleReport(address airline, string flight, uint256 timestamp, uint8 status);\n\n    // Event fired when flight status request is submitted\n    // Oracles track this and if they have a matching index\n    // they fetch data and submit a response\n    event OracleRequest(uint8 index, address airline, string flight, uint256 timestamp);\n\n\n    // Register an oracle with the contract\n    function registerOracle\n                            (\n                            )\n                            external\n                            payable\n    {\n        // Require registration fee\n        require(msg.value >= REGISTRATION_FEE, \"Registration fee is required\");\n\n        uint8[3] memory indexes = generateIndexes(msg.sender);\n\n        oracles[msg.sender] = Oracle({\n                                        isRegistered: true,\n                                        indexes: indexes\n                                    });\n    }\n\n    function getMyIndexes\n                            (\n                            )\n                            view\n                            external\n                            returns(uint8[3])\n    {\n        require(oracles[msg.sender].isRegistered, \"Not registered as an oracle\");\n\n        return oracles[msg.sender].indexes;\n    }\n\n\n\n\n    // Called by oracle when a response is available to an outstanding request\n    // For the response to be accepted, there must be a pending request that is open\n    // and matches one of the three Indexes randomly assigned to the oracle at the\n    // time of registration (i.e. uninvited oracles are not welcome)\n    function submitOracleResponse\n                        (\n                            uint8 index,\n                            address airline,\n                            string flight,\n                            uint256 timestamp,\n                            uint8 statusCode\n                        )\n                        external\n    {\n        require((oracles[msg.sender].indexes[0] == index) || (oracles[msg.sender].indexes[1] == index) || (oracles[msg.sender].indexes[2] == index), \"Index does not match oracle request\");\n\n\n        bytes32 key = keccak256(abi.encodePacked(index, airline, flight, timestamp));\n        require(oracleResponses[key].isOpen, \"Flight or timestamp do not match oracle request\");\n\n        oracleResponses[key].responses[statusCode].push(msg.sender);\n\n        // Information isn't considered verified until at least MIN_RESPONSES\n        // oracles respond with the *** same *** information\n        emit OracleReport(airline, flight, timestamp, statusCode);\n        if (oracleResponses[key].responses[statusCode].length >= MIN_RESPONSES) {\n\n            emit FlightStatusInfo(airline, flight, timestamp, statusCode);\n\n            // Handle flight status as appropriate\n            processFlightStatus(airline, flight, timestamp, statusCode);\n        }\n    }\n\n\n    function getFlightKey\n                        (\n                            address airline,\n                            string flight,\n                            uint256 timestamp\n                        )\n                        pure\n                        internal\n                        returns(bytes32)\n    {\n        return keccak256(abi.encodePacked(airline, flight, timestamp));\n    }\n\n    // Returns array of three non-duplicating integers from 0-9\n    function generateIndexes\n                            (\n                                address account\n                            )\n                            internal\n                            returns(uint8[3])\n    {\n        uint8[3] memory indexes;\n        indexes[0] = getRandomIndex(account);\n\n        indexes[1] = indexes[0];\n        while(indexes[1] == indexes[0]) {\n            indexes[1] = getRandomIndex(account);\n        }\n\n        indexes[2] = indexes[1];\n        while((indexes[2] == indexes[0]) || (indexes[2] == indexes[1])) {\n            indexes[2] = getRandomIndex(account);\n        }\n\n        return indexes;\n    }\n\n    // Returns array of three non-duplicating integers from 0-9\n    function getRandomIndex\n                            (\n                                address account\n                            )\n                            internal\n                            returns (uint8)\n    {\n        uint8 maxValue = 10;\n\n        // Pseudo random number...the incrementing nonce adds variation\n        uint8 random = uint8(uint256(keccak256(abi.encodePacked(blockhash(block.number - nonce++), account))) % maxValue);\n\n        if (nonce > 250) {\n            nonce = 0;  // Can only fetch blockhashes for last 256 blocks so we adapt\n        }\n\n        return random;\n    }\n\n// endregion\n\n}\n",
  "sourcePath": "/Users/Tony/Documents/Udacity/BlockchainNanoDegree/flightsurety/contracts/FlightSuretyApp.sol",
  "compiler": {
    "name": "solc",
    "version": "0.4.25+commit.59dbf8f1.Emscripten.clang"
  },
  "schemaVersion": "2.0.1",
  "updatedAt": "2019-03-09T05:02:52.399Z"
}