{
  "contractName": "FlightSuretyApp",
  "abi": [
    {
      "constant": true,
      "inputs": [],
      "name": "AIRLINE_REGISTRATION_ROLE",
      "outputs": [
        {
          "name": "",
          "type": "bytes32"
        }
      ],
      "payable": false,
      "stateMutability": "view",
      "type": "function"
    },
    {
      "constant": true,
      "inputs": [
        {
          "name": "_who",
          "type": "address"
        }
      ],
      "name": "isAirline",
      "outputs": [
        {
          "name": "",
          "type": "bool"
        }
      ],
      "payable": false,
      "stateMutability": "view",
      "type": "function"
    },
    {
      "constant": false,
      "inputs": [
        {
          "name": "mode",
          "type": "bool"
        }
      ],
      "name": "setOperatingStatus",
      "outputs": [],
      "payable": false,
      "stateMutability": "nonpayable",
      "type": "function"
    },
    {
      "constant": true,
      "inputs": [
        {
          "name": "_airline",
          "type": "address"
        },
        {
          "name": "_flight",
          "type": "string"
        },
        {
          "name": "_date",
          "type": "uint256"
        }
      ],
      "name": "isFlightRegistered",
      "outputs": [
        {
          "name": "",
          "type": "bool"
        }
      ],
      "payable": false,
      "stateMutability": "view",
      "type": "function"
    },
    {
      "constant": true,
      "inputs": [],
      "name": "REGISTRATION_FEE",
      "outputs": [
        {
          "name": "",
          "type": "uint256"
        }
      ],
      "payable": false,
      "stateMutability": "view",
      "type": "function"
    },
    {
      "constant": true,
      "inputs": [
        {
          "name": "flightId",
          "type": "bytes32"
        },
        {
          "name": "ticketNumber",
          "type": "string"
        }
      ],
      "name": "getPolicyKey",
      "outputs": [
        {
          "name": "",
          "type": "bytes32"
        }
      ],
      "payable": false,
      "stateMutability": "pure",
      "type": "function"
    },
    {
      "constant": false,
      "inputs": [
        {
          "name": "_policyId",
          "type": "bytes32"
        }
      ],
      "name": "pay",
      "outputs": [],
      "payable": false,
      "stateMutability": "nonpayable",
      "type": "function"
    },
    {
      "constant": true,
      "inputs": [],
      "name": "CLAIMS_PAYOUT_ROLE",
      "outputs": [
        {
          "name": "",
          "type": "bytes32"
        }
      ],
      "payable": false,
      "stateMutability": "view",
      "type": "function"
    },
    {
      "constant": true,
      "inputs": [],
      "name": "FLIGHT_REGISTRATION_ROLE",
      "outputs": [
        {
          "name": "",
          "type": "bytes32"
        }
      ],
      "payable": false,
      "stateMutability": "view",
      "type": "function"
    },
    {
      "constant": true,
      "inputs": [
        {
          "name": "airline",
          "type": "address"
        },
        {
          "name": "flight",
          "type": "string"
        },
        {
          "name": "date",
          "type": "uint256"
        }
      ],
      "name": "getFlightKey",
      "outputs": [
        {
          "name": "",
          "type": "bytes32"
        }
      ],
      "payable": false,
      "stateMutability": "pure",
      "type": "function"
    },
    {
      "constant": false,
      "inputs": [
        {
          "name": "_flightId",
          "type": "bytes32"
        },
        {
          "name": "_ticketNumber",
          "type": "string"
        }
      ],
      "name": "buy",
      "outputs": [],
      "payable": true,
      "stateMutability": "payable",
      "type": "function"
    },
    {
      "inputs": [],
      "payable": false,
      "stateMutability": "nonpayable",
      "type": "constructor"
    },
    {
      "payable": true,
      "stateMutability": "payable",
      "type": "fallback"
    },
    {
      "anonymous": false,
      "inputs": [
        {
          "indexed": false,
          "name": "policy",
          "type": "bytes32"
        }
      ],
      "name": "creditingInsuree",
      "type": "event"
    },
    {
      "anonymous": false,
      "inputs": [
        {
          "indexed": false,
          "name": "airline",
          "type": "address"
        },
        {
          "indexed": false,
          "name": "flight",
          "type": "string"
        },
        {
          "indexed": false,
          "name": "date",
          "type": "uint256"
        },
        {
          "indexed": false,
          "name": "timestamp",
          "type": "uint256"
        },
        {
          "indexed": false,
          "name": "status",
          "type": "uint8"
        }
      ],
      "name": "FlightStatusInfo",
      "type": "event"
    },
    {
      "anonymous": false,
      "inputs": [
        {
          "indexed": false,
          "name": "airline",
          "type": "address"
        },
        {
          "indexed": false,
          "name": "flight",
          "type": "string"
        },
        {
          "indexed": false,
          "name": "date",
          "type": "uint256"
        },
        {
          "indexed": false,
          "name": "timestamp",
          "type": "uint256"
        },
        {
          "indexed": false,
          "name": "status",
          "type": "uint8"
        }
      ],
      "name": "OracleReport",
      "type": "event"
    },
    {
      "anonymous": false,
      "inputs": [
        {
          "indexed": false,
          "name": "index",
          "type": "uint32"
        },
        {
          "indexed": false,
          "name": "airline",
          "type": "address"
        },
        {
          "indexed": false,
          "name": "flight",
          "type": "string"
        },
        {
          "indexed": false,
          "name": "date",
          "type": "uint256"
        },
        {
          "indexed": false,
          "name": "timestamp",
          "type": "uint256"
        }
      ],
      "name": "OracleRequest",
      "type": "event"
    },
    {
      "constant": true,
      "inputs": [],
      "name": "isOperational",
      "outputs": [
        {
          "name": "",
          "type": "bool"
        }
      ],
      "payable": false,
      "stateMutability": "view",
      "type": "function"
    },
    {
      "constant": false,
      "inputs": [
        {
          "name": "_airlineAddress",
          "type": "address"
        }
      ],
      "name": "registerAirline",
      "outputs": [
        {
          "name": "success",
          "type": "bool"
        },
        {
          "name": "votes",
          "type": "uint256"
        },
        {
          "name": "pendingVotes",
          "type": "uint256"
        }
      ],
      "payable": false,
      "stateMutability": "nonpayable",
      "type": "function"
    },
    {
      "constant": false,
      "inputs": [
        {
          "name": "_airline",
          "type": "address"
        },
        {
          "name": "_flight",
          "type": "string"
        },
        {
          "name": "_date",
          "type": "uint256"
        }
      ],
      "name": "registerFlight",
      "outputs": [
        {
          "name": "success",
          "type": "bool"
        },
        {
          "name": "votes",
          "type": "uint256"
        },
        {
          "name": "pendingVotes",
          "type": "uint256"
        }
      ],
      "payable": false,
      "stateMutability": "nonpayable",
      "type": "function"
    },
    {
      "constant": false,
      "inputs": [],
      "name": "fund",
      "outputs": [],
      "payable": true,
      "stateMutability": "payable",
      "type": "function"
    },
    {
      "constant": false,
      "inputs": [
        {
          "name": "_flightId",
          "type": "bytes32"
        }
      ],
      "name": "creditInsurees",
      "outputs": [],
      "payable": false,
      "stateMutability": "nonpayable",
      "type": "function"
    },
    {
      "constant": false,
      "inputs": [
        {
          "name": "_airline",
          "type": "address"
        },
        {
          "name": "_flight",
          "type": "string"
        },
        {
          "name": "_date",
          "type": "uint256"
        },
        {
          "name": "_timestamp",
          "type": "uint256"
        }
      ],
      "name": "fetchFlightStatus",
      "outputs": [],
      "payable": false,
      "stateMutability": "nonpayable",
      "type": "function"
    },
    {
      "constant": true,
      "inputs": [],
      "name": "hasQuorum",
      "outputs": [
        {
          "name": "hasQuorum_",
          "type": "bool"
        }
      ],
      "payable": false,
      "stateMutability": "view",
      "type": "function"
    },
    {
      "constant": true,
      "inputs": [],
      "name": "fetchAirlinesSummary",
      "outputs": [
        {
          "name": "registered_",
          "type": "uint256"
        },
        {
          "name": "registrationQueue_",
          "type": "uint256"
        },
        {
          "name": "quorum_",
          "type": "uint256"
        },
        {
          "name": "consensusPercentage_",
          "type": "uint256"
        },
        {
          "name": "consensus_",
          "type": "uint256"
        }
      ],
      "payable": false,
      "stateMutability": "view",
      "type": "function"
    },
    {
      "constant": true,
      "inputs": [
        {
          "name": "_airlineAddress",
          "type": "address"
        }
      ],
      "name": "fetchAirlineSummary",
      "outputs": [
        {
          "name": "votes_",
          "type": "uint256"
        },
        {
          "name": "isRegistered_",
          "type": "bool"
        },
        {
          "name": "contribution_",
          "type": "uint256"
        }
      ],
      "payable": false,
      "stateMutability": "view",
      "type": "function"
    },
    {
      "constant": true,
      "inputs": [
        {
          "name": "_flightId",
          "type": "bytes32"
        }
      ],
      "name": "fetchFlightSummary",
      "outputs": [
        {
          "name": "Id_",
          "type": "bytes32"
        },
        {
          "name": "airline_",
          "type": "address"
        },
        {
          "name": "flightNumber_",
          "type": "string"
        },
        {
          "name": "date_",
          "type": "uint256"
        },
        {
          "name": "isRegistered_",
          "type": "bool"
        },
        {
          "name": "statusCode_",
          "type": "uint8"
        },
        {
          "name": "updatedTimestamp_",
          "type": "uint256"
        },
        {
          "name": "votes_",
          "type": "uint256"
        },
        {
          "name": "canBeInsured_",
          "type": "bool"
        },
        {
          "name": "policyCount_",
          "type": "uint256"
        },
        {
          "name": "paidoutClaims_",
          "type": "bool"
        }
      ],
      "payable": false,
      "stateMutability": "view",
      "type": "function"
    },
    {
      "constant": true,
      "inputs": [
        {
          "name": "_policyId",
          "type": "bytes32"
        }
      ],
      "name": "fetchPolicySummary",
      "outputs": [
        {
          "name": "Id_",
          "type": "bytes32"
        },
        {
          "name": "insured_",
          "type": "address"
        },
        {
          "name": "ticketNumber_",
          "type": "string"
        },
        {
          "name": "flightId_",
          "type": "bytes32"
        },
        {
          "name": "premium_",
          "type": "uint256"
        },
        {
          "name": "payout_",
          "type": "uint256"
        },
        {
          "name": "isActive_",
          "type": "bool"
        },
        {
          "name": "isWithdrawn_",
          "type": "bool"
        }
      ],
      "payable": false,
      "stateMutability": "view",
      "type": "function"
    },
    {
      "constant": false,
      "inputs": [],
      "name": "registerOracle",
      "outputs": [],
      "payable": true,
      "stateMutability": "payable",
      "type": "function"
    },
    {
      "constant": true,
      "inputs": [],
      "name": "getMyIndexes",
      "outputs": [
        {
          "name": "",
          "type": "uint32[3]"
        }
      ],
      "payable": false,
      "stateMutability": "view",
      "type": "function"
    },
    {
      "constant": false,
      "inputs": [
        {
          "name": "_index",
          "type": "uint32"
        },
        {
          "name": "airline",
          "type": "address"
        },
        {
          "name": "flight",
          "type": "string"
        },
        {
          "name": "date",
          "type": "uint256"
        },
        {
          "name": "timestamp",
          "type": "uint256"
        },
        {
          "name": "statusCode",
          "type": "uint8"
        }
      ],
      "name": "submitOracleResponse",
      "outputs": [],
      "payable": false,
      "stateMutability": "nonpayable",
      "type": "function"
    }
  ],
  "bytecode": "0x60806040526001600060146101000a81548160ff02191690831515021790555060006001556000600e60006101000a81548160ff021916908360ff1602179055503480156200004d57600080fd5b506000336000806101000a81548173ffffffffffffffffffffffffffffffffffffffff021916908373ffffffffffffffffffffffffffffffffffffffff160217905550620000df60405180807f4149524c494e455f524547495354524154494f4e5f524f4c450000000000000081525060190190506040518091039020620001fb640100000000026401000000009004565b6200012e60405180807f464c494748545f524547495354524154494f4e5f524f4c45000000000000000081525060180190506040518091039020620001fb640100000000026401000000009004565b6200017d60405180807f434c41494d535f5041594f55545f524f4c45000000000000000000000000000081525060120190506040518091039020620001fb640100000000026401000000009004565b33600960006101000a81548173ffffffffffffffffffffffffffffffffffffffff021916908373ffffffffffffffffffffffffffffffffffffffff160217905550620001d833620002f6640100000000026401000000009004565b9050620001f48162000515640100000000026401000000009004565b50620006b6565b60006200021782620005a6640100000000026401000000009004565b90506000151560076000836000191660001916815260200190815260200160002060009054906101000a900460ff161515141515620002be576040517f08c379a00000000000000000000000000000000000000000000000000000000081526004018080602001828103825260138152602001807f526f6c6520416c7265616479204578697374730000000000000000000000000081525060200191505060405180910390fd5b600160076000836000191660001916815260200190815260200160002060006101000a81548160ff0219169083151502179055505050565b60008160001515600260008373ffffffffffffffffffffffffffffffffffffffff1673ffffffffffffffffffffffffffffffffffffffff16815260200190815260200160002060050160009054906101000a900460ff161515146040805190810160405280601e81526020017f4552524f525f4149524c494e455f414c52454144595f454e4c4953544544000081525090151562000432576040517f08c379a00000000000000000000000000000000000000000000000000000000081526004018080602001828103825283818151815260200191508051906020019080838360005b83811015620003f6578082015181840152602081019050620003d9565b50505050905090810190601f168015620004245780820380516001836020036101000a031916815260200191505b509250505060405180910390fd5b50600260008473ffffffffffffffffffffffffffffffffffffffff1673ffffffffffffffffffffffffffffffffffffffff1681526020019081526020016000209150828260000160006101000a81548173ffffffffffffffffffffffffffffffffffffffff021916908373ffffffffffffffffffffffffffffffffffffffff1602179055506000826001018190555060008260030160006101000a81548160ff02191690831515021790555060018260050160006101000a81548160ff021916908315150217905550600160046000828254019250508190555081915050919050565b60018160030160006101000a81548160ff021916908315150217905550600160036000828254019250508190555060016004600082825403925050819055506200059d6064620005806032600354620006636401000000000262004fa0179091906401000000009004565b6200069f6401000000000262004fd8179091906401000000009004565b60018190555050565b60008160405160200180807f524f4c450000000000000000000000000000000000000000000000000000000081525060040182600019166000191681526020019150506040516020818303038152906040526040518082805190602001908083835b6020831015156200062f578051825260208201915060208101905060208303925062000608565b6001836020036101000a03801982511681845116808217855250505050505090500191505060405180910390209050919050565b60008083141562000678576000905062000699565b81830290508183828115156200068a57fe5b041415156200069557fe5b8090505b92915050565b60008183811515620006ad57fe5b04905092915050565b61523880620006c66000396000f300608060405260043610610149576000357c0100000000000000000000000000000000000000000000000000000000900463ffffffff1680630c6d1af5146101535780630e248a1114610186578063110466ed146101e1578063241a53cb14610210578063339d2590146102bb5780633cc0be9c146102c557806349eb65801461037e5780635f1cc0e61461040a57806364b4f7511461045d57806377fa822414610488578063791fcd39146105be578063815b4d1b146106515780638609cad114610680578063865561f7146106b1578063969b30871461071a5780639a67c5931461074d578063a4595b4814610794578063b60d428814610803578063b841d47b1461080d578063bdfd98771461092c578063c28ffa9c14610995578063cc2f6eba146109c8578063cd905dff146109f9578063dfc0dff014610a28578063f983ec3014610ad7575b610151610b41565b005b34801561015f57600080fd5b50610168610da6565b60405180826000191660001916815260200191505060405180910390f35b34801561019257600080fd5b506101c7600480360381019080803573ffffffffffffffffffffffffffffffffffffffff169060200190929190505050610ddf565b604051808215151515815260200191505060405180910390f35b3480156101ed57600080fd5b5061020e600480360381019080803515159060200190929190505050610e38565b005b34801561021c57600080fd5b506102a1600480360381019080803573ffffffffffffffffffffffffffffffffffffffff169060200190929190803590602001908201803590602001908080601f016020809104026020016040519081016040528093929190818152602001838380828437820191505050505050919291929080359060200190929190505050610f85565b604051808215151515815260200191505060405180910390f35b6102c3610fcb565b005b3480156102d157600080fd5b50610356600480360381019080803573ffffffffffffffffffffffffffffffffffffffff169060200190929190803590602001908201803590602001908080601f0160208091040260200160405190810160405280939291908181526020018383808284378201915050505050509192919290803590602001909291905050506110f3565b6040518084151515158152602001838152602001828152602001935050505060405180910390f35b34801561038a57600080fd5b50610408600480360381019080803563ffffffff169060200190929190803573ffffffffffffffffffffffffffffffffffffffff1690602001909291908035906020019082018035906020019190919293919293908035906020019092919080359060200190929190803560ff1690602001909291905050506114cd565b005b34801561041657600080fd5b5061041f611b27565b6040518082600360200280838360005b8381101561044a57808201518184015260208101905061042f565b5050505090500191505060405180910390f35b34801561046957600080fd5b50610472611ca2565b6040518082815260200191505060405180910390f35b34801561049457600080fd5b506104b76004803603810190808035600019169060200190929190505050611cae565b604051808c600019166000191681526020018b73ffffffffffffffffffffffffffffffffffffffff1673ffffffffffffffffffffffffffffffffffffffff168152602001806020018a8152602001891515151581526020018860ff1660ff168152602001878152602001868152602001851515151581526020018481526020018315151515815260200182810382528b818151815260200191508051906020019080838360005b8381101561057957808201518184015260208101905061055e565b50505050905090810190601f1680156105a65780820380516001836020036101000a031916815260200191505b509c5050505050505050505050505060405180910390f35b3480156105ca57600080fd5b506106336004803603810190808035600019169060200190929190803590602001908201803590602001908080601f0160208091040260200160405190810160405280939291908181526020018383808284378201915050505050509192919290505050611f3b565b60405180826000191660001916815260200191505060405180910390f35b34801561065d57600080fd5b50610666612024565b604051808215151515815260200191505060405180910390f35b34801561068c57600080fd5b506106af6004803603810190808035600019169060200190929190505050612032565b005b3480156106bd57600080fd5b506106f2600480360381019080803573ffffffffffffffffffffffffffffffffffffffff1690602001909291905050506124bf565b6040518084815260200183151515158152602001828152602001935050505060405180910390f35b34801561072657600080fd5b5061072f612668565b60405180826000191660001916815260200191505060405180910390f35b34801561075957600080fd5b506107626126a1565b604051808681526020018581526020018481526020018381526020018281526020019550505050505060405180910390f35b3480156107a057600080fd5b50610801600480360381019080803573ffffffffffffffffffffffffffffffffffffffff16906020019092919080359060200190820180359060200191909192939192939080359060200190929190803590602001909291905050506126c7565b005b61080b610b41565b005b34801561081957600080fd5b5061083c6004803603810190808035600019169060200190929190505050612b21565b6040518089600019166000191681526020018873ffffffffffffffffffffffffffffffffffffffff1673ffffffffffffffffffffffffffffffffffffffff1681526020018060200187600019166000191681526020018681526020018581526020018415151515815260200183151515158152602001828103825288818151815260200191508051906020019080838360005b838110156108ea5780820151818401526020810190506108cf565b50505050905090810190601f1680156109175780820380516001836020036101000a031916815260200191505b50995050505050505050505060405180910390f35b34801561093857600080fd5b5061096d600480360381019080803573ffffffffffffffffffffffffffffffffffffffff169060200190929190505050612d76565b6040518084151515158152602001838152602001828152602001935050505060405180910390f35b3480156109a157600080fd5b506109aa6130ef565b60405180826000191660001916815260200191505060405180910390f35b3480156109d457600080fd5b506109f76004803603810190808035600019169060200190929190505050613128565b005b348015610a0557600080fd5b50610a0e61361e565b604051808215151515815260200191505060405180910390f35b348015610a3457600080fd5b50610ab9600480360381019080803573ffffffffffffffffffffffffffffffffffffffff169060200190929190803590602001908201803590602001908080601f016020809104026020016040519081016040528093929190818152602001838380828437820191505050505050919291929080359060200190929190505050613627565b60405180826000191660001916815260200191505060405180910390f35b610b3f6004803603810190808035600019169060200190929190803590602001908201803590602001908080601f016020809104026020016040519081016040528093929190818152602001838380828437820191505050505050919291929050505061374c565b005b6000336000600260008373ffffffffffffffffffffffffffffffffffffffff1673ffffffffffffffffffffffffffffffffffffffff1681526020019081526020016000209050600115158160030160009054906101000a900460ff161515146040805190810160405280601f81526020017f4552524f525f4149524c494e455f49535f4e4f545f5245474953544552454400815250901515610c7e576040517f08c379a00000000000000000000000000000000000000000000000000000000081526004018080602001828103825283818151815260200191508051906020019080838360005b83811015610c43578082015181840152602081019050610c28565b50505050905090810190601f168015610c705780820380516001836020036101000a031916815260200191505b509250505060405180910390fd5b50610c87613c46565b600260003373ffffffffffffffffffffffffffffffffffffffff1673ffffffffffffffffffffffffffffffffffffffff1681526020019081526020016000209250678ac7230489e800008360040154101515610da157610d1e60405180807f4149524c494e455f524547495354524154494f4e5f524f4c450000000000000081525060190190506040518091039020336000613c9e565b610d5f60405180807f464c494748545f524547495354524154494f4e5f524f4c45000000000000000081525060180190506040518091039020336000613c9e565b610da060405180807f434c41494d535f5041594f55545f524f4c45000000000000000000000000000081525060120190506040518091039020336000613c9e565b5b505050565b60405180807f4149524c494e455f524547495354524154494f4e5f524f4c45000000000000008152506019019050604051809103902081565b6000600260008373ffffffffffffffffffffffffffffffffffffffff1673ffffffffffffffffffffffffffffffffffffffff16815260200190815260200160002060050160009054906101000a900460ff169050919050565b600960009054906101000a900473ffffffffffffffffffffffffffffffffffffffff1673ffffffffffffffffffffffffffffffffffffffff163373ffffffffffffffffffffffffffffffffffffffff16146040805190810160405280601f81526020017f4552524f525f43414c4c45525f4e4f545f434f4e54524143545f4f574e455200815250901515610f67576040517f08c379a00000000000000000000000000000000000000000000000000000000081526004018080602001828103825283818151815260200191508051906020019080838360005b83811015610f2c578082015181840152602081019050610f11565b50505050905090810190601f168015610f595780820380516001836020036101000a031916815260200191505b509250505060405180910390fd5b5080600060146101000a81548160ff02191690831515021790555050565b600080610f93858585613627565b905060056000826000191660001916815260200190815260200160002060040160009054906101000a900460ff169150509392505050565b610fd3614fee565b670de0b6b3a76400003410151515611053576040517f08c379a000000000000000000000000000000000000000000000000000000000815260040180806020018281038252601c8152602001807f526567697374726174696f6e206665652069732072657175697265640000000081525060200191505060405180910390fd5b61105c33613e3c565b9050604080519081016040528060011515815260200182815250600f60003373ffffffffffffffffffffffffffffffffffffffff1673ffffffffffffffffffffffffffffffffffffffff16815260200190815260200160002060008201518160000160006101000a81548160ff0219169083151502179055506020820151816001019060036110ec929190615011565b5090505050565b600080600080600060011515611107612024565b1515146040805190810160405280600f81526020017f4552524f525f4e4f5f51554f52554d00000000000000000000000000000000008152509015156111e8576040517f08c379a00000000000000000000000000000000000000000000000000000000081526004018080602001828103825283818151815260200191508051906020019080838360005b838110156111ad578082015181840152602081019050611192565b50505050905090810190601f1680156111da5780820380516001836020036101000a031916815260200191505b509250505060405180910390fd5b5061122a60405180807f464c494748545f524547495354524154494f4e5f524f4c45000000000000000081525060180190506040518091039020336000614012565b606060405190810160405280602c81526020017f4552524f525f4d495353494e475f464c494748545f524547495354524154494f81526020017f4e5f5045524d495353494f4e000000000000000000000000000000000000000081525090151561132f576040517f08c379a00000000000000000000000000000000000000000000000000000000081526004018080602001828103825283818151815260200191508051906020019080838360005b838110156112f45780820151818401526020810190506112d9565b50505050905090810190601f1680156113215780820380516001836020036101000a031916815260200191505b509250505060405180910390fd5b5087878760001515611342848484610f85565b151514606060405190810160405280602281526020017f4552524f525f464c494748545f49535f414c52454144595f524547495354455281526020017f454400000000000000000000000000000000000000000000000000000000000081525090151561144a576040517f08c379a00000000000000000000000000000000000000000000000000000000081526004018080602001828103825283818151815260200191508051906020019080838360005b8381101561140f5780820151818401526020810190506113f4565b50505050905090810190601f16801561143c5780820380516001836020036101000a031916815260200191505b509250505060405180910390fd5b506114568b8b8b613627565b945060056000866000191660001916815260200190815260200160002093506000151584600b0160019054906101000a900460ff16151514156114a3576114a08b8b8b6000614055565b93505b6114ac846142c9565b97508784600601546000809050975097509750505050505093509350939050565b60008763ffffffff16600f60003373ffffffffffffffffffffffffffffffffffffffff1673ffffffffffffffffffffffffffffffffffffffff168152602001908152602001600020600101600060038110151561152657fe5b600891828204019190066004029054906101000a900463ffffffff1663ffffffff1614806115ca57508763ffffffff16600f60003373ffffffffffffffffffffffffffffffffffffffff1673ffffffffffffffffffffffffffffffffffffffff16815260200190815260200160002060010160016003811015156115a657fe5b600891828204019190066004029054906101000a900463ffffffff1663ffffffff16145b8061164b57508763ffffffff16600f60003373ffffffffffffffffffffffffffffffffffffffff1673ffffffffffffffffffffffffffffffffffffffff168152602001908152602001600020600101600260038110151561162757fe5b600891828204019190066004029054906101000a900463ffffffff1663ffffffff16145b15156116e5576040517f08c379a00000000000000000000000000000000000000000000000000000000081526004018080602001828103825260238152602001807f496e64657820646f6573206e6f74206d61746368206f7261636c65207265717581526020017f657374000000000000000000000000000000000000000000000000000000000081525060400191505060405180910390fd5b878787878787604051602001808763ffffffff1663ffffffff167c01000000000000000000000000000000000000000000000000000000000281526004018673ffffffffffffffffffffffffffffffffffffffff1673ffffffffffffffffffffffffffffffffffffffff166c01000000000000000000000000028152601401858580828437820191505083815260200182815260200196505050505050506040516020818303038152906040526040518082805190602001908083835b6020831015156117c757805182526020820191506020810190506020830392506117a2565b6001836020036101000a0380198251168184511680821785525050505050509050019150506040518091039020905060106000826000191660001916815260200190815260200160002060000160149054906101000a900460ff1615156118bc576040517f08c379a000000000000000000000000000000000000000000000000000000000815260040180806020018281038252602f8152602001807f466c69676874206f722074696d657374616d7020646f206e6f74206d6174636881526020017f206f7261636c652072657175657374000000000000000000000000000000000081525060400191505060405180910390fd5b60106000826000191660001916815260200190815260200160002060010160008360ff1660ff1681526020019081526020016000203390806001815401808255809150509060018203906000526020600020016000909192909190916101000a81548173ffffffffffffffffffffffffffffffffffffffff021916908373ffffffffffffffffffffffffffffffffffffffff160217905550507fabd78bf7e858d19599a8bfe8c79ea88cd6082929a3f768a19e670833ac29026d878787878787604051808773ffffffffffffffffffffffffffffffffffffffff1673ffffffffffffffffffffffffffffffffffffffff168152602001806020018581526020018481526020018360ff1660ff1681526020018281038252878782818152602001925080828437820191505097505050505050505060405180910390a1600360106000836000191660001916815260200190815260200160002060010160008460ff1660ff16815260200190815260200160002080549050101515611b1d577f42233d2b91f405ca7d0e77a5dffdcb8ccd9ddffee8b84f5d1f2fe8222c32aa43878787878787604051808773ffffffffffffffffffffffffffffffffffffffff1673ffffffffffffffffffffffffffffffffffffffff168152602001806020018581526020018481526020018360ff1660ff1681526020018281038252878782818152602001925080828437820191505097505050505050505060405180910390a1611b1c8787878080601f0160208091040260200160405190810160405280939291908181526020018383808284378201915050505050508686866144de565b5b5050505050505050565b611b2f614fee565b600f60003373ffffffffffffffffffffffffffffffffffffffff1673ffffffffffffffffffffffffffffffffffffffff16815260200190815260200160002060000160009054906101000a900460ff161515611bf3576040517f08c379a000000000000000000000000000000000000000000000000000000000815260040180806020018281038252601b8152602001807f4e6f74207265676973746572656420617320616e206f7261636c65000000000081525060200191505060405180910390fd5b600f60003373ffffffffffffffffffffffffffffffffffffffff1673ffffffffffffffffffffffffffffffffffffffff168152602001908152602001600020600101600380602002604051908101604052809291908260038015611c98576020028201916000905b82829054906101000a900463ffffffff1663ffffffff1681526020019060040190602082600301049283019260010382029150808411611c5b5790505b5050505050905090565b670de0b6b3a764000081565b600080606060008060008060008060008060008c60011515600560008360001916600019168152602001908152602001600020600b0160019054906101000a900460ff161515146040805190810160405280601981526020017f4552524f525f464c494748545f4e4f545f454e4c495354454400000000000000815250901515611dd3576040517f08c379a00000000000000000000000000000000000000000000000000000000081526004018080602001828103825283818151815260200191508051906020019080838360005b83811015611d98578082015181840152602081019050611d7d565b50505050905090810190601f168015611dc55780820380516001836020036101000a031916815260200191505b509250505060405180910390fd5b50600560008f60001916600019168152602001908152602001600020915081600001549c508160010160009054906101000a900473ffffffffffffffffffffffffffffffffffffffff169b50816002018054600181600116156101000203166002900480601f016020809104026020016040519081016040528092919081815260200182805460018160011615610100020316600290048015611eb75780601f10611e8c57610100808354040283529160200191611eb7565b820191906000526020600020905b815481529060010190602001808311611e9a57829003601f168201915b50505050509a50816003015499508160040160009054906101000a900460ff1698508160040160019054906101000a900460ff16975081600501549650816006015495508160070160009054906101000a900460ff16945081600a0154935081600b0160009054906101000a900460ff169250505091939597999b90929496989a50565b6000828260405160200180836000191660001916815260200182805190602001908083835b602083101515611f855780518252602082019150602081019050602083039250611f60565b6001836020036101000a038019825116818451168082178552505050505050905001925050506040516020818303038152906040526040518082805190602001908083835b602083101515611fef5780518252602082019150602081019050602083039250611fca565b6001836020036101000a0380198251168184511680821785525050505050509050019150506040518091039020905092915050565b600060046003541015905090565b600060066000836000191660001916815260200190815260200160002090508060060160029054906101000a900460ff166040805190810160405280601b81526020017f4552524f525f504f4c4943595f444f45535f4e4f545f45584953540000000000815250901515612141576040517f08c379a00000000000000000000000000000000000000000000000000000000081526004018080602001828103825283818151815260200191508051906020019080838360005b838110156121065780820151818401526020810190506120eb565b50505050905090810190601f1680156121335780820380516001836020036101000a031916815260200191505b509250505060405180910390fd5b503373ffffffffffffffffffffffffffffffffffffffff168160010160009054906101000a900473ffffffffffffffffffffffffffffffffffffffff1673ffffffffffffffffffffffffffffffffffffffff16146040805190810160405280601681526020017f4552524f525f4e4f545f504f4c4943595f4f574e455200000000000000000000815250901515612273576040517f08c379a00000000000000000000000000000000000000000000000000000000081526004018080602001828103825283818151815260200191508051906020019080838360005b8381101561223857808201518184015260208101905061221d565b50505050905090810190601f1680156122655780820380516001836020036101000a031916815260200191505b509250505060405180910390fd5b5060008160050154116040805190810160405280601a81526020017f4552524f525f504f4c4943595f4841535f4e4f5f5041594f555400000000000081525090151561235a576040517f08c379a00000000000000000000000000000000000000000000000000000000081526004018080602001828103825283818151815260200191508051906020019080838360005b8381101561231f578082015181840152602081019050612304565b50505050905090810190601f16801561234c5780820380516001836020036101000a031916815260200191505b509250505060405180910390fd5b50600015158160060160019054906101000a900460ff161515146040805190810160405280602081526020017f4552524f525f434c41494d5f49535f414c52454144595f57495448445241574e815250901515612452576040517f08c379a00000000000000000000000000000000000000000000000000000000081526004018080602001828103825283818151815260200191508051906020019080838360005b838110156124175780820151818401526020810190506123fc565b50505050905090810190601f1680156124445780820380516001836020036101000a031916815260200191505b509250505060405180910390fd5b5060018160060160016101000a81548160ff0219169083151502179055503373ffffffffffffffffffffffffffffffffffffffff166108fc82600501549081150290604051600060405180830381858888f193505050501580156124ba573d6000803e3d6000fd5b505050565b6000806000808460011515600260008373ffffffffffffffffffffffffffffffffffffffff1673ffffffffffffffffffffffffffffffffffffffff16815260200190815260200160002060050160009054906101000a900460ff161515146040805190810160405280601a81526020017f4552524f525f4149524c494e455f4e4f545f454e4c49535445440000000000008152509015156125fb576040517f08c379a00000000000000000000000000000000000000000000000000000000081526004018080602001828103825283818151815260200191508051906020019080838360005b838110156125c05780820151818401526020810190506125a5565b50505050905090810190601f1680156125ed5780820380516001836020036101000a031916815260200191505b509250505060405180910390fd5b50600260008773ffffffffffffffffffffffffffffffffffffffff1673ffffffffffffffffffffffffffffffffffffffff1681526020019081526020016000209150816001015494508160030160009054906101000a900460ff1693508160040154925050509193909250565b60405180807f434c41494d535f5041594f55545f524f4c4500000000000000000000000000008152506012019050604051809103902081565b600080600080600060035494506004549350600492506032915060015490509091929394565b60008060006127098888888080601f01602080910402602001604051908101604052809392919081815260200183838082843782019150505050505087613627565b925060011515600560008560001916600019168152602001908152602001600020600b0160019054906101000a900460ff161515146040805190810160405280601981526020017f4552524f525f464c494748545f4e4f545f454e4c49535445440000000000000081525090151561281c576040517f08c379a00000000000000000000000000000000000000000000000000000000081526004018080602001828103825283818151815260200191508051906020019080838360005b838110156127e15780820151818401526020810190506127c6565b50505050905090810190601f16801561280e5780820380516001836020036101000a031916815260200191505b509250505060405180910390fd5b506128263361453a565b9150818888888888604051602001808763ffffffff1663ffffffff167c01000000000000000000000000000000000000000000000000000000000281526004018673ffffffffffffffffffffffffffffffffffffffff1673ffffffffffffffffffffffffffffffffffffffff166c01000000000000000000000000028152601401858580828437820191505083815260200182815260200196505050505050506040516020818303038152906040526040518082805190602001908083835b60208310151561290a57805182526020820191506020810190506020830392506128e5565b6001836020036101000a0380198251168184511680821785525050505050509050019150506040518091039020905060408051908101604052803373ffffffffffffffffffffffffffffffffffffffff1681526020016001151581525060106000836000191660001916815260200190815260200160002060008201518160000160006101000a81548173ffffffffffffffffffffffffffffffffffffffff021916908373ffffffffffffffffffffffffffffffffffffffff16021790555060208201518160000160146101000a81548160ff0219169083151502179055509050507fafb0d223c70bba9cfdcac516cc0962cf450c1161fa00b6d8c92057eea0420e26828989898989604051808763ffffffff1663ffffffff1681526020018673ffffffffffffffffffffffffffffffffffffffff1673ffffffffffffffffffffffffffffffffffffffff168152602001806020018481526020018381526020018281038252868682818152602001925080828437820191505097505050505050505060405180910390a181600960146101000a81548163ffffffff021916908363ffffffff16021790555087600a60006101000a81548173ffffffffffffffffffffffffffffffffffffffff021916908373ffffffffffffffffffffffffffffffffffffffff1602179055508686600b9190612b089291906150b4565b5084600c8190555083600d819055505050505050505050565b6000806060600080600080600080896001151560066000836000191660001916815260200190815260200160002060060160029054906101000a900460ff161515146040805190810160405280601b81526020017f4552524f525f504f4c4943595f444f45535f4e4f545f45584953540000000000815250901515612c41576040517f08c379a00000000000000000000000000000000000000000000000000000000081526004018080602001828103825283818151815260200191508051906020019080838360005b83811015612c06578082015181840152602081019050612beb565b50505050905090810190601f168015612c335780820380516001836020036101000a031916815260200191505b509250505060405180910390fd5b50600660008c600019166000191681526020019081526020016000209150816000015499508160010160009054906101000a900473ffffffffffffffffffffffffffffffffffffffff169850816002018054600181600116156101000203166002900480601f016020809104026020016040519081016040528092919081815260200182805460018160011615610100020316600290048015612d255780601f10612cfa57610100808354040283529160200191612d25565b820191906000526020600020905b815481529060010190602001808311612d0857829003601f168201915b505050505097508160030154965081600401549550816005015494508160060160009054906101000a900460ff1693508160060160019054906101000a900460ff1692505050919395975091939597565b600080600080612dbd60405180807f4149524c494e455f524547495354524154494f4e5f524f4c450000000000000081525060190190506040518091039020336000614012565b606060405190810160405280602d81526020017f4552524f525f4d495353494e475f4149524c494e455f5245474953545241544981526020017f4f4e5f5045524d495353494f4e00000000000000000000000000000000000000815250901515612ec2576040517f08c379a00000000000000000000000000000000000000000000000000000000081526004018080602001828103825283818151815260200191508051906020019080838360005b83811015612e87578082015181840152602081019050612e6c565b50505050905090810190601f168015612eb45780820380516001836020036101000a031916815260200191505b509250505060405180910390fd5b50846000600260008373ffffffffffffffffffffffffffffffffffffffff1673ffffffffffffffffffffffffffffffffffffffff1681526020019081526020016000209050600015158160030160009054906101000a900460ff16151514606060405190810160405280602381526020017f4552524f525f4149524c494e455f49535f414c52454144595f5245474953544581526020017f5245440000000000000000000000000000000000000000000000000000000000815250901515613025576040517f08c379a00000000000000000000000000000000000000000000000000000000081526004018080602001828103825283818151815260200191508051906020019080838360005b83811015612fea578082015181840152602081019050612fcf565b50505050905090810190601f1680156130175780820380516001836020036101000a031916815260200191505b509250505060405180910390fd5b50600260008873ffffffffffffffffffffffffffffffffffffffff1673ffffffffffffffffffffffffffffffffffffffff1681526020019081526020016000209250600015158360050160009054906101000a900460ff16151514156130c85761308e876146a2565b92506000151561309c612024565b151514156130c7576130ad836148bd565b6001955085836001015460008090509550955095506130e5565b5b6130d18361492e565b955085836001015460008090509550955095505b5050509193909250565b60405180807f464c494748545f524547495354524154494f4e5f524f4c4500000000000000008152506018019050604051809103902081565b60008061316c60405180807f434c41494d535f5041594f55545f524f4c45000000000000000000000000000081525060120190506040518091039020336000614012565b6040805190810160405280602081526020017f4552524f525f4d495353494e475f434c41494d535f5041594f55545f524f4c4581525090151561324a576040517f08c379a00000000000000000000000000000000000000000000000000000000081526004018080602001828103825283818151815260200191508051906020019080838360005b8381101561320f5780820151818401526020810190506131f4565b50505050905090810190601f16801561323c5780820380516001836020036101000a031916815260200191505b509250505060405180910390fd5b508260011515600560008360001916600019168152602001908152602001600020600b0160019054906101000a900460ff161515146040805190810160405280601981526020017f4552524f525f464c494748545f4e4f545f454e4c49535445440000000000000081525090151561335d576040517f08c379a00000000000000000000000000000000000000000000000000000000081526004018080602001828103825283818151815260200191508051906020019080838360005b83811015613322578082015181840152602081019050613307565b50505050905090810190601f16801561334f5780820380516001836020036101000a031916815260200191505b509250505060405180910390fd5b506005600085600019166000191681526020019081526020016000209250600a8360040160019054906101000a900460ff1660ff16116040805190810160405280601981526020017f4552524f525f504f4c4943595f43414e4e4f545f434c41494d00000000000000815250901515613471576040517f08c379a00000000000000000000000000000000000000000000000000000000081526004018080602001828103825283818151815260200191508051906020019080838360005b8381101561343657808201518184015260208101905061341b565b50505050905090810190601f1680156134635780820380516001836020036101000a031916815260200191505b509250505060405180910390fd5b506000151583600b0160009054906101000a900460ff161515146040805190810160405280601c81526020017f4552524f525f414c52454144595f504149444f55545f434c41494d5300000000815250901515613569576040517f08c379a00000000000000000000000000000000000000000000000000000000081526004018080602001828103825283818151815260200191508051906020019080838360005b8381101561352e578082015181840152602081019050613513565b50505050905090810190601f16801561355b5780820380516001836020036101000a031916815260200191505b509250505060405180910390fd5b50600191505b82600a0154821115156135fb577f3d2054927eb0ecff3baa0d9851237dbdabb7991c487974f72d1bdfcb97ed46338360090160008481526020019081526020016000205460405180826000191660001916815260200191505060405180910390a16135ee83600901600084815260200190815260200160002054614b87565b818060010192505061356f565b600183600b0160006101000a81548160ff02191690831515021790555050505050565b60006001905090565b6000838383604051602001808473ffffffffffffffffffffffffffffffffffffffff1673ffffffffffffffffffffffffffffffffffffffff166c0100000000000000000000000002815260140183805190602001908083835b6020831015156136a55780518252602082019150602081019050602083039250613680565b6001836020036101000a03801982511681845116808217855250505050505090500182815260200193505050506040516020818303038152906040526040518082805190602001908083835b60208310151561371657805182526020820191506020810190506020830392506136f1565b6001836020036101000a038019825116818451168082178552505050505050905001915050604051809103902090509392505050565b6000806000808560006005600083600019166000191681526020019081526020016000209050600115158160070160009054906101000a900460ff161515146040805190810160405280601e81526020017f4552524f525f464c494748545f43414e4e4f545f42455f494e53555245440000815250901515613869576040517f08c379a00000000000000000000000000000000000000000000000000000000081526004018080602001828103825283818151815260200191508051906020019080838360005b8381101561382e578082015181840152602081019050613813565b50505050905090810190601f16801561385b5780820380516001836020036101000a031916815260200191505b509250505060405180910390fd5b50600034116040805190810160405280601981526020017f4552524f525f50555243484153455f56414c55455f49535f300000000000000081525090151561394c576040517f08c379a00000000000000000000000000000000000000000000000000000000081526004018080602001828103825283818151815260200191508051906020019080838360005b838110156139115780820151818401526020810190506138f6565b50505050905090810190601f16801561393e5780820380516001836020036101000a031916815260200191505b509250505060405180910390fd5b506139578888611f3b565b95506006600087600019166000191681526020019081526020016000209450670de0b6b3a76400008560040154106040805190810160405280601a81526020017f4552524f525f4d4158494d554d5f5052454d49554d5f50414944000000000000815250901515613a63576040517f08c379a00000000000000000000000000000000000000000000000000000000081526004018080602001828103825283818151815260200191508051906020019080838360005b83811015613a28578082015181840152602081019050613a0d565b50505050905090810190601f168015613a555780820380516001836020036101000a031916815260200191505b509250505060405180910390fd5b508460040154670de0b6b3a76400000393508585600001816000191690555086856002019080519060200190613a9a929190615134565b5087856003018160001916905550338560010160006101000a81548173ffffffffffffffffffffffffffffffffffffffff021916908373ffffffffffffffffffffffffffffffffffffffff16021790555083341115613b53578385600401600082825401925050819055503373ffffffffffffffffffffffffffffffffffffffff166108fc8534039081150290604051600060405180830381858888f19350505050158015613b4d573d6000803e3d6000fd5b50613b66565b3485600401600082825401925050819055505b6000856005018190555060008560060160006101000a81548160ff02191690831515021790555060008560060160016101000a81548160ff021916908315150217905550600015158560060160029054906101000a900460ff1615151415613c1f57600560008960001916600019168152602001908152602001600020925085836009016000600186600a0154018152602001908152602001600020816000191690555082600a01600081548092919060010191905055505b60018560060160026101000a81548160ff0219169083151502179055505050505050505050565b6000600260003373ffffffffffffffffffffffffffffffffffffffff1673ffffffffffffffffffffffffffffffffffffffff168152602001908152602001600020905034816004016000828254019250508190555050565b600080613caa85614db5565b91506001151560076000846000191660001916815260200190815260200160002060009054906101000a900460ff161515141515613d50576040517f08c379a00000000000000000000000000000000000000000000000000000000081526004018080602001828103825260148152602001807f526f6c6520446f6573204e6f742045786973747300000000000000000000000081525060200191505060405180910390fd5b613d5b848685614e70565b90506000151560086000836000191660001916815260200190815260200160002060009054906101000a900460ff161515141515613e01576040517f08c379a00000000000000000000000000000000000000000000000000000000081526004018080602001828103825260198152602001807f5065726d697373696f6e20416c7265616479204578697374730000000000000081525060200191505060405180910390fd5b600160086000836000191660001916815260200190815260200160002060006101000a81548160ff0219169083151502179055505050505050565b613e44614fee565b613e4c614fee565b613e558361453a565b816000600381101515613e6457fe5b602002019063ffffffff16908163ffffffff1681525050806000600381101515613e8a57fe5b6020020151816001600381101515613e9e57fe5b602002019063ffffffff16908163ffffffff16815250505b806000600381101515613ec557fe5b602002015163ffffffff16816001600381101515613edf57fe5b602002015163ffffffff161415613f2457613ef98361453a565b816001600381101515613f0857fe5b602002019063ffffffff16908163ffffffff1681525050613eb6565b806001600381101515613f3357fe5b6020020151816002600381101515613f4757fe5b602002019063ffffffff16908163ffffffff16815250505b806000600381101515613f6e57fe5b602002015163ffffffff16816002600381101515613f8857fe5b602002015163ffffffff161480613fd05750806001600381101515613fa957fe5b602002015163ffffffff16816002600381101515613fc357fe5b602002015163ffffffff16145b1561400957613fde8361453a565b816002600381101515613fed57fe5b602002019063ffffffff16908163ffffffff1681525050613f5f565b80915050919050565b600080614020848685614e70565b905060086000826000191660001916815260200190815260200160002060009054906101000a900460ff169150509392505050565b6000808560011515600260008373ffffffffffffffffffffffffffffffffffffffff1673ffffffffffffffffffffffffffffffffffffffff16815260200190815260200160002060050160009054906101000a900460ff161515146040805190810160405280601a81526020017f4552524f525f4149524c494e455f4e4f545f454e4c495354454400000000000081525090151561418e576040517f08c379a00000000000000000000000000000000000000000000000000000000081526004018080602001828103825283818151815260200191508051906020019080838360005b83811015614153578082015181840152602081019050614138565b50505050905090810190601f1680156141805780820380516001836020036101000a031916815260200191505b509250505060405180910390fd5b5061419a878787613627565b9150600560008360001916600019168152602001908152602001600020925081836000018160001916905550858360020190805190602001906141de929190615134565b50848360030181905550838360040160016101000a81548160ff021916908360ff16021790555060008360040160006101000a81548160ff021916908315150217905550868360010160006101000a81548173ffffffffffffffffffffffffffffffffffffffff021916908373ffffffffffffffffffffffffffffffffffffffff160217905550600183600b0160016101000a81548160ff02191690831515021790555060018360070160006101000a81548160ff021916908315150217905550600083600b0160006101000a81548160ff0219169083151502179055508292505050949350505050565b600033826000015460006005600083600019166000191681526020019081526020016000209050600015158160080160008573ffffffffffffffffffffffffffffffffffffffff1673ffffffffffffffffffffffffffffffffffffffff16815260200190815260200160002060009054906101000a900460ff16151514606060405190810160405280602f81526020017f4552524f525f4149524c494e455f4841535f414c52454144595f564f5445445f81526020017f464f525f544849535f464c49474854000000000000000000000000000000000081525090151561444b576040517f08c379a00000000000000000000000000000000000000000000000000000000081526004018080602001828103825283818151815260200191508051906020019080838360005b838110156144105780820151818401526020810190506143f5565b50505050905090810190601f16801561443d5780820380516001836020036101000a031916815260200191505b509250505060405180910390fd5b506001856006016000828254019250508190555060018560080160003373ffffffffffffffffffffffffffffffffffffffff1673ffffffffffffffffffffffffffffffffffffffff16815260200190815260200160002060006101000a81548160ff02191690831515021790555084600601546001541115156144d6576144d185614f80565b600193505b505050919050565b6000806144ec878787613627565b91506005600083600019166000191681526020019081526020016000209050828160040160016101000a81548160ff021916908360ff16021790555083816005018190555050505050505050565b6000806000600591508163ffffffff16600e600081819054906101000a900460ff168092919060010191906101000a81548160ff021916908360ff16021790555060ff16430340856040516020018083600019166000191681526020018273ffffffffffffffffffffffffffffffffffffffff1673ffffffffffffffffffffffffffffffffffffffff166c01000000000000000000000000028152601401925050506040516020818303038152906040526040518082805190602001908083835b60208310151561462057805182526020820191506020810190506020830392506145fb565b6001836020036101000a03801982511681845116808217855250505050505090500191505060405180910390206001900481151561465a57fe5b06905060fa600e60009054906101000a900460ff1660ff161115614695576000600e60006101000a81548160ff021916908360ff1602179055505b8060ff1692505050919050565b60008160001515600260008373ffffffffffffffffffffffffffffffffffffffff1673ffffffffffffffffffffffffffffffffffffffff16815260200190815260200160002060050160009054906101000a900460ff161515146040805190810160405280601e81526020017f4552524f525f4149524c494e455f414c52454144595f454e4c495354454400008152509015156147da576040517f08c379a00000000000000000000000000000000000000000000000000000000081526004018080602001828103825283818151815260200191508051906020019080838360005b8381101561479f578082015181840152602081019050614784565b50505050905090810190601f1680156147cc5780820380516001836020036101000a031916815260200191505b509250505060405180910390fd5b50600260008473ffffffffffffffffffffffffffffffffffffffff1673ffffffffffffffffffffffffffffffffffffffff1681526020019081526020016000209150828260000160006101000a81548173ffffffffffffffffffffffffffffffffffffffff021916908373ffffffffffffffffffffffffffffffffffffffff1602179055506000826001018190555060008260030160006101000a81548160ff02191690831515021790555060018260050160006101000a81548160ff021916908315150217905550600160046000828254019250508190555081915050919050565b60018160030160006101000a81548160ff0219169083151502179055506001600360008282540192505081905550600160046000828254039250508190555061492560646149176032600354614fa090919063ffffffff16565b614fd890919063ffffffff16565b60018190555050565b6000338260000160009054906101000a900473ffffffffffffffffffffffffffffffffffffffff166000600260008373ffffffffffffffffffffffffffffffffffffffff1673ffffffffffffffffffffffffffffffffffffffff1681526020019081526020016000209050600015158160020160008573ffffffffffffffffffffffffffffffffffffffff1673ffffffffffffffffffffffffffffffffffffffff16815260200190815260200160002060009054906101000a900460ff16151514606060405190810160405280603081526020017f4552524f525f4149524c494e455f4841535f414c52454144595f564f5445445f81526020017f464f525f544849535f4149524c494e4500000000000000000000000000000000815250901515614af4576040517f08c379a00000000000000000000000000000000000000000000000000000000081526004018080602001828103825283818151815260200191508051906020019080838360005b83811015614ab9578082015181840152602081019050614a9e565b50505050905090810190601f168015614ae65780820380516001836020036101000a031916815260200191505b509250505060405180910390fd5b506001856001016000828254019250508190555060018560020160003373ffffffffffffffffffffffffffffffffffffffff1673ffffffffffffffffffffffffffffffffffffffff16815260200190815260200160002060006101000a81548160ff0219169083151502179055508460010154600154111515614b7f57614b7a856148bd565b600193505b505050919050565b600060066000836000191660001916815260200190815260200160002090508060060160029054906101000a900460ff166040805190810160405280601b81526020017f4552524f525f504f4c4943595f444f45535f4e4f545f45584953540000000000815250901515614c96576040517f08c379a00000000000000000000000000000000000000000000000000000000081526004018080602001828103825283818151815260200191508051906020019080838360005b83811015614c5b578082015181840152602081019050614c40565b50505050905090810190601f168015614c885780820380516001836020036101000a031916815260200191505b509250505060405180910390fd5b5060008160050154146040805190810160405280601b81526020017f4552524f525f414c52454144595f504149444f55545f434c41494d0000000000815250901515614d7d576040517f08c379a00000000000000000000000000000000000000000000000000000000081526004018080602001828103825283818151815260200191508051906020019080838360005b83811015614d42578082015181840152602081019050614d27565b50505050905090810190601f168015614d6f5780820380516001836020036101000a031916815260200191505b509250505060405180910390fd5b50614da96002614d9b60038460040154614fa090919063ffffffff16565b614fd890919063ffffffff16565b81600501819055505050565b60008160405160200180807f524f4c450000000000000000000000000000000000000000000000000000000081525060040182600019166000191681526020019150506040516020818303038152906040526040518082805190602001908083835b602083101515614e3c5780518252602082019150602081019050602083039250614e17565b6001836020036101000a03801982511681845116808217855250505050505090500191505060405180910390209050919050565b600083838360405160200180807f5045524d495353494f4e00000000000000000000000000000000000000000000815250600a018473ffffffffffffffffffffffffffffffffffffffff1673ffffffffffffffffffffffffffffffffffffffff166c010000000000000000000000000281526014018360001916600019168152602001826000191660001916815260200193505050506040516020818303038152906040526040518082805190602001908083835b602083101515614f4a5780518252602082019150602081019050602083039250614f25565b6001836020036101000a038019825116818451168082178552505050505050905001915050604051809103902090509392505050565b60018160040160006101000a81548160ff02191690831515021790555050565b600080831415614fb35760009050614fd2565b8183029050818382811515614fc457fe5b04141515614fce57fe5b8090505b92915050565b60008183811515614fe557fe5b04905092915050565b606060405190810160405280600390602082028038833980820191505090505090565b8260036007016008900481019282156150a35791602002820160005b8382111561507157835183826101000a81548163ffffffff021916908363ffffffff160217905550926020019260040160208160030104928301926001030261502d565b80156150a15782816101000a81549063ffffffff0219169055600401602081600301049283019260010302615071565b505b5090506150b091906151b4565b5090565b828054600181600116156101000203166002900490600052602060002090601f016020900481019282601f106150f557803560ff1916838001178555615123565b82800160010185558215615123579182015b82811115615122578235825591602001919060010190615107565b5b50905061513091906151e7565b5090565b828054600181600116156101000203166002900490600052602060002090601f016020900481019282601f1061517557805160ff19168380011785556151a3565b828001600101855582156151a3579182015b828111156151a2578251825591602001919060010190615187565b5b5090506151b091906151e7565b5090565b6151e491905b808211156151e057600081816101000a81549063ffffffff0219169055506001016151ba565b5090565b90565b61520991905b808211156152055760008160009055506001016151ed565b5090565b905600a165627a7a7230582079603427c9086d0c3d2de975e86fd9bce21c31336342e26eb807bdb28243580b0029",
  "source": "pragma solidity ^0.4.25;\n\n// It's important to avoid vulnerabilities due to numeric overflow bugs\n// OpenZeppelin's SafeMath library, when used correctly, protects agains such bugs\n// More info: https://www.nccgroup.trust/us/about-us/newsroom-and-events/blog/2018/november/smart-contract-insecurity-bad-arithmetic/\n\nimport \"../node_modules/openzeppelin-solidity/contracts/math/SafeMath.sol\";\nimport \"./Accesscontrol.sol\";\nimport \"./flightSuretyData.sol\";\n/************************************************** */\n/* FlightSurety Smart Contract                      */\n/************************************************** */\ncontract FlightSuretyApp is FlightSuretyData, AccessControl {\n    using SafeMath for uint256; // Allow SafeMath functions to be called for all uint256 types (similar to \"prototype\" in Javascript)\n\n    /********************************************************************************************/\n    /*                                       DATA VARIABLES                                     */\n    /********************************************************************************************/\n    // Flight status codees\n    uint8 private constant STATUS_CODE_UNKNOWN = 0;\n    uint8 private constant STATUS_CODE_ON_TIME = 10;\n    uint8 private constant STATUS_CODE_LATE_AIRLINE = 20;\n    uint8 private constant STATUS_CODE_LATE_WEATHER = 30;\n    uint8 private constant STATUS_CODE_LATE_TECHNICAL = 40;\n    uint8 private constant STATUS_CODE_LATE_OTHER = 50;\n\n    string private constant ERROR_CONTRACT_NOT_OPERATIONAL = \"ERROR_CONTRACT_NOT_OPERATIONAL\";\n    string private constant ERROR_NO_QUORUM = \"ERROR_NO_QUORUM\";\n\n    string private constant ERROR_CALLER_NOT_CONTRACT_OWNER = \"ERROR_CALLER_NOT_CONTRACT_OWNER\";\n    string private constant ERROR_AIRLINE_IS_NOT_REGISTERED = \"ERROR_AIRLINE_IS_NOT_REGISTERED\";\n    string private constant ERROR_AIRLINE_IS_ALREADY_REGISTERED = \"ERROR_AIRLINE_IS_ALREADY_REGISTERED\";\n    string private constant ERROR_AIRLINE_ALREADY_VOTED_FOR_AIRLINE = \"ERROR_AIRLINE_HAS_ALREADY_VOTED_FOR_THIS_AIRLINE\";\n\n    string private constant ERROR_FLIGHT_IS_NOT_REGISTERED = \"ERROR_FLIGHT_IS_NOT_REGISTERED\";\n    string private constant ERROR_FLIGHT_IS_ALREADY_REGISTERED = \"ERROR_FLIGHT_IS_ALREADY_REGISTERED\";\n    string private constant ERROR_AIRLINE_ALREADY_VOTED_FOR_FLIGHT = \"ERROR_AIRLINE_HAS_ALREADY_VOTED_FOR_THIS_FLIGHT\";\n\n\n    address private contractOwner;          // Account used to deploy contract\n\n    /********************************************************************************************/\n    /*                                       FUNCTION MODIFIERS                                 */\n    /********************************************************************************************/\n\n    // Modifiers help avoid duplication of code. They are typically used to validate something\n    // before a function is allowed to be executed.\n\n    modifier requireHasQuorum()\n    {\n        require(hasQuorum() == true, ERROR_NO_QUORUM);\n        _;\n    }\n\n    /**\n    * @dev Modifier that requires the \"operational\" boolean variable to be \"true\"\n    *      This is used on all state changing functions to pause the contract in\n    *      the event there is an issue that needs to be fixed\n    */\n    modifier requireIsOperational()\n    {\n         // Modify to call data contract's status\n        require(true, ERROR_CONTRACT_NOT_OPERATIONAL);\n        _;  // All modifiers require an \"_\" which indicates where the function body will be added\n    }\n\n    modifier requireIsRegistered(address _airlineAddress)\n    {\n        Airline storage airline_ = airlines[_airlineAddress];\n        require(airline_.isRegistered == true, ERROR_AIRLINE_IS_NOT_REGISTERED);\n        _;\n    }\n\n    modifier requireNonRegisteredAirline(address _airlineAddress)\n    {\n        Airline storage airline_ = airlines[_airlineAddress];\n        require(airline_.isRegistered == false, ERROR_AIRLINE_IS_ALREADY_REGISTERED);\n        _;\n    }\n\n    modifier requireNonRegisteredFlight(\n        address     _airline,\n        string      _flight,\n        uint256     _date\n    )\n    {\n        require(isFlightRegistered(_airline, _flight, _date) == false, ERROR_FLIGHT_IS_ALREADY_REGISTERED);\n        _;\n    }\n\n\n    /**\n    * @dev Modifier that requires the \"ContractOwner\" account to be the function caller\n    */\n    modifier requireContractOwner()\n    {\n        require(msg.sender == contractOwner, ERROR_CALLER_NOT_CONTRACT_OWNER);\n        _;\n    }\n\n    modifier requireNotYetVotedAirlineXAirline(address _voter, address _votingFor)\n    {\n        Airline storage airline_ = airlines[_votingFor];\n        require(airline_.votedBy[_voter] == false, ERROR_AIRLINE_ALREADY_VOTED_FOR_AIRLINE);\n        _;\n    }\n\n    modifier requireNotYetVotedAirlineXFlight(address _voter, bytes32 _votingForFlightId)\n    {\n        Flight storage flight_ = flights[_votingForFlightId];\n        require(flight_.votedBy[_voter] == false, ERROR_AIRLINE_ALREADY_VOTED_FOR_FLIGHT);\n        _;\n    }\n\n    /********************************************************************************************/\n    /*                                       CONSTRUCTOR                                        */\n    /********************************************************************************************/\n\n    /**\n    * @dev Contract constructor\n    *\n    */\n    constructor() public\n    {\n        contractOwner = msg.sender;\n        Airline storage airline_ = addAirline(msg.sender);\n        incorporateAirline(airline_);\n    }\n\n    /********************************************************************************************/\n    /*                                       UTILITY FUNCTIONS                                  */\n    /********************************************************************************************/\n\n    function isOperational()\n                            public\n                            view\n                            returns(bool)\n    {\n        return true;  // Modify to call data contract's status\n    }\n\n    /********************************************************************************************/\n    /*                                     SMART CONTRACT FUNCTIONS                             */\n    /********************************************************************************************/\n\n\n   /**\n    * @dev Add an airline to the registration queue\n    *\n    */\n    function registerAirline(address _airlineAddress)\n                            public\n                            canRegisterAirline()\n                            requireNonRegisteredAirline(_airlineAddress)\n                            returns(bool success, uint256 votes, uint256 pendingVotes)\n    {\n        Airline storage airline_ = airlines[_airlineAddress];\n        if (airline_.exists == false) {\n            airline_ = addAirline(_airlineAddress);\n            if (hasQuorum() == false){\n                incorporateAirline(airline_);\n                success = true;\n                return (success, airline_.votes, 0);\n            }\n        }\n\n        success = voteAirlineXAirline(airline_);\n\n        return (success, airline_.votes, 0);\n    }\n\n    function incorporateAirline(Airline storage _airline)\n                            private\n    {\n        _airline.isRegistered = true;\n        registered += 1;\n        registrationQueue -= 1;\n        consensus = registered.mul(consensusPercentage).div(100);\n    }\n\n    function voteAirlineXAirline(Airline storage _airline)\n        private\n        requireNotYetVotedAirlineXAirline(msg.sender, _airline.id)\n        returns(bool isRegistered_)\n    {\n        _airline.votes += 1;\n        _airline.votedBy[msg.sender] = true;\n        if (consensus <= _airline.votes){\n            incorporateAirline(_airline);\n            isRegistered_ = true;\n        }\n    }\n\n    function registerFlight(\n        address     _airline,\n        string      _flight,\n        uint256     _date\n    )\n        public\n        requireHasQuorum()\n        canRegisterFlight()\n        requireNonRegisteredFlight(_airline, _flight, _date)\n        returns(bool success, uint256 votes, uint256 pendingVotes)\n    {\n        bytes32 flightId = getFlightKey(_airline, _flight, _date);\n        Flight storage flight_ = flights[flightId];\n        if (flight_.exists == false) {\n            flight_ = addFlight(_airline, _flight, _date, STATUS_CODE_UNKNOWN);\n        }\n\n        success = voteAirlineXFlight(flight_);\n\n        return (success, flight_.votes, 0);\n    }\n\n    function voteAirlineXFlight(Flight storage _flight)\n                            private\n                            requireNotYetVotedAirlineXFlight(msg.sender, _flight.Id)\n                            returns(bool isRegistered_)\n    {\n        _flight.votes += 1;\n        _flight.votedBy[msg.sender] = true;\n        if (consensus <= _flight.votes){\n            incorporateFlight(_flight);\n            isRegistered_ = true;\n        }\n    }\n\n    function incorporateFlight(Flight storage _flight)\n                            private\n    {\n        _flight.isRegistered = true;\n    }\n\n    /**\n    * @dev Initial funding for the insurance. Unless there are too many delayed flights\n    *      resulting in insurance payouts, the contract should be self-sustaining\n    *\n    */\n    function fund\n                            (\n                            )\n                            public\n                            requireIsRegistered(msg.sender)\n                            payable\n    {\n        contribute();\n        Airline storage airline_ = airlines[msg.sender];\n        if (airline_.contribution >= minimumContribution){\n            addPermission(AIRLINE_REGISTRATION_ROLE, msg.sender, \"\");\n            addPermission(FLIGHT_REGISTRATION_ROLE, msg.sender, \"\");\n            addPermission(CLAIMS_PAYOUT_ROLE, msg.sender, \"\");\n        }\n    }\n\n    event creditingInsuree(bytes32 policy);\n\n    /**\n    *  @dev Credits payouts to insurees\n    */\n    function creditInsurees\n    (\n        bytes32  _flightId\n    )\n    external\n    canPayoutClaims()\n    requireFlightExist(_flightId)\n    {\n\n        Flight storage flight_ = flights[_flightId];\n        require(flight_.statusCode > 10, ERROR_POLICY_CANNOT_CLAIM);\n        require(flight_.paidoutClaims == false, ERROR_ALREADY_PAIDOUT_CLAIMS);\n        for(uint i = 1 ; i <= flight_.policyCount; i++) {\n            emit creditingInsuree(flight_.policies[i]);\n            creditInsuree(flight_.policies[i]);\n        }\n        flight_.paidoutClaims = true;\n    }\n\n    /**\n    * @dev Fallback function for funding smart contract.\n    *\n    */\n    function()\n                            external\n                            payable\n    {\n        fund();\n    }\n\n\n   /**\n    * @dev Called after oracle has updated flight status\n    *\n    */\n    function processFlightStatus\n    (\n        address         _airline,\n        string memory   _flight,\n        uint256         _date,\n        uint256         _timestamp,\n        uint8           _statusCode\n    )\n    internal\n    {\n        bytes32 flightId = getFlightKey(_airline, _flight, _date);\n\n        Flight storage flight_ = flights[flightId];\n        flight_.statusCode = _statusCode;\n        flight_.updatedTimestamp = _timestamp;\n    }\n\n\n    uint32 testIndex;\n    address testAirline;\n    string testFlight;\n    uint256 testDate;\n    uint256 testTimestamp;\n\n    // Generate a request for oracles to fetch flight information\n    function fetchFlightStatus\n    (\n        address     _airline,\n        string      _flight,\n        uint256     _date,\n        uint256     _timestamp\n    )\n    external\n    {\n        bytes32 flightId = getFlightKey(_airline, _flight, _date);\n        require(flights[flightId].exists == true, ERROR_FLIGHT_NOT_ENLISTED);\n        uint32 index_ = getRandomIndex(msg.sender);\n\n        // Generate a unique key for storing the request\n        bytes32 key = keccak256(abi.encodePacked(index_, _airline, _flight, _date, _timestamp));\n        oracleResponses[key] = ResponseInfo({requester: msg.sender, isOpen: true});\n\n        emit OracleRequest(index_, _airline, _flight, _date, _timestamp);\n        testIndex = index_;\n        testAirline = _airline;\n        testFlight = _flight;\n        testDate = _date;\n        testTimestamp = _timestamp;\n    }\n\n    function hasQuorum()  public view returns(bool hasQuorum_){\n        hasQuorum_ = registered >= quorum;\n    }\n\n    function fetchAirlinesSummary() public view returns\n    (\n        uint256     registered_,\n        uint256     registrationQueue_,\n        uint256     quorum_,\n        uint256     consensusPercentage_,\n        uint256     consensus_\n    )\n    {\n        registered_ = registered;\n        registrationQueue_ = registrationQueue;\n        quorum_ = quorum;\n        consensusPercentage_ = consensusPercentage;\n        consensus_ = consensus;\n    }\n\n    function fetchAirlineSummary(address _airlineAddress) public requireAirlineExist(_airlineAddress) view returns\n    (\n        uint256     votes_,\n        bool        isRegistered_,\n        uint256     contribution_\n    )\n    {\n        Airline storage airline_ = airlines[_airlineAddress];\n        votes_ = airline_.votes;\n        isRegistered_ = airline_.isRegistered;\n        contribution_ = airline_.contribution;\n    }\n\n    function fetchFlightSummary(bytes32 _flightId)\n    public\n    requireFlightExist(_flightId)\n    view returns\n    (\n        bytes32     Id_,\n        address     airline_,\n        string      flightNumber_,\n        uint256     date_,\n        bool        isRegistered_,\n        uint8       statusCode_,\n        uint256     updatedTimestamp_,\n        uint256     votes_,\n        bool        canBeInsured_,\n        uint256     policyCount_,\n        bool        paidoutClaims_\n    )\n    {\n        Flight storage flight_ = flights[_flightId];\n        Id_ = flight_.Id;\n        airline_ = flight_.airline;\n        flightNumber_ = flight_.flightNumber;\n        date_ = flight_.date;\n        isRegistered_ = flight_.isRegistered;\n        statusCode_ = flight_.statusCode;\n        updatedTimestamp_ = flight_.updatedTimestamp;\n        votes_ = flight_.votes;\n        canBeInsured_ = flight_.canBeInsured;\n        policyCount_ = flight_.policyCount;\n        paidoutClaims_ = flight_.paidoutClaims;\n    }\n\n    function fetchPolicySummary(bytes32 _policyId)\n    public\n    requirePolicyExist(_policyId)\n    view returns\n    (\n        bytes32  Id_,\n        address  insured_,\n        string   ticketNumber_,\n        bytes32  flightId_,\n        uint256  premium_,\n        uint256  payout_,\n        bool     isActive_,\n        bool     isWithdrawn_\n    )\n    {\n        Policy storage policy_ = policies[_policyId];\n        Id_ = policy_.Id;\n        insured_ = policy_.insured;\n        ticketNumber_ = policy_.ticketNumber;\n        flightId_ = policy_.flightId;\n        premium_ = policy_.premium;\n        payout_ = policy_.payout;\n        isActive_ = policy_.isActive;\n        isWithdrawn_ = policy_.isWithdrawn;\n    }\n\n\n// region ORACLE MANAGEMENT\n\n    // Incremented to add pseudo-randomness at various points\n    uint8 private nonce = 0;\n\n    // Fee to be paid when registering oracle\n    uint256 public constant REGISTRATION_FEE = 1 ether;\n\n    // Number of oracles that must respond for valid status\n    uint256 private constant MIN_RESPONSES = 3;\n\n\n    struct Oracle {\n        bool isRegistered;\n        uint32[3] indexes;\n    }\n\n    // Track all registered oracles\n    mapping(address => Oracle) private oracles;\n\n    // Model for responses from oracles\n    struct ResponseInfo {\n        address requester;                              // Account that requested status\n        bool isOpen;                                    // If open, oracle responses are accepted\n        mapping(uint8 => address[]) responses;          // Mapping key is the status code reported\n                                                        // This lets us group responses and identify\n                                                        // the response that majority of the oracles\n    }\n\n    // Track all oracle responses\n    // Key = hash(index, flight, timestamp)\n    mapping(bytes32 => ResponseInfo) private oracleResponses;\n\n    // Event fired each time an oracle submits a response\n    event FlightStatusInfo(address airline, string flight, uint256 date, uint256 timestamp, uint8 status);\n\n    event OracleReport(address airline, string flight, uint256 date, uint256 timestamp, uint8 status);\n\n    // Event fired when flight status request is submitted\n    // Oracles track this and if they have a matching index\n    // they fetch data and submit a response\n    event OracleRequest(uint32 index, address airline, string flight, uint256 date, uint256 timestamp);\n\n    // Register an oracle with the contract\n    function registerOracle\n                            (\n                            )\n                            external\n                            payable\n    {\n        // Require registration fee\n        require(msg.value >= REGISTRATION_FEE, \"Registration fee is required\");\n\n        uint32[3] memory indexes = generateIndexes(msg.sender);\n\n        oracles[msg.sender] = Oracle({\n            isRegistered: true,\n            indexes: indexes\n        });\n    }\n\n    function getMyIndexes\n                            (\n                            )\n                            external\n                            view\n                            returns(uint32[3])\n    {\n        require(oracles[msg.sender].isRegistered, \"Not registered as an oracle\");\n\n        return oracles[msg.sender].indexes;\n    }\n\n    // Called by oracle when a response is available to an outstanding request\n    // For the response to be accepted, there must be a pending request that is open\n    // and matches one of the three Indexes randomly assigned to the oracle at the\n    // time of registration (i.e. uninvited oracles are not welcome)\n    function submitOracleResponse\n    (\n        uint32 _index,\n        address airline,\n        string flight,\n        uint256 date,\n        uint256 timestamp,\n        uint8 statusCode\n    )\n    external\n    {\n        require((oracles[msg.sender].indexes[0] == _index) || (oracles[msg.sender].indexes[1] == _index) || (oracles[msg.sender].indexes[2] == _index), \"Index does not match oracle request\");\n\n        bytes32 key = keccak256(abi.encodePacked(_index, airline, flight, date, timestamp));\n        require(oracleResponses[key].isOpen, \"Flight or timestamp do not match oracle request\");\n\n        oracleResponses[key].responses[statusCode].push(msg.sender);\n\n        // Information isn't considered verified until at least MIN_RESPONSES\n        // oracles respond with the *** same *** information\n        emit OracleReport(airline, flight, date, timestamp,  statusCode);\n        if (oracleResponses[key].responses[statusCode].length >= MIN_RESPONSES) {\n\n            emit FlightStatusInfo(airline, flight, date, timestamp, statusCode);\n\n            // Handle flight status as appropriate\n            processFlightStatus(airline, flight, date, timestamp, statusCode);\n        }\n    }\n\n\n\n    // Returns array of three non-duplicating integers from 0-9\n    function generateIndexes\n    (\n        address account\n    )\n    internal\n    returns(uint32[3])\n    {\n        uint32[3] memory indexes;\n        indexes[0] = getRandomIndex(account);\n\n        indexes[1] = indexes[0];\n        while(indexes[1] == indexes[0]) {\n            indexes[1] = getRandomIndex(account);\n        }\n\n        indexes[2] = indexes[1];\n        while((indexes[2] == indexes[0]) || (indexes[2] == indexes[1])) {\n            indexes[2] = getRandomIndex(account);\n        }\n\n        return indexes;\n    }\n\n    // Returns array of three non-duplicating integers from 0-9\n    function getRandomIndex\n    (\n        address account\n    )\n    internal\n    returns (uint32)\n    {\n        uint32 maxValue = 5;\n\n        // Pseudo random number...the incrementing nonce adds variation\n        uint8 random = uint8(uint256(keccak256(abi.encodePacked(blockhash(block.number - nonce++), account))) % maxValue);\n\n        if (nonce > 250) {\n            nonce = 0;  // Can only fetch blockhashes for last 256 blocks so we adapt\n        }\n\n        return random;\n    }\n\n// endregion\n\n}\n",
  "sourcePath": "/Users/Tony/Documents/Projects2018/BlockChain/flightSurety/contracts/FlightSuretyApp.sol",
  "compiler": {
    "name": "solc",
    "version": "0.4.25+commit.59dbf8f1.Emscripten.clang"
  },
  "schemaVersion": "2.0.1",
  "updatedAt": "2019-03-23T22:03:03.914Z"
}