{
  "contractName": "FlightSuretyApp",
  "abi": [
    {
      "constant": true,
      "inputs": [],
      "name": "AIRLINE_REGISTRATION_ROLE",
      "outputs": [
        {
          "name": "",
          "type": "bytes32"
        }
      ],
      "payable": false,
      "stateMutability": "view",
      "type": "function"
    },
    {
      "constant": true,
      "inputs": [
        {
          "name": "_who",
          "type": "address"
        }
      ],
      "name": "isAirline",
      "outputs": [
        {
          "name": "",
          "type": "bool"
        }
      ],
      "payable": false,
      "stateMutability": "view",
      "type": "function"
    },
    {
      "constant": false,
      "inputs": [
        {
          "name": "mode",
          "type": "bool"
        }
      ],
      "name": "setOperatingStatus",
      "outputs": [],
      "payable": false,
      "stateMutability": "nonpayable",
      "type": "function"
    },
    {
      "constant": false,
      "inputs": [],
      "name": "incorporateOwner",
      "outputs": [],
      "payable": false,
      "stateMutability": "nonpayable",
      "type": "function"
    },
    {
      "constant": true,
      "inputs": [
        {
          "name": "_airline",
          "type": "address"
        },
        {
          "name": "_flight",
          "type": "string"
        },
        {
          "name": "_date",
          "type": "uint256"
        }
      ],
      "name": "isFlightRegistered",
      "outputs": [
        {
          "name": "",
          "type": "bool"
        }
      ],
      "payable": false,
      "stateMutability": "view",
      "type": "function"
    },
    {
      "constant": false,
      "inputs": [
        {
          "name": "_airline",
          "type": "address"
        },
        {
          "name": "_flight",
          "type": "string"
        },
        {
          "name": "_date",
          "type": "uint256"
        }
      ],
      "name": "registerFlight",
      "outputs": [
        {
          "name": "success",
          "type": "bool"
        },
        {
          "name": "votes",
          "type": "uint256"
        },
        {
          "name": "pendingVotes",
          "type": "uint256"
        }
      ],
      "payable": false,
      "stateMutability": "nonpayable",
      "type": "function"
    },
    {
      "constant": true,
      "inputs": [],
      "name": "REGISTRATION_FEE",
      "outputs": [
        {
          "name": "",
          "type": "uint256"
        }
      ],
      "payable": false,
      "stateMutability": "view",
      "type": "function"
    },
    {
      "constant": true,
      "inputs": [],
      "name": "ERROR_MISSING_CLAIMS_PAYOUT_ROLE",
      "outputs": [
        {
          "name": "",
          "type": "string"
        }
      ],
      "payable": false,
      "stateMutability": "view",
      "type": "function"
    },
    {
      "constant": true,
      "inputs": [
        {
          "name": "flightId",
          "type": "bytes32"
        },
        {
          "name": "ticketNumber",
          "type": "string"
        }
      ],
      "name": "getPolicyKey",
      "outputs": [
        {
          "name": "",
          "type": "bytes32"
        }
      ],
      "payable": false,
      "stateMutability": "pure",
      "type": "function"
    },
    {
      "constant": false,
      "inputs": [
        {
          "name": "_policyId",
          "type": "bytes32"
        }
      ],
      "name": "pay",
      "outputs": [],
      "payable": false,
      "stateMutability": "nonpayable",
      "type": "function"
    },
    {
      "constant": true,
      "inputs": [],
      "name": "CLAIMS_PAYOUT_ROLE",
      "outputs": [
        {
          "name": "",
          "type": "bytes32"
        }
      ],
      "payable": false,
      "stateMutability": "view",
      "type": "function"
    },
    {
      "constant": true,
      "inputs": [],
      "name": "ERROR_MISSING_FLIGHT_REGISTRATION_PERMISSION",
      "outputs": [
        {
          "name": "",
          "type": "string"
        }
      ],
      "payable": false,
      "stateMutability": "view",
      "type": "function"
    },
    {
      "constant": true,
      "inputs": [],
      "name": "ERROR_MISSING_AIRLINE_REGISTRATION_PERMISSION",
      "outputs": [
        {
          "name": "",
          "type": "string"
        }
      ],
      "payable": false,
      "stateMutability": "view",
      "type": "function"
    },
    {
      "constant": false,
      "inputs": [
        {
          "name": "_airlineAddress",
          "type": "address"
        }
      ],
      "name": "registerAirline",
      "outputs": [
        {
          "name": "success",
          "type": "bool"
        },
        {
          "name": "votes",
          "type": "uint256"
        },
        {
          "name": "pendingVotes",
          "type": "uint256"
        }
      ],
      "payable": false,
      "stateMutability": "nonpayable",
      "type": "function"
    },
    {
      "constant": true,
      "inputs": [],
      "name": "FLIGHT_REGISTRATION_ROLE",
      "outputs": [
        {
          "name": "",
          "type": "bytes32"
        }
      ],
      "payable": false,
      "stateMutability": "view",
      "type": "function"
    },
    {
      "constant": true,
      "inputs": [
        {
          "name": "airline",
          "type": "address"
        },
        {
          "name": "flight",
          "type": "string"
        },
        {
          "name": "date",
          "type": "uint256"
        }
      ],
      "name": "getFlightKey",
      "outputs": [
        {
          "name": "",
          "type": "bytes32"
        }
      ],
      "payable": false,
      "stateMutability": "pure",
      "type": "function"
    },
    {
      "constant": false,
      "inputs": [
        {
          "name": "_flightId",
          "type": "bytes32"
        },
        {
          "name": "_ticketNumber",
          "type": "string"
        }
      ],
      "name": "buy",
      "outputs": [],
      "payable": true,
      "stateMutability": "payable",
      "type": "function"
    },
    {
      "inputs": [],
      "payable": false,
      "stateMutability": "nonpayable",
      "type": "constructor"
    },
    {
      "payable": true,
      "stateMutability": "payable",
      "type": "fallback"
    },
    {
      "anonymous": false,
      "inputs": [
        {
          "indexed": false,
          "name": "policy",
          "type": "bytes32"
        }
      ],
      "name": "creditingInsuree",
      "type": "event"
    },
    {
      "anonymous": false,
      "inputs": [
        {
          "indexed": false,
          "name": "airline",
          "type": "address"
        },
        {
          "indexed": false,
          "name": "flight",
          "type": "string"
        },
        {
          "indexed": false,
          "name": "date",
          "type": "uint256"
        },
        {
          "indexed": false,
          "name": "timestamp",
          "type": "uint256"
        },
        {
          "indexed": false,
          "name": "status",
          "type": "uint8"
        }
      ],
      "name": "FlightStatusInfo",
      "type": "event"
    },
    {
      "anonymous": false,
      "inputs": [
        {
          "indexed": false,
          "name": "airline",
          "type": "address"
        },
        {
          "indexed": false,
          "name": "flight",
          "type": "string"
        },
        {
          "indexed": false,
          "name": "date",
          "type": "uint256"
        },
        {
          "indexed": false,
          "name": "timestamp",
          "type": "uint256"
        },
        {
          "indexed": false,
          "name": "status",
          "type": "uint8"
        }
      ],
      "name": "OracleReport",
      "type": "event"
    },
    {
      "anonymous": false,
      "inputs": [
        {
          "indexed": false,
          "name": "index",
          "type": "uint32"
        },
        {
          "indexed": false,
          "name": "airline",
          "type": "address"
        },
        {
          "indexed": false,
          "name": "flight",
          "type": "string"
        },
        {
          "indexed": false,
          "name": "date",
          "type": "uint256"
        },
        {
          "indexed": false,
          "name": "timestamp",
          "type": "uint256"
        }
      ],
      "name": "OracleRequest",
      "type": "event"
    },
    {
      "constant": true,
      "inputs": [],
      "name": "isOperational",
      "outputs": [
        {
          "name": "",
          "type": "bool"
        }
      ],
      "payable": false,
      "stateMutability": "view",
      "type": "function"
    },
    {
      "constant": false,
      "inputs": [],
      "name": "fund",
      "outputs": [],
      "payable": true,
      "stateMutability": "payable",
      "type": "function"
    },
    {
      "constant": false,
      "inputs": [
        {
          "name": "_flightId",
          "type": "bytes32"
        }
      ],
      "name": "creditInsurees",
      "outputs": [],
      "payable": false,
      "stateMutability": "nonpayable",
      "type": "function"
    },
    {
      "constant": false,
      "inputs": [
        {
          "name": "_airline",
          "type": "address"
        },
        {
          "name": "_flight",
          "type": "string"
        },
        {
          "name": "_date",
          "type": "uint256"
        },
        {
          "name": "_timestamp",
          "type": "uint256"
        }
      ],
      "name": "fetchFlightStatus",
      "outputs": [],
      "payable": false,
      "stateMutability": "nonpayable",
      "type": "function"
    },
    {
      "constant": true,
      "inputs": [],
      "name": "hasQuorum",
      "outputs": [
        {
          "name": "hasQuorum_",
          "type": "bool"
        }
      ],
      "payable": false,
      "stateMutability": "view",
      "type": "function"
    },
    {
      "constant": true,
      "inputs": [],
      "name": "fetchAirlinesSummary",
      "outputs": [
        {
          "name": "registered_",
          "type": "uint256"
        },
        {
          "name": "registrationQueue_",
          "type": "uint256"
        },
        {
          "name": "quorum_",
          "type": "uint256"
        },
        {
          "name": "consensusPercentage_",
          "type": "uint256"
        },
        {
          "name": "consensus_",
          "type": "uint256"
        }
      ],
      "payable": false,
      "stateMutability": "view",
      "type": "function"
    },
    {
      "constant": true,
      "inputs": [
        {
          "name": "_airlineAddress",
          "type": "address"
        }
      ],
      "name": "fetchAirlineSummary",
      "outputs": [
        {
          "name": "votes_",
          "type": "uint256"
        },
        {
          "name": "isRegistered_",
          "type": "bool"
        },
        {
          "name": "contribution_",
          "type": "uint256"
        }
      ],
      "payable": false,
      "stateMutability": "view",
      "type": "function"
    },
    {
      "constant": true,
      "inputs": [
        {
          "name": "_flightId",
          "type": "bytes32"
        }
      ],
      "name": "fetchFlightSummary",
      "outputs": [
        {
          "name": "Id_",
          "type": "bytes32"
        },
        {
          "name": "airline_",
          "type": "address"
        },
        {
          "name": "flightNumber_",
          "type": "string"
        },
        {
          "name": "date_",
          "type": "uint256"
        },
        {
          "name": "isRegistered_",
          "type": "bool"
        },
        {
          "name": "statusCode_",
          "type": "uint8"
        },
        {
          "name": "updatedTimestamp_",
          "type": "uint256"
        },
        {
          "name": "votes_",
          "type": "uint256"
        },
        {
          "name": "canBeInsured_",
          "type": "bool"
        },
        {
          "name": "policyCount_",
          "type": "uint256"
        },
        {
          "name": "paidoutClaims_",
          "type": "bool"
        }
      ],
      "payable": false,
      "stateMutability": "view",
      "type": "function"
    },
    {
      "constant": true,
      "inputs": [
        {
          "name": "_policyId",
          "type": "bytes32"
        }
      ],
      "name": "fetchPolicySummary",
      "outputs": [
        {
          "name": "Id_",
          "type": "bytes32"
        },
        {
          "name": "insured_",
          "type": "address"
        },
        {
          "name": "ticketNumber_",
          "type": "string"
        },
        {
          "name": "flightId_",
          "type": "bytes32"
        },
        {
          "name": "premium_",
          "type": "uint256"
        },
        {
          "name": "payout_",
          "type": "uint256"
        },
        {
          "name": "isActive_",
          "type": "bool"
        },
        {
          "name": "isWithdrawn_",
          "type": "bool"
        }
      ],
      "payable": false,
      "stateMutability": "view",
      "type": "function"
    },
    {
      "constant": false,
      "inputs": [],
      "name": "registerOracle",
      "outputs": [],
      "payable": true,
      "stateMutability": "payable",
      "type": "function"
    },
    {
      "constant": true,
      "inputs": [],
      "name": "getMyIndexes",
      "outputs": [
        {
          "name": "",
          "type": "uint32[3]"
        }
      ],
      "payable": false,
      "stateMutability": "view",
      "type": "function"
    },
    {
      "constant": false,
      "inputs": [
        {
          "name": "_index",
          "type": "uint32"
        },
        {
          "name": "airline",
          "type": "address"
        },
        {
          "name": "flight",
          "type": "string"
        },
        {
          "name": "date",
          "type": "uint256"
        },
        {
          "name": "timestamp",
          "type": "uint256"
        },
        {
          "name": "statusCode",
          "type": "uint8"
        }
      ],
      "name": "submitOracleResponse",
      "outputs": [],
      "payable": false,
      "stateMutability": "nonpayable",
      "type": "function"
    }
  ],
  "bytecode": "0x60806040526001600260146101000a81548160ff02191690831515021790555060006003556000600e60006101000a81548160ff021916908360ff1602179055503480156200004d57600080fd5b506200009d60405180807f4149524c494e455f524547495354524154494f4e5f524f4c450000000000000081525060190190506040518091039020620001dc640100000000026401000000009004565b620000ec60405180807f464c494748545f524547495354524154494f4e5f524f4c45000000000000000081525060180190506040518091039020620001dc640100000000026401000000009004565b6200013b60405180807f434c41494d535f5041594f55545f524f4c45000000000000000000000000000081525060120190506040518091039020620001dc640100000000026401000000009004565b33600260006101000a81548173ffffffffffffffffffffffffffffffffffffffff021916908373ffffffffffffffffffffffffffffffffffffffff16021790555033600960006101000a81548173ffffffffffffffffffffffffffffffffffffffff021916908373ffffffffffffffffffffffffffffffffffffffff160217905550620001d6620002d5640100000000026401000000009004565b620008a4565b6000620001f882620004f0640100000000026401000000009004565b905060001515600080836000191660001916815260200190815260200160002060009054906101000a900460ff1615151415156200029e576040517f08c379a00000000000000000000000000000000000000000000000000000000081526004018080602001828103825260138152602001807f526f6c6520416c7265616479204578697374730000000000000000000000000081525060200191505060405180910390fd5b6001600080836000191660001916815260200190815260200160002060006101000a81548160ff0219169083151502179055505050565b6000600960009054906101000a900473ffffffffffffffffffffffffffffffffffffffff1673ffffffffffffffffffffffffffffffffffffffff163373ffffffffffffffffffffffffffffffffffffffff16146040805190810160405280601f81526020017f4552524f525f43414c4c45525f4e4f545f434f4e54524143545f4f574e4552008152509015156200040a576040517f08c379a00000000000000000000000000000000000000000000000000000000081526004018080602001828103825283818151815260200191508051906020019080838360005b83811015620003ce578082015181840152602081019050620003b1565b50505050905090810190601f168015620003fc5780820380516001836020036101000a031916815260200191505b509250505060405180910390fd5b506200042533620005ad640100000000026401000000009004565b9050620004ed8160a060405190810160405290816000820160009054906101000a900473ffffffffffffffffffffffffffffffffffffffff1673ffffffffffffffffffffffffffffffffffffffff1673ffffffffffffffffffffffffffffffffffffffff168152602001600182015481526020016003820160009054906101000a900460ff16151515158152602001600482015481526020016005820160009054906101000a900460ff161515151581525050620007cc640100000000026401000000009004565b50565b60008160405160200180807f524f4c450000000000000000000000000000000000000000000000000000000081525060040182600019166000191681526020019150506040516020818303038152906040526040518082805190602001908083835b60208310151562000579578051825260208201915060208101905060208303925062000552565b6001836020036101000a03801982511681845116808217855250505050505090500191505060405180910390209050919050565b60008160001515600460008373ffffffffffffffffffffffffffffffffffffffff1673ffffffffffffffffffffffffffffffffffffffff16815260200190815260200160002060050160009054906101000a900460ff161515146040805190810160405280601e81526020017f4552524f525f4149524c494e455f414c52454144595f454e4c49535445440000815250901515620006e9576040517f08c379a00000000000000000000000000000000000000000000000000000000081526004018080602001828103825283818151815260200191508051906020019080838360005b83811015620006ad57808201518184015260208101905062000690565b50505050905090810190601f168015620006db5780820380516001836020036101000a031916815260200191505b509250505060405180910390fd5b50600460008473ffffffffffffffffffffffffffffffffffffffff1673ffffffffffffffffffffffffffffffffffffffff1681526020019081526020016000209150828260000160006101000a81548173ffffffffffffffffffffffffffffffffffffffff021916908373ffffffffffffffffffffffffffffffffffffffff1602179055506000826001018190555060008260030160006101000a81548160ff02191690831515021790555060018260050160006101000a81548160ff021916908315150217905550600160066000828254019250508190555081915050919050565b6001816040019015159081151581525050600160056000828254019250508190555060016006600082825403925050819055506200084860646200082b6032600554620008516401000000000262005773179091906401000000009004565b6200088d64010000000002620057ab179091906401000000009004565b60038190555050565b60008083141562000866576000905062000887565b81830290508183828115156200087857fe5b041415156200088357fe5b8090505b92915050565b600081838115156200089b57fe5b04905092915050565b615a1f80620008b46000396000f300608060405260043610610175576000357c0100000000000000000000000000000000000000000000000000000000900463ffffffff1680630c6d1af51461017f5780630e248a11146101b2578063110466ed1461020d57806316154ef21461023c578063241a53cb14610253578063339d2590146102fe5780633cc0be9c1461030857806349eb6580146103c15780635f1cc0e61461044d57806364b4f751146104a0578063717cb5f1146104cb57806377fa82241461055b578063791fcd3914610691578063815b4d1b146107245780638609cad114610753578063865561f714610784578063969b3087146107ed5780639a67c593146108205780639dba96a714610867578063a4595b48146108f7578063ac9eccc314610966578063b60d4288146109f6578063b841d47b14610a00578063bdfd987714610b1f578063c28ffa9c14610b88578063cc2f6eba14610bbb578063cd905dff14610bec578063dfc0dff014610c1b578063f983ec3014610cca575b61017d610d34565b005b34801561018b57600080fd5b50610194610f99565b60405180826000191660001916815260200191505060405180910390f35b3480156101be57600080fd5b506101f3600480360381019080803573ffffffffffffffffffffffffffffffffffffffff169060200190929190505050610fd2565b604051808215151515815260200191505060405180910390f35b34801561021957600080fd5b5061023a60048036038101908080351515906020019092919050505061102b565b005b34801561024857600080fd5b50610251611178565b005b34801561025f57600080fd5b506102e4600480360381019080803573ffffffffffffffffffffffffffffffffffffffff169060200190929190803590602001908201803590602001908080601f01602080910402602001604051908101604052809392919081815260200183838082843782019150505050505091929192908035906020019092919050505061136d565b604051808215151515815260200191505060405180910390f35b6103066113b3565b005b34801561031457600080fd5b50610399600480360381019080803573ffffffffffffffffffffffffffffffffffffffff169060200190929190803590602001908201803590602001908080601f0160208091040260200160405190810160405280939291908181526020018383808284378201915050505050509192919290803590602001909291905050506114db565b6040518084151515158152602001838152602001828152602001935050505060405180910390f35b3480156103cd57600080fd5b5061044b600480360381019080803563ffffffff169060200190929190803573ffffffffffffffffffffffffffffffffffffffff1690602001909291908035906020019082018035906020019190919293919293908035906020019092919080359060200190929190803560ff1690602001909291905050506118b5565b005b34801561045957600080fd5b50610462611f0f565b6040518082600360200280838360005b8381101561048d578082015181840152602081019050610472565b5050505090500191505060405180910390f35b3480156104ac57600080fd5b506104b561208a565b6040518082815260200191505060405180910390f35b3480156104d757600080fd5b506104e0612096565b6040518080602001828103825283818151815260200191508051906020019080838360005b83811015610520578082015181840152602081019050610505565b50505050905090810190601f16801561054d5780820380516001836020036101000a031916815260200191505b509250505060405180910390f35b34801561056757600080fd5b5061058a60048036038101908080356000191690602001909291905050506120cf565b604051808c600019166000191681526020018b73ffffffffffffffffffffffffffffffffffffffff1673ffffffffffffffffffffffffffffffffffffffff168152602001806020018a8152602001891515151581526020018860ff1660ff168152602001878152602001868152602001851515151581526020018481526020018315151515815260200182810382528b818151815260200191508051906020019080838360005b8381101561064c578082015181840152602081019050610631565b50505050905090810190601f1680156106795780820380516001836020036101000a031916815260200191505b509c5050505050505050505050505060405180910390f35b34801561069d57600080fd5b506107066004803603810190808035600019169060200190929190803590602001908201803590602001908080601f016020809104026020016040519081016040528093929190818152602001838380828437820191505050505050919291929050505061235c565b60405180826000191660001916815260200191505060405180910390f35b34801561073057600080fd5b50610739612445565b604051808215151515815260200191505060405180910390f35b34801561075f57600080fd5b506107826004803603810190808035600019169060200190929190505050612453565b005b34801561079057600080fd5b506107c5600480360381019080803573ffffffffffffffffffffffffffffffffffffffff1690602001909291905050506128e0565b6040518084815260200183151515158152602001828152602001935050505060405180910390f35b3480156107f957600080fd5b50610802612a89565b60405180826000191660001916815260200191505060405180910390f35b34801561082c57600080fd5b50610835612ac2565b604051808681526020018581526020018481526020018381526020018281526020019550505050505060405180910390f35b34801561087357600080fd5b5061087c612ae8565b6040518080602001828103825283818151815260200191508051906020019080838360005b838110156108bc5780820151818401526020810190506108a1565b50505050905090810190601f1680156108e95780820380516001836020036101000a031916815260200191505b509250505060405180910390f35b34801561090357600080fd5b50610964600480360381019080803573ffffffffffffffffffffffffffffffffffffffff1690602001909291908035906020019082018035906020019190919293919293908035906020019092919080359060200190929190505050612b48565b005b34801561097257600080fd5b5061097b612fa2565b6040518080602001828103825283818151815260200191508051906020019080838360005b838110156109bb5780820151818401526020810190506109a0565b50505050905090810190601f1680156109e85780820380516001836020036101000a031916815260200191505b509250505060405180910390f35b6109fe610d34565b005b348015610a0c57600080fd5b50610a2f6004803603810190808035600019169060200190929190505050613002565b6040518089600019166000191681526020018873ffffffffffffffffffffffffffffffffffffffff1673ffffffffffffffffffffffffffffffffffffffff1681526020018060200187600019166000191681526020018681526020018581526020018415151515815260200183151515158152602001828103825288818151815260200191508051906020019080838360005b83811015610add578082015181840152602081019050610ac2565b50505050905090810190601f168015610b0a5780820380516001836020036101000a031916815260200191505b50995050505050505050505060405180910390f35b348015610b2b57600080fd5b50610b60600480360381019080803573ffffffffffffffffffffffffffffffffffffffff169060200190929190505050613257565b6040518084151515158152602001838152602001828152602001935050505060405180910390f35b348015610b9457600080fd5b50610b9d61367c565b60405180826000191660001916815260200191505060405180910390f35b348015610bc757600080fd5b50610bea60048036038101908080356000191690602001909291905050506136b5565b005b348015610bf857600080fd5b50610c01613bab565b604051808215151515815260200191505060405180910390f35b348015610c2757600080fd5b50610cac600480360381019080803573ffffffffffffffffffffffffffffffffffffffff169060200190929190803590602001908201803590602001908080601f016020809104026020016040519081016040528093929190818152602001838380828437820191505050505050919291929080359060200190929190505050613bb4565b60405180826000191660001916815260200191505060405180910390f35b610d326004803603810190808035600019169060200190929190803590602001908201803590602001908080601f0160208091040260200160405190810160405280939291908181526020018383808284378201915050505050509192919290505050613cd9565b005b6000336000600460008373ffffffffffffffffffffffffffffffffffffffff1673ffffffffffffffffffffffffffffffffffffffff1681526020019081526020016000209050600115158160030160009054906101000a900460ff161515146040805190810160405280601f81526020017f4552524f525f4149524c494e455f49535f4e4f545f5245474953544552454400815250901515610e71576040517f08c379a00000000000000000000000000000000000000000000000000000000081526004018080602001828103825283818151815260200191508051906020019080838360005b83811015610e36578082015181840152602081019050610e1b565b50505050905090810190601f168015610e635780820380516001836020036101000a031916815260200191505b509250505060405180910390fd5b50610e7a6141d3565b600460003373ffffffffffffffffffffffffffffffffffffffff1673ffffffffffffffffffffffffffffffffffffffff1681526020019081526020016000209250678ac7230489e800008360040154101515610f9457610f1160405180807f4149524c494e455f524547495354524154494f4e5f524f4c45000000000000008152506019019050604051809103902033600061422b565b610f5260405180807f464c494748545f524547495354524154494f4e5f524f4c4500000000000000008152506018019050604051809103902033600061422b565b610f9360405180807f434c41494d535f5041594f55545f524f4c4500000000000000000000000000008152506012019050604051809103902033600061422b565b5b505050565b60405180807f4149524c494e455f524547495354524154494f4e5f524f4c45000000000000008152506019019050604051809103902081565b6000600460008373ffffffffffffffffffffffffffffffffffffffff1673ffffffffffffffffffffffffffffffffffffffff16815260200190815260200160002060050160009054906101000a900460ff169050919050565b600960009054906101000a900473ffffffffffffffffffffffffffffffffffffffff1673ffffffffffffffffffffffffffffffffffffffff163373ffffffffffffffffffffffffffffffffffffffff16146040805190810160405280601f81526020017f4552524f525f43414c4c45525f4e4f545f434f4e54524143545f4f574e45520081525090151561115a576040517f08c379a00000000000000000000000000000000000000000000000000000000081526004018080602001828103825283818151815260200191508051906020019080838360005b8381101561111f578082015181840152602081019050611104565b50505050905090810190601f16801561114c5780820380516001836020036101000a031916815260200191505b509250505060405180910390fd5b5080600260146101000a81548160ff02191690831515021790555050565b6000600960009054906101000a900473ffffffffffffffffffffffffffffffffffffffff1673ffffffffffffffffffffffffffffffffffffffff163373ffffffffffffffffffffffffffffffffffffffff16146040805190810160405280601f81526020017f4552524f525f43414c4c45525f4e4f545f434f4e54524143545f4f574e4552008152509015156112a9576040517f08c379a00000000000000000000000000000000000000000000000000000000081526004018080602001828103825283818151815260200191508051906020019080838360005b8381101561126e578082015181840152602081019050611253565b50505050905090810190601f16801561129b5780820380516001836020036101000a031916815260200191505b509250505060405180910390fd5b506112b3336143c7565b905061136a8160a060405190810160405290816000820160009054906101000a900473ffffffffffffffffffffffffffffffffffffffff1673ffffffffffffffffffffffffffffffffffffffff1673ffffffffffffffffffffffffffffffffffffffff168152602001600182015481526020016003820160009054906101000a900460ff16151515158152602001600482015481526020016005820160009054906101000a900460ff1615151515815250506145e2565b50565b60008061137b858585613bb4565b905060076000826000191660001916815260200190815260200160002060040160009054906101000a900460ff169150509392505050565b6113bb6157d5565b670de0b6b3a7640000341015151561143b576040517f08c379a000000000000000000000000000000000000000000000000000000000815260040180806020018281038252601c8152602001807f526567697374726174696f6e206665652069732072657175697265640000000081525060200191505060405180910390fd5b61144433614647565b9050604080519081016040528060011515815260200182815250600f60003373ffffffffffffffffffffffffffffffffffffffff1673ffffffffffffffffffffffffffffffffffffffff16815260200190815260200160002060008201518160000160006101000a81548160ff0219169083151502179055506020820151816001019060036114d49291906157f8565b5090505050565b6000806000806000600115156114ef612445565b1515146040805190810160405280600f81526020017f4552524f525f4e4f5f51554f52554d00000000000000000000000000000000008152509015156115d0576040517f08c379a00000000000000000000000000000000000000000000000000000000081526004018080602001828103825283818151815260200191508051906020019080838360005b8381101561159557808201518184015260208101905061157a565b50505050905090810190601f1680156115c25780820380516001836020036101000a031916815260200191505b509250505060405180910390fd5b5061161260405180807f464c494748545f524547495354524154494f4e5f524f4c4500000000000000008152506018019050604051809103902033600061481d565b606060405190810160405280602c81526020017f4552524f525f4d495353494e475f464c494748545f524547495354524154494f81526020017f4e5f5045524d495353494f4e0000000000000000000000000000000000000000815250901515611717576040517f08c379a00000000000000000000000000000000000000000000000000000000081526004018080602001828103825283818151815260200191508051906020019080838360005b838110156116dc5780820151818401526020810190506116c1565b50505050905090810190601f1680156117095780820380516001836020036101000a031916815260200191505b509250505060405180910390fd5b508787876000151561172a84848461136d565b151514606060405190810160405280602281526020017f4552524f525f464c494748545f49535f414c52454144595f524547495354455281526020017f4544000000000000000000000000000000000000000000000000000000000000815250901515611832576040517f08c379a00000000000000000000000000000000000000000000000000000000081526004018080602001828103825283818151815260200191508051906020019080838360005b838110156117f75780820151818401526020810190506117dc565b50505050905090810190601f1680156118245780820380516001836020036101000a031916815260200191505b509250505060405180910390fd5b5061183e8b8b8b613bb4565b945060076000866000191660001916815260200190815260200160002093506000151584600b0160019054906101000a900460ff161515141561188b576118888b8b8b6000614860565b93505b61189484614ad4565b97508784600601546000809050975097509750505050505093509350939050565b60008763ffffffff16600f60003373ffffffffffffffffffffffffffffffffffffffff1673ffffffffffffffffffffffffffffffffffffffff168152602001908152602001600020600101600060038110151561190e57fe5b600891828204019190066004029054906101000a900463ffffffff1663ffffffff1614806119b257508763ffffffff16600f60003373ffffffffffffffffffffffffffffffffffffffff1673ffffffffffffffffffffffffffffffffffffffff168152602001908152602001600020600101600160038110151561198e57fe5b600891828204019190066004029054906101000a900463ffffffff1663ffffffff16145b80611a3357508763ffffffff16600f60003373ffffffffffffffffffffffffffffffffffffffff1673ffffffffffffffffffffffffffffffffffffffff1681526020019081526020016000206001016002600381101515611a0f57fe5b600891828204019190066004029054906101000a900463ffffffff1663ffffffff16145b1515611acd576040517f08c379a00000000000000000000000000000000000000000000000000000000081526004018080602001828103825260238152602001807f496e64657820646f6573206e6f74206d61746368206f7261636c65207265717581526020017f657374000000000000000000000000000000000000000000000000000000000081525060400191505060405180910390fd5b878787878787604051602001808763ffffffff1663ffffffff167c01000000000000000000000000000000000000000000000000000000000281526004018673ffffffffffffffffffffffffffffffffffffffff1673ffffffffffffffffffffffffffffffffffffffff166c01000000000000000000000000028152601401858580828437820191505083815260200182815260200196505050505050506040516020818303038152906040526040518082805190602001908083835b602083101515611baf5780518252602082019150602081019050602083039250611b8a565b6001836020036101000a0380198251168184511680821785525050505050509050019150506040518091039020905060106000826000191660001916815260200190815260200160002060000160149054906101000a900460ff161515611ca4576040517f08c379a000000000000000000000000000000000000000000000000000000000815260040180806020018281038252602f8152602001807f466c69676874206f722074696d657374616d7020646f206e6f74206d6174636881526020017f206f7261636c652072657175657374000000000000000000000000000000000081525060400191505060405180910390fd5b60106000826000191660001916815260200190815260200160002060010160008360ff1660ff1681526020019081526020016000203390806001815401808255809150509060018203906000526020600020016000909192909190916101000a81548173ffffffffffffffffffffffffffffffffffffffff021916908373ffffffffffffffffffffffffffffffffffffffff160217905550507fabd78bf7e858d19599a8bfe8c79ea88cd6082929a3f768a19e670833ac29026d878787878787604051808773ffffffffffffffffffffffffffffffffffffffff1673ffffffffffffffffffffffffffffffffffffffff168152602001806020018581526020018481526020018360ff1660ff1681526020018281038252878782818152602001925080828437820191505097505050505050505060405180910390a1600360106000836000191660001916815260200190815260200160002060010160008460ff1660ff16815260200190815260200160002080549050101515611f05577f42233d2b91f405ca7d0e77a5dffdcb8ccd9ddffee8b84f5d1f2fe8222c32aa43878787878787604051808773ffffffffffffffffffffffffffffffffffffffff1673ffffffffffffffffffffffffffffffffffffffff168152602001806020018581526020018481526020018360ff1660ff1681526020018281038252878782818152602001925080828437820191505097505050505050505060405180910390a1611f048787878080601f016020809104026020016040519081016040528093929190818152602001838380828437820191505050505050868686614eb1565b5b5050505050505050565b611f176157d5565b600f60003373ffffffffffffffffffffffffffffffffffffffff1673ffffffffffffffffffffffffffffffffffffffff16815260200190815260200160002060000160009054906101000a900460ff161515611fdb576040517f08c379a000000000000000000000000000000000000000000000000000000000815260040180806020018281038252601b8152602001807f4e6f74207265676973746572656420617320616e206f7261636c65000000000081525060200191505060405180910390fd5b600f60003373ffffffffffffffffffffffffffffffffffffffff1673ffffffffffffffffffffffffffffffffffffffff168152602001908152602001600020600101600380602002604051908101604052809291908260038015612080576020028201916000905b82829054906101000a900463ffffffff1663ffffffff16815260200190600401906020826003010492830192600103820291508084116120435790505b5050505050905090565b670de0b6b3a764000081565b6040805190810160405280602081526020017f4552524f525f4d495353494e475f434c41494d535f5041594f55545f524f4c4581525081565b600080606060008060008060008060008060008c60011515600760008360001916600019168152602001908152602001600020600b0160019054906101000a900460ff161515146040805190810160405280601981526020017f4552524f525f464c494748545f4e4f545f454e4c4953544544000000000000008152509015156121f4576040517f08c379a00000000000000000000000000000000000000000000000000000000081526004018080602001828103825283818151815260200191508051906020019080838360005b838110156121b957808201518184015260208101905061219e565b50505050905090810190601f1680156121e65780820380516001836020036101000a031916815260200191505b509250505060405180910390fd5b50600760008f60001916600019168152602001908152602001600020915081600001549c508160010160009054906101000a900473ffffffffffffffffffffffffffffffffffffffff169b50816002018054600181600116156101000203166002900480601f0160208091040260200160405190810160405280929190818152602001828054600181600116156101000203166002900480156122d85780601f106122ad576101008083540402835291602001916122d8565b820191906000526020600020905b8154815290600101906020018083116122bb57829003601f168201915b50505050509a50816003015499508160040160009054906101000a900460ff1698508160040160019054906101000a900460ff16975081600501549650816006015495508160070160009054906101000a900460ff16945081600a0154935081600b0160009054906101000a900460ff169250505091939597999b90929496989a50565b6000828260405160200180836000191660001916815260200182805190602001908083835b6020831015156123a65780518252602082019150602081019050602083039250612381565b6001836020036101000a038019825116818451168082178552505050505050905001925050506040516020818303038152906040526040518082805190602001908083835b60208310151561241057805182526020820191506020810190506020830392506123eb565b6001836020036101000a0380198251168184511680821785525050505050509050019150506040518091039020905092915050565b600060046005541015905090565b600060086000836000191660001916815260200190815260200160002090508060060160029054906101000a900460ff166040805190810160405280601b81526020017f4552524f525f504f4c4943595f444f45535f4e4f545f45584953540000000000815250901515612562576040517f08c379a00000000000000000000000000000000000000000000000000000000081526004018080602001828103825283818151815260200191508051906020019080838360005b8381101561252757808201518184015260208101905061250c565b50505050905090810190601f1680156125545780820380516001836020036101000a031916815260200191505b509250505060405180910390fd5b503373ffffffffffffffffffffffffffffffffffffffff168160010160009054906101000a900473ffffffffffffffffffffffffffffffffffffffff1673ffffffffffffffffffffffffffffffffffffffff16146040805190810160405280601681526020017f4552524f525f4e4f545f504f4c4943595f4f574e455200000000000000000000815250901515612694576040517f08c379a00000000000000000000000000000000000000000000000000000000081526004018080602001828103825283818151815260200191508051906020019080838360005b8381101561265957808201518184015260208101905061263e565b50505050905090810190601f1680156126865780820380516001836020036101000a031916815260200191505b509250505060405180910390fd5b5060008160050154116040805190810160405280601a81526020017f4552524f525f504f4c4943595f4841535f4e4f5f5041594f555400000000000081525090151561277b576040517f08c379a00000000000000000000000000000000000000000000000000000000081526004018080602001828103825283818151815260200191508051906020019080838360005b83811015612740578082015181840152602081019050612725565b50505050905090810190601f16801561276d5780820380516001836020036101000a031916815260200191505b509250505060405180910390fd5b50600015158160060160019054906101000a900460ff161515146040805190810160405280602081526020017f4552524f525f434c41494d5f49535f414c52454144595f57495448445241574e815250901515612873576040517f08c379a00000000000000000000000000000000000000000000000000000000081526004018080602001828103825283818151815260200191508051906020019080838360005b8381101561283857808201518184015260208101905061281d565b50505050905090810190601f1680156128655780820380516001836020036101000a031916815260200191505b509250505060405180910390fd5b5060018160060160016101000a81548160ff0219169083151502179055503373ffffffffffffffffffffffffffffffffffffffff166108fc82600501549081150290604051600060405180830381858888f193505050501580156128db573d6000803e3d6000fd5b505050565b6000806000808460011515600460008373ffffffffffffffffffffffffffffffffffffffff1673ffffffffffffffffffffffffffffffffffffffff16815260200190815260200160002060050160009054906101000a900460ff161515146040805190810160405280601a81526020017f4552524f525f4149524c494e455f4e4f545f454e4c4953544544000000000000815250901515612a1c576040517f08c379a00000000000000000000000000000000000000000000000000000000081526004018080602001828103825283818151815260200191508051906020019080838360005b838110156129e15780820151818401526020810190506129c6565b50505050905090810190601f168015612a0e5780820380516001836020036101000a031916815260200191505b509250505060405180910390fd5b50600460008773ffffffffffffffffffffffffffffffffffffffff1673ffffffffffffffffffffffffffffffffffffffff1681526020019081526020016000209150816001015494508160030160009054906101000a900460ff1693508160040154925050509193909250565b60405180807f434c41494d535f5041594f55545f524f4c4500000000000000000000000000008152506012019050604051809103902081565b600080600080600060055494506006549350600492506032915060035490509091929394565b606060405190810160405280602c81526020017f4552524f525f4d495353494e475f464c494748545f524547495354524154494f81526020017f4e5f5045524d495353494f4e000000000000000000000000000000000000000081525081565b6000806000612b8a8888888080601f01602080910402602001604051908101604052809392919081815260200183838082843782019150505050505087613bb4565b925060011515600760008560001916600019168152602001908152602001600020600b0160019054906101000a900460ff161515146040805190810160405280601981526020017f4552524f525f464c494748545f4e4f545f454e4c495354454400000000000000815250901515612c9d576040517f08c379a00000000000000000000000000000000000000000000000000000000081526004018080602001828103825283818151815260200191508051906020019080838360005b83811015612c62578082015181840152602081019050612c47565b50505050905090810190601f168015612c8f5780820380516001836020036101000a031916815260200191505b509250505060405180910390fd5b50612ca733614f0d565b9150818888888888604051602001808763ffffffff1663ffffffff167c01000000000000000000000000000000000000000000000000000000000281526004018673ffffffffffffffffffffffffffffffffffffffff1673ffffffffffffffffffffffffffffffffffffffff166c01000000000000000000000000028152601401858580828437820191505083815260200182815260200196505050505050506040516020818303038152906040526040518082805190602001908083835b602083101515612d8b5780518252602082019150602081019050602083039250612d66565b6001836020036101000a0380198251168184511680821785525050505050509050019150506040518091039020905060408051908101604052803373ffffffffffffffffffffffffffffffffffffffff1681526020016001151581525060106000836000191660001916815260200190815260200160002060008201518160000160006101000a81548173ffffffffffffffffffffffffffffffffffffffff021916908373ffffffffffffffffffffffffffffffffffffffff16021790555060208201518160000160146101000a81548160ff0219169083151502179055509050507fafb0d223c70bba9cfdcac516cc0962cf450c1161fa00b6d8c92057eea0420e26828989898989604051808763ffffffff1663ffffffff1681526020018673ffffffffffffffffffffffffffffffffffffffff1673ffffffffffffffffffffffffffffffffffffffff168152602001806020018481526020018381526020018281038252868682818152602001925080828437820191505097505050505050505060405180910390a181600960146101000a81548163ffffffff021916908363ffffffff16021790555087600a60006101000a81548173ffffffffffffffffffffffffffffffffffffffff021916908373ffffffffffffffffffffffffffffffffffffffff1602179055508686600b9190612f8992919061589b565b5084600c8190555083600d819055505050505050505050565b606060405190810160405280602d81526020017f4552524f525f4d495353494e475f4149524c494e455f5245474953545241544981526020017f4f4e5f5045524d495353494f4e0000000000000000000000000000000000000081525081565b6000806060600080600080600080896001151560086000836000191660001916815260200190815260200160002060060160029054906101000a900460ff161515146040805190810160405280601b81526020017f4552524f525f504f4c4943595f444f45535f4e4f545f45584953540000000000815250901515613122576040517f08c379a00000000000000000000000000000000000000000000000000000000081526004018080602001828103825283818151815260200191508051906020019080838360005b838110156130e75780820151818401526020810190506130cc565b50505050905090810190601f1680156131145780820380516001836020036101000a031916815260200191505b509250505060405180910390fd5b50600860008c600019166000191681526020019081526020016000209150816000015499508160010160009054906101000a900473ffffffffffffffffffffffffffffffffffffffff169850816002018054600181600116156101000203166002900480601f0160208091040260200160405190810160405280929190818152602001828054600181600116156101000203166002900480156132065780601f106131db57610100808354040283529160200191613206565b820191906000526020600020905b8154815290600101906020018083116131e957829003601f168201915b505050505097508160030154965081600401549550816005015494508160060160009054906101000a900460ff1693508160060160019054906101000a900460ff1692505050919395975091939597565b60008060008061329e60405180807f4149524c494e455f524547495354524154494f4e5f524f4c45000000000000008152506019019050604051809103902033600061481d565b606060405190810160405280602d81526020017f4552524f525f4d495353494e475f4149524c494e455f5245474953545241544981526020017f4f4e5f5045524d495353494f4e000000000000000000000000000000000000008152509015156133a3576040517f08c379a00000000000000000000000000000000000000000000000000000000081526004018080602001828103825283818151815260200191508051906020019080838360005b8381101561336857808201518184015260208101905061334d565b50505050905090810190601f1680156133955780820380516001836020036101000a031916815260200191505b509250505060405180910390fd5b50846000600460008373ffffffffffffffffffffffffffffffffffffffff1673ffffffffffffffffffffffffffffffffffffffff1681526020019081526020016000209050600015158160030160009054906101000a900460ff16151514606060405190810160405280602381526020017f4552524f525f4149524c494e455f49535f414c52454144595f5245474953544581526020017f5245440000000000000000000000000000000000000000000000000000000000815250901515613506576040517f08c379a00000000000000000000000000000000000000000000000000000000081526004018080602001828103825283818151815260200191508051906020019080838360005b838110156134cb5780820151818401526020810190506134b0565b50505050905090810190601f1680156134f85780820380516001836020036101000a031916815260200191505b509250505060405180910390fd5b50600460008873ffffffffffffffffffffffffffffffffffffffff1673ffffffffffffffffffffffffffffffffffffffff1681526020019081526020016000209250600015158360050160009054906101000a900460ff16151514156136555761356f876143c7565b92506000151561357d612445565b151514156136545761363a8360a060405190810160405290816000820160009054906101000a900473ffffffffffffffffffffffffffffffffffffffff1673ffffffffffffffffffffffffffffffffffffffff1673ffffffffffffffffffffffffffffffffffffffff168152602001600182015481526020016003820160009054906101000a900460ff16151515158152602001600482015481526020016005820160009054906101000a900460ff1615151515815250506145e2565b600195508583600101546000809050955095509550613672565b5b61365e83615075565b955085836001015460008090509550955095505b5050509193909250565b60405180807f464c494748545f524547495354524154494f4e5f524f4c4500000000000000008152506018019050604051809103902081565b6000806136f960405180807f434c41494d535f5041594f55545f524f4c4500000000000000000000000000008152506012019050604051809103902033600061481d565b6040805190810160405280602081526020017f4552524f525f4d495353494e475f434c41494d535f5041594f55545f524f4c458152509015156137d7576040517f08c379a00000000000000000000000000000000000000000000000000000000081526004018080602001828103825283818151815260200191508051906020019080838360005b8381101561379c578082015181840152602081019050613781565b50505050905090810190601f1680156137c95780820380516001836020036101000a031916815260200191505b509250505060405180910390fd5b508260011515600760008360001916600019168152602001908152602001600020600b0160019054906101000a900460ff161515146040805190810160405280601981526020017f4552524f525f464c494748545f4e4f545f454e4c4953544544000000000000008152509015156138ea576040517f08c379a00000000000000000000000000000000000000000000000000000000081526004018080602001828103825283818151815260200191508051906020019080838360005b838110156138af578082015181840152602081019050613894565b50505050905090810190601f1680156138dc5780820380516001836020036101000a031916815260200191505b509250505060405180910390fd5b506007600085600019166000191681526020019081526020016000209250600a8360040160019054906101000a900460ff1660ff16116040805190810160405280601981526020017f4552524f525f504f4c4943595f43414e4e4f545f434c41494d000000000000008152509015156139fe576040517f08c379a00000000000000000000000000000000000000000000000000000000081526004018080602001828103825283818151815260200191508051906020019080838360005b838110156139c35780820151818401526020810190506139a8565b50505050905090810190601f1680156139f05780820380516001836020036101000a031916815260200191505b509250505060405180910390fd5b506000151583600b0160009054906101000a900460ff161515146040805190810160405280601c81526020017f4552524f525f414c52454144595f504149444f55545f434c41494d5300000000815250901515613af6576040517f08c379a00000000000000000000000000000000000000000000000000000000081526004018080602001828103825283818151815260200191508051906020019080838360005b83811015613abb578082015181840152602081019050613aa0565b50505050905090810190601f168015613ae85780820380516001836020036101000a031916815260200191505b509250505060405180910390fd5b50600191505b82600a015482111515613b88577f3d2054927eb0ecff3baa0d9851237dbdabb7991c487974f72d1bdfcb97ed46338360090160008481526020019081526020016000205460405180826000191660001916815260200191505060405180910390a1613b7b8360090160008481526020019081526020016000205461537a565b8180600101925050613afc565b600183600b0160006101000a81548160ff02191690831515021790555050505050565b60006001905090565b6000838383604051602001808473ffffffffffffffffffffffffffffffffffffffff1673ffffffffffffffffffffffffffffffffffffffff166c0100000000000000000000000002815260140183805190602001908083835b602083101515613c325780518252602082019150602081019050602083039250613c0d565b6001836020036101000a03801982511681845116808217855250505050505090500182815260200193505050506040516020818303038152906040526040518082805190602001908083835b602083101515613ca35780518252602082019150602081019050602083039250613c7e565b6001836020036101000a038019825116818451168082178552505050505050905001915050604051809103902090509392505050565b6000806000808560006007600083600019166000191681526020019081526020016000209050600115158160070160009054906101000a900460ff161515146040805190810160405280601e81526020017f4552524f525f464c494748545f43414e4e4f545f42455f494e53555245440000815250901515613df6576040517f08c379a00000000000000000000000000000000000000000000000000000000081526004018080602001828103825283818151815260200191508051906020019080838360005b83811015613dbb578082015181840152602081019050613da0565b50505050905090810190601f168015613de85780820380516001836020036101000a031916815260200191505b509250505060405180910390fd5b50600034116040805190810160405280601981526020017f4552524f525f50555243484153455f56414c55455f49535f3000000000000000815250901515613ed9576040517f08c379a00000000000000000000000000000000000000000000000000000000081526004018080602001828103825283818151815260200191508051906020019080838360005b83811015613e9e578082015181840152602081019050613e83565b50505050905090810190601f168015613ecb5780820380516001836020036101000a031916815260200191505b509250505060405180910390fd5b50613ee4888861235c565b95506008600087600019166000191681526020019081526020016000209450670de0b6b3a76400008560040154106040805190810160405280601a81526020017f4552524f525f4d4158494d554d5f5052454d49554d5f50414944000000000000815250901515613ff0576040517f08c379a00000000000000000000000000000000000000000000000000000000081526004018080602001828103825283818151815260200191508051906020019080838360005b83811015613fb5578082015181840152602081019050613f9a565b50505050905090810190601f168015613fe25780820380516001836020036101000a031916815260200191505b509250505060405180910390fd5b508460040154670de0b6b3a7640000039350858560000181600019169055508685600201908051906020019061402792919061591b565b5087856003018160001916905550338560010160006101000a81548173ffffffffffffffffffffffffffffffffffffffff021916908373ffffffffffffffffffffffffffffffffffffffff160217905550833411156140e0578385600401600082825401925050819055503373ffffffffffffffffffffffffffffffffffffffff166108fc8534039081150290604051600060405180830381858888f193505050501580156140da573d6000803e3d6000fd5b506140f3565b3485600401600082825401925050819055505b6000856005018190555060008560060160006101000a81548160ff02191690831515021790555060008560060160016101000a81548160ff021916908315150217905550600015158560060160029054906101000a900460ff16151514156141ac57600760008960001916600019168152602001908152602001600020925085836009016000600186600a0154018152602001908152602001600020816000191690555082600a01600081548092919060010191905055505b60018560060160026101000a81548160ff0219169083151502179055505050505050505050565b6000600460003373ffffffffffffffffffffffffffffffffffffffff1673ffffffffffffffffffffffffffffffffffffffff168152602001908152602001600020905034816004016000828254019250508190555050565b600080614237856155a8565b915060011515600080846000191660001916815260200190815260200160002060009054906101000a900460ff1615151415156142dc576040517f08c379a00000000000000000000000000000000000000000000000000000000081526004018080602001828103825260148152602001807f526f6c6520446f6573204e6f742045786973747300000000000000000000000081525060200191505060405180910390fd5b6142e7848685615663565b90506000151560016000836000191660001916815260200190815260200160002060009054906101000a900460ff16151514151561438d576040517f08c379a00000000000000000000000000000000000000000000000000000000081526004018080602001828103825260198152602001807f5065726d697373696f6e20416c7265616479204578697374730000000000000081525060200191505060405180910390fd5b6001806000836000191660001916815260200190815260200160002060006101000a81548160ff0219169083151502179055505050505050565b60008160001515600460008373ffffffffffffffffffffffffffffffffffffffff1673ffffffffffffffffffffffffffffffffffffffff16815260200190815260200160002060050160009054906101000a900460ff161515146040805190810160405280601e81526020017f4552524f525f4149524c494e455f414c52454144595f454e4c495354454400008152509015156144ff576040517f08c379a00000000000000000000000000000000000000000000000000000000081526004018080602001828103825283818151815260200191508051906020019080838360005b838110156144c45780820151818401526020810190506144a9565b50505050905090810190601f1680156144f15780820380516001836020036101000a031916815260200191505b509250505060405180910390fd5b50600460008473ffffffffffffffffffffffffffffffffffffffff1673ffffffffffffffffffffffffffffffffffffffff1681526020019081526020016000209150828260000160006101000a81548173ffffffffffffffffffffffffffffffffffffffff021916908373ffffffffffffffffffffffffffffffffffffffff1602179055506000826001018190555060008260030160006101000a81548160ff02191690831515021790555060018260050160006101000a81548160ff021916908315150217905550600160066000828254019250508190555081915050919050565b60018160400190151590811515815250506001600560008282540192505081905550600160066000828254039250508190555061463e6064614630603260055461577390919063ffffffff16565b6157ab90919063ffffffff16565b60038190555050565b61464f6157d5565b6146576157d5565b61466083614f0d565b81600060038110151561466f57fe5b602002019063ffffffff16908163ffffffff168152505080600060038110151561469557fe5b60200201518160016003811015156146a957fe5b602002019063ffffffff16908163ffffffff16815250505b8060006003811015156146d057fe5b602002015163ffffffff168160016003811015156146ea57fe5b602002015163ffffffff16141561472f5761470483614f0d565b81600160038110151561471357fe5b602002019063ffffffff16908163ffffffff16815250506146c1565b80600160038110151561473e57fe5b602002015181600260038110151561475257fe5b602002019063ffffffff16908163ffffffff16815250505b80600060038110151561477957fe5b602002015163ffffffff1681600260038110151561479357fe5b602002015163ffffffff1614806147db57508060016003811015156147b457fe5b602002015163ffffffff168160026003811015156147ce57fe5b602002015163ffffffff16145b15614814576147e983614f0d565b8160026003811015156147f857fe5b602002019063ffffffff16908163ffffffff168152505061476a565b80915050919050565b60008061482b848685615663565b905060016000826000191660001916815260200190815260200160002060009054906101000a900460ff169150509392505050565b6000808560011515600460008373ffffffffffffffffffffffffffffffffffffffff1673ffffffffffffffffffffffffffffffffffffffff16815260200190815260200160002060050160009054906101000a900460ff161515146040805190810160405280601a81526020017f4552524f525f4149524c494e455f4e4f545f454e4c4953544544000000000000815250901515614999576040517f08c379a00000000000000000000000000000000000000000000000000000000081526004018080602001828103825283818151815260200191508051906020019080838360005b8381101561495e578082015181840152602081019050614943565b50505050905090810190601f16801561498b5780820380516001836020036101000a031916815260200191505b509250505060405180910390fd5b506149a5878787613bb4565b9150600760008360001916600019168152602001908152602001600020925081836000018160001916905550858360020190805190602001906149e992919061591b565b50848360030181905550838360040160016101000a81548160ff021916908360ff16021790555060008360040160006101000a81548160ff021916908315150217905550868360010160006101000a81548173ffffffffffffffffffffffffffffffffffffffff021916908373ffffffffffffffffffffffffffffffffffffffff160217905550600183600b0160016101000a81548160ff02191690831515021790555060018360070160006101000a81548160ff021916908315150217905550600083600b0160006101000a81548160ff0219169083151502179055508292505050949350505050565b600033826000015460006007600083600019166000191681526020019081526020016000209050600015158160080160008573ffffffffffffffffffffffffffffffffffffffff1673ffffffffffffffffffffffffffffffffffffffff16815260200190815260200160002060009054906101000a900460ff16151514606060405190810160405280602f81526020017f4552524f525f4149524c494e455f4841535f414c52454144595f564f5445445f81526020017f464f525f544849535f464c494748540000000000000000000000000000000000815250901515614c56576040517f08c379a00000000000000000000000000000000000000000000000000000000081526004018080602001828103825283818151815260200191508051906020019080838360005b83811015614c1b578082015181840152602081019050614c00565b50505050905090810190601f168015614c485780820380516001836020036101000a031916815260200191505b509250505060405180910390fd5b506001856006016000828254019250508190555060018560080160003373ffffffffffffffffffffffffffffffffffffffff1673ffffffffffffffffffffffffffffffffffffffff16815260200190815260200160002060006101000a81548160ff0219169083151502179055508460060154600354111515614ea957614ea48561018060405190810160405290816000820154600019166000191681526020016001820160009054906101000a900473ffffffffffffffffffffffffffffffffffffffff1673ffffffffffffffffffffffffffffffffffffffff1673ffffffffffffffffffffffffffffffffffffffff168152602001600282018054600181600116156101000203166002900480601f016020809104026020016040519081016040528092919081815260200182805460018160011615610100020316600290048015614de55780601f10614dba57610100808354040283529160200191614de5565b820191906000526020600020905b815481529060010190602001808311614dc857829003601f168201915b50505050508152602001600382015481526020016004820160009054906101000a900460ff161515151581526020016004820160019054906101000a900460ff1660ff1660ff16815260200160058201548152602001600682015481526020016007820160009054906101000a900460ff16151515158152602001600a8201548152602001600b820160009054906101000a900460ff16151515158152602001600b820160019054906101000a900460ff1615151515815250506157c1565b600193505b505050919050565b600080614ebf878787613bb4565b91506007600083600019166000191681526020019081526020016000209050828160040160016101000a81548160ff021916908360ff16021790555083816005018190555050505050505050565b6000806000600591508163ffffffff16600e600081819054906101000a900460ff168092919060010191906101000a81548160ff021916908360ff16021790555060ff16430340856040516020018083600019166000191681526020018273ffffffffffffffffffffffffffffffffffffffff1673ffffffffffffffffffffffffffffffffffffffff166c01000000000000000000000000028152601401925050506040516020818303038152906040526040518082805190602001908083835b602083101515614ff35780518252602082019150602081019050602083039250614fce565b6001836020036101000a03801982511681845116808217855250505050505090500191505060405180910390206001900481151561502d57fe5b06905060fa600e60009054906101000a900460ff1660ff161115615068576000600e60006101000a81548160ff021916908360ff1602179055505b8060ff1692505050919050565b6000338260000160009054906101000a900473ffffffffffffffffffffffffffffffffffffffff166000600460008373ffffffffffffffffffffffffffffffffffffffff1673ffffffffffffffffffffffffffffffffffffffff1681526020019081526020016000209050600015158160020160008573ffffffffffffffffffffffffffffffffffffffff1673ffffffffffffffffffffffffffffffffffffffff16815260200190815260200160002060009054906101000a900460ff16151514606060405190810160405280603081526020017f4552524f525f4149524c494e455f4841535f414c52454144595f564f5445445f81526020017f464f525f544849535f4149524c494e450000000000000000000000000000000081525090151561523b576040517f08c379a00000000000000000000000000000000000000000000000000000000081526004018080602001828103825283818151815260200191508051906020019080838360005b838110156152005780820151818401526020810190506151e5565b50505050905090810190601f16801561522d5780820380516001836020036101000a031916815260200191505b509250505060405180910390fd5b506001856001016000828254019250508190555060018560020160003373ffffffffffffffffffffffffffffffffffffffff1673ffffffffffffffffffffffffffffffffffffffff16815260200190815260200160002060006101000a81548160ff02191690831515021790555084600101546003541115156153725761536d8560a060405190810160405290816000820160009054906101000a900473ffffffffffffffffffffffffffffffffffffffff1673ffffffffffffffffffffffffffffffffffffffff1673ffffffffffffffffffffffffffffffffffffffff168152602001600182015481526020016003820160009054906101000a900460ff16151515158152602001600482015481526020016005820160009054906101000a900460ff1615151515815250506145e2565b600193505b505050919050565b600060086000836000191660001916815260200190815260200160002090508060060160029054906101000a900460ff166040805190810160405280601b81526020017f4552524f525f504f4c4943595f444f45535f4e4f545f45584953540000000000815250901515615489576040517f08c379a00000000000000000000000000000000000000000000000000000000081526004018080602001828103825283818151815260200191508051906020019080838360005b8381101561544e578082015181840152602081019050615433565b50505050905090810190601f16801561547b5780820380516001836020036101000a031916815260200191505b509250505060405180910390fd5b5060008160050154146040805190810160405280601b81526020017f4552524f525f414c52454144595f504149444f55545f434c41494d0000000000815250901515615570576040517f08c379a00000000000000000000000000000000000000000000000000000000081526004018080602001828103825283818151815260200191508051906020019080838360005b8381101561553557808201518184015260208101905061551a565b50505050905090810190601f1680156155625780820380516001836020036101000a031916815260200191505b509250505060405180910390fd5b5061559c600261558e6003846004015461577390919063ffffffff16565b6157ab90919063ffffffff16565b81600501819055505050565b60008160405160200180807f524f4c450000000000000000000000000000000000000000000000000000000081525060040182600019166000191681526020019150506040516020818303038152906040526040518082805190602001908083835b60208310151561562f578051825260208201915060208101905060208303925061560a565b6001836020036101000a03801982511681845116808217855250505050505090500191505060405180910390209050919050565b600083838360405160200180807f5045524d495353494f4e00000000000000000000000000000000000000000000815250600a018473ffffffffffffffffffffffffffffffffffffffff1673ffffffffffffffffffffffffffffffffffffffff166c010000000000000000000000000281526014018360001916600019168152602001826000191660001916815260200193505050506040516020818303038152906040526040518082805190602001908083835b60208310151561573d5780518252602082019150602081019050602083039250615718565b6001836020036101000a038019825116818451168082178552505050505050905001915050604051809103902090509392505050565b60008083141561578657600090506157a5565b818302905081838281151561579757fe5b041415156157a157fe5b8090505b92915050565b600081838115156157b857fe5b04905092915050565b600181608001901515908115158152505050565b606060405190810160405280600390602082028038833980820191505090505090565b82600360070160089004810192821561588a5791602002820160005b8382111561585857835183826101000a81548163ffffffff021916908363ffffffff1602179055509260200192600401602081600301049283019260010302615814565b80156158885782816101000a81549063ffffffff0219169055600401602081600301049283019260010302615858565b505b509050615897919061599b565b5090565b828054600181600116156101000203166002900490600052602060002090601f016020900481019282601f106158dc57803560ff191683800117855561590a565b8280016001018555821561590a579182015b828111156159095782358255916020019190600101906158ee565b5b50905061591791906159ce565b5090565b828054600181600116156101000203166002900490600052602060002090601f016020900481019282601f1061595c57805160ff191683800117855561598a565b8280016001018555821561598a579182015b8281111561598957825182559160200191906001019061596e565b5b50905061599791906159ce565b5090565b6159cb91905b808211156159c757600081816101000a81549063ffffffff0219169055506001016159a1565b5090565b90565b6159f091905b808211156159ec5760008160009055506001016159d4565b5090565b905600a165627a7a72305820d45e8e74dede470a682f282b459642c23b0bdf0ad1d0060fc63deb1f6d7abb510029",
  "source": "pragma solidity ^0.4.25;\n\n// It's important to avoid vulnerabilities due to numeric overflow bugs\n// OpenZeppelin's SafeMath library, when used correctly, protects agains such bugs\n// More info: https://www.nccgroup.trust/us/about-us/newsroom-and-events/blog/2018/november/smart-contract-insecurity-bad-arithmetic/\n\nimport \"../node_modules/openzeppelin-solidity/contracts/math/SafeMath.sol\";\nimport \"./Accesscontrol.sol\";\nimport \"./flightSuretyData.sol\";\n/************************************************** */\n/* FlightSurety Smart Contract                      */\n/************************************************** */\ncontract FlightSuretyApp is FlightSuretyData {\n    using SafeMath for uint256; // Allow SafeMath functions to be called for all uint256 types (similar to \"prototype\" in Javascript)\n\n    //FlightSuretyData flightSuretyData;\n    /********************************************************************************************/\n    /*                                       DATA VARIABLES                                     */\n    /********************************************************************************************/\n    // Flight status codees\n    uint8 private constant STATUS_CODE_UNKNOWN = 0;\n    uint8 private constant STATUS_CODE_ON_TIME = 10;\n    uint8 private constant STATUS_CODE_LATE_AIRLINE = 20;\n    uint8 private constant STATUS_CODE_LATE_WEATHER = 30;\n    uint8 private constant STATUS_CODE_LATE_TECHNICAL = 40;\n    uint8 private constant STATUS_CODE_LATE_OTHER = 50;\n\n    string private constant ERROR_CONTRACT_NOT_OPERATIONAL = \"ERROR_CONTRACT_NOT_OPERATIONAL\";\n    string private constant ERROR_NO_QUORUM = \"ERROR_NO_QUORUM\";\n\n    string private constant ERROR_CALLER_NOT_CONTRACT_OWNER = \"ERROR_CALLER_NOT_CONTRACT_OWNER\";\n    string private constant ERROR_AIRLINE_IS_NOT_REGISTERED = \"ERROR_AIRLINE_IS_NOT_REGISTERED\";\n    string private constant ERROR_AIRLINE_IS_ALREADY_REGISTERED = \"ERROR_AIRLINE_IS_ALREADY_REGISTERED\";\n    string private constant ERROR_AIRLINE_ALREADY_VOTED_FOR_AIRLINE = \"ERROR_AIRLINE_HAS_ALREADY_VOTED_FOR_THIS_AIRLINE\";\n\n    string private constant ERROR_FLIGHT_IS_NOT_REGISTERED = \"ERROR_FLIGHT_IS_NOT_REGISTERED\";\n    string private constant ERROR_FLIGHT_IS_ALREADY_REGISTERED = \"ERROR_FLIGHT_IS_ALREADY_REGISTERED\";\n    string private constant ERROR_AIRLINE_ALREADY_VOTED_FOR_FLIGHT = \"ERROR_AIRLINE_HAS_ALREADY_VOTED_FOR_THIS_FLIGHT\";\n\n\n    address private contractOwner;          // Account used to deploy contract\n\n    /********************************************************************************************/\n    /*                                       FUNCTION MODIFIERS                                 */\n    /********************************************************************************************/\n\n    // Modifiers help avoid duplication of code. They are typically used to validate something\n    // before a function is allowed to be executed.\n\n\n    /**\n    * @dev Modifier that requires the \"operational\" boolean variable to be \"true\"\n    *      This is used on all state changing functions to pause the contract in\n    *      the event there is an issue that needs to be fixed\n    */\n    modifier requireIsOperational()\n    {\n         // Modify to call data contract's status\n        require(true, ERROR_CONTRACT_NOT_OPERATIONAL);\n        _;  // All modifiers require an \"_\" which indicates where the function body will be added\n    }\n\n    modifier requireIsRegistered(address _airlineAddress)\n    {\n        Airline storage airline_ = airlines[_airlineAddress];\n        require(airline_.isRegistered == true, ERROR_AIRLINE_IS_NOT_REGISTERED);\n        _;\n    }\n\n    modifier requireNonRegisteredAirline(address _airlineAddress)\n    {\n        Airline storage airline_ = airlines[_airlineAddress];\n        require(airline_.isRegistered == false, ERROR_AIRLINE_IS_ALREADY_REGISTERED);\n        _;\n    }\n\n\n\n\n    /**\n    * @dev Modifier that requires the \"ContractOwner\" account to be the function caller\n    */\n    modifier requireContractOwner()\n    {\n        require(msg.sender == contractOwner, ERROR_CALLER_NOT_CONTRACT_OWNER);\n        _;\n    }\n\n\n    modifier requireNotYetVotedAirlineXFlight(address _voter, bytes32 _votingForFlightId)\n    {\n        Flight storage flight_ = flights[_votingForFlightId];\n        require(flight_.votedBy[_voter] == false, ERROR_AIRLINE_ALREADY_VOTED_FOR_FLIGHT);\n        _;\n    }\n\n    /********************************************************************************************/\n    /*                                       CONSTRUCTOR                                        */\n    /********************************************************************************************/\n\n    /**\n    * @dev Contract constructor\n    *\n    */\n    constructor() public\n    {\n        contractOwner = msg.sender;\n        //flightSuretyData = FlightSuretyData(dataContract);\n\n        incorporateOwner();\n    }\n\n    /********************************************************************************************/\n    /*                                       UTILITY FUNCTIONS                                  */\n    /********************************************************************************************/\n\n    function isOperational()\n                            public\n                            view\n                            returns(bool)\n    {\n        return true;  // Modify to call data contract's status\n    }\n\n    /********************************************************************************************/\n    /*                                     SMART CONTRACT FUNCTIONS                             */\n    /********************************************************************************************/\n\n\n\n\n\n\n\n\n    /**\n    * @dev Initial funding for the insurance. Unless there are too many delayed flights\n    *      resulting in insurance payouts, the contract should be self-sustaining\n    *\n    */\n    function fund\n                            (\n                            )\n                            public\n                            requireIsRegistered(msg.sender)\n                            payable\n    {\n        contribute();\n        Airline storage airline_ = airlines[msg.sender];\n        if (airline_.contribution >= minimumContribution){\n            addPermission(AIRLINE_REGISTRATION_ROLE, msg.sender, \"\");\n            addPermission(FLIGHT_REGISTRATION_ROLE, msg.sender, \"\");\n            addPermission(CLAIMS_PAYOUT_ROLE, msg.sender, \"\");\n        }\n    }\n\n    event creditingInsuree(bytes32 policy);\n\n    /**\n    *  @dev Credits payouts to insurees\n    */\n    function creditInsurees\n    (\n        bytes32  _flightId\n    )\n    external\n    canPayoutClaims()\n    requireFlightExist(_flightId)\n    {\n\n        Flight storage flight_ = flights[_flightId];\n        require(flight_.statusCode > 10, ERROR_POLICY_CANNOT_CLAIM);\n        require(flight_.paidoutClaims == false, ERROR_ALREADY_PAIDOUT_CLAIMS);\n        for(uint i = 1 ; i <= flight_.policyCount; i++) {\n            emit creditingInsuree(flight_.policies[i]);\n            creditInsuree(flight_.policies[i]);\n        }\n        flight_.paidoutClaims = true;\n    }\n\n    /**\n    * @dev Fallback function for funding smart contract.\n    *\n    */\n    function()\n                            external\n                            payable\n    {\n        fund();\n    }\n\n\n   /**\n    * @dev Called after oracle has updated flight status\n    *\n    */\n    function processFlightStatus\n    (\n        address         _airline,\n        string memory   _flight,\n        uint256         _date,\n        uint256         _timestamp,\n        uint8           _statusCode\n    )\n    internal\n    {\n        bytes32 flightId = getFlightKey(_airline, _flight, _date);\n\n        Flight storage flight_ = flights[flightId];\n        flight_.statusCode = _statusCode;\n        flight_.updatedTimestamp = _timestamp;\n    }\n\n\n    uint32 testIndex;\n    address testAirline;\n    string testFlight;\n    uint256 testDate;\n    uint256 testTimestamp;\n\n    // Generate a request for oracles to fetch flight information\n    function fetchFlightStatus\n    (\n        address     _airline,\n        string      _flight,\n        uint256     _date,\n        uint256     _timestamp\n    )\n    external\n    {\n        bytes32 flightId = getFlightKey(_airline, _flight, _date);\n        require(flights[flightId].exists == true, ERROR_FLIGHT_NOT_ENLISTED);\n        uint32 index_ = getRandomIndex(msg.sender);\n\n        // Generate a unique key for storing the request\n        bytes32 key = keccak256(abi.encodePacked(index_, _airline, _flight, _date, _timestamp));\n        oracleResponses[key] = ResponseInfo({requester: msg.sender, isOpen: true});\n\n        emit OracleRequest(index_, _airline, _flight, _date, _timestamp);\n        testIndex = index_;\n        testAirline = _airline;\n        testFlight = _flight;\n        testDate = _date;\n        testTimestamp = _timestamp;\n    }\n\n    function hasQuorum()  public view returns(bool hasQuorum_){\n        hasQuorum_ = registered >= quorum;\n    }\n\n    function fetchAirlinesSummary() public view returns\n    (\n        uint256     registered_,\n        uint256     registrationQueue_,\n        uint256     quorum_,\n        uint256     consensusPercentage_,\n        uint256     consensus_\n    )\n    {\n        registered_ = registered;\n        registrationQueue_ = registrationQueue;\n        quorum_ = quorum;\n        consensusPercentage_ = consensusPercentage;\n        consensus_ = consensus;\n    }\n\n    function fetchAirlineSummary(address _airlineAddress) public requireAirlineExist(_airlineAddress) view returns\n    (\n        uint256     votes_,\n        bool        isRegistered_,\n        uint256     contribution_\n    )\n    {\n        Airline storage airline_ = airlines[_airlineAddress];\n        votes_ = airline_.votes;\n        isRegistered_ = airline_.isRegistered;\n        contribution_ = airline_.contribution;\n    }\n\n    function fetchFlightSummary(bytes32 _flightId)\n    public\n    requireFlightExist(_flightId)\n    view returns\n    (\n        bytes32     Id_,\n        address     airline_,\n        string      flightNumber_,\n        uint256     date_,\n        bool        isRegistered_,\n        uint8       statusCode_,\n        uint256     updatedTimestamp_,\n        uint256     votes_,\n        bool        canBeInsured_,\n        uint256     policyCount_,\n        bool        paidoutClaims_\n    )\n    {\n        Flight storage flight_ = flights[_flightId];\n        Id_ = flight_.Id;\n        airline_ = flight_.airline;\n        flightNumber_ = flight_.flightNumber;\n        date_ = flight_.date;\n        isRegistered_ = flight_.isRegistered;\n        statusCode_ = flight_.statusCode;\n        updatedTimestamp_ = flight_.updatedTimestamp;\n        votes_ = flight_.votes;\n        canBeInsured_ = flight_.canBeInsured;\n        policyCount_ = flight_.policyCount;\n        paidoutClaims_ = flight_.paidoutClaims;\n    }\n\n    function fetchPolicySummary(bytes32 _policyId)\n    public\n    requirePolicyExist(_policyId)\n    view returns\n    (\n        bytes32  Id_,\n        address  insured_,\n        string   ticketNumber_,\n        bytes32  flightId_,\n        uint256  premium_,\n        uint256  payout_,\n        bool     isActive_,\n        bool     isWithdrawn_\n    )\n    {\n        Policy storage policy_ = policies[_policyId];\n        Id_ = policy_.Id;\n        insured_ = policy_.insured;\n        ticketNumber_ = policy_.ticketNumber;\n        flightId_ = policy_.flightId;\n        premium_ = policy_.premium;\n        payout_ = policy_.payout;\n        isActive_ = policy_.isActive;\n        isWithdrawn_ = policy_.isWithdrawn;\n    }\n\n\n// region ORACLE MANAGEMENT\n\n    // Incremented to add pseudo-randomness at various points\n    uint8 private nonce = 0;\n\n    // Fee to be paid when registering oracle\n    uint256 public constant REGISTRATION_FEE = 1 ether;\n\n    // Number of oracles that must respond for valid status\n    uint256 private constant MIN_RESPONSES = 3;\n\n\n    struct Oracle {\n        bool isRegistered;\n        uint32[3] indexes;\n    }\n\n    // Track all registered oracles\n    mapping(address => Oracle) private oracles;\n\n    // Model for responses from oracles\n    struct ResponseInfo {\n        address requester;                              // Account that requested status\n        bool isOpen;                                    // If open, oracle responses are accepted\n        mapping(uint8 => address[]) responses;          // Mapping key is the status code reported\n                                                        // This lets us group responses and identify\n                                                        // the response that majority of the oracles\n    }\n\n    // Track all oracle responses\n    // Key = hash(index, flight, timestamp)\n    mapping(bytes32 => ResponseInfo) private oracleResponses;\n\n    // Event fired each time an oracle submits a response\n    event FlightStatusInfo(address airline, string flight, uint256 date, uint256 timestamp, uint8 status);\n\n    event OracleReport(address airline, string flight, uint256 date, uint256 timestamp, uint8 status);\n\n    // Event fired when flight status request is submitted\n    // Oracles track this and if they have a matching index\n    // they fetch data and submit a response\n    event OracleRequest(uint32 index, address airline, string flight, uint256 date, uint256 timestamp);\n\n    // Register an oracle with the contract\n    function registerOracle\n                            (\n                            )\n                            external\n                            payable\n    {\n        // Require registration fee\n        require(msg.value >= REGISTRATION_FEE, \"Registration fee is required\");\n\n        uint32[3] memory indexes = generateIndexes(msg.sender);\n\n        oracles[msg.sender] = Oracle({\n            isRegistered: true,\n            indexes: indexes\n        });\n    }\n\n    function getMyIndexes\n                            (\n                            )\n                            external\n                            view\n                            returns(uint32[3])\n    {\n        require(oracles[msg.sender].isRegistered, \"Not registered as an oracle\");\n\n        return oracles[msg.sender].indexes;\n    }\n\n    // Called by oracle when a response is available to an outstanding request\n    // For the response to be accepted, there must be a pending request that is open\n    // and matches one of the three Indexes randomly assigned to the oracle at the\n    // time of registration (i.e. uninvited oracles are not welcome)\n    function submitOracleResponse\n    (\n        uint32 _index,\n        address airline,\n        string flight,\n        uint256 date,\n        uint256 timestamp,\n        uint8 statusCode\n    )\n    external\n    {\n        require((oracles[msg.sender].indexes[0] == _index) || (oracles[msg.sender].indexes[1] == _index) || (oracles[msg.sender].indexes[2] == _index), \"Index does not match oracle request\");\n\n        bytes32 key = keccak256(abi.encodePacked(_index, airline, flight, date, timestamp));\n        require(oracleResponses[key].isOpen, \"Flight or timestamp do not match oracle request\");\n\n        oracleResponses[key].responses[statusCode].push(msg.sender);\n\n        // Information isn't considered verified until at least MIN_RESPONSES\n        // oracles respond with the *** same *** information\n        emit OracleReport(airline, flight, date, timestamp,  statusCode);\n        if (oracleResponses[key].responses[statusCode].length >= MIN_RESPONSES) {\n\n            emit FlightStatusInfo(airline, flight, date, timestamp, statusCode);\n\n            // Handle flight status as appropriate\n            processFlightStatus(airline, flight, date, timestamp, statusCode);\n        }\n    }\n\n\n\n    // Returns array of three non-duplicating integers from 0-9\n    function generateIndexes\n    (\n        address account\n    )\n    internal\n    returns(uint32[3])\n    {\n        uint32[3] memory indexes;\n        indexes[0] = getRandomIndex(account);\n\n        indexes[1] = indexes[0];\n        while(indexes[1] == indexes[0]) {\n            indexes[1] = getRandomIndex(account);\n        }\n\n        indexes[2] = indexes[1];\n        while((indexes[2] == indexes[0]) || (indexes[2] == indexes[1])) {\n            indexes[2] = getRandomIndex(account);\n        }\n\n        return indexes;\n    }\n\n    // Returns array of three non-duplicating integers from 0-9\n    function getRandomIndex\n    (\n        address account\n    )\n    internal\n    returns (uint32)\n    {\n        uint32 maxValue = 5;\n\n        // Pseudo random number...the incrementing nonce adds variation\n        uint8 random = uint8(uint256(keccak256(abi.encodePacked(blockhash(block.number - nonce++), account))) % maxValue);\n\n        if (nonce > 250) {\n            nonce = 0;  // Can only fetch blockhashes for last 256 blocks so we adapt\n        }\n\n        return random;\n    }\n\n// endregion\n\n}\n\n// contract FlightSuretyData{\n//     struct Airline {\n//         address id;\n//         uint256 votes;\n//         mapping (address => bool) votedBy;\n//         bool isRegistered;\n//         uint256 contribution;\n//         bool exists;\n//     }\n// }",
  "sourcePath": "/Users/Tony/Documents/Projects2018/BlockChain/flightSurety/contracts/FlightSuretyApp.sol",
  "compiler": {
    "name": "solc",
    "version": "0.4.25+commit.59dbf8f1.Emscripten.clang"
  },
  "schemaVersion": "2.0.1",
  "updatedAt": "2019-03-27T19:08:13.310Z"
}