{
  "contractName": "FlightSuretyData",
  "abi": [
    {
      "inputs": [],
      "payable": false,
      "stateMutability": "nonpayable",
      "type": "constructor"
    },
    {
      "constant": true,
      "inputs": [],
      "name": "isOperational",
      "outputs": [
        {
          "name": "",
          "type": "bool"
        }
      ],
      "payable": false,
      "stateMutability": "view",
      "type": "function"
    },
    {
      "constant": false,
      "inputs": [
        {
          "name": "mode",
          "type": "bool"
        }
      ],
      "name": "setOperatingStatus",
      "outputs": [],
      "payable": false,
      "stateMutability": "nonpayable",
      "type": "function"
    },
    {
      "constant": false,
      "inputs": [],
      "name": "buy",
      "outputs": [],
      "payable": true,
      "stateMutability": "payable",
      "type": "function"
    },
    {
      "constant": true,
      "inputs": [],
      "name": "creditInsurees",
      "outputs": [],
      "payable": false,
      "stateMutability": "pure",
      "type": "function"
    },
    {
      "constant": true,
      "inputs": [],
      "name": "pay",
      "outputs": [],
      "payable": false,
      "stateMutability": "pure",
      "type": "function"
    },
    {
      "constant": true,
      "inputs": [
        {
          "name": "_who",
          "type": "address"
        }
      ],
      "name": "isAirline",
      "outputs": [
        {
          "name": "",
          "type": "bool"
        }
      ],
      "payable": false,
      "stateMutability": "view",
      "type": "function"
    },
    {
      "constant": true,
      "inputs": [
        {
          "name": "_airline",
          "type": "address"
        },
        {
          "name": "_flight",
          "type": "string"
        },
        {
          "name": "_timestamp",
          "type": "uint256"
        }
      ],
      "name": "isFlightRegistered",
      "outputs": [
        {
          "name": "",
          "type": "bool"
        }
      ],
      "payable": false,
      "stateMutability": "view",
      "type": "function"
    }
  ],
  "bytecode": "0x60806040526001600060146101000a81548160ff021916908315150217905550600060015534801561003057600080fd5b50336000806101000a81548173ffffffffffffffffffffffffffffffffffffffff021916908373ffffffffffffffffffffffffffffffffffffffff160217905550610511806100806000396000f300608060405260043610610083576000357c0100000000000000000000000000000000000000000000000000000000900463ffffffff1680630e248a1114610088578063110466ed146100e35780631b9265b814610112578063241a53cb1461012957806336cee484146101d4578063a6f2ae3a146101eb578063cd905dff146101f5575b600080fd5b34801561009457600080fd5b506100c9600480360381019080803573ffffffffffffffffffffffffffffffffffffffff169060200190929190505050610224565b604051808215151515815260200191505060405180910390f35b3480156100ef57600080fd5b5061011060048036038101908080351515906020019092919050505061027d565b005b34801561011e57600080fd5b5061012761035e565b005b34801561013557600080fd5b506101ba600480360381019080803573ffffffffffffffffffffffffffffffffffffffff169060200190929190803590602001908201803590602001908080601f016020809104026020016040519081016040528093929190818152602001838380828437820191505050505050919291929080359060200190929190505050610360565b604051808215151515815260200191505060405180910390f35b3480156101e057600080fd5b506101e96103a6565b005b6101f36103a8565b005b34801561020157600080fd5b5061020a6103aa565b604051808215151515815260200191505060405180910390f35b6000600260008373ffffffffffffffffffffffffffffffffffffffff1673ffffffffffffffffffffffffffffffffffffffff16815260200190815260200160002060030160009054906101000a900460ff169050919050565b6000809054906101000a900473ffffffffffffffffffffffffffffffffffffffff1673ffffffffffffffffffffffffffffffffffffffff163373ffffffffffffffffffffffffffffffffffffffff16141515610341576040517f08c379a000000000000000000000000000000000000000000000000000000000815260040180806020018281038252601c8152602001807f43616c6c6572206973206e6f7420636f6e7472616374206f776e65720000000081525060200191505060405180910390fd5b80600060146101000a81548160ff02191690831515021790555050565b565b60008061036e8585856103c0565b905060056000826000191660001916815260200190815260200160002060010160009054906101000a900460ff169150509392505050565b565b565b60008060149054906101000a900460ff16905090565b6000838383604051602001808473ffffffffffffffffffffffffffffffffffffffff1673ffffffffffffffffffffffffffffffffffffffff166c0100000000000000000000000002815260140183805190602001908083835b60208310151561043e5780518252602082019150602081019050602083039250610419565b6001836020036101000a03801982511681845116808217855250505050505090500182815260200193505050506040516020818303038152906040526040518082805190602001908083835b6020831015156104af578051825260208201915060208101905060208303925061048a565b6001836020036101000a0380198251168184511680821785525050505050509050019150506040518091039020905093925050505600a165627a7a723058206c487fac6527776dba994eb60ece43ec60e21f4ea18feb37191eaa6c9d513ce00029",
  "source": "pragma solidity ^0.4.25;\n\nimport \"../node_modules/openzeppelin-solidity/contracts/math/SafeMath.sol\";\n\ncontract FlightSuretyData {\n    using SafeMath for uint256;\n\n    /********************************************************************************************/\n    /*                                       DATA VARIABLES                                     */\n    /********************************************************************************************/\n\n    address private contractOwner;                                      // Account used to deploy contract\n    bool private operational = true;                                    // Blocks all state changes throughout the contract if false\n    uint256 consensus = 0;\n\n    /********************************************************************************************/\n    /*                                       SETTINGS                                           */\n    /********************************************************************************************/\n    uint256 constant quorum = 4;\n    uint256 constant minimumContribution = 10 ether;\n    uint256 constant consensusPercentage = 50;\n    uint256 constant maximumPremium = 1 ether;\n\n    /********************************************************************************************/\n    /*                                       ERROR CODES                                        */\n    /********************************************************************************************/\n    string private constant ERROR_AIRLINE_NOT_ENLISTED = \"ERROR_AIRLINE_NOT_ENLISTED\";\n    string private constant ERROR_AIRLINE_ALREADY_ENLISTED = \"ERROR_AIRLINE_ALREADY_ENLISTED\";\n    string private constant ERROR_AIRLINE_IS_NOT_REGISTERED = \"ERROR_AIRLINE_IS_NOT_REGISTERED\";\n    string private constant ERROR_AIRLINE_IS_ALREADY_REGISTERED = \"ERROR_AIRLINE_IS_ALREADY_REGISTERED\";\n\n    struct Airline {\n        address id;\n        uint256 votes;\n        mapping (address => bool) votedBy;\n        bool exists;\n        bool isRegistered;\n        uint256 contribution;\n    }\n    mapping (address => Airline) internal airlines;\n    uint256 registered;\n    uint256 registrationQueue;\n\n    struct Flight {\n        bytes32     Id;\n        bool        isRegistered;\n        uint8       statusCode;\n        uint256     updatedTimestamp;\n        address     airline;\n        bool        exists;\n        uint256     votes;\n        mapping (address => bool) votedBy;\n    }\n    mapping(bytes32 => Flight) internal flights;\n\n    struct Policy {\n        string   ticketNumber;\n        bytes32  flightId;\n        uint256  premium;\n        bool     isActive;\n    }\n\n    /********************************************************************************************/\n    /*                                       EVENT DEFINITIONS                                  */\n    /********************************************************************************************/\n\n\n    /**\n    * @dev Constructor\n    *      The deploying account becomes contractOwner\n    */\n    constructor() public {\n        contractOwner = msg.sender;\n    }\n\n    /********************************************************************************************/\n    /*                                       FUNCTION MODIFIERS                                 */\n    /********************************************************************************************/\n\n    // Modifiers help avoid duplication of code. They are typically used to validate something\n    // before a function is allowed to be executed.\n\n\n\n    modifier requireAirlineExist(address _who)\n    {\n        require(airlines[_who].exists == true, ERROR_AIRLINE_NOT_ENLISTED);\n        _;  // All modifiers require an \"_\" which indicates where the function body will be added\n    }\n\n    modifier requireAirlineNotExist(address _who)\n    {\n        require(airlines[_who].exists == false, ERROR_AIRLINE_ALREADY_ENLISTED);\n        _;  // All modifiers require an \"_\" which indicates where the function body will be added\n    }\n\n    modifier requireIsRegistered(address _airlineAddress)\n    {\n        Airline storage airline_ = airlines[_airlineAddress];\n        require(airline_.isRegistered == true, ERROR_AIRLINE_IS_NOT_REGISTERED);\n        _;\n    }\n\n    modifier requireNonRegisteredAirline(address _airlineAddress)\n    {\n        Airline storage airline_ = airlines[_airlineAddress];\n        require(airline_.isRegistered == false, ERROR_AIRLINE_IS_ALREADY_REGISTERED);\n        _;\n    }\n\n    /**\n    * @dev Modifier that requires the \"operational\" boolean variable to be \"true\"\n    *      This is used on all state changing functions to pause the contract in\n    *      the event there is an issue that needs to be fixed\n    */\n    modifier requireIsOperational()\n    {\n        require(operational, \"Contract is currently not operational\");\n        _;  // All modifiers require an \"_\" which indicates where the function body will be added\n    }\n\n    /**\n    * @dev Modifier that requires the \"ContractOwner\" account to be the function caller\n    */\n    modifier requireContractOwner()\n    {\n        require(msg.sender == contractOwner, \"Caller is not contract owner\");\n        _;\n    }\n\n    /********************************************************************************************/\n    /*                                       UTILITY FUNCTIONS                                  */\n    /********************************************************************************************/\n\n    /**\n    * @dev Get operating status of contract\n    *\n    * @return A bool that is the current operating status\n    */\n    function isOperational()\n                            public\n                            view\n                            returns(bool)\n    {\n        return operational;\n    }\n\n\n    /**\n    * @dev Sets contract operations on/off\n    *\n    * When operational mode is disabled, all write transactions except for this one will fail\n    */\n    function setOperatingStatus(bool mode)\n                            external\n                            requireContractOwner\n    {\n        operational = mode;\n    }\n\n    /********************************************************************************************/\n    /*                                     SMART CONTRACT FUNCTIONS                             */\n    /********************************************************************************************/\n\n   /**\n    * @dev Add an airline to the registration queue\n    *      Can only be called from FlightSuretyApp contract\n    *\n    */\n    function addAirline(address _who)\n        internal\n        requireAirlineNotExist(_who)\n        returns(Airline storage airline_)\n    {\n        airline_ = airlines[_who];\n        airline_.id = _who;\n        airline_.votes = 0;\n        airline_.isRegistered = false;\n        airline_.exists = true;\n        registrationQueue += 1;\n        return airline_;\n    }\n\n    function addFlight(\n        address     _airline,\n        string      _flight,\n        uint256     _timestamp,\n        uint8      _statusCode\n    )\n        internal\n        requireAirlineExist(_airline)\n        returns(Flight storage flight_)\n    {\n        bytes32 flightId = getFlightKey(_airline, _flight, _timestamp);\n        flight_ = flights[flightId];\n        flight_.Id = flightId;\n        flight_.statusCode = _statusCode;\n        flight_.isRegistered = false;\n        flight_.updatedTimestamp = _timestamp;\n        flight_.airline = _airline;\n        flight_.exists = true;\n        return flight_;\n    }\n\n   /**\n    * @dev Buy insurance for a flight\n    *\n    */\n    function buy\n                            (\n                            )\n                            external\n                            payable\n    {\n\n    }\n\n    /**\n     *  @dev Credits payouts to insurees\n    */\n    function creditInsurees\n                                (\n                                )\n                                external\n                                pure\n    {\n    }\n\n\n    /**\n     *  @dev Transfers eligible payout funds to insuree\n     *\n    */\n    function pay\n                            (\n                            )\n                            external\n                            pure\n    {\n    }\n\n\n    function contribute\n                            (\n                            )\n                            internal\n    {\n        Airline storage airline_ = airlines[msg.sender];\n        airline_.contribution += msg.value;\n    }\n\n    function getFlightKey\n    (\n        address airline,\n        string memory flight,\n        uint256 timestamp\n    )\n    internal\n    pure\n    returns(bytes32)\n    {\n        return keccak256(abi.encodePacked(airline, flight, timestamp));\n    }\n\n    function isAirline(address _who)\n                            public\n                            view\n                            returns(bool)\n    {\n        return airlines[_who].exists;\n    }\n\n\n\n    function isFlightRegistered(\n        address         _airline,\n        string memory   _flight,\n        uint256         _timestamp\n    )\n        public\n        view\n        returns(bool)\n    {\n        bytes32 flightId_ = getFlightKey(_airline, _flight, _timestamp);\n        return flights[flightId_].isRegistered;\n    }\n}\n\n",
  "sourcePath": "/Users/Tony/Documents/Projects2018/BlockChain/flightSurety/contracts/flightSuretyData.sol",
  "compiler": {
    "name": "solc",
    "version": "0.4.25+commit.59dbf8f1.Emscripten.clang"
  },
  "schemaVersion": "2.0.1",
  "updatedAt": "2019-03-10T19:56:40.442Z"
}