{
  "contractName": "FlightSuretyData",
  "abi": [
    {
      "constant": true,
      "inputs": [],
      "name": "AIRLINE_REGISTRATION_ROLE",
      "outputs": [
        {
          "name": "",
          "type": "bytes32"
        }
      ],
      "payable": false,
      "stateMutability": "view",
      "type": "function"
    },
    {
      "constant": true,
      "inputs": [],
      "name": "quorum",
      "outputs": [
        {
          "name": "",
          "type": "uint256"
        }
      ],
      "payable": false,
      "stateMutability": "view",
      "type": "function"
    },
    {
      "constant": true,
      "inputs": [],
      "name": "registered",
      "outputs": [
        {
          "name": "",
          "type": "uint256"
        }
      ],
      "payable": false,
      "stateMutability": "view",
      "type": "function"
    },
    {
      "constant": true,
      "inputs": [],
      "name": "AUTHORIZE_CONTRACT_ROLE",
      "outputs": [
        {
          "name": "",
          "type": "bytes32"
        }
      ],
      "payable": false,
      "stateMutability": "view",
      "type": "function"
    },
    {
      "constant": true,
      "inputs": [],
      "name": "consensusPercentage",
      "outputs": [
        {
          "name": "",
          "type": "uint256"
        }
      ],
      "payable": false,
      "stateMutability": "view",
      "type": "function"
    },
    {
      "constant": true,
      "inputs": [],
      "name": "maximumPremium",
      "outputs": [
        {
          "name": "",
          "type": "uint256"
        }
      ],
      "payable": false,
      "stateMutability": "view",
      "type": "function"
    },
    {
      "constant": true,
      "inputs": [],
      "name": "ERROR_MISSING_CLAIMS_PAYOUT_ROLE",
      "outputs": [
        {
          "name": "",
          "type": "string"
        }
      ],
      "payable": false,
      "stateMutability": "view",
      "type": "function"
    },
    {
      "constant": true,
      "inputs": [],
      "name": "consensus",
      "outputs": [
        {
          "name": "",
          "type": "uint256"
        }
      ],
      "payable": false,
      "stateMutability": "view",
      "type": "function"
    },
    {
      "constant": true,
      "inputs": [],
      "name": "minimumContribution",
      "outputs": [
        {
          "name": "",
          "type": "uint256"
        }
      ],
      "payable": false,
      "stateMutability": "view",
      "type": "function"
    },
    {
      "constant": true,
      "inputs": [],
      "name": "CLAIMS_PAYOUT_ROLE",
      "outputs": [
        {
          "name": "",
          "type": "bytes32"
        }
      ],
      "payable": false,
      "stateMutability": "view",
      "type": "function"
    },
    {
      "constant": true,
      "inputs": [],
      "name": "ERROR_MISSING_FLIGHT_REGISTRATION_PERMISSION",
      "outputs": [
        {
          "name": "",
          "type": "string"
        }
      ],
      "payable": false,
      "stateMutability": "view",
      "type": "function"
    },
    {
      "constant": true,
      "inputs": [],
      "name": "ERROR_MISSING_AIRLINE_REGISTRATION_PERMISSION",
      "outputs": [
        {
          "name": "",
          "type": "string"
        }
      ],
      "payable": false,
      "stateMutability": "view",
      "type": "function"
    },
    {
      "constant": true,
      "inputs": [],
      "name": "FLIGHT_REGISTRATION_ROLE",
      "outputs": [
        {
          "name": "",
          "type": "bytes32"
        }
      ],
      "payable": false,
      "stateMutability": "view",
      "type": "function"
    },
    {
      "constant": true,
      "inputs": [],
      "name": "registrationQueue",
      "outputs": [
        {
          "name": "",
          "type": "uint256"
        }
      ],
      "payable": false,
      "stateMutability": "view",
      "type": "function"
    },
    {
      "inputs": [],
      "payable": false,
      "stateMutability": "nonpayable",
      "type": "constructor"
    },
    {
      "anonymous": false,
      "inputs": [
        {
          "indexed": false,
          "name": "val",
          "type": "address"
        }
      ],
      "name": "infoAddress",
      "type": "event"
    },
    {
      "anonymous": false,
      "inputs": [
        {
          "indexed": false,
          "name": "val",
          "type": "string"
        }
      ],
      "name": "info",
      "type": "event"
    },
    {
      "anonymous": false,
      "inputs": [
        {
          "indexed": false,
          "name": "policy",
          "type": "bytes32"
        }
      ],
      "name": "creditingInsuree",
      "type": "event"
    },
    {
      "anonymous": false,
      "inputs": [
        {
          "indexed": false,
          "name": "_address",
          "type": "address"
        }
      ],
      "name": "emitAddress",
      "type": "event"
    },
    {
      "constant": true,
      "inputs": [
        {
          "name": "_flightId",
          "type": "bytes32"
        }
      ],
      "name": "flightExist",
      "outputs": [
        {
          "name": "",
          "type": "bool"
        }
      ],
      "payable": false,
      "stateMutability": "view",
      "type": "function"
    },
    {
      "constant": true,
      "inputs": [],
      "name": "isOperational",
      "outputs": [
        {
          "name": "",
          "type": "bool"
        }
      ],
      "payable": false,
      "stateMutability": "view",
      "type": "function"
    },
    {
      "constant": true,
      "inputs": [],
      "name": "hasQuorum",
      "outputs": [
        {
          "name": "hasQuorum_",
          "type": "bool"
        }
      ],
      "payable": false,
      "stateMutability": "view",
      "type": "function"
    },
    {
      "constant": false,
      "inputs": [
        {
          "name": "mode",
          "type": "bool"
        }
      ],
      "name": "setOperatingStatus",
      "outputs": [],
      "payable": false,
      "stateMutability": "nonpayable",
      "type": "function"
    },
    {
      "constant": false,
      "inputs": [
        {
          "name": "_airlineAddress",
          "type": "address"
        }
      ],
      "name": "registerFirstAirline",
      "outputs": [],
      "payable": false,
      "stateMutability": "nonpayable",
      "type": "function"
    },
    {
      "constant": false,
      "inputs": [
        {
          "name": "_registrar",
          "type": "address"
        }
      ],
      "name": "authorizeContract",
      "outputs": [],
      "payable": false,
      "stateMutability": "nonpayable",
      "type": "function"
    },
    {
      "constant": false,
      "inputs": [
        {
          "name": "_registrar",
          "type": "address"
        },
        {
          "name": "_contractAddress",
          "type": "address"
        }
      ],
      "name": "dethorizeContract",
      "outputs": [],
      "payable": false,
      "stateMutability": "nonpayable",
      "type": "function"
    },
    {
      "constant": false,
      "inputs": [
        {
          "name": "_registrar",
          "type": "address"
        },
        {
          "name": "_airlineAddress",
          "type": "address"
        }
      ],
      "name": "registerAirline",
      "outputs": [
        {
          "name": "success",
          "type": "bool"
        },
        {
          "name": "votes",
          "type": "uint256"
        },
        {
          "name": "pendingVotes",
          "type": "uint256"
        }
      ],
      "payable": false,
      "stateMutability": "nonpayable",
      "type": "function"
    },
    {
      "constant": false,
      "inputs": [
        {
          "name": "_registrar",
          "type": "address"
        },
        {
          "name": "_airline",
          "type": "address"
        },
        {
          "name": "_flight",
          "type": "string"
        },
        {
          "name": "_date",
          "type": "uint256"
        }
      ],
      "name": "registerFlight",
      "outputs": [
        {
          "name": "success",
          "type": "bool"
        },
        {
          "name": "votes",
          "type": "uint256"
        },
        {
          "name": "pendingVotes",
          "type": "uint256"
        }
      ],
      "payable": false,
      "stateMutability": "nonpayable",
      "type": "function"
    },
    {
      "constant": false,
      "inputs": [
        {
          "name": "_buyer",
          "type": "address"
        },
        {
          "name": "_flightId",
          "type": "bytes32"
        },
        {
          "name": "_ticketNumber",
          "type": "string"
        }
      ],
      "name": "buy",
      "outputs": [],
      "payable": true,
      "stateMutability": "payable",
      "type": "function"
    },
    {
      "constant": false,
      "inputs": [
        {
          "name": "_caller",
          "type": "address"
        },
        {
          "name": "_flightId",
          "type": "bytes32"
        }
      ],
      "name": "creditInsurees",
      "outputs": [],
      "payable": false,
      "stateMutability": "nonpayable",
      "type": "function"
    },
    {
      "constant": false,
      "inputs": [
        {
          "name": "_caller",
          "type": "address"
        }
      ],
      "name": "fund",
      "outputs": [],
      "payable": true,
      "stateMutability": "payable",
      "type": "function"
    },
    {
      "constant": false,
      "inputs": [
        {
          "name": "_payee",
          "type": "address"
        },
        {
          "name": "_policyId",
          "type": "bytes32"
        }
      ],
      "name": "pay",
      "outputs": [],
      "payable": false,
      "stateMutability": "nonpayable",
      "type": "function"
    },
    {
      "constant": false,
      "inputs": [
        {
          "name": "airline",
          "type": "address"
        },
        {
          "name": "flight",
          "type": "string"
        },
        {
          "name": "date",
          "type": "uint256"
        }
      ],
      "name": "getFlightKey",
      "outputs": [
        {
          "name": "",
          "type": "bytes32"
        }
      ],
      "payable": false,
      "stateMutability": "nonpayable",
      "type": "function"
    },
    {
      "constant": false,
      "inputs": [
        {
          "name": "flightId",
          "type": "bytes32"
        },
        {
          "name": "ticketNumber",
          "type": "string"
        }
      ],
      "name": "getPolicyKey",
      "outputs": [
        {
          "name": "",
          "type": "bytes32"
        }
      ],
      "payable": false,
      "stateMutability": "nonpayable",
      "type": "function"
    },
    {
      "constant": true,
      "inputs": [
        {
          "name": "_who",
          "type": "address"
        }
      ],
      "name": "isAirline",
      "outputs": [
        {
          "name": "",
          "type": "bool"
        }
      ],
      "payable": false,
      "stateMutability": "view",
      "type": "function"
    },
    {
      "constant": false,
      "inputs": [
        {
          "name": "_airline",
          "type": "address"
        },
        {
          "name": "_flight",
          "type": "string"
        },
        {
          "name": "_date",
          "type": "uint256"
        }
      ],
      "name": "isFlightRegistered",
      "outputs": [
        {
          "name": "",
          "type": "bool"
        }
      ],
      "payable": false,
      "stateMutability": "nonpayable",
      "type": "function"
    },
    {
      "constant": false,
      "inputs": [
        {
          "name": "_airline",
          "type": "address"
        },
        {
          "name": "_flight",
          "type": "string"
        },
        {
          "name": "_date",
          "type": "uint256"
        },
        {
          "name": "_timestamp",
          "type": "uint256"
        },
        {
          "name": "_statusCode",
          "type": "uint8"
        }
      ],
      "name": "processFlightStatus",
      "outputs": [],
      "payable": false,
      "stateMutability": "nonpayable",
      "type": "function"
    },
    {
      "constant": true,
      "inputs": [
        {
          "name": "_airlineAddress",
          "type": "address"
        }
      ],
      "name": "fetchAirlineSummary",
      "outputs": [
        {
          "name": "votes_",
          "type": "uint256"
        },
        {
          "name": "isRegistered_",
          "type": "bool"
        },
        {
          "name": "contribution_",
          "type": "uint256"
        }
      ],
      "payable": false,
      "stateMutability": "view",
      "type": "function"
    },
    {
      "constant": true,
      "inputs": [
        {
          "name": "_flightId",
          "type": "bytes32"
        }
      ],
      "name": "fetchFlightSummary",
      "outputs": [
        {
          "name": "Id_",
          "type": "bytes32"
        },
        {
          "name": "airline_",
          "type": "address"
        },
        {
          "name": "flightNumber_",
          "type": "string"
        },
        {
          "name": "date_",
          "type": "uint256"
        },
        {
          "name": "isRegistered_",
          "type": "bool"
        },
        {
          "name": "statusCode_",
          "type": "uint8"
        },
        {
          "name": "updatedTimestamp_",
          "type": "uint256"
        },
        {
          "name": "votes_",
          "type": "uint256"
        },
        {
          "name": "canBeInsured_",
          "type": "bool"
        },
        {
          "name": "policyCount_",
          "type": "uint256"
        },
        {
          "name": "paidoutClaims_",
          "type": "bool"
        }
      ],
      "payable": false,
      "stateMutability": "view",
      "type": "function"
    },
    {
      "constant": true,
      "inputs": [
        {
          "name": "_policyId",
          "type": "bytes32"
        }
      ],
      "name": "fetchPolicySummary",
      "outputs": [
        {
          "name": "Id_",
          "type": "bytes32"
        },
        {
          "name": "insured_",
          "type": "address"
        },
        {
          "name": "ticketNumber_",
          "type": "string"
        },
        {
          "name": "flightId_",
          "type": "bytes32"
        },
        {
          "name": "premium_",
          "type": "uint256"
        },
        {
          "name": "payout_",
          "type": "uint256"
        },
        {
          "name": "isActive_",
          "type": "bool"
        },
        {
          "name": "isWithdrawn_",
          "type": "bool"
        }
      ],
      "payable": false,
      "stateMutability": "view",
      "type": "function"
    }
  ],
  "bytecode": "0x60806040526001600260146101000a81548160ff02191690831515021790555060006003553480156200003157600080fd5b506200008160405180807f415554484f52495a455f434f4e54524143545f524f4c450000000000000000008152506017019050604051809103902062000218640100000000026401000000009004565b620000d060405180807f4149524c494e455f524547495354524154494f4e5f524f4c45000000000000008152506019019050604051809103902062000218640100000000026401000000009004565b6200011f60405180807f464c494748545f524547495354524154494f4e5f524f4c4500000000000000008152506018019050604051809103902062000218640100000000026401000000009004565b6200016e60405180807f434c41494d535f5041594f55545f524f4c4500000000000000000000000000008152506012019050604051809103902062000218640100000000026401000000009004565b33600260006101000a81548173ffffffffffffffffffffffffffffffffffffffff021916908373ffffffffffffffffffffffffffffffffffffffff1602179055507f6d308309687fe146ed697d5de89797f6ea1979278a5d12d6049640451bbfc0d633604051808273ffffffffffffffffffffffffffffffffffffffff1673ffffffffffffffffffffffffffffffffffffffff16815260200191505060405180910390a1620003ce565b6000620002348262000311640100000000026401000000009004565b905060001515600080836000191660001916815260200190815260200160002060009054906101000a900460ff161515141515620002da576040517f08c379a00000000000000000000000000000000000000000000000000000000081526004018080602001828103825260138152602001807f526f6c6520416c7265616479204578697374730000000000000000000000000081525060200191505060405180910390fd5b6001600080836000191660001916815260200190815260200160002060006101000a81548160ff0219169083151502179055505050565b60008160405160200180807f524f4c450000000000000000000000000000000000000000000000000000000081525060040182600019166000191681526020019150506040516020818303038152906040526040518082805190602001908083835b6020831015156200039a578051825260208201915060208101905060208303925062000373565b6001836020036101000a03801982511681845116808217855250505050505090500191505060405180910390209050919050565b6153c580620003de6000396000f3006080604052600436106101b7576000357c0100000000000000000000000000000000000000000000000000000000900463ffffffff1680630c6d1af5146101bc5780630e248a11146101ef578063110466ed1461024a5780631703a018146102795780631a861865146102a457806323024408146102f5578063241a53cb1461032b57806326bc37d9146103d65780632de40ce3146104af5780633a79034c146104da57806346f8f3041461053d57806347cad4b11461058e57806353abffdd146105c15780635e4c0e7e1461060a57806367561d93146106355780636b3ff09414610678578063717cb5f1146106a357806377fa822414610733578063791fcd39146108695780637d2ab0de146108fc578063815b4d1b1461093f578063865561f71461096e5780638ef3f761146109d7578063937e09b114610a02578063969b308714610a2d5780639dba96a714610a60578063ac9eccc314610af0578063b841d47b14610b80578063c2379b7514610c9f578063c28ffa9c14610d29578063c7ba501814610d5c578063cd905dff14610de5578063dfc0dff014610e14578063e99d709914610ec3578063f7c2b71e14610eee575b600080fd5b3480156101c857600080fd5b506101d1610f6a565b60405180826000191660001916815260200191505060405180910390f35b3480156101fb57600080fd5b50610230600480360381019080803573ffffffffffffffffffffffffffffffffffffffff169060200190929190505050610fa3565b604051808215151515815260200191505060405180910390f35b34801561025657600080fd5b50610277600480360381019080803515159060200190929190505050610ffc565b005b34801561028557600080fd5b5061028e6110de565b6040518082815260200191505060405180910390f35b3480156102b057600080fd5b506102f3600480360381019080803573ffffffffffffffffffffffffffffffffffffffff16906020019092919080356000191690602001909291905050506110e3565b005b610329600480360381019080803573ffffffffffffffffffffffffffffffffffffffff1690602001909291905050506116fe565b005b34801561033757600080fd5b506103bc600480360381019080803573ffffffffffffffffffffffffffffffffffffffff169060200190929190803590602001908201803590602001908080601f016020809104026020016040519081016040528093929190818152602001838380828437820191505050505050919291929080359060200190929190505050611b16565b604051808215151515815260200191505060405180910390f35b3480156103e257600080fd5b50610487600480360381019080803573ffffffffffffffffffffffffffffffffffffffff169060200190929190803573ffffffffffffffffffffffffffffffffffffffff169060200190929190803590602001908201803590602001908080601f016020809104026020016040519081016040528093929190818152602001838380828437820191505050505050919291929080359060200190929190505050611b5c565b6040518084151515158152602001838152602001828152602001935050505060405180910390f35b3480156104bb57600080fd5b506104c4611f3a565b6040518082815260200191505060405180910390f35b3480156104e657600080fd5b5061053b600480360381019080803573ffffffffffffffffffffffffffffffffffffffff169060200190929190803573ffffffffffffffffffffffffffffffffffffffff169060200190929190505050611f40565b005b34801561054957600080fd5b5061058c600480360381019080803573ffffffffffffffffffffffffffffffffffffffff16906020019092919080356000191690602001909291905050506120d0565b005b34801561059a57600080fd5b506105a361267f565b60405180826000191660001916815260200191505060405180910390f35b3480156105cd57600080fd5b506105f060048036038101908080356000191690602001909291905050506126b8565b604051808215151515815260200191505060405180910390f35b34801561061657600080fd5b5061061f6126ed565b6040518082815260200191505060405180910390f35b34801561064157600080fd5b50610676600480360381019080803573ffffffffffffffffffffffffffffffffffffffff1690602001909291905050506126f2565b005b34801561068457600080fd5b5061068d612883565b6040518082815260200191505060405180910390f35b3480156106af57600080fd5b506106b861288f565b6040518080602001828103825283818151815260200191508051906020019080838360005b838110156106f85780820151818401526020810190506106dd565b50505050905090810190601f1680156107255780820380516001836020036101000a031916815260200191505b509250505060405180910390f35b34801561073f57600080fd5b5061076260048036038101908080356000191690602001909291905050506128c8565b604051808c600019166000191681526020018b73ffffffffffffffffffffffffffffffffffffffff1673ffffffffffffffffffffffffffffffffffffffff168152602001806020018a8152602001891515151581526020018860ff1660ff168152602001878152602001868152602001851515151581526020018481526020018315151515815260200182810382528b818151815260200191508051906020019080838360005b83811015610824578082015181840152602081019050610809565b50505050905090810190601f1680156108515780820380516001836020036101000a031916815260200191505b509c5050505050505050505050505060405180910390f35b34801561087557600080fd5b506108de6004803603810190808035600019169060200190929190803590602001908201803590602001908080601f0160208091040260200160405190810160405280939291908181526020018383808284378201915050505050509192919290505050612b55565b60405180826000191660001916815260200191505060405180910390f35b34801561090857600080fd5b5061093d600480360381019080803573ffffffffffffffffffffffffffffffffffffffff169060200190929190505050612d5f565b005b34801561094b57600080fd5b50610954612f06565b604051808215151515815260200191505060405180910390f35b34801561097a57600080fd5b506109af600480360381019080803573ffffffffffffffffffffffffffffffffffffffff169060200190929190505050612f14565b6040518084815260200183151515158152602001828152602001935050505060405180910390f35b3480156109e357600080fd5b506109ec6130bd565b6040518082815260200191505060405180910390f35b348015610a0e57600080fd5b50610a176130c3565b6040518082815260200191505060405180910390f35b348015610a3957600080fd5b50610a426130cf565b60405180826000191660001916815260200191505060405180910390f35b348015610a6c57600080fd5b50610a75613108565b6040518080602001828103825283818151815260200191508051906020019080838360005b83811015610ab5578082015181840152602081019050610a9a565b50505050905090810190601f168015610ae25780820380516001836020036101000a031916815260200191505b509250505060405180910390f35b348015610afc57600080fd5b50610b05613168565b6040518080602001828103825283818151815260200191508051906020019080838360005b83811015610b45578082015181840152602081019050610b2a565b50505050905090810190601f168015610b725780820380516001836020036101000a031916815260200191505b509250505060405180910390f35b348015610b8c57600080fd5b50610baf60048036038101908080356000191690602001909291905050506131c8565b6040518089600019166000191681526020018873ffffffffffffffffffffffffffffffffffffffff1673ffffffffffffffffffffffffffffffffffffffff1681526020018060200187600019166000191681526020018681526020018581526020018415151515815260200183151515158152602001828103825288818151815260200191508051906020019080838360005b83811015610c5d578082015181840152602081019050610c42565b50505050905090810190601f168015610c8a5780820380516001836020036101000a031916815260200191505b50995050505050505050505060405180910390f35b610d27600480360381019080803573ffffffffffffffffffffffffffffffffffffffff1690602001909291908035600019169060200190929190803590602001908201803590602001908080601f016020809104026020016040519081016040528093929190818152602001838380828437820191505050505050919291929050505061341d565b005b348015610d3557600080fd5b50610d3e613a3a565b60405180826000191660001916815260200191505060405180910390f35b348015610d6857600080fd5b50610dbd600480360381019080803573ffffffffffffffffffffffffffffffffffffffff169060200190929190803573ffffffffffffffffffffffffffffffffffffffff169060200190929190505050613a73565b6040518084151515158152602001838152602001828152602001935050505060405180910390f35b348015610df157600080fd5b50610dfa613f11565b604051808215151515815260200191505060405180910390f35b348015610e2057600080fd5b50610ea5600480360381019080803573ffffffffffffffffffffffffffffffffffffffff169060200190929190803590602001908201803590602001908080601f016020809104026020016040519081016040528093929190818152602001838380828437820191505050505050919291929080359060200190929190505050613f28565b60405180826000191660001916815260200191505060405180910390f35b348015610ecf57600080fd5b50610ed861416e565b6040518082815260200191505060405180910390f35b348015610efa57600080fd5b50610f68600480360381019080803573ffffffffffffffffffffffffffffffffffffffff1690602001909291908035906020019082018035906020019190919293919293908035906020019092919080359060200190929190803560ff169060200190929190505050614174565b005b60405180807f4149524c494e455f524547495354524154494f4e5f524f4c45000000000000008152506019019050604051809103902081565b6000600560008373ffffffffffffffffffffffffffffffffffffffff1673ffffffffffffffffffffffffffffffffffffffff16815260200190815260200160002060050160009054906101000a900460ff169050919050565b600260009054906101000a900473ffffffffffffffffffffffffffffffffffffffff1673ffffffffffffffffffffffffffffffffffffffff163373ffffffffffffffffffffffffffffffffffffffff161415156110c1576040517f08c379a000000000000000000000000000000000000000000000000000000000815260040180806020018281038252601c8152602001807f43616c6c6572206973206e6f7420636f6e7472616374206f776e65720000000081525060200191505060405180910390fd5b80600260146101000a81548160ff02191690831515021790555050565b600481565b6000806000600460003373ffffffffffffffffffffffffffffffffffffffff1673ffffffffffffffffffffffffffffffffffffffff16815260200190815260200160002054116040805190810160405280601e81526020017f4552524f525f43414c4c45525f49535f4e4f545f415554484f52495a45440000815250901515611207576040517f08c379a00000000000000000000000000000000000000000000000000000000081526004018080602001828103825283818151815260200191508051906020019080838360005b838110156111cc5780820151818401526020810190506111b1565b50505050905090810190601f1680156111f95780820380516001836020036101000a031916815260200191505b509250505060405180910390fd5b508361124a60405180807f434c41494d535f5041594f55545f524f4c45000000000000000000000000000081525060120190506040518091039020826000614325565b6040805190810160405280602081526020017f4552524f525f4d495353494e475f434c41494d535f5041594f55545f524f4c45815250901515611328576040517f08c379a00000000000000000000000000000000000000000000000000000000081526004018080602001828103825283818151815260200191508051906020019080838360005b838110156112ed5780820151818401526020810190506112d2565b50505050905090810190601f16801561131a5780820380516001836020036101000a031916815260200191505b509250505060405180910390fd5b508360011515600860008360001916600019168152602001908152602001600020600b0160019054906101000a900460ff161515146040805190810160405280601981526020017f4552524f525f464c494748545f4e4f545f454e4c49535445440000000000000081525090151561143b576040517f08c379a00000000000000000000000000000000000000000000000000000000081526004018080602001828103825283818151815260200191508051906020019080838360005b838110156114005780820151818401526020810190506113e5565b50505050905090810190601f16801561142d5780820380516001836020036101000a031916815260200191505b509250505060405180910390fd5b506008600086600019166000191681526020019081526020016000209350600a8460040160019054906101000a900460ff1660ff16116040805190810160405280601981526020017f4552524f525f504f4c4943595f43414e4e4f545f434c41494d0000000000000081525090151561154f576040517f08c379a00000000000000000000000000000000000000000000000000000000081526004018080602001828103825283818151815260200191508051906020019080838360005b838110156115145780820151818401526020810190506114f9565b50505050905090810190601f1680156115415780820380516001836020036101000a031916815260200191505b509250505060405180910390fd5b506000151584600b0160009054906101000a900460ff161515146040805190810160405280601c81526020017f4552524f525f414c52454144595f504149444f55545f434c41494d5300000000815250901515611647576040517f08c379a00000000000000000000000000000000000000000000000000000000081526004018080602001828103825283818151815260200191508051906020019080838360005b8381101561160c5780820151818401526020810190506115f1565b50505050905090810190601f1680156116395780820380516001836020036101000a031916815260200191505b509250505060405180910390fd5b50600192505b83600a0154831115156116d9577f3d2054927eb0ecff3baa0d9851237dbdabb7991c487974f72d1bdfcb97ed46338460090160008581526020019081526020016000205460405180826000191660001916815260200191505060405180910390a16116cc84600901600085815260200190815260200160002054614368565b828060010193505061164d565b600184600b0160006101000a81548160ff021916908315150217905550505050505050565b600080600460003373ffffffffffffffffffffffffffffffffffffffff1673ffffffffffffffffffffffffffffffffffffffff16815260200190815260200160002054116040805190810160405280601e81526020017f4552524f525f43414c4c45525f49535f4e4f545f415554484f52495a45440000815250901515611820576040517f08c379a00000000000000000000000000000000000000000000000000000000081526004018080602001828103825283818151815260200191508051906020019080838360005b838110156117e55780820151818401526020810190506117ca565b50505050905090810190601f1680156118125780820380516001836020036101000a031916815260200191505b509250505060405180910390fd5b50816000600560008373ffffffffffffffffffffffffffffffffffffffff1673ffffffffffffffffffffffffffffffffffffffff1681526020019081526020016000209050600115158160030160009054906101000a900460ff161515146040805190810160405280601f81526020017f4552524f525f4149524c494e455f49535f4e4f545f524547495354455245440081525090151561195c576040517f08c379a00000000000000000000000000000000000000000000000000000000081526004018080602001828103825283818151815260200191508051906020019080838360005b83811015611921578082015181840152602081019050611906565b50505050905090810190601f16801561194e5780820380516001836020036101000a031916815260200191505b509250505060405180910390fd5b506119678434614596565b600560008573ffffffffffffffffffffffffffffffffffffffff1673ffffffffffffffffffffffffffffffffffffffff1681526020019081526020016000209250678ac7230489e800008360040154101515611b105760001515611a0260405180807f4149524c494e455f524547495354524154494f4e5f524f4c450000000000000081525060190190506040518091039020866000614325565b15151415611b0f57611a4b60405180807f415554484f52495a455f434f4e54524143545f524f4c45000000000000000000815250601701905060405180910390208560006145f0565b611a8c60405180807f4149524c494e455f524547495354524154494f4e5f524f4c4500000000000000815250601901905060405180910390208560006145f0565b611acd60405180807f464c494748545f524547495354524154494f4e5f524f4c450000000000000000815250601801905060405180910390208560006145f0565b611b0e60405180807f434c41494d535f5041594f55545f524f4c450000000000000000000000000000815250601201905060405180910390208560006145f0565b5b5b50505050565b600080611b24858585613f28565b905060086000826000191660001916815260200190815260200160002060040160009054906101000a900460ff169150509392505050565b600080600080600060011515611b70612f06565b1515146040805190810160405280600f81526020017f4552524f525f4e4f5f51554f52554d0000000000000000000000000000000000815250901515611c51576040517f08c379a00000000000000000000000000000000000000000000000000000000081526004018080602001828103825283818151815260200191508051906020019080838360005b83811015611c16578082015181840152602081019050611bfb565b50505050905090810190601f168015611c435780820380516001836020036101000a031916815260200191505b509250505060405180910390fd5b5088611c9460405180807f464c494748545f524547495354524154494f4e5f524f4c45000000000000000081525060180190506040518091039020826000614325565b606060405190810160405280602c81526020017f4552524f525f4d495353494e475f464c494748545f524547495354524154494f81526020017f4e5f5045524d495353494f4e0000000000000000000000000000000000000000815250901515611d99576040517f08c379a00000000000000000000000000000000000000000000000000000000081526004018080602001828103825283818151815260200191508051906020019080838360005b83811015611d5e578082015181840152602081019050611d43565b50505050905090810190601f168015611d8b5780820380516001836020036101000a031916815260200191505b509250505060405180910390fd5b5088888860001515611dac848484611b16565b151514606060405190810160405280602281526020017f4552524f525f464c494748545f49535f414c52454144595f524547495354455281526020017f4544000000000000000000000000000000000000000000000000000000000000815250901515611eb4576040517f08c379a00000000000000000000000000000000000000000000000000000000081526004018080602001828103825283818151815260200191508051906020019080838360005b83811015611e79578082015181840152602081019050611e5e565b50505050905090810190601f168015611ea65780820380516001836020036101000a031916815260200191505b509250505060405180910390fd5b50611ec08c8c8c613f28565b955060086000876000191660001916815260200190815260200160002094506000151585600b0160019054906101000a900460ff1615151415611f0d57611f0a8c8c8c60006146e8565b94505b611f178d8661495c565b985088856006015460008090509850985098505050505050509450945094915050565b60065481565b81611f8260405180807f415554484f52495a455f434f4e54524143545f524f4c4500000000000000000081525060170190506040518091039020826000614325565b606060405190810160405280602b81526020017f4552524f525f4d495353494e475f415554484f52495a455f434f4e545241435481526020017f5f5045524d495353494f4e000000000000000000000000000000000000000000815250901515612087576040517f08c379a00000000000000000000000000000000000000000000000000000000081526004018080602001828103825283818151815260200191508051906020019080838360005b8381101561204c578082015181840152602081019050612031565b50505050905090810190601f1680156120795780820380516001836020036101000a031916815260200191505b509250505060405180910390fd5b50600460008373ffffffffffffffffffffffffffffffffffffffff1673ffffffffffffffffffffffffffffffffffffffff16815260200190815260200160002060009055505050565b600080600460003373ffffffffffffffffffffffffffffffffffffffff1673ffffffffffffffffffffffffffffffffffffffff16815260200190815260200160002054116040805190810160405280601e81526020017f4552524f525f43414c4c45525f49535f4e4f545f415554484f52495a454400008152509015156121f2576040517f08c379a00000000000000000000000000000000000000000000000000000000081526004018080602001828103825283818151815260200191508051906020019080838360005b838110156121b757808201518184015260208101905061219c565b50505050905090810190601f1680156121e45780820380516001836020036101000a031916815260200191505b509250505060405180910390fd5b5060096000836000191660001916815260200190815260200160002090508060060160029054906101000a900460ff166040805190810160405280601b81526020017f4552524f525f504f4c4943595f444f45535f4e4f545f45584953540000000000815250901515612300576040517f08c379a00000000000000000000000000000000000000000000000000000000081526004018080602001828103825283818151815260200191508051906020019080838360005b838110156122c55780820151818401526020810190506122aa565b50505050905090810190601f1680156122f25780820380516001836020036101000a031916815260200191505b509250505060405180910390fd5b508273ffffffffffffffffffffffffffffffffffffffff168160010160009054906101000a900473ffffffffffffffffffffffffffffffffffffffff1673ffffffffffffffffffffffffffffffffffffffff16146040805190810160405280601681526020017f4552524f525f4e4f545f504f4c4943595f4f574e455200000000000000000000815250901515612432576040517f08c379a00000000000000000000000000000000000000000000000000000000081526004018080602001828103825283818151815260200191508051906020019080838360005b838110156123f75780820151818401526020810190506123dc565b50505050905090810190601f1680156124245780820380516001836020036101000a031916815260200191505b509250505060405180910390fd5b5060008160050154116040805190810160405280601a81526020017f4552524f525f504f4c4943595f4841535f4e4f5f5041594f5554000000000000815250901515612519576040517f08c379a00000000000000000000000000000000000000000000000000000000081526004018080602001828103825283818151815260200191508051906020019080838360005b838110156124de5780820151818401526020810190506124c3565b50505050905090810190601f16801561250b5780820380516001836020036101000a031916815260200191505b509250505060405180910390fd5b50600015158160060160019054906101000a900460ff161515146040805190810160405280602081526020017f4552524f525f434c41494d5f49535f414c52454144595f57495448445241574e815250901515612611576040517f08c379a00000000000000000000000000000000000000000000000000000000081526004018080602001828103825283818151815260200191508051906020019080838360005b838110156125d65780820151818401526020810190506125bb565b50505050905090810190601f1680156126035780820380516001836020036101000a031916815260200191505b509250505060405180910390fd5b5060018160060160016101000a81548160ff0219169083151502179055508273ffffffffffffffffffffffffffffffffffffffff166108fc82600501549081150290604051600060405180830381858888f19350505050158015612679573d6000803e3d6000fd5b50505050565b60405180807f415554484f52495a455f434f4e54524143545f524f4c450000000000000000008152506017019050604051809103902081565b6000600860008360001916600019168152602001908152602001600020600b0160019054906101000a900460ff169050919050565b603281565b8061273460405180807f415554484f52495a455f434f4e54524143545f524f4c4500000000000000000081525060170190506040518091039020826000614325565b606060405190810160405280602b81526020017f4552524f525f4d495353494e475f415554484f52495a455f434f4e545241435481526020017f5f5045524d495353494f4e000000000000000000000000000000000000000000815250901515612839576040517f08c379a00000000000000000000000000000000000000000000000000000000081526004018080602001828103825283818151815260200191508051906020019080838360005b838110156127fe5780820151818401526020810190506127e3565b50505050905090810190601f16801561282b5780820380516001836020036101000a031916815260200191505b509250505060405180910390fd5b506001600460003373ffffffffffffffffffffffffffffffffffffffff1673ffffffffffffffffffffffffffffffffffffffff168152602001908152602001600020819055505050565b670de0b6b3a764000081565b6040805190810160405280602081526020017f4552524f525f4d495353494e475f434c41494d535f5041594f55545f524f4c4581525081565b600080606060008060008060008060008060008c60011515600860008360001916600019168152602001908152602001600020600b0160019054906101000a900460ff161515146040805190810160405280601981526020017f4552524f525f464c494748545f4e4f545f454e4c4953544544000000000000008152509015156129ed576040517f08c379a00000000000000000000000000000000000000000000000000000000081526004018080602001828103825283818151815260200191508051906020019080838360005b838110156129b2578082015181840152602081019050612997565b50505050905090810190601f1680156129df5780820380516001836020036101000a031916815260200191505b509250505060405180910390fd5b50600860008f60001916600019168152602001908152602001600020915081600001549c508160010160009054906101000a900473ffffffffffffffffffffffffffffffffffffffff169b50816002018054600181600116156101000203166002900480601f016020809104026020016040519081016040528092919081815260200182805460018160011615610100020316600290048015612ad15780601f10612aa657610100808354040283529160200191612ad1565b820191906000526020600020905b815481529060010190602001808311612ab457829003601f168201915b50505050509a50816003015499508160040160009054906101000a900460ff1698508160040160019054906101000a900460ff16975081600501549650816006015495508160070160009054906101000a900460ff16945081600a0154935081600b0160009054906101000a900460ff169250505091939597999b90929496989a50565b600080600460003373ffffffffffffffffffffffffffffffffffffffff1673ffffffffffffffffffffffffffffffffffffffff16815260200190815260200160002054116040805190810160405280601e81526020017f4552524f525f43414c4c45525f49535f4e4f545f415554484f52495a45440000815250901515612c77576040517f08c379a00000000000000000000000000000000000000000000000000000000081526004018080602001828103825283818151815260200191508051906020019080838360005b83811015612c3c578082015181840152602081019050612c21565b50505050905090810190601f168015612c695780820380516001836020036101000a031916815260200191505b509250505060405180910390fd5b50828260405160200180836000191660001916815260200182805190602001908083835b602083101515612cc05780518252602082019150602081019050602083039250612c9b565b6001836020036101000a038019825116818451168082178552505050505050905001925050506040516020818303038152906040526040518082805190602001908083835b602083101515612d2a5780518252602082019150602081019050602083039250612d05565b6001836020036101000a0380198251168184511680821785525050505050509050019150506040518091039020905092915050565b60008060065414606060405190810160405280602681526020017f4552524f525f46495253545f4149524c494e455f414c52454144595f5245474981526020017f5354455245440000000000000000000000000000000000000000000000000000815250901515612e6b576040517f08c379a00000000000000000000000000000000000000000000000000000000081526004018080602001828103825283818151815260200191508051906020019080838360005b83811015612e30578082015181840152602081019050612e15565b50505050905090810190601f168015612e5d5780820380516001836020036101000a031916815260200191505b509250505060405180910390fd5b50600560008373ffffffffffffffffffffffffffffffffffffffff1673ffffffffffffffffffffffffffffffffffffffff1681526020019081526020016000209050612eb682614b72565b9050612ef960405180807f415554484f52495a455f434f4e54524143545f524f4c45000000000000000000815250601701905060405180910390208360006145f0565b612f0281614df0565b5050565b600060046006541015905090565b6000806000808460011515600560008373ffffffffffffffffffffffffffffffffffffffff1673ffffffffffffffffffffffffffffffffffffffff16815260200190815260200160002060050160009054906101000a900460ff161515146040805190810160405280601a81526020017f4552524f525f4149524c494e455f4e4f545f454e4c4953544544000000000000815250901515613050576040517f08c379a00000000000000000000000000000000000000000000000000000000081526004018080602001828103825283818151815260200191508051906020019080838360005b83811015613015578082015181840152602081019050612ffa565b50505050905090810190601f1680156130425780820380516001836020036101000a031916815260200191505b509250505060405180910390fd5b50600560008773ffffffffffffffffffffffffffffffffffffffff1673ffffffffffffffffffffffffffffffffffffffff1681526020019081526020016000209150816001015494508160030160009054906101000a900460ff1693508160040154925050509193909250565b60035481565b678ac7230489e8000081565b60405180807f434c41494d535f5041594f55545f524f4c4500000000000000000000000000008152506012019050604051809103902081565b606060405190810160405280602c81526020017f4552524f525f4d495353494e475f464c494748545f524547495354524154494f81526020017f4e5f5045524d495353494f4e000000000000000000000000000000000000000081525081565b606060405190810160405280602d81526020017f4552524f525f4d495353494e475f4149524c494e455f5245474953545241544981526020017f4f4e5f5045524d495353494f4e0000000000000000000000000000000000000081525081565b6000806060600080600080600080896001151560096000836000191660001916815260200190815260200160002060060160029054906101000a900460ff161515146040805190810160405280601b81526020017f4552524f525f504f4c4943595f444f45535f4e4f545f455849535400000000008152509015156132e8576040517f08c379a00000000000000000000000000000000000000000000000000000000081526004018080602001828103825283818151815260200191508051906020019080838360005b838110156132ad578082015181840152602081019050613292565b50505050905090810190601f1680156132da5780820380516001836020036101000a031916815260200191505b509250505060405180910390fd5b50600960008c600019166000191681526020019081526020016000209150816000015499508160010160009054906101000a900473ffffffffffffffffffffffffffffffffffffffff169850816002018054600181600116156101000203166002900480601f0160208091040260200160405190810160405280929190818152602001828054600181600116156101000203166002900480156133cc5780601f106133a1576101008083540402835291602001916133cc565b820191906000526020600020905b8154815290600101906020018083116133af57829003601f168201915b505050505097508160030154965081600401549550816005015494508160060160009054906101000a900460ff1693508160060160019054906101000a900460ff1692505050919395975091939597565b6000806000806000600460003373ffffffffffffffffffffffffffffffffffffffff1673ffffffffffffffffffffffffffffffffffffffff16815260200190815260200160002054116040805190810160405280601e81526020017f4552524f525f43414c4c45525f49535f4e4f545f415554484f52495a45440000815250901515613544576040517f08c379a00000000000000000000000000000000000000000000000000000000081526004018080602001828103825283818151815260200191508051906020019080838360005b838110156135095780820151818401526020810190506134ee565b50505050905090810190601f1680156135365780820380516001836020036101000a031916815260200191505b509250505060405180910390fd5b508560006008600083600019166000191681526020019081526020016000209050600115158160070160009054906101000a900460ff161515146040805190810160405280601e81526020017f4552524f525f464c494748545f43414e4e4f545f42455f494e5355524544000081525090151561365c576040517f08c379a00000000000000000000000000000000000000000000000000000000081526004018080602001828103825283818151815260200191508051906020019080838360005b83811015613621578082015181840152602081019050613606565b50505050905090810190601f16801561364e5780820380516001836020036101000a031916815260200191505b509250505060405180910390fd5b50600034116040805190810160405280601981526020017f4552524f525f50555243484153455f56414c55455f49535f300000000000000081525090151561373f576040517f08c379a00000000000000000000000000000000000000000000000000000000081526004018080602001828103825283818151815260200191508051906020019080838360005b838110156137045780820151818401526020810190506136e9565b50505050905090810190601f1680156137315780820380516001836020036101000a031916815260200191505b509250505060405180910390fd5b5061374a8888612b55565b95506009600087600019166000191681526020019081526020016000209450670de0b6b3a76400008560040154106040805190810160405280601a81526020017f4552524f525f4d4158494d554d5f5052454d49554d5f50414944000000000000815250901515613856576040517f08c379a00000000000000000000000000000000000000000000000000000000081526004018080602001828103825283818151815260200191508051906020019080838360005b8381101561381b578082015181840152602081019050613800565b50505050905090810190601f1680156138485780820380516001836020036101000a031916815260200191505b509250505060405180910390fd5b508460040154670de0b6b3a7640000039350858560000181600019169055508685600201908051906020019061388d9291906152f4565b5087856003018160001916905550888560010160006101000a81548173ffffffffffffffffffffffffffffffffffffffff021916908373ffffffffffffffffffffffffffffffffffffffff16021790555083341115613946578385600401600082825401925050819055508873ffffffffffffffffffffffffffffffffffffffff166108fc8534039081150290604051600060405180830381858888f19350505050158015613940573d6000803e3d6000fd5b50613959565b3485600401600082825401925050819055505b6000856005018190555060008560060160006101000a81548160ff02191690831515021790555060008560060160016101000a81548160ff021916908315150217905550600015158560060160029054906101000a900460ff1615151415613a1257600860008960001916600019168152602001908152602001600020925085836009016000600186600a0154018152602001908152602001600020816000191690555082600a01600081548092919060010191905055505b60018560060160026101000a81548160ff021916908315150217905550505050505050505050565b60405180807f464c494748545f524547495354524154494f4e5f524f4c4500000000000000008152506018019050604051809103902081565b6000806000806000600460003373ffffffffffffffffffffffffffffffffffffffff1673ffffffffffffffffffffffffffffffffffffffff16815260200190815260200160002054116040805190810160405280601e81526020017f4552524f525f43414c4c45525f49535f4e4f545f415554484f52495a45440000815250901515613b9a576040517f08c379a00000000000000000000000000000000000000000000000000000000081526004018080602001828103825283818151815260200191508051906020019080838360005b83811015613b5f578082015181840152602081019050613b44565b50505050905090810190601f168015613b8c5780820380516001836020036101000a031916815260200191505b509250505060405180910390fd5b5085613bdd60405180807f4149524c494e455f524547495354524154494f4e5f524f4c450000000000000081525060190190506040518091039020826000614325565b606060405190810160405280602d81526020017f4552524f525f4d495353494e475f4149524c494e455f5245474953545241544981526020017f4f4e5f5045524d495353494f4e00000000000000000000000000000000000000815250901515613ce2576040517f08c379a00000000000000000000000000000000000000000000000000000000081526004018080602001828103825283818151815260200191508051906020019080838360005b83811015613ca7578082015181840152602081019050613c8c565b50505050905090810190601f168015613cd45780820380516001836020036101000a031916815260200191505b509250505060405180910390fd5b50856000600560008373ffffffffffffffffffffffffffffffffffffffff1673ffffffffffffffffffffffffffffffffffffffff1681526020019081526020016000209050600015158160030160009054906101000a900460ff16151514606060405190810160405280602381526020017f4552524f525f4149524c494e455f49535f414c52454144595f5245474953544581526020017f5245440000000000000000000000000000000000000000000000000000000000815250901515613e45576040517f08c379a00000000000000000000000000000000000000000000000000000000081526004018080602001828103825283818151815260200191508051906020019080838360005b83811015613e0a578082015181840152602081019050613def565b50505050905090810190601f168015613e375780820380516001836020036101000a031916815260200191505b509250505060405180910390fd5b50600560008973ffffffffffffffffffffffffffffffffffffffff1673ffffffffffffffffffffffffffffffffffffffff1681526020019081526020016000209350600015158460050160009054906101000a900460ff1615151415613ee857613eae88614b72565b935060001515613ebc612f06565b15151415613ee757613ecd84614df0565b600196508684600101546000809050965096509650613f06565b5b613ef28985614e61565b965086846001015460008090509650965096505b505050509250925092565b6000600260149054906101000a900460ff16905090565b600080600460003373ffffffffffffffffffffffffffffffffffffffff1673ffffffffffffffffffffffffffffffffffffffff16815260200190815260200160002054116040805190810160405280601e81526020017f4552524f525f43414c4c45525f49535f4e4f545f415554484f52495a4544000081525090151561404a576040517f08c379a00000000000000000000000000000000000000000000000000000000081526004018080602001828103825283818151815260200191508051906020019080838360005b8381101561400f578082015181840152602081019050613ff4565b50505050905090810190601f16801561403c5780820380516001836020036101000a031916815260200191505b509250505060405180910390fd5b50838383604051602001808473ffffffffffffffffffffffffffffffffffffffff1673ffffffffffffffffffffffffffffffffffffffff166c0100000000000000000000000002815260140183805190602001908083835b6020831015156140c757805182526020820191506020810190506020830392506140a2565b6001836020036101000a03801982511681845116808217855250505050505090500182815260200193505050506040516020818303038152906040526040518082805190602001908083835b6020831015156141385780518252602082019150602081019050602083039250614113565b6001836020036101000a038019825116818451168082178552505050505050905001915050604051809103902090509392505050565b60075481565b6000806000600460003373ffffffffffffffffffffffffffffffffffffffff1673ffffffffffffffffffffffffffffffffffffffff16815260200190815260200160002054116040805190810160405280601e81526020017f4552524f525f43414c4c45525f49535f4e4f545f415554484f52495a45440000815250901515614298576040517f08c379a00000000000000000000000000000000000000000000000000000000081526004018080602001828103825283818151815260200191508051906020019080838360005b8381101561425d578082015181840152602081019050614242565b50505050905090810190601f16801561428a5780820380516001836020036101000a031916815260200191505b509250505060405180910390fd5b506142d68888888080601f01602080910402602001604051908101604052809392919081815260200183838082843782019150505050505087613f28565b91506008600083600019166000191681526020019081526020016000209050828160040160016101000a81548160ff021916908360ff1602179055508381600501819055505050505050505050565b6000806143338486856150bb565b905060016000826000191660001916815260200190815260200160002060009054906101000a900460ff169150509392505050565b600060096000836000191660001916815260200190815260200160002090508060060160029054906101000a900460ff166040805190810160405280601b81526020017f4552524f525f504f4c4943595f444f45535f4e4f545f45584953540000000000815250901515614477576040517f08c379a00000000000000000000000000000000000000000000000000000000081526004018080602001828103825283818151815260200191508051906020019080838360005b8381101561443c578082015181840152602081019050614421565b50505050905090810190601f1680156144695780820380516001836020036101000a031916815260200191505b509250505060405180910390fd5b5060008160050154146040805190810160405280601b81526020017f4552524f525f414c52454144595f504149444f55545f434c41494d000000000081525090151561455e576040517f08c379a00000000000000000000000000000000000000000000000000000000081526004018080602001828103825283818151815260200191508051906020019080838360005b83811015614523578082015181840152602081019050614508565b50505050905090810190601f1680156145505780820380516001836020036101000a031916815260200191505b509250505060405180910390fd5b5061458a600261457c600384600401546151cb90919063ffffffff16565b61520390919063ffffffff16565b81600501819055505050565b6000600560008473ffffffffffffffffffffffffffffffffffffffff1673ffffffffffffffffffffffffffffffffffffffff1681526020019081526020016000209050818160040160008282540192505081905550505050565b6000806145fc85615219565b915060011515600080846000191660001916815260200190815260200160002060009054906101000a900460ff1615151415156146a1576040517f08c379a00000000000000000000000000000000000000000000000000000000081526004018080602001828103825260148152602001807f526f6c6520446f6573204e6f742045786973747300000000000000000000000081525060200191505060405180910390fd5b6146ac8486856150bb565b90506001806000836000191660001916815260200190815260200160002060006101000a81548160ff0219169083151502179055505050505050565b6000808560011515600560008373ffffffffffffffffffffffffffffffffffffffff1673ffffffffffffffffffffffffffffffffffffffff16815260200190815260200160002060050160009054906101000a900460ff161515146040805190810160405280601a81526020017f4552524f525f4149524c494e455f4e4f545f454e4c4953544544000000000000815250901515614821576040517f08c379a00000000000000000000000000000000000000000000000000000000081526004018080602001828103825283818151815260200191508051906020019080838360005b838110156147e65780820151818401526020810190506147cb565b50505050905090810190601f1680156148135780820380516001836020036101000a031916815260200191505b509250505060405180910390fd5b5061482d878787613f28565b9150600860008360001916600019168152602001908152602001600020925081836000018160001916905550858360020190805190602001906148719291906152f4565b50848360030181905550838360040160016101000a81548160ff021916908360ff16021790555060008360040160006101000a81548160ff021916908315150217905550868360010160006101000a81548173ffffffffffffffffffffffffffffffffffffffff021916908373ffffffffffffffffffffffffffffffffffffffff160217905550600183600b0160016101000a81548160ff02191690831515021790555060018360070160006101000a81548160ff021916908315150217905550600083600b0160006101000a81548160ff0219169083151502179055508292505050949350505050565b600082826000015460006008600083600019166000191681526020019081526020016000209050600015158160080160008573ffffffffffffffffffffffffffffffffffffffff1673ffffffffffffffffffffffffffffffffffffffff16815260200190815260200160002060009054906101000a900460ff16151514606060405190810160405280602f81526020017f4552524f525f4149524c494e455f4841535f414c52454144595f564f5445445f81526020017f464f525f544849535f464c494748540000000000000000000000000000000000815250901515614ade576040517f08c379a00000000000000000000000000000000000000000000000000000000081526004018080602001828103825283818151815260200191508051906020019080838360005b83811015614aa3578082015181840152602081019050614a88565b50505050905090810190601f168015614ad05780820380516001836020036101000a031916815260200191505b509250505060405180910390fd5b506001856006016000828254019250508190555060018560080160008873ffffffffffffffffffffffffffffffffffffffff1673ffffffffffffffffffffffffffffffffffffffff16815260200190815260200160002060006101000a81548160ff0219169083151502179055508460060154600354111515614b6957614b64856152d4565b600193505b50505092915050565b60008160001515600560008373ffffffffffffffffffffffffffffffffffffffff1673ffffffffffffffffffffffffffffffffffffffff16815260200190815260200160002060050160009054906101000a900460ff161515146040805190810160405280601e81526020017f4552524f525f4149524c494e455f414c52454144595f454e4c49535445440000815250901515614caa576040517f08c379a00000000000000000000000000000000000000000000000000000000081526004018080602001828103825283818151815260200191508051906020019080838360005b83811015614c6f578082015181840152602081019050614c54565b50505050905090810190601f168015614c9c5780820380516001836020036101000a031916815260200191505b509250505060405180910390fd5b507fec5c3ede3b3b008a6dcc318c18fdf73dd64116f751b07950c939709f2ca5a50183604051808273ffffffffffffffffffffffffffffffffffffffff1673ffffffffffffffffffffffffffffffffffffffff16815260200191505060405180910390a1600560008473ffffffffffffffffffffffffffffffffffffffff1673ffffffffffffffffffffffffffffffffffffffff1681526020019081526020016000209150828260000160006101000a81548173ffffffffffffffffffffffffffffffffffffffff021916908373ffffffffffffffffffffffffffffffffffffffff1602179055506000826001018190555060008260030160006101000a81548160ff02191690831515021790555060018260050160006101000a81548160ff021916908315150217905550600160076000828254019250508190555081915050919050565b60018160030160006101000a81548160ff02191690831515021790555060016006600082825401925050819055506001600760008282540392505081905550614e586064614e4a60326006546151cb90919063ffffffff16565b61520390919063ffffffff16565b60038190555050565b6000828260000160009054906101000a900473ffffffffffffffffffffffffffffffffffffffff166000600560008373ffffffffffffffffffffffffffffffffffffffff1673ffffffffffffffffffffffffffffffffffffffff1681526020019081526020016000209050600015158160020160008573ffffffffffffffffffffffffffffffffffffffff1673ffffffffffffffffffffffffffffffffffffffff16815260200190815260200160002060009054906101000a900460ff16151514606060405190810160405280603081526020017f4552524f525f4149524c494e455f4841535f414c52454144595f564f5445445f81526020017f464f525f544849535f4149524c494e4500000000000000000000000000000000815250901515615027576040517f08c379a00000000000000000000000000000000000000000000000000000000081526004018080602001828103825283818151815260200191508051906020019080838360005b83811015614fec578082015181840152602081019050614fd1565b50505050905090810190601f1680156150195780820380516001836020036101000a031916815260200191505b509250505060405180910390fd5b506001856001016000828254019250508190555060018560020160008873ffffffffffffffffffffffffffffffffffffffff1673ffffffffffffffffffffffffffffffffffffffff16815260200190815260200160002060006101000a81548160ff02191690831515021790555084600101546003541115156150b2576150ad85614df0565b600193505b50505092915050565b600083838360405160200180807f5045524d495353494f4e00000000000000000000000000000000000000000000815250600a018473ffffffffffffffffffffffffffffffffffffffff1673ffffffffffffffffffffffffffffffffffffffff166c010000000000000000000000000281526014018360001916600019168152602001826000191660001916815260200193505050506040516020818303038152906040526040518082805190602001908083835b6020831015156151955780518252602082019150602081019050602083039250615170565b6001836020036101000a038019825116818451168082178552505050505050905001915050604051809103902090509392505050565b6000808314156151de57600090506151fd565b81830290508183828115156151ef57fe5b041415156151f957fe5b8090505b92915050565b6000818381151561521057fe5b04905092915050565b60008160405160200180807f524f4c450000000000000000000000000000000000000000000000000000000081525060040182600019166000191681526020019150506040516020818303038152906040526040518082805190602001908083835b6020831015156152a0578051825260208201915060208101905060208303925061527b565b6001836020036101000a03801982511681845116808217855250505050505090500191505060405180910390209050919050565b60018160040160006101000a81548160ff02191690831515021790555050565b828054600181600116156101000203166002900490600052602060002090601f016020900481019282601f1061533557805160ff1916838001178555615363565b82800160010185558215615363579182015b82811115615362578251825591602001919060010190615347565b5b5090506153709190615374565b5090565b61539691905b8082111561539257600081600090555060010161537a565b5090565b905600a165627a7a7230582092bc7ab84e2d2e0f2c278c45fb9d481c55ad14cd4ed0a9aff806d27d3519ffd00029",
  "source": "pragma solidity ^0.4.25;\n\nimport \"../node_modules/openzeppelin-solidity/contracts/math/SafeMath.sol\";\nimport \"./Accesscontrol.sol\";\n\ncontract FlightSuretyData is AccessControl{\n    using SafeMath for uint256;\n\n    /********************************************************************************************/\n    /*                                       DATA VARIABLES                                     */\n    /********************************************************************************************/\n\n    address private contractOwner;                                      // Account used to deploy contract\n    bool private operational = true;                                    // Blocks all state changes throughout the contract if false\n    uint256 public consensus = 0;\n\n    /********************************************************************************************/\n    /*                                       SETTINGS                                           */\n    /********************************************************************************************/\n    uint256 constant public quorum = 4;\n    uint256 constant public minimumContribution = 10 ether;\n    uint256 constant public consensusPercentage = 50;\n    uint256 constant public maximumPremium = 1 ether;\n\n    /********************************************************************************************/\n    /*                                       ERROR CODES                                        */\n    /********************************************************************************************/\n    string private constant ERROR_NO_QUORUM = \"ERROR_NO_QUORUM\";\n    string private constant ERROR_MISSING_AUTHORIZE_CONTRACT_PERMISSION = \"ERROR_MISSING_AUTHORIZE_CONTRACT_PERMISSION\";\n    string private constant ERROR_CALLER_IS_NOT_AUTHORIZED = \"ERROR_CALLER_IS_NOT_AUTHORIZED\";\n    string private constant ERROR_FIRST_AIRLINE_ALREADY_REGISTERED = \"ERROR_FIRST_AIRLINE_ALREADY_REGISTERED\";\n    string private constant ERROR_AIRLINE_NOT_ENLISTED = \"ERROR_AIRLINE_NOT_ENLISTED\";\n    string private constant ERROR_AIRLINE_ALREADY_ENLISTED = \"ERROR_AIRLINE_ALREADY_ENLISTED\";\n    string private constant ERROR_AIRLINE_IS_NOT_REGISTERED = \"ERROR_AIRLINE_IS_NOT_REGISTERED\";\n    string private constant ERROR_AIRLINE_IS_ALREADY_REGISTERED = \"ERROR_AIRLINE_IS_ALREADY_REGISTERED\";\n\n    string internal constant ERROR_FLIGHT_NOT_ENLISTED = \"ERROR_FLIGHT_NOT_ENLISTED\";\n    string private constant ERROR_FLIGHT_ALREADY_ENLISTED = \"ERROR_FLIGHT_ALREADY_ENLISTED\";\n\n    string private constant ERROR_FLIGHT_CANNOT_BE_INSURED = \"ERROR_FLIGHT_CANNOT_BE_INSURED\";\n    string private constant ERROR_MAXIMUM_PREMIUM_PAID = \"ERROR_MAXIMUM_PREMIUM_PAID\";\n\n    string private constant ERROR_PURCHASE_VALUE_IS_0 = \"ERROR_PURCHASE_VALUE_IS_0\";\n    string private constant ERROR_POLICY_DOES_NOT_EXIST = \"ERROR_POLICY_DOES_NOT_EXIST\";\n    string internal constant ERROR_POLICY_CANNOT_CLAIM = \"ERROR_POLICY_CANNOT_CLAIM\";\n    string private constant ERROR_ALREADY_PAIDOUT_CLAIM = \"ERROR_ALREADY_PAIDOUT_CLAIM\";\n    string internal constant ERROR_ALREADY_PAIDOUT_CLAIMS = \"ERROR_ALREADY_PAIDOUT_CLAIMS\";\n    string internal constant ERROR_POLICY_HAS_NO_PAYOUT = \"ERROR_POLICY_HAS_NO_PAYOUT\";\n    string internal constant ERROR_NOT_POLICY_OWNER = \"ERROR_NOT_POLICY_OWNER\";\n\n    string internal constant ERROR_CLAIM_IS_ALREADY_WITHDRAWN = \"ERROR_CLAIM_IS_ALREADY_WITHDRAWN\";\n\n    string private constant ERROR_CALLER_NOT_CONTRACT_OWNER = \"ERROR_CALLER_NOT_CONTRACT_OWNER\";\n    string private constant ERROR_AIRLINE_ALREADY_VOTED_FOR_AIRLINE = \"ERROR_AIRLINE_HAS_ALREADY_VOTED_FOR_THIS_AIRLINE\";\n\n    string private constant ERROR_FLIGHT_IS_NOT_REGISTERED = \"ERROR_FLIGHT_IS_NOT_REGISTERED\";\n    string private constant ERROR_FLIGHT_IS_ALREADY_REGISTERED = \"ERROR_FLIGHT_IS_ALREADY_REGISTERED\";\n    string private constant ERROR_AIRLINE_ALREADY_VOTED_FOR_FLIGHT = \"ERROR_AIRLINE_HAS_ALREADY_VOTED_FOR_THIS_FLIGHT\";\n\n\n    mapping (address => uint256) internal authorizedContracts;\n\n    struct Airline {\n        address id;\n        uint256 votes;\n        mapping (address => bool) votedBy;\n        bool isRegistered;\n        uint256 contribution;\n        bool exists;\n    }\n    mapping (address => Airline) internal airlines;\n    uint256 public registered;\n    uint256 public registrationQueue;\n\n    struct Flight {\n        bytes32     Id;\n        address     airline;\n        string      flightNumber;\n        uint256     date;\n        bool        isRegistered;\n        uint8       statusCode;\n        uint256     updatedTimestamp;\n        uint256     votes;\n        bool        canBeInsured;\n        mapping     (address => bool) votedBy;\n        mapping     (uint256 => bytes32) policies;\n        uint256     policyCount;\n        bool        paidoutClaims;\n        bool        exists;\n    }\n    mapping(bytes32 => Flight) internal flights;\n\n    struct Policy {\n        bytes32  Id;\n        address  insured;\n        string   ticketNumber;\n        bytes32  flightId;\n        uint256  premium;\n        uint256  payout;\n        bool     isActive;\n        bool     isWithdrawn;\n        bool     exists;\n    }\n    mapping(bytes32 => Policy) internal policies;\n\n    /********************************************************************************************/\n    /*                                       EVENT DEFINITIONS                                  */\n    /********************************************************************************************/\n\n    event infoAddress(address val);\n    /**\n    * @dev Constructor\n    *      The deploying account becomes contractOwner\n    */\n    constructor() public {\n        contractOwner = msg.sender;\n        emit infoAddress(msg.sender);\n    }\n\n    /********************************************************************************************/\n    /*                                       FUNCTION MODIFIERS                                 */\n    /********************************************************************************************/\n    /**\n    * @dev Modifier that requires the \"ContractOwner\" account to be the function caller\n    */\n    modifier requireContractOwner()\n    {\n        require(msg.sender == contractOwner, \"Caller is not contract owner\");\n        _;\n    }\n\n    modifier requireCallerAuthorized()\n    {\n        require(authorizedContracts[msg.sender] > 0, ERROR_CALLER_IS_NOT_AUTHORIZED);\n        _;\n    }\n\n    modifier requireHasQuorum()\n    {\n        require(hasQuorum() == true, ERROR_NO_QUORUM);\n        _;\n    }\n\n    modifier requireAirlineExist(address _who)\n    {\n        require(airlines[_who].exists == true, ERROR_AIRLINE_NOT_ENLISTED);\n        _;  // All modifiers require an \"_\" which indicates where the function body will be added\n    }\n\n    modifier requireAirlineNotExist(address _who)\n    {\n        require(airlines[_who].exists == false, ERROR_AIRLINE_ALREADY_ENLISTED);\n        _;  // All modifiers require an \"_\" which indicates where the function body will be added\n    }\n\n    modifier requireIsRegistered(address _airlineAddress)\n    {\n        Airline storage airline_ = airlines[_airlineAddress];\n        require(airline_.isRegistered == true, ERROR_AIRLINE_IS_NOT_REGISTERED);\n        _;\n    }\n\n    modifier requireNonRegisteredAirline(address _airlineAddress)\n    {\n        Airline storage airline_ = airlines[_airlineAddress];\n        require(airline_.isRegistered == false, ERROR_AIRLINE_IS_ALREADY_REGISTERED);\n        _;\n    }\n\n    modifier requireFlightExist(\n        bytes32      _flightId\n    )\n    {\n        require(flights[_flightId].exists == true, ERROR_FLIGHT_NOT_ENLISTED);\n        _;\n    }\n\n    function flightExist(\n        bytes32      _flightId\n    )\n    public\n    view\n    returns(bool)\n    {\n        return flights[_flightId].exists;\n    }\n\n\n    modifier canAuthorizeCaller(address _who) {\n        require(has(AUTHORIZE_CONTRACT_ROLE, _who, \"\"), ERROR_MISSING_AUTHORIZE_CONTRACT_PERMISSION);\n        _;\n    }\n\n    modifier canRegisterAirline(address _who) {\n        require(has(AIRLINE_REGISTRATION_ROLE, _who, \"\"), ERROR_MISSING_AIRLINE_REGISTRATION_PERMISSION);\n        _;\n    }\n\n    modifier canRegisterFlight(address _who) {\n        require(has(FLIGHT_REGISTRATION_ROLE, _who, \"\"), ERROR_MISSING_FLIGHT_REGISTRATION_PERMISSION);\n        _;\n    }\n\n    modifier requireFlightNotExist(\n        bytes32      _flightId\n    )\n    {\n        require(flights[_flightId].exists == false, ERROR_FLIGHT_NOT_ENLISTED);\n        _;\n    }\n\n\n    modifier requireFlightCanBeInsured(bytes32 _flightId)\n    {\n        Flight storage flight_ = flights[_flightId];\n        require(flight_.canBeInsured == true, ERROR_FLIGHT_CANNOT_BE_INSURED);\n        _;\n    }\n\n    modifier requireNonRegisteredFlight(\n    address     _airline,\n    string      _flight,\n    uint256     _date\n    )\n    {\n        require(isFlightRegistered(_airline, _flight, _date) == false, ERROR_FLIGHT_IS_ALREADY_REGISTERED);\n        _;\n    }\n\n    modifier requireNotYetVotedAirlineXAirline(address _voter, address _votingFor)\n    {\n        Airline storage airline_ = airlines[_votingFor];\n        require(airline_.votedBy[_voter] == false, ERROR_AIRLINE_ALREADY_VOTED_FOR_AIRLINE);\n        _;\n    }\n\n    modifier requireNotYetVotedAirlineXFlight(address _voter, bytes32 _votingForFlightId)\n    {\n        Flight storage flight_ = flights[_votingForFlightId];\n        require(flight_.votedBy[_voter] == false, ERROR_AIRLINE_ALREADY_VOTED_FOR_FLIGHT);\n        _;\n    }\n\n    modifier requirePolicyExist(\n        bytes32      _policyId\n    )\n    {\n        require(policies[_policyId].exists == true, ERROR_POLICY_DOES_NOT_EXIST);\n        _;\n    }\n\n    /**\n    * @dev Modifier that requires the \"operational\" boolean variable to be \"true\"\n    *      This is used on all state changing functions to pause the contract in\n    *      the event there is an issue that needs to be fixed\n    */\n    modifier requireIsOperational()\n    {\n        require(operational, \"Contract is currently not operational\");\n        _;  // All modifiers require an \"_\" which indicates where the function body will be added\n    }\n\n    /********************************************************************************************/\n    /*                                       UTILITY FUNCTIONS                                  */\n    /********************************************************************************************/\n\n    /**\n    * @dev Get operating status of contract\n    *\n    * @return A bool that is the current operating status\n    */\n    function isOperational()\n                            public\n                            view\n                            returns(bool)\n    {\n        return operational;\n    }\n\n    function hasQuorum()  public view returns(bool hasQuorum_){\n        hasQuorum_ = registered >= quorum;\n    }\n\n    /**\n    * @dev Sets contract operations on/off\n    *\n    * When operational mode is disabled, all write transactions except for this one will fail\n    */\n    function setOperatingStatus(bool mode)\n                            external\n        requireContractOwner\n    {\n        operational = mode;\n    }\n\n    /********************************************************************************************/\n    /*                                     SMART CONTRACT FUNCTIONS                             */\n    /********************************************************************************************/\n\n    event info(string val);\n    function registerFirstAirline(address _airlineAddress)\n        external\n    {\n        require(registered == 0, ERROR_FIRST_AIRLINE_ALREADY_REGISTERED);\n        Airline storage airline_ = airlines[_airlineAddress];\n        airline_ = addAirline(_airlineAddress);\n        addPermission(AUTHORIZE_CONTRACT_ROLE, _airlineAddress, \"\");\n        incorporateAirline(airline_);\n    }\n\n    function authorizeContract(address _registrar)\n                            external\n                            canAuthorizeCaller(_registrar)\n    {\n        authorizedContracts[msg.sender] = 1;\n    }\n\n    function dethorizeContract(address _registrar, address _contractAddress)\n                            external\n                            canAuthorizeCaller(_registrar)\n    {\n        delete authorizedContracts[_contractAddress];\n    }\n\n    /**\n    * @dev Add an airline to the registration queue\n    *\n    */\n    function registerAirline(address _registrar, address _airlineAddress)\n        external\n        requireCallerAuthorized\n        canRegisterAirline(_registrar)\n        requireNonRegisteredAirline(_airlineAddress)\n        returns(bool success, uint256 votes, uint256 pendingVotes)\n    {\n        Airline storage airline_ = airlines[_airlineAddress];\n        if (airline_.exists == false) {\n            airline_ = addAirline(_airlineAddress);\n            if (hasQuorum() == false){\n                incorporateAirline(airline_);\n                success = true;\n                return (success, airline_.votes, 0);\n            }\n        }\n\n        success = voteAirlineXAirline(_registrar, airline_);\n\n        return (success, airline_.votes, 0);\n    }\n\n   /**\n    * @dev Add an airline to the registration queue\n    *      Can only be called from FlightSuretyApp contract\n    *\n    */\n    function addAirline(address _who)\n        internal\n        requireAirlineNotExist(_who)\n        returns(Airline storage airline_)\n    {\n        emit emitAddress(_who);\n        airline_ = airlines[_who];\n        airline_.id = _who;\n        airline_.votes = 0;\n        airline_.isRegistered = false;\n        airline_.exists = true;\n        registrationQueue += 1;\n        return airline_;\n    }\n\n    function addFlight(\n        address     _airline,\n        string      _flightNumber,\n        uint256     _date,\n        uint8       _statusCode\n    )\n        internal\n        requireAirlineExist(_airline)\n        returns(Flight storage flight_)\n    {\n        bytes32 flightId = getFlightKey(_airline, _flightNumber, _date);\n        flight_ = flights[flightId];\n        flight_.Id = flightId;\n        flight_.flightNumber = _flightNumber;\n        flight_.date = _date;\n        flight_.statusCode = _statusCode;\n        flight_.isRegistered = false;\n        flight_.airline = _airline;\n        flight_.exists = true;\n        flight_.canBeInsured = true;\n        flight_.paidoutClaims = false;\n        return flight_;\n    }\n\n\n\n    function incorporateAirline(Airline storage _airline)\n    internal\n    {\n        _airline.isRegistered = true;\n        registered += 1;\n        registrationQueue -= 1;\n        consensus = registered.mul(consensusPercentage).div(100);\n    }\n\n    function voteAirlineXAirline(address _voter, Airline storage _airline)\n    private\n    requireNotYetVotedAirlineXAirline(_voter, _airline.id)\n    returns(bool isRegistered_)\n    {\n        _airline.votes += 1;\n        _airline.votedBy[_voter] = true;\n        if (consensus <= _airline.votes){\n            incorporateAirline(_airline);\n            isRegistered_ = true;\n        }\n    }\n\n\n    function registerFlight(\n        address     _registrar,\n        address     _airline,\n        string      _flight,\n        uint256     _date\n    )\n        public\n        requireHasQuorum()\n        canRegisterFlight(_registrar)\n        requireNonRegisteredFlight(_airline, _flight, _date)\n        returns(bool success, uint256 votes, uint256 pendingVotes)\n    {\n        bytes32 flightId = getFlightKey(_airline, _flight, _date);\n        Flight storage flight_ = flights[flightId];\n        if (flight_.exists == false) {\n            flight_ = addFlight(_airline, _flight, _date, 0); // 0 is status code unknown\n        }\n\n        success = voteAirlineXFlight(_registrar, flight_);\n\n        return (success, flight_.votes, 0);\n    }\n\n\n    function voteAirlineXFlight(address _voter, Flight storage _flight)\n    private\n    requireNotYetVotedAirlineXFlight(_voter, _flight.Id)\n    returns(bool isRegistered_)\n    {\n        _flight.votes += 1;\n        _flight.votedBy[_voter] = true;\n        if (consensus <= _flight.votes){\n            incorporateFlight(_flight);\n            isRegistered_ = true;\n        }\n    }\n\n    function incorporateFlight(Flight storage _flight)\n    private\n    {\n        _flight.isRegistered = true;\n    }\n   /**\n    * @dev Buy insurance for a flight\n    *\n    */\n    function buy(\n        address  _buyer,\n        bytes32  _flightId,\n        string   _ticketNumber\n\n    )\n        public\n        requireCallerAuthorized\n        requireFlightCanBeInsured(_flightId)\n        payable\n    {\n        require(msg.value > 0, ERROR_PURCHASE_VALUE_IS_0);\n        bytes32 key = getPolicyKey(_flightId, _ticketNumber);\n        Policy storage policy_ = policies[key];\n        require(policy_.premium < maximumPremium, ERROR_MAXIMUM_PREMIUM_PAID);\n        uint256 maxPayablePremium = maximumPremium - policy_.premium;\n\n        policy_.Id = key;\n        policy_.ticketNumber = _ticketNumber;\n        policy_.flightId = _flightId;\n        policy_.insured = _buyer;\n        if (msg.value > maxPayablePremium){\n            policy_.premium += maxPayablePremium;\n            _buyer.transfer(msg.value - maxPayablePremium); //refund excess\n        }\n        else{\n            policy_.premium += msg.value;\n        }\n        policy_.payout = 0;\n        policy_.isActive = false;\n        policy_.isWithdrawn = false;\n\n        if (policy_.exists == false){\n            Flight storage flight_ = flights[_flightId];\n            flight_.policies[flight_.policyCount + 1] = key;\n            flight_.policyCount++;\n        }\n\n        policy_.exists = true;\n    }\n\n    event creditingInsuree(bytes32 policy);\n\n    /**\n    *  @dev Credits payouts to insurees\n    */\n    function creditInsurees\n    (\n        address  _caller,\n        bytes32  _flightId\n    )\n    external\n    requireCallerAuthorized\n    canPayoutClaims(_caller)\n    requireFlightExist(_flightId)\n    {\n\n        Flight storage flight_ = flights[_flightId];\n        require(flight_.statusCode > 10, ERROR_POLICY_CANNOT_CLAIM);\n        require(flight_.paidoutClaims == false, ERROR_ALREADY_PAIDOUT_CLAIMS);\n        for(uint i = 1 ; i <= flight_.policyCount; i++) {\n            emit creditingInsuree(flight_.policies[i]);\n            creditInsuree(flight_.policies[i]);\n        }\n        flight_.paidoutClaims = true;\n    }\n\n    function creditInsuree\n    (\n        bytes32  _policyId\n    )\n    internal\n    {\n        Policy storage policy_ = policies[_policyId];\n        require(policy_.exists, ERROR_POLICY_DOES_NOT_EXIST);\n        require(policy_.payout == 0, ERROR_ALREADY_PAIDOUT_CLAIM);\n        policy_.payout = policy_.premium.mul(3).div(2);\n    }\n\n    event emitAddress(address _address);\n     /**\n    * @dev Initial funding for the insurance. Unless there are too many delayed flights\n    *      resulting in insurance payouts, the contract should be self-sustaining\n    *\n    */\n    function fund\n    (\n        address _caller\n    )\n    requireCallerAuthorized\n    external\n    requireIsRegistered(_caller)\n    payable\n    {\n        contribute(_caller, msg.value);\n        Airline storage airline_ = airlines[_caller];\n        if (airline_.contribution >= minimumContribution){\n            if (has(AIRLINE_REGISTRATION_ROLE, _caller, \"\") == false){\n                addPermission(AUTHORIZE_CONTRACT_ROLE, _caller, \"\");\n                addPermission(AIRLINE_REGISTRATION_ROLE, _caller, \"\");\n                addPermission(FLIGHT_REGISTRATION_ROLE, _caller, \"\");\n                addPermission(CLAIMS_PAYOUT_ROLE, _caller, \"\");\n            }\n        }\n    }\n\n    function contribute\n        (\n            address _caller,\n            uint256 _contribution\n        )\n        internal\n    {\n        Airline storage airline_ = airlines[_caller];\n        airline_.contribution += _contribution;\n    }\n\n    /**\n     *  @dev Transfers eligible payout funds to insuree\n     *\n    */\n    function pay\n    (\n        address  _payee,\n        bytes32  _policyId\n    )\n        requireCallerAuthorized\n        external\n    {\n        Policy storage policy_ = policies[_policyId];\n        require(policy_.exists, ERROR_POLICY_DOES_NOT_EXIST);\n        require(policy_.insured == _payee, ERROR_NOT_POLICY_OWNER);\n        require(policy_.payout > 0, ERROR_POLICY_HAS_NO_PAYOUT);\n        require(policy_.isWithdrawn == false, ERROR_CLAIM_IS_ALREADY_WITHDRAWN);\n        policy_.isWithdrawn = true;\n        _payee.transfer(policy_.payout);\n\n    }\n\n\n\n\n    function getFlightKey\n    (\n        address airline,\n        string memory flight,\n        uint256 date\n    )\n    public\n    requireCallerAuthorized\n    returns(bytes32)\n    {\n        return keccak256(abi.encodePacked(airline, flight, date));\n    }\n\n    function getPolicyKey\n    (\n        bytes32 flightId,\n        string  ticketNumber\n    )\n    public\n    requireCallerAuthorized\n    returns(bytes32)\n    {\n        return keccak256(abi.encodePacked(flightId, ticketNumber));\n    }\n\n    function isAirline(address _who)\n                            public\n                            view\n                            returns(bool)\n    {\n        return airlines[_who].exists;\n    }\n\n    function isFlightRegistered(\n        address         _airline,\n        string memory   _flight,\n        uint256         _date\n    )\n        public\n        returns(bool)\n    {\n        bytes32 flightId_ = getFlightKey(_airline, _flight, _date);\n        return flights[flightId_].isRegistered;\n    }\n\n       /**\n    * @dev Called after oracle has updated flight status\n    *\n    */\n    function processFlightStatus\n    (\n        address         _airline,\n        string          _flight,\n        uint256         _date,\n        uint256         _timestamp,\n        uint8           _statusCode\n    )\n    external\n    requireCallerAuthorized\n    {\n        bytes32 flightId = getFlightKey(_airline, _flight, _date);\n\n        Flight storage flight_ = flights[flightId];\n        flight_.statusCode = _statusCode;\n        flight_.updatedTimestamp = _timestamp;\n    }\n\n    /********************************************************************************************/\n    /*                                       Fetch Summaries                                    */\n    /********************************************************************************************/\n    function fetchAirlineSummary(address _airlineAddress) public requireAirlineExist(_airlineAddress) view returns\n    (\n        uint256     votes_,\n        bool        isRegistered_,\n        uint256     contribution_\n    )\n    {\n        Airline storage airline_ = airlines[_airlineAddress];\n        votes_ = airline_.votes;\n        isRegistered_ = airline_.isRegistered;\n        contribution_ = airline_.contribution;\n    }\n\n    function fetchFlightSummary(bytes32 _flightId)\n    public\n    requireFlightExist(_flightId)\n    view returns\n    (\n        bytes32     Id_,\n        address     airline_,\n        string      flightNumber_,\n        uint256     date_,\n        bool        isRegistered_,\n        uint8       statusCode_,\n        uint256     updatedTimestamp_,\n        uint256     votes_,\n        bool        canBeInsured_,\n        uint256     policyCount_,\n        bool        paidoutClaims_\n    )\n    {\n        Flight storage flight_ = flights[_flightId];\n        Id_ = flight_.Id;\n        airline_ = flight_.airline;\n        flightNumber_ = flight_.flightNumber;\n        date_ = flight_.date;\n        isRegistered_ = flight_.isRegistered;\n        statusCode_ = flight_.statusCode;\n        updatedTimestamp_ = flight_.updatedTimestamp;\n        votes_ = flight_.votes;\n        canBeInsured_ = flight_.canBeInsured;\n        policyCount_ = flight_.policyCount;\n        paidoutClaims_ = flight_.paidoutClaims;\n    }\n\n    function fetchPolicySummary(bytes32 _policyId)\n    public\n    requirePolicyExist(_policyId)\n    view returns\n    (\n        bytes32  Id_,\n        address  insured_,\n        string   ticketNumber_,\n        bytes32  flightId_,\n        uint256  premium_,\n        uint256  payout_,\n        bool     isActive_,\n        bool     isWithdrawn_\n    )\n    {\n        Policy storage policy_ = policies[_policyId];\n        Id_ = policy_.Id;\n        insured_ = policy_.insured;\n        ticketNumber_ = policy_.ticketNumber;\n        flightId_ = policy_.flightId;\n        premium_ = policy_.premium;\n        payout_ = policy_.payout;\n        isActive_ = policy_.isActive;\n        isWithdrawn_ = policy_.isWithdrawn;\n    }\n\n}\n\n",
  "sourcePath": "/Users/Tony/Documents/Projects2018/BlockChain/flightSurety/contracts/FlightSuretyData.sol",
  "compiler": {
    "name": "solc",
    "version": "0.4.25+commit.59dbf8f1.Emscripten.clang"
  },
  "schemaVersion": "2.0.1",
  "updatedAt": "2019-04-03T18:14:37.000Z"
}