{
  "contractName": "FlightSuretyApp",
  "abi": [
    {
      "constant": true,
      "inputs": [],
      "name": "REGISTRATION_FEE",
      "outputs": [
        {
          "name": "",
          "type": "uint256"
        }
      ],
      "payable": false,
      "stateMutability": "view",
      "type": "function"
    },
    {
      "inputs": [
        {
          "name": "dataContract",
          "type": "address"
        }
      ],
      "payable": false,
      "stateMutability": "nonpayable",
      "type": "constructor"
    },
    {
      "payable": true,
      "stateMutability": "payable",
      "type": "fallback"
    },
    {
      "anonymous": false,
      "inputs": [
        {
          "indexed": false,
          "name": "airline",
          "type": "address"
        },
        {
          "indexed": false,
          "name": "flight",
          "type": "string"
        },
        {
          "indexed": false,
          "name": "date",
          "type": "uint256"
        },
        {
          "indexed": false,
          "name": "timestamp",
          "type": "uint256"
        },
        {
          "indexed": false,
          "name": "status",
          "type": "uint8"
        }
      ],
      "name": "FlightStatusInfo",
      "type": "event"
    },
    {
      "anonymous": false,
      "inputs": [
        {
          "indexed": false,
          "name": "airline",
          "type": "address"
        },
        {
          "indexed": false,
          "name": "flight",
          "type": "string"
        },
        {
          "indexed": false,
          "name": "date",
          "type": "uint256"
        },
        {
          "indexed": false,
          "name": "timestamp",
          "type": "uint256"
        },
        {
          "indexed": false,
          "name": "status",
          "type": "uint8"
        }
      ],
      "name": "OracleReport",
      "type": "event"
    },
    {
      "anonymous": false,
      "inputs": [
        {
          "indexed": false,
          "name": "index",
          "type": "uint32"
        },
        {
          "indexed": false,
          "name": "airline",
          "type": "address"
        },
        {
          "indexed": false,
          "name": "flight",
          "type": "string"
        },
        {
          "indexed": false,
          "name": "date",
          "type": "uint256"
        },
        {
          "indexed": false,
          "name": "timestamp",
          "type": "uint256"
        }
      ],
      "name": "OracleRequest",
      "type": "event"
    },
    {
      "anonymous": false,
      "inputs": [
        {
          "indexed": false,
          "name": "index",
          "type": "uint32"
        },
        {
          "indexed": false,
          "name": "airline",
          "type": "address"
        },
        {
          "indexed": false,
          "name": "flight",
          "type": "string"
        },
        {
          "indexed": false,
          "name": "date",
          "type": "uint256"
        },
        {
          "indexed": false,
          "name": "timestamp",
          "type": "uint256"
        },
        {
          "indexed": false,
          "name": "status",
          "type": "uint8"
        },
        {
          "indexed": false,
          "name": "info",
          "type": "string"
        }
      ],
      "name": "OracleResponse",
      "type": "event"
    },
    {
      "constant": true,
      "inputs": [],
      "name": "isOperational",
      "outputs": [
        {
          "name": "",
          "type": "bool"
        }
      ],
      "payable": false,
      "stateMutability": "pure",
      "type": "function"
    },
    {
      "constant": false,
      "inputs": [
        {
          "name": "_airlineAddress",
          "type": "address"
        }
      ],
      "name": "registerAirline",
      "outputs": [
        {
          "name": "success",
          "type": "bool"
        },
        {
          "name": "votes",
          "type": "uint256"
        },
        {
          "name": "pendingVotes",
          "type": "uint256"
        }
      ],
      "payable": false,
      "stateMutability": "nonpayable",
      "type": "function"
    },
    {
      "constant": false,
      "inputs": [],
      "name": "fund",
      "outputs": [],
      "payable": true,
      "stateMutability": "payable",
      "type": "function"
    },
    {
      "constant": false,
      "inputs": [
        {
          "name": "_airline",
          "type": "address"
        },
        {
          "name": "_flight",
          "type": "string"
        },
        {
          "name": "_date",
          "type": "uint256"
        }
      ],
      "name": "registerFlight",
      "outputs": [
        {
          "name": "success",
          "type": "bool"
        },
        {
          "name": "votes",
          "type": "uint256"
        },
        {
          "name": "pendingVotes",
          "type": "uint256"
        }
      ],
      "payable": false,
      "stateMutability": "nonpayable",
      "type": "function"
    },
    {
      "constant": false,
      "inputs": [
        {
          "name": "_airline",
          "type": "address"
        },
        {
          "name": "_flight",
          "type": "string"
        },
        {
          "name": "_date",
          "type": "uint256"
        },
        {
          "name": "_timestamp",
          "type": "uint256"
        }
      ],
      "name": "fetchFlightStatus",
      "outputs": [],
      "payable": false,
      "stateMutability": "nonpayable",
      "type": "function"
    },
    {
      "constant": true,
      "inputs": [],
      "name": "hasQuorum",
      "outputs": [
        {
          "name": "hasQuorum_",
          "type": "bool"
        }
      ],
      "payable": false,
      "stateMutability": "view",
      "type": "function"
    },
    {
      "constant": false,
      "inputs": [
        {
          "name": "_flightId",
          "type": "bytes32"
        }
      ],
      "name": "creditInsurees",
      "outputs": [],
      "payable": false,
      "stateMutability": "nonpayable",
      "type": "function"
    },
    {
      "constant": true,
      "inputs": [],
      "name": "fetchAirlinesSummary",
      "outputs": [
        {
          "name": "registered_",
          "type": "uint256"
        },
        {
          "name": "registrationQueue_",
          "type": "uint256"
        },
        {
          "name": "quorum_",
          "type": "uint256"
        },
        {
          "name": "consensusPercentage_",
          "type": "uint256"
        },
        {
          "name": "consensus_",
          "type": "uint256"
        }
      ],
      "payable": false,
      "stateMutability": "view",
      "type": "function"
    },
    {
      "constant": true,
      "inputs": [
        {
          "name": "_airlineAddress",
          "type": "address"
        }
      ],
      "name": "fetchAirlineSummary",
      "outputs": [
        {
          "name": "votes_",
          "type": "uint256"
        },
        {
          "name": "isRegistered_",
          "type": "bool"
        },
        {
          "name": "contribution_",
          "type": "uint256"
        }
      ],
      "payable": false,
      "stateMutability": "view",
      "type": "function"
    },
    {
      "constant": true,
      "inputs": [
        {
          "name": "_flightId",
          "type": "bytes32"
        }
      ],
      "name": "fetchFlightSummary",
      "outputs": [
        {
          "name": "Id_",
          "type": "bytes32"
        },
        {
          "name": "airline_",
          "type": "address"
        },
        {
          "name": "flightNumber_",
          "type": "string"
        },
        {
          "name": "date_",
          "type": "uint256"
        },
        {
          "name": "isRegistered_",
          "type": "bool"
        },
        {
          "name": "statusCode_",
          "type": "uint8"
        },
        {
          "name": "updatedTimestamp_",
          "type": "uint256"
        },
        {
          "name": "votes_",
          "type": "uint256"
        },
        {
          "name": "canBeInsured_",
          "type": "bool"
        },
        {
          "name": "policyCount_",
          "type": "uint256"
        },
        {
          "name": "paidoutClaims_",
          "type": "bool"
        }
      ],
      "payable": false,
      "stateMutability": "view",
      "type": "function"
    },
    {
      "constant": true,
      "inputs": [
        {
          "name": "_policyId",
          "type": "bytes32"
        }
      ],
      "name": "fetchPolicySummary",
      "outputs": [
        {
          "name": "Id_",
          "type": "bytes32"
        },
        {
          "name": "insured_",
          "type": "address"
        },
        {
          "name": "ticketNumber_",
          "type": "string"
        },
        {
          "name": "flightId_",
          "type": "bytes32"
        },
        {
          "name": "premium_",
          "type": "uint256"
        },
        {
          "name": "payout_",
          "type": "uint256"
        },
        {
          "name": "isActive_",
          "type": "bool"
        },
        {
          "name": "isWithdrawn_",
          "type": "bool"
        }
      ],
      "payable": false,
      "stateMutability": "view",
      "type": "function"
    },
    {
      "constant": true,
      "inputs": [
        {
          "name": "_who",
          "type": "address"
        }
      ],
      "name": "isAirline",
      "outputs": [
        {
          "name": "",
          "type": "bool"
        }
      ],
      "payable": false,
      "stateMutability": "view",
      "type": "function"
    },
    {
      "constant": true,
      "inputs": [
        {
          "name": "_airline",
          "type": "address"
        },
        {
          "name": "_flight",
          "type": "string"
        },
        {
          "name": "_date",
          "type": "uint256"
        }
      ],
      "name": "isFlightRegistered",
      "outputs": [
        {
          "name": "",
          "type": "bool"
        }
      ],
      "payable": false,
      "stateMutability": "view",
      "type": "function"
    },
    {
      "constant": false,
      "inputs": [
        {
          "name": "_flightId",
          "type": "bytes32"
        },
        {
          "name": "_ticketNumber",
          "type": "string"
        }
      ],
      "name": "buy",
      "outputs": [],
      "payable": true,
      "stateMutability": "payable",
      "type": "function"
    },
    {
      "constant": false,
      "inputs": [
        {
          "name": "_policyId",
          "type": "bytes32"
        }
      ],
      "name": "pay",
      "outputs": [],
      "payable": false,
      "stateMutability": "nonpayable",
      "type": "function"
    },
    {
      "constant": true,
      "inputs": [
        {
          "name": "_airline",
          "type": "address"
        },
        {
          "name": "_flight",
          "type": "string"
        },
        {
          "name": "_date",
          "type": "uint256"
        }
      ],
      "name": "getFlightKey",
      "outputs": [
        {
          "name": "",
          "type": "bytes32"
        }
      ],
      "payable": false,
      "stateMutability": "view",
      "type": "function"
    },
    {
      "constant": true,
      "inputs": [
        {
          "name": "_flightId",
          "type": "bytes32"
        },
        {
          "name": "_ticketNumber",
          "type": "string"
        }
      ],
      "name": "getPolicyKey",
      "outputs": [
        {
          "name": "",
          "type": "bytes32"
        }
      ],
      "payable": false,
      "stateMutability": "view",
      "type": "function"
    },
    {
      "constant": false,
      "inputs": [],
      "name": "registerOracle",
      "outputs": [],
      "payable": true,
      "stateMutability": "payable",
      "type": "function"
    },
    {
      "constant": true,
      "inputs": [],
      "name": "getMyIndexes",
      "outputs": [
        {
          "name": "",
          "type": "uint32[3]"
        }
      ],
      "payable": false,
      "stateMutability": "view",
      "type": "function"
    },
    {
      "constant": false,
      "inputs": [
        {
          "name": "_index",
          "type": "uint32"
        },
        {
          "name": "airline",
          "type": "address"
        },
        {
          "name": "flight",
          "type": "string"
        },
        {
          "name": "date",
          "type": "uint256"
        },
        {
          "name": "timestamp",
          "type": "uint256"
        },
        {
          "name": "statusCode",
          "type": "uint8"
        }
      ],
      "name": "submitOracleResponse",
      "outputs": [],
      "payable": false,
      "stateMutability": "nonpayable",
      "type": "function"
    },
    {
      "constant": false,
      "inputs": [],
      "name": "getSender",
      "outputs": [
        {
          "name": "",
          "type": "address"
        }
      ],
      "payable": false,
      "stateMutability": "nonpayable",
      "type": "function"
    }
  ],
  "bytecode": "0x60806040526000600160146101000a81548160ff021916908360ff1602179055503480156200002d57600080fd5b5060405160208062003ad68339810180604052810190808051906020019092919050505033600160006101000a81548173ffffffffffffffffffffffffffffffffffffffff021916908373ffffffffffffffffffffffffffffffffffffffff160217905550806000806101000a81548173ffffffffffffffffffffffffffffffffffffffff021916908373ffffffffffffffffffffffffffffffffffffffff1602179055506000809054906101000a900473ffffffffffffffffffffffffffffffffffffffff1673ffffffffffffffffffffffffffffffffffffffff16637d2ab0de336040518263ffffffff167c0100000000000000000000000000000000000000000000000000000000028152600401808273ffffffffffffffffffffffffffffffffffffffff1673ffffffffffffffffffffffffffffffffffffffff168152602001915050600060405180830381600087803b1580156200018f57600080fd5b505af1158015620001a4573d6000803e3d6000fd5b50505050620001c1620001c8640100000000026401000000009004565b50620002a0565b6000809054906101000a900473ffffffffffffffffffffffffffffffffffffffff1673ffffffffffffffffffffffffffffffffffffffff166367561d93336040518263ffffffff167c0100000000000000000000000000000000000000000000000000000000028152600401808273ffffffffffffffffffffffffffffffffffffffff1673ffffffffffffffffffffffffffffffffffffffff168152602001915050600060405180830381600087803b1580156200028557600080fd5b505af11580156200029a573d6000803e3d6000fd5b50505050565b61382680620002b06000396000f300608060405260043610610128576000357c0100000000000000000000000000000000000000000000000000000000900463ffffffff1680630e248a11146101ff578063241a53cb1461025a578063339d2590146103055780633cc0be9c1461030f57806349eb6580146103c85780635e01eb5a146104545780635f1cc0e6146104ab57806364b4f751146104fe57806377fa822414610529578063791fcd391461065f578063815b4d1b146106f25780638609cad114610721578063865561f7146107525780639a67c593146107bb578063a4595b4814610802578063b60d428814610871578063b841d47b1461087b578063bdfd98771461099a578063cc2f6eba14610a03578063cd905dff14610a34578063dfc0dff014610a63578063f983ec3014610b12575b6000809054906101000a900473ffffffffffffffffffffffffffffffffffffffff1673ffffffffffffffffffffffffffffffffffffffff16632302440834336040518363ffffffff167c0100000000000000000000000000000000000000000000000000000000028152600401808273ffffffffffffffffffffffffffffffffffffffff1673ffffffffffffffffffffffffffffffffffffffff1681526020019150506000604051808303818588803b1580156101e457600080fd5b505af11580156101f8573d6000803e3d6000fd5b5050505050005b34801561020b57600080fd5b50610240600480360381019080803573ffffffffffffffffffffffffffffffffffffffff169060200190929190505050610b7c565b604051808215151515815260200191505060405180910390f35b34801561026657600080fd5b506102eb600480360381019080803573ffffffffffffffffffffffffffffffffffffffff169060200190929190803590602001908201803590602001908080601f016020809104026020016040519081016040528093929190818152602001838380828437820191505050505050919291929080359060200190929190505050610c7c565b604051808215151515815260200191505060405180910390f35b61030d610df3565b005b34801561031b57600080fd5b506103a0600480360381019080803573ffffffffffffffffffffffffffffffffffffffff169060200190929190803590602001908201803590602001908080601f016020809104026020016040519081016040528093929190818152602001838380828437820191505050505050919291929080359060200190929190505050610f1b565b6040518084151515158152602001838152602001828152602001935050505060405180910390f35b3480156103d457600080fd5b50610452600480360381019080803563ffffffff169060200190929190803573ffffffffffffffffffffffffffffffffffffffff1690602001909291908035906020019082018035906020019190919293919293908035906020019092919080359060200190929190803560ff1690602001909291905050506110e3565b005b34801561046057600080fd5b50610469611ae1565b604051808273ffffffffffffffffffffffffffffffffffffffff1673ffffffffffffffffffffffffffffffffffffffff16815260200191505060405180910390f35b3480156104b757600080fd5b506104c0611ae9565b6040518082600360200280838360005b838110156104eb5780820151818401526020810190506104d0565b5050505090500191505060405180910390f35b34801561050a57600080fd5b50610513611c64565b6040518082815260200191505060405180910390f35b34801561053557600080fd5b506105586004803603810190808035600019169060200190929190505050611c70565b604051808c600019166000191681526020018b73ffffffffffffffffffffffffffffffffffffffff1673ffffffffffffffffffffffffffffffffffffffff168152602001806020018a8152602001891515151581526020018860ff1660ff168152602001878152602001868152602001851515151581526020018481526020018315151515815260200182810382528b818151815260200191508051906020019080838360005b8381101561061a5780820151818401526020810190506105ff565b50505050905090810190601f1680156106475780820380516001836020036101000a031916815260200191505b509c5050505050505050505050505060405180910390f35b34801561066b57600080fd5b506106d46004803603810190808035600019169060200190929190803590602001908201803590602001908080601f0160208091040260200160405190810160405280939291908181526020018383808284378201915050505050509192919290505050611e37565b60405180826000191660001916815260200191505060405180910390f35b3480156106fe57600080fd5b50610707611f81565b604051808215151515815260200191505060405180910390f35b34801561072d57600080fd5b50610750600480360381019080803560001916906020019092919050505061210a565b005b34801561075e57600080fd5b50610793600480360381019080803573ffffffffffffffffffffffffffffffffffffffff1690602001909291905050506121f1565b6040518084815260200183151515158152602001828152602001935050505060405180910390f35b3480156107c757600080fd5b506107d061230e565b604051808681526020018581526020018481526020018381526020018281526020019550505050505060405180910390f35b34801561080e57600080fd5b5061086f600480360381019080803573ffffffffffffffffffffffffffffffffffffffff16906020019092919080359060200190820180359060200191909192939192939080359060200190929190803590602001909291905050506126e7565b005b610879612c43565b005b34801561088757600080fd5b506108aa6004803603810190808035600019169060200190929190505050612d1a565b6040518089600019166000191681526020018873ffffffffffffffffffffffffffffffffffffffff1673ffffffffffffffffffffffffffffffffffffffff1681526020018060200187600019166000191681526020018681526020018581526020018415151515815260200183151515158152602001828103825288818151815260200191508051906020019080838360005b8381101561095857808201518184015260208101905061093d565b50505050905090810190601f1680156109855780820380516001836020036101000a031916815260200191505b50995050505050505050505060405180910390f35b3480156109a657600080fd5b506109db600480360381019080803573ffffffffffffffffffffffffffffffffffffffff169060200190929190505050612eb5565b6040518084151515158152602001838152602001828152602001935050505060405180910390f35b348015610a0f57600080fd5b50610a326004803603810190808035600019169060200190929190505050613006565b005b348015610a4057600080fd5b50610a496130ed565b604051808215151515815260200191505060405180910390f35b348015610a6f57600080fd5b50610af4600480360381019080803573ffffffffffffffffffffffffffffffffffffffff169060200190929190803590602001908201803590602001908080601f0160208091040260200160405190810160405280939291908181526020018383808284378201915050505050509192919290803590602001909291905050506130f6565b60405180826000191660001916815260200191505060405180910390f35b610b7a6004803603810190808035600019169060200190929190803590602001908201803590602001908080601f016020809104026020016040519081016040528093929190818152602001838380828437820191505050505050919291929050505061326d565b005b60008060009054906101000a900473ffffffffffffffffffffffffffffffffffffffff1673ffffffffffffffffffffffffffffffffffffffff16630e248a11836040518263ffffffff167c0100000000000000000000000000000000000000000000000000000000028152600401808273ffffffffffffffffffffffffffffffffffffffff1673ffffffffffffffffffffffffffffffffffffffff168152602001915050602060405180830381600087803b158015610c3a57600080fd5b505af1158015610c4e573d6000803e3d6000fd5b505050506040513d6020811015610c6457600080fd5b81019080805190602001909291905050509050919050565b60008060009054906101000a900473ffffffffffffffffffffffffffffffffffffffff1673ffffffffffffffffffffffffffffffffffffffff1663241a53cb8585856040518463ffffffff167c0100000000000000000000000000000000000000000000000000000000028152600401808473ffffffffffffffffffffffffffffffffffffffff1673ffffffffffffffffffffffffffffffffffffffff16815260200180602001838152602001828103825284818151815260200191508051906020019080838360005b83811015610d61578082015181840152602081019050610d46565b50505050905090810190601f168015610d8e5780820380516001836020036101000a031916815260200191505b50945050505050602060405180830381600087803b158015610daf57600080fd5b505af1158015610dc3573d6000803e3d6000fd5b505050506040513d6020811015610dd957600080fd5b810190808051906020019092919050505090509392505050565b610dfb613701565b670de0b6b3a76400003410151515610e7b576040517f08c379a000000000000000000000000000000000000000000000000000000000815260040180806020018281038252601c8152602001807f526567697374726174696f6e206665652069732072657175697265640000000081525060200191505060405180910390fd5b610e84336133c3565b9050604080519081016040528060011515815260200182815250600260003373ffffffffffffffffffffffffffffffffffffffff1673ffffffffffffffffffffffffffffffffffffffff16815260200190815260200160002060008201518160000160006101000a81548160ff021916908315150217905550602082015181600101906003610f14929190613724565b5090505050565b60008060008060009054906101000a900473ffffffffffffffffffffffffffffffffffffffff1673ffffffffffffffffffffffffffffffffffffffff166326bc37d9338888886040518563ffffffff167c0100000000000000000000000000000000000000000000000000000000028152600401808573ffffffffffffffffffffffffffffffffffffffff1673ffffffffffffffffffffffffffffffffffffffff1681526020018473ffffffffffffffffffffffffffffffffffffffff1673ffffffffffffffffffffffffffffffffffffffff16815260200180602001838152602001828103825284818151815260200191508051906020019080838360005b8381101561103657808201518184015260208101905061101b565b50505050905090810190601f1680156110635780820380516001836020036101000a031916815260200191505b5095505050505050606060405180830381600087803b15801561108557600080fd5b505af1158015611099573d6000803e3d6000fd5b505050506040513d60608110156110af57600080fd5b8101908080519060200190929190805190602001909291908051906020019092919050505092509250925093509350939050565b60007f0e2d792a9e670ffc94ded5bd95323ed0ebd6ac9ea4e950e9fbdd3da5028efb9288888888884288604051808863ffffffff1663ffffffff1681526020018773ffffffffffffffffffffffffffffffffffffffff1673ffffffffffffffffffffffffffffffffffffffff168152602001806020018581526020018481526020018360ff1660ff1681526020018060200183810383528888828181526020019250808284378201915050838103825260118152602001807f526573706f6e7365207265636965766564000000000000000000000000000000815250602001995050505050505050505060405180910390a18763ffffffff16600260003373ffffffffffffffffffffffffffffffffffffffff1673ffffffffffffffffffffffffffffffffffffffff168152602001908152602001600020600101600060038110151561122c57fe5b600891828204019190066004029054906101000a900463ffffffff1663ffffffff1614806112d057508763ffffffff16600260003373ffffffffffffffffffffffffffffffffffffffff1673ffffffffffffffffffffffffffffffffffffffff16815260200190815260200160002060010160016003811015156112ac57fe5b600891828204019190066004029054906101000a900463ffffffff1663ffffffff16145b8061135157508763ffffffff16600260003373ffffffffffffffffffffffffffffffffffffffff1673ffffffffffffffffffffffffffffffffffffffff168152602001908152602001600020600101600260038110151561132d57fe5b600891828204019190066004029054906101000a900463ffffffff1663ffffffff16145b15156113eb576040517f08c379a00000000000000000000000000000000000000000000000000000000081526004018080602001828103825260238152602001807f496e64657820646f6573206e6f74206d61746368206f7261636c65207265717581526020017f657374000000000000000000000000000000000000000000000000000000000081525060400191505060405180910390fd5b7f0e2d792a9e670ffc94ded5bd95323ed0ebd6ac9ea4e950e9fbdd3da5028efb9288888888884288604051808863ffffffff1663ffffffff1681526020018773ffffffffffffffffffffffffffffffffffffffff1673ffffffffffffffffffffffffffffffffffffffff168152602001806020018581526020018481526020018360ff1660ff16815260200180602001838103835288888281815260200192508082843782019150508381038252600d8152602001807f496e646578206d61746368657300000000000000000000000000000000000000815250602001995050505050505050505060405180910390a1878787878787604051602001808763ffffffff1663ffffffff167c01000000000000000000000000000000000000000000000000000000000281526004018673ffffffffffffffffffffffffffffffffffffffff1673ffffffffffffffffffffffffffffffffffffffff166c01000000000000000000000000028152601401858580828437820191505083815260200182815260200196505050505050506040516020818303038152906040526040518082805190602001908083835b6020831015156115bd5780518252602082019150602081019050602083039250611598565b6001836020036101000a0380198251168184511680821785525050505050509050019150506040518091039020905060036000826000191660001916815260200190815260200160002060000160149054906101000a900460ff1615156116b2576040517f08c379a000000000000000000000000000000000000000000000000000000000815260040180806020018281038252602f8152602001807f466c69676874206f722074696d657374616d7020646f206e6f74206d6174636881526020017f206f7261636c652072657175657374000000000000000000000000000000000081525060400191505060405180910390fd5b7f0e2d792a9e670ffc94ded5bd95323ed0ebd6ac9ea4e950e9fbdd3da5028efb9288888888884288604051808863ffffffff1663ffffffff1681526020018773ffffffffffffffffffffffffffffffffffffffff1673ffffffffffffffffffffffffffffffffffffffff168152602001806020018581526020018481526020018360ff1660ff1681526020018060200183810383528888828181526020019250808284378201915050838103825260118152602001807f526573706f6e73652069732076616c6964000000000000000000000000000000815250602001995050505050505050505060405180910390a160036000826000191660001916815260200190815260200160002060010160008360ff1660ff1681526020019081526020016000203390806001815401808255809150509060018203906000526020600020016000909192909190916101000a81548173ffffffffffffffffffffffffffffffffffffffff021916908373ffffffffffffffffffffffffffffffffffffffff160217905550507fabd78bf7e858d19599a8bfe8c79ea88cd6082929a3f768a19e670833ac29026d878787878787604051808773ffffffffffffffffffffffffffffffffffffffff1673ffffffffffffffffffffffffffffffffffffffff168152602001806020018581526020018481526020018360ff1660ff1681526020018281038252878782818152602001925080828437820191505097505050505050505060405180910390a16003806000836000191660001916815260200190815260200160002060010160008460ff1660ff16815260200190815260200160002080549050101515611ad7577f42233d2b91f405ca7d0e77a5dffdcb8ccd9ddffee8b84f5d1f2fe8222c32aa43878787878787604051808773ffffffffffffffffffffffffffffffffffffffff1673ffffffffffffffffffffffffffffffffffffffff168152602001806020018581526020018481526020018360ff1660ff1681526020018281038252878782818152602001925080828437820191505097505050505050505060405180910390a16000809054906101000a900473ffffffffffffffffffffffffffffffffffffffff1673ffffffffffffffffffffffffffffffffffffffff1663f7c2b71e8888888888886040518763ffffffff167c0100000000000000000000000000000000000000000000000000000000028152600401808773ffffffffffffffffffffffffffffffffffffffff1673ffffffffffffffffffffffffffffffffffffffff168152602001806020018581526020018481526020018360ff1660ff16815260200182810382528787828181526020019250808284378201915050975050505050505050600060405180830381600087803b158015611abe57600080fd5b505af1158015611ad2573d6000803e3d6000fd5b505050505b5050505050505050565b600033905090565b611af1613701565b600260003373ffffffffffffffffffffffffffffffffffffffff1673ffffffffffffffffffffffffffffffffffffffff16815260200190815260200160002060000160009054906101000a900460ff161515611bb5576040517f08c379a000000000000000000000000000000000000000000000000000000000815260040180806020018281038252601b8152602001807f4e6f74207265676973746572656420617320616e206f7261636c65000000000081525060200191505060405180910390fd5b600260003373ffffffffffffffffffffffffffffffffffffffff1673ffffffffffffffffffffffffffffffffffffffff168152602001908152602001600020600101600380602002604051908101604052809291908260038015611c5a576020028201916000905b82829054906101000a900463ffffffff1663ffffffff1681526020019060040190602082600301049283019260010382029150808411611c1d5790505b5050505050905090565b670de0b6b3a764000081565b60008060606000806000806000806000806000809054906101000a900473ffffffffffffffffffffffffffffffffffffffff1673ffffffffffffffffffffffffffffffffffffffff166377fa82248d6040518263ffffffff167c0100000000000000000000000000000000000000000000000000000000028152600401808260001916600019168152602001915050600060405180830381600087803b158015611d1957600080fd5b505af1158015611d2d573d6000803e3d6000fd5b505050506040513d6000823e3d601f19601f82011682018060405250610160811015611d5857600080fd5b8101908080519060200190929190805190602001909291908051640100000000811115611d8457600080fd5b82810190506020810184811115611d9a57600080fd5b8151856001820283011164010000000082111715611db757600080fd5b505092919060200180519060200190929190805190602001909291908051906020019092919080519060200190929190805190602001909291908051906020019092919080519060200190929190805190602001909291905050509a509a509a509a509a509a509a509a509a509a509a5091939597999b90929496989a50565b60008060009054906101000a900473ffffffffffffffffffffffffffffffffffffffff1673ffffffffffffffffffffffffffffffffffffffff1663791fcd3984846040518363ffffffff167c010000000000000000000000000000000000000000000000000000000002815260040180836000191660001916815260200180602001828103825283818151815260200191508051906020019080838360005b83811015611ef1578082015181840152602081019050611ed6565b50505050905090810190601f168015611f1e5780820380516001836020036101000a031916815260200191505b509350505050602060405180830381600087803b158015611f3e57600080fd5b505af1158015611f52573d6000803e3d6000fd5b505050506040513d6020811015611f6857600080fd5b8101908080519060200190929190505050905092915050565b60008060009054906101000a900473ffffffffffffffffffffffffffffffffffffffff1673ffffffffffffffffffffffffffffffffffffffff16631703a0186040518163ffffffff167c0100000000000000000000000000000000000000000000000000000000028152600401602060405180830381600087803b15801561200857600080fd5b505af115801561201c573d6000803e3d6000fd5b505050506040513d602081101561203257600080fd5b81019080805190602001909291905050506000809054906101000a900473ffffffffffffffffffffffffffffffffffffffff1673ffffffffffffffffffffffffffffffffffffffff16632de40ce36040518163ffffffff167c0100000000000000000000000000000000000000000000000000000000028152600401602060405180830381600087803b1580156120c857600080fd5b505af11580156120dc573d6000803e3d6000fd5b505050506040513d60208110156120f257600080fd5b81019080805190602001909291905050501015905090565b6000809054906101000a900473ffffffffffffffffffffffffffffffffffffffff1673ffffffffffffffffffffffffffffffffffffffff166346f8f30433836040518363ffffffff167c0100000000000000000000000000000000000000000000000000000000028152600401808373ffffffffffffffffffffffffffffffffffffffff1673ffffffffffffffffffffffffffffffffffffffff168152602001826000191660001916815260200192505050600060405180830381600087803b1580156121d657600080fd5b505af11580156121ea573d6000803e3d6000fd5b5050505050565b60008060008060009054906101000a900473ffffffffffffffffffffffffffffffffffffffff1673ffffffffffffffffffffffffffffffffffffffff1663865561f7856040518263ffffffff167c0100000000000000000000000000000000000000000000000000000000028152600401808273ffffffffffffffffffffffffffffffffffffffff1673ffffffffffffffffffffffffffffffffffffffff168152602001915050606060405180830381600087803b1580156122b257600080fd5b505af11580156122c6573d6000803e3d6000fd5b505050506040513d60608110156122dc57600080fd5b810190808051906020019092919080519060200190929190805190602001909291905050509250925092509193909250565b60008060008060008060009054906101000a900473ffffffffffffffffffffffffffffffffffffffff1673ffffffffffffffffffffffffffffffffffffffff16632de40ce36040518163ffffffff167c0100000000000000000000000000000000000000000000000000000000028152600401602060405180830381600087803b15801561239b57600080fd5b505af11580156123af573d6000803e3d6000fd5b505050506040513d60208110156123c557600080fd5b810190808051906020019092919050505094506000809054906101000a900473ffffffffffffffffffffffffffffffffffffffff1673ffffffffffffffffffffffffffffffffffffffff1663e99d70996040518163ffffffff167c0100000000000000000000000000000000000000000000000000000000028152600401602060405180830381600087803b15801561245d57600080fd5b505af1158015612471573d6000803e3d6000fd5b505050506040513d602081101561248757600080fd5b810190808051906020019092919050505093506000809054906101000a900473ffffffffffffffffffffffffffffffffffffffff1673ffffffffffffffffffffffffffffffffffffffff16631703a0186040518163ffffffff167c0100000000000000000000000000000000000000000000000000000000028152600401602060405180830381600087803b15801561251f57600080fd5b505af1158015612533573d6000803e3d6000fd5b505050506040513d602081101561254957600080fd5b810190808051906020019092919050505092506000809054906101000a900473ffffffffffffffffffffffffffffffffffffffff1673ffffffffffffffffffffffffffffffffffffffff16635e4c0e7e6040518163ffffffff167c0100000000000000000000000000000000000000000000000000000000028152600401602060405180830381600087803b1580156125e157600080fd5b505af11580156125f5573d6000803e3d6000fd5b505050506040513d602081101561260b57600080fd5b810190808051906020019092919050505091506000809054906101000a900473ffffffffffffffffffffffffffffffffffffffff1673ffffffffffffffffffffffffffffffffffffffff16638ef3f7616040518163ffffffff167c0100000000000000000000000000000000000000000000000000000000028152600401602060405180830381600087803b1580156126a357600080fd5b505af11580156126b7573d6000803e3d6000fd5b505050506040513d60208110156126cd57600080fd5b810190808051906020019092919050505090509091929394565b60008060008060009054906101000a900473ffffffffffffffffffffffffffffffffffffffff1673ffffffffffffffffffffffffffffffffffffffff1663dfc0dff0898989896040518563ffffffff167c0100000000000000000000000000000000000000000000000000000000028152600401808573ffffffffffffffffffffffffffffffffffffffff1673ffffffffffffffffffffffffffffffffffffffff168152602001806020018381526020018281038252858582818152602001925080828437820191505095505050505050602060405180830381600087803b1580156127d257600080fd5b505af11580156127e6573d6000803e3d6000fd5b505050506040513d60208110156127fc57600080fd5b810190808051906020019092919050505092506000809054906101000a900473ffffffffffffffffffffffffffffffffffffffff1673ffffffffffffffffffffffffffffffffffffffff166353abffdd846040518263ffffffff167c0100000000000000000000000000000000000000000000000000000000028152600401808260001916600019168152602001915050602060405180830381600087803b1580156128a757600080fd5b505af11580156128bb573d6000803e3d6000fd5b505050506040513d60208110156128d157600080fd5b81019080805190602001909291905050506040805190810160405280601981526020017f4552524f525f464c494748545f4e4f545f454e4c4953544544000000000000008152509015156129c0576040517f08c379a00000000000000000000000000000000000000000000000000000000081526004018080602001828103825283818151815260200191508051906020019080838360005b8381101561298557808201518184015260208101905061296a565b50505050905090810190601f1680156129b25780820380516001836020036101000a031916815260200191505b509250505060405180910390fd5b506129ca33613599565b9150818888888888604051602001808763ffffffff1663ffffffff167c01000000000000000000000000000000000000000000000000000000000281526004018673ffffffffffffffffffffffffffffffffffffffff1673ffffffffffffffffffffffffffffffffffffffff166c01000000000000000000000000028152601401858580828437820191505083815260200182815260200196505050505050506040516020818303038152906040526040518082805190602001908083835b602083101515612aae5780518252602082019150602081019050602083039250612a89565b6001836020036101000a0380198251168184511680821785525050505050509050019150506040518091039020905060408051908101604052803373ffffffffffffffffffffffffffffffffffffffff1681526020016001151581525060036000836000191660001916815260200190815260200160002060008201518160000160006101000a81548173ffffffffffffffffffffffffffffffffffffffff021916908373ffffffffffffffffffffffffffffffffffffffff16021790555060208201518160000160146101000a81548160ff0219169083151502179055509050507fafb0d223c70bba9cfdcac516cc0962cf450c1161fa00b6d8c92057eea0420e26828989898989604051808763ffffffff1663ffffffff1681526020018673ffffffffffffffffffffffffffffffffffffffff1673ffffffffffffffffffffffffffffffffffffffff168152602001806020018481526020018381526020018281038252868682818152602001925080828437820191505097505050505050505060405180910390a15050505050505050565b6000809054906101000a900473ffffffffffffffffffffffffffffffffffffffff1673ffffffffffffffffffffffffffffffffffffffff16632302440834336040518363ffffffff167c0100000000000000000000000000000000000000000000000000000000028152600401808273ffffffffffffffffffffffffffffffffffffffff1673ffffffffffffffffffffffffffffffffffffffff1681526020019150506000604051808303818588803b158015612cff57600080fd5b505af1158015612d13573d6000803e3d6000fd5b5050505050565b600080606060008060008060008060009054906101000a900473ffffffffffffffffffffffffffffffffffffffff1673ffffffffffffffffffffffffffffffffffffffff1663b841d47b8a6040518263ffffffff167c0100000000000000000000000000000000000000000000000000000000028152600401808260001916600019168152602001915050600060405180830381600087803b158015612dbf57600080fd5b505af1158015612dd3573d6000803e3d6000fd5b505050506040513d6000823e3d601f19601f82011682018060405250610100811015612dfe57600080fd5b8101908080519060200190929190805190602001909291908051640100000000811115612e2a57600080fd5b82810190506020810184811115612e4057600080fd5b8151856001820283011164010000000082111715612e5d57600080fd5b5050929190602001805190602001909291908051906020019092919080519060200190929190805190602001909291908051906020019092919050505097509750975097509750975097509750919395975091939597565b60008060008060009054906101000a900473ffffffffffffffffffffffffffffffffffffffff1673ffffffffffffffffffffffffffffffffffffffff1663c7ba501833866040518363ffffffff167c0100000000000000000000000000000000000000000000000000000000028152600401808373ffffffffffffffffffffffffffffffffffffffff1673ffffffffffffffffffffffffffffffffffffffff1681526020018273ffffffffffffffffffffffffffffffffffffffff1673ffffffffffffffffffffffffffffffffffffffff16815260200192505050606060405180830381600087803b158015612faa57600080fd5b505af1158015612fbe573d6000803e3d6000fd5b505050506040513d6060811015612fd457600080fd5b810190808051906020019092919080519060200190929190805190602001909291905050509250925092509193909250565b6000809054906101000a900473ffffffffffffffffffffffffffffffffffffffff1673ffffffffffffffffffffffffffffffffffffffff16631a86186533836040518363ffffffff167c0100000000000000000000000000000000000000000000000000000000028152600401808373ffffffffffffffffffffffffffffffffffffffff1673ffffffffffffffffffffffffffffffffffffffff168152602001826000191660001916815260200192505050600060405180830381600087803b1580156130d257600080fd5b505af11580156130e6573d6000803e3d6000fd5b5050505050565b60006001905090565b60008060009054906101000a900473ffffffffffffffffffffffffffffffffffffffff1673ffffffffffffffffffffffffffffffffffffffff1663dfc0dff08585856040518463ffffffff167c0100000000000000000000000000000000000000000000000000000000028152600401808473ffffffffffffffffffffffffffffffffffffffff1673ffffffffffffffffffffffffffffffffffffffff16815260200180602001838152602001828103825284818151815260200191508051906020019080838360005b838110156131db5780820151818401526020810190506131c0565b50505050905090810190601f1680156132085780820380516001836020036101000a031916815260200191505b50945050505050602060405180830381600087803b15801561322957600080fd5b505af115801561323d573d6000803e3d6000fd5b505050506040513d602081101561325357600080fd5b810190808051906020019092919050505090509392505050565b6000809054906101000a900473ffffffffffffffffffffffffffffffffffffffff1673ffffffffffffffffffffffffffffffffffffffff1663c2379b75343385856040518563ffffffff167c0100000000000000000000000000000000000000000000000000000000028152600401808473ffffffffffffffffffffffffffffffffffffffff1673ffffffffffffffffffffffffffffffffffffffff168152602001836000191660001916815260200180602001828103825283818151815260200191508051906020019080838360005b8381101561335957808201518184015260208101905061333e565b50505050905090810190601f1680156133865780820380516001836020036101000a031916815260200191505b509450505050506000604051808303818588803b1580156133a657600080fd5b505af11580156133ba573d6000803e3d6000fd5b50505050505050565b6133cb613701565b6133d3613701565b6133dc83613599565b8160006003811015156133eb57fe5b602002019063ffffffff16908163ffffffff168152505080600060038110151561341157fe5b602002015181600160038110151561342557fe5b602002019063ffffffff16908163ffffffff16815250505b80600060038110151561344c57fe5b602002015163ffffffff1681600160038110151561346657fe5b602002015163ffffffff1614156134ab5761348083613599565b81600160038110151561348f57fe5b602002019063ffffffff16908163ffffffff168152505061343d565b8060016003811015156134ba57fe5b60200201518160026003811015156134ce57fe5b602002019063ffffffff16908163ffffffff16815250505b8060006003811015156134f557fe5b602002015163ffffffff1681600260038110151561350f57fe5b602002015163ffffffff161480613557575080600160038110151561353057fe5b602002015163ffffffff1681600260038110151561354a57fe5b602002015163ffffffff16145b156135905761356583613599565b81600260038110151561357457fe5b602002019063ffffffff16908163ffffffff16815250506134e6565b80915050919050565b6000806000600791508163ffffffff166001601481819054906101000a900460ff168092919060010191906101000a81548160ff021916908360ff16021790555060ff16430340856040516020018083600019166000191681526020018273ffffffffffffffffffffffffffffffffffffffff1673ffffffffffffffffffffffffffffffffffffffff166c01000000000000000000000000028152601401925050506040516020818303038152906040526040518082805190602001908083835b60208310151561367f578051825260208201915060208101905060208303925061365a565b6001836020036101000a0380198251168184511680821785525050505050509050019150506040518091039020600190048115156136b957fe5b06905060fa600160149054906101000a900460ff1660ff1611156136f4576000600160146101000a81548160ff021916908360ff1602179055505b8060ff1692505050919050565b606060405190810160405280600390602082028038833980820191505090505090565b8260036007016008900481019282156137b65791602002820160005b8382111561378457835183826101000a81548163ffffffff021916908363ffffffff1602179055509260200192600401602081600301049283019260010302613740565b80156137b45782816101000a81549063ffffffff0219169055600401602081600301049283019260010302613784565b505b5090506137c391906137c7565b5090565b6137f791905b808211156137f357600081816101000a81549063ffffffff0219169055506001016137cd565b5090565b905600a165627a7a72305820600f876c541375c1799136f4a0488906d709f497237759aa35801bbebdde7af80029",
  "source": "pragma solidity ^0.4.25;\n\n// It's important to avoid vulnerabilities due to numeric overflow bugs\n// OpenZeppelin's SafeMath library, when used correctly, protects agains such bugs\n// More info: https://www.nccgroup.trust/us/about-us/newsroom-and-events/blog/2018/november/smart-contract-insecurity-bad-arithmetic/\n\nimport \"../node_modules/openzeppelin-solidity/contracts/math/SafeMath.sol\";\n\n/************************************************** */\n/* FlightSurety Smart Contract                      */\n/************************************************** */\n//contract FlightSuretyApp is FlightSuretyData {\ncontract FlightSuretyApp {\n    using SafeMath for uint256; // Allow SafeMath functions to be called for all uint256 types (similar to \"prototype\" in Javascript)\n\n    FlightSuretyData flightSuretyData;\n    /********************************************************************************************/\n    /*                                       DATA VARIABLES                                     */\n    /********************************************************************************************/\n    // Flight status codees\n    uint8 private constant STATUS_CODE_UNKNOWN = 0;\n    uint8 private constant STATUS_CODE_ON_TIME = 10;\n    uint8 private constant STATUS_CODE_LATE_AIRLINE = 20;\n    uint8 private constant STATUS_CODE_LATE_WEATHER = 30;\n    uint8 private constant STATUS_CODE_LATE_TECHNICAL = 40;\n    uint8 private constant STATUS_CODE_LATE_OTHER = 50;\n\n    string private constant ERROR_CONTRACT_NOT_OPERATIONAL = \"ERROR_CONTRACT_NOT_OPERATIONAL\";\n    string private constant ERROR_NO_QUORUM = \"ERROR_NO_QUORUM\";\n\n    string private constant ERROR_CALLER_NOT_CONTRACT_OWNER = \"ERROR_CALLER_NOT_CONTRACT_OWNER\";\n    string private constant ERROR_AIRLINE_IS_NOT_REGISTERED = \"ERROR_AIRLINE_IS_NOT_REGISTERED\";\n    string private constant ERROR_AIRLINE_IS_ALREADY_REGISTERED = \"ERROR_AIRLINE_IS_ALREADY_REGISTERED\";\n    string private constant ERROR_AIRLINE_ALREADY_VOTED_FOR_AIRLINE = \"ERROR_AIRLINE_HAS_ALREADY_VOTED_FOR_THIS_AIRLINE\";\n\n    string private constant ERROR_FLIGHT_NOT_ENLISTED = \"ERROR_FLIGHT_NOT_ENLISTED\";\n    string private constant ERROR_FLIGHT_IS_NOT_REGISTERED = \"ERROR_FLIGHT_IS_NOT_REGISTERED\";\n    string private constant ERROR_FLIGHT_IS_ALREADY_REGISTERED = \"ERROR_FLIGHT_IS_ALREADY_REGISTERED\";\n    string private constant ERROR_AIRLINE_ALREADY_VOTED_FOR_FLIGHT = \"ERROR_AIRLINE_HAS_ALREADY_VOTED_FOR_THIS_FLIGHT\";\n\n\n    address private contractOwner;          // Account used to deploy contract\n\n    /********************************************************************************************/\n    /*                                       FUNCTION MODIFIERS                                 */\n    /********************************************************************************************/\n\n    // Modifiers help avoid duplication of code. They are typically used to validate something\n    // before a function is allowed to be executed.\n\n\n    /**\n    * @dev Modifier that requires the \"operational\" boolean variable to be \"true\"\n    *      This is used on all state changing functions to pause the contract in\n    *      the event there is an issue that needs to be fixed\n    */\n    modifier requireIsOperational()\n    {\n         // Modify to call data contract's status\n        require(true, ERROR_CONTRACT_NOT_OPERATIONAL);\n        _;  // All modifiers require an \"_\" which indicates where the function body will be added\n    }\n\n\n\n    /**\n    * @dev Modifier that requires the \"ContractOwner\" account to be the function caller\n    */\n    modifier requireContractOwner()\n    {\n        require(msg.sender == contractOwner, ERROR_CALLER_NOT_CONTRACT_OWNER);\n        _;\n    }\n\n    /********************************************************************************************/\n    /*                                       CONSTRUCTOR                                        */\n    /********************************************************************************************/\n\n    /**\n    * @dev Contract constructor\n    *\n    */\n    constructor\n    (\n        address dataContract\n    )\n    public\n    {\n        contractOwner = msg.sender;\n        flightSuretyData = FlightSuretyData(dataContract);\n        flightSuretyData.registerFirstAirline(msg.sender);\n        authorizeDataContract();\n    }\n\n    /********************************************************************************************/\n    /*                                       UTILITY FUNCTIONS                                  */\n    /********************************************************************************************/\n\n    function isOperational()\n                            public\n                            pure\n                            returns(bool)\n    {\n        return true;\n    }\n\n    /********************************************************************************************/\n    /*                                     SMART CONTRACT FUNCTIONS                             */\n    /********************************************************************************************/\n\n\n        /**\n    * @dev Add an airline to the registration queue\n    *\n    */\n    function registerAirline(\n        address _airlineAddress)\n        public\n        returns(bool success, uint256 votes, uint256 pendingVotes)\n    {\n        return flightSuretyData.registerAirline(msg.sender, _airlineAddress);\n    }\n\n    /**\n    * @dev Fallback function for funding smart contract.\n    *\n    */\n    function()\n                            external\n                            payable\n    {\n        flightSuretyData.fund.value(msg.value)(msg.sender);\n    }\n\n    function fund\n    (\n    )\n    public\n    payable\n    {\n        flightSuretyData.fund.value(msg.value)(msg.sender);\n    }\n\n    /********************************************************************************************/\n    /*                                       Flight Functions                                   */\n    /********************************************************************************************/\n\n    function registerFlight(\n        address     _airline,\n        string      _flight,\n        uint256     _date\n    )\n        public\n        returns(bool success, uint256 votes, uint256 pendingVotes)\n    {\n        return flightSuretyData.registerFlight(msg.sender, _airline, _flight, _date);\n    }\n\n    // Generate a request for oracles to fetch flight information\n    function fetchFlightStatus\n    (\n        address     _airline,\n        string      _flight,\n        uint256     _date,\n        uint256     _timestamp\n    )\n    external\n    {\n        bytes32 flightId_ = flightSuretyData.getFlightKey(_airline, _flight, _date);\n        require(flightSuretyData.flightExist(flightId_), ERROR_FLIGHT_NOT_ENLISTED);\n        uint32 index_ = getRandomIndex(msg.sender);\n\n        // Generate a unique key for storing the request\n        bytes32 key = keccak256(abi.encodePacked(index_, _airline, _flight, _date, _timestamp));\n        oracleResponses[key] = ResponseInfo({requester: msg.sender, isOpen: true});\n\n        emit OracleRequest(index_, _airline, _flight, _date, _timestamp);\n    }\n\n    function hasQuorum()  public view returns(bool hasQuorum_){\n        hasQuorum_ = flightSuretyData.registered() >= flightSuretyData.quorum();\n    }\n\n\n    function creditInsurees\n    (\n        bytes32  _flightId\n    )\n    external{\n        return flightSuretyData.creditInsurees(msg.sender, _flightId);\n    }\n\n    /********************************************************************************************/\n    /*                                       Fetch Summaries                                    */\n    /********************************************************************************************/\n    function fetchAirlinesSummary() public view returns\n    (\n        uint256     registered_,\n        uint256     registrationQueue_,\n        uint256     quorum_,\n        uint256     consensusPercentage_,\n        uint256     consensus_\n    )\n    {\n        registered_ = flightSuretyData.registered();\n        registrationQueue_ = flightSuretyData.registrationQueue();\n        quorum_ = flightSuretyData.quorum();\n        consensusPercentage_ = flightSuretyData.consensusPercentage();\n        consensus_ = flightSuretyData.consensus();\n    }\n\n    function fetchAirlineSummary(address _airlineAddress)\n    public\n    view returns\n    (\n        uint256     votes_,\n        bool        isRegistered_,\n        uint256     contribution_\n    )\n    {\n        return flightSuretyData.fetchAirlineSummary(_airlineAddress);\n    }\n\n    function fetchFlightSummary(bytes32 _flightId)\n    public\n    view returns\n    (\n        bytes32     Id_,\n        address     airline_,\n        string      flightNumber_,\n        uint256     date_,\n        bool        isRegistered_,\n        uint8       statusCode_,\n        uint256     updatedTimestamp_,\n        uint256     votes_,\n        bool        canBeInsured_,\n        uint256     policyCount_,\n        bool        paidoutClaims_\n    )\n    {\n\n        return flightSuretyData.fetchFlightSummary(_flightId);\n    }\n\n    function fetchPolicySummary(bytes32 _policyId)\n    public\n    view returns\n    (\n        bytes32  Id_,\n        address  insured_,\n        string   ticketNumber_,\n        bytes32  flightId_,\n        uint256  premium_,\n        uint256  payout_,\n        bool     isActive_,\n        bool     isWithdrawn_\n    )\n    {\n        return flightSuretyData.fetchPolicySummary(_policyId);\n    }\n\n    /********************************************************************************************/\n    /*                                       Status Functions                                   */\n    /********************************************************************************************/\n    function isAirline(address _who)\n                            public\n                            view\n                            returns(bool)\n    {\n        return flightSuretyData.isAirline(_who);\n    }\n\n    function isFlightRegistered(\n        address         _airline,\n        string memory   _flight,\n        uint256         _date\n    )\n        public\n        view\n        returns(bool)\n    {\n        return flightSuretyData.isFlightRegistered(_airline, _flight, _date);\n    }\n\n    /********************************************************************************************/\n    /*                                       Policy Functions                                   */\n    /********************************************************************************************/\n\n    function buy(\n        bytes32  _flightId,\n        string   _ticketNumber\n    )\n        public\n        payable\n    {\n        return flightSuretyData.buy.value(msg.value)(msg.sender, _flightId, _ticketNumber);\n    }\n\n    function pay\n    (\n        bytes32  _policyId\n    )\n        external\n    {\n        return flightSuretyData.pay(msg.sender, _policyId);\n    }\n\n    /********************************************************************************************/\n    /*                                       Key Generators                                     */\n    /********************************************************************************************/\n\n    function getFlightKey\n    (\n        address _airline,\n        string memory _flight,\n        uint256 _date\n    )\n    public\n    view\n    returns(bytes32)\n    {\n        return flightSuretyData.getFlightKey(_airline, _flight, _date);\n    }\n\n    function getPolicyKey\n    (\n        bytes32 _flightId,\n        string  _ticketNumber\n    )\n    public\n    view\n    returns(bytes32)\n    {\n        return flightSuretyData.getPolicyKey(_flightId, _ticketNumber);\n    }\n\n\nfunction authorizeDataContract() internal{\n    return flightSuretyData.authorizeContract(msg.sender);\n}\n\n// region ORACLE MANAGEMENT\n\n    // Incremented to add pseudo-randomness at various points\n    uint8 private nonce = 0;\n\n    // Fee to be paid when registering oracle\n    uint256 public constant REGISTRATION_FEE = 1 ether;\n\n    // Number of oracles that must respond for valid status\n    uint256 private constant MIN_RESPONSES = 3;\n\n\n    struct Oracle {\n        bool isRegistered;\n        uint32[3] indexes;\n    }\n\n    // Track all registered oracles\n    mapping(address => Oracle) private oracles;\n\n    // Model for responses from oracles\n    struct ResponseInfo {\n        address requester;                              // Account that requested status\n        bool isOpen;                                    // If open, oracle responses are accepted\n        mapping(uint8 => address[]) responses;          // Mapping key is the status code reported\n                                                        // This lets us group responses and identify\n                                                        // the response that majority of the oracles\n    }\n\n    // Track all oracle responses\n    // Key = hash(index, flight, timestamp)\n    mapping(bytes32 => ResponseInfo) private oracleResponses;\n\n    // Event fired each time an oracle submits a response\n    event FlightStatusInfo(address airline, string flight, uint256 date, uint256 timestamp, uint8 status);\n\n    event OracleReport(address airline, string flight, uint256 date, uint256 timestamp, uint8 status);\n\n    // Event fired when flight status request is submitted\n    // Oracles track this and if they have a matching index\n    // they fetch data and submit a response\n    event OracleRequest(uint32 index, address airline, string flight, uint256 date, uint256 timestamp);\n\n    event OracleResponse(uint32 index, address airline, string flight, uint256 date, uint256 timestamp, uint8 status, string info);\n\n    // Register an oracle with the contract\n    function registerOracle\n                            (\n                            )\n                            external\n                            payable\n    {\n        // Require registration fee\n        require(msg.value >= REGISTRATION_FEE, \"Registration fee is required\");\n\n        uint32[3] memory indexes = generateIndexes(msg.sender);\n\n        oracles[msg.sender] = Oracle({\n            isRegistered: true,\n            indexes: indexes\n        });\n    }\n\n    function getMyIndexes\n                            (\n                            )\n                            external\n                            view\n                            returns(uint32[3])\n    {\n        require(oracles[msg.sender].isRegistered, \"Not registered as an oracle\");\n\n        return oracles[msg.sender].indexes;\n    }\n\n\n    // Called by oracle when a response is available to an outstanding request\n    // For the response to be accepted, there must be a pending request that is open\n    // and matches one of the three Indexes randomly assigned to the oracle at the\n    // time of registration (i.e. uninvited oracles are not welcome)\n    function submitOracleResponse\n    (\n        uint32 _index,\n        address airline,\n        string flight,\n        uint256 date,\n        uint256 timestamp,\n        uint8 statusCode\n    )\n    external\n    {\n        emit OracleResponse(_index, airline, flight, date, now, statusCode, \"Response recieved\");\n        require((oracles[msg.sender].indexes[0] == _index) || (oracles[msg.sender].indexes[1] == _index) || (oracles[msg.sender].indexes[2] == _index), \"Index does not match oracle request\");\n        emit OracleResponse(_index, airline, flight, date, now, statusCode, \"Index matches\");\n        bytes32 key = keccak256(abi.encodePacked(_index, airline, flight, date, timestamp));\n        require(oracleResponses[key].isOpen, \"Flight or timestamp do not match oracle request\");\n        emit OracleResponse(_index, airline, flight, date, now, statusCode, \"Response is valid\");\n        oracleResponses[key].responses[statusCode].push(msg.sender);\n\n        // Information isn't considered verified until at least MIN_RESPONSES\n        // oracles respond with the *** same *** information\n        emit OracleReport(airline, flight, date, timestamp,  statusCode);\n        if (oracleResponses[key].responses[statusCode].length >= MIN_RESPONSES) {\n\n            emit FlightStatusInfo(airline, flight, date, timestamp, statusCode);\n\n            // Handle flight status as appropriate\n            flightSuretyData.processFlightStatus(airline, flight, date, timestamp, statusCode);\n        }\n    }\n\n\n\n    // Returns array of three non-duplicating integers from 0-9\n    function generateIndexes\n    (\n        address account\n    )\n    internal\n    returns(uint32[3])\n    {\n        uint32[3] memory indexes;\n        indexes[0] = getRandomIndex(account);\n\n        indexes[1] = indexes[0];\n        while(indexes[1] == indexes[0]) {\n            indexes[1] = getRandomIndex(account);\n        }\n\n        indexes[2] = indexes[1];\n        while((indexes[2] == indexes[0]) || (indexes[2] == indexes[1])) {\n            indexes[2] = getRandomIndex(account);\n        }\n\n        return indexes;\n    }\n\n    function getSender\n    ()\n    public\n    returns (address)\n    {\n        return msg.sender;\n    }\n    // Returns array of three non-duplicating integers from 0-9\n    function getRandomIndex\n    (\n        address account\n    )\n    internal\n    returns (uint32)\n    {\n        uint32 maxValue = 7;\n\n        // Pseudo random number...the incrementing nonce adds variation\n        uint8 random = uint8(uint256(keccak256(abi.encodePacked(blockhash(block.number - nonce++), account))) % maxValue);\n\n        if (nonce > 250) {\n            nonce = 0;  // Can only fetch blockhashes for last 256 blocks so we adapt\n        }\n\n        return random;\n    }\n\n// endregion\n\n}\n\ncontract FlightSuretyData{\n    uint256 public registered;\n    uint256 public registrationQueue;\n    uint256 public quorum;\n    uint256 public consensus;\n    uint256 public minimumContribution;\n    uint256 public consensusPercentage;\n    uint256 public maximumPremium;\n\n    function authorizeContract(address _registrar) external;\n\n    function registerFirstAirline(address _airlineAddress) external;\n\n    function registerAirline(address _registrar, address _airlineAddress)\n                            external\n                            returns(bool success, uint256 votes, uint256 pendingVotes);\n\n    function fund(address _caller) external\n        payable;\n\n    function getFlightKey\n        (\n        address airline,\n        string memory flight,\n        uint256 date\n        )\n        public\n        pure\n        returns(bytes32);\n\n    function flightExist\n        (\n            bytes32  _flightId\n        )\n        public\n        view\n        returns(bool);\n\n    function isAirline(address _who)\n                            public\n                            view\n                            returns(bool);\n\n    function isFlightRegistered(\n        address         _airline,\n        string memory   _flight,\n        uint256         _date\n    )\n        public\n        view\n        returns(bool);\n\n    function processFlightStatus\n    (\n        address         _airline,\n        string          _flight,\n        uint256         _date,\n        uint256         _timestamp,\n        uint8           _statusCode\n    )\n    external;\n\n    function buy(\n        address   _buyer,\n        bytes32  _flightId,\n        string   _ticketNumber\n    )\n        public\n        payable;\n\n    function pay\n    (\n        address  _payee,\n        bytes32  _policyId\n    )\n        external;\n\n    function fetchAirlineSummary(address _airlineAddress) public view returns\n        (\n            uint256     votes_,\n            bool        isRegistered_,\n            uint256     contribution_\n        );\n\n    function fetchFlightSummary(bytes32 _flightId)\n    public\n    view returns\n        (\n            bytes32     Id_,\n            address     airline_,\n            string      flightNumber_,\n            uint256     date_,\n            bool        isRegistered_,\n            uint8       statusCode_,\n            uint256     updatedTimestamp_,\n            uint256     votes_,\n            bool        canBeInsured_,\n            uint256     policyCount_,\n            bool        paidoutClaims_\n        );\n\n    function fetchPolicySummary(bytes32 _policyId)\n    public\n    view returns\n        (\n            bytes32  Id_,\n            address  insured_,\n            string   ticketNumber_,\n            bytes32  flightId_,\n            uint256  premium_,\n            uint256  payout_,\n            bool     isActive_,\n            bool     isWithdrawn_\n        );\n\n    function registerFlight(\n        address     _registrar,\n        address     _airline,\n        string      _flight,\n        uint256     _date\n    )\n        public\n        returns(bool success, uint256 votes, uint256 pendingVotes);\n\n    function creditInsurees\n    (\n        address  _caller,\n        bytes32  _flightId\n    )\n    external;\n\n    function getPolicyKey\n    (\n        bytes32 flightId,\n        string  ticketNumber\n    )\n        public\n        pure\n        returns(bytes32);\n}",
  "sourcePath": "/Users/Tony/Documents/Projects2018/BlockChain/flightSurety/contracts/FlightSuretyApp.sol",
  "compiler": {
    "name": "solc",
    "version": "0.4.25+commit.59dbf8f1.Emscripten.clang"
  },
  "schemaVersion": "2.0.1",
  "updatedAt": "2019-04-02T20:41:33.628Z"
}