{
  "contractName": "FlightSuretyData",
  "abi": [
    {
      "inputs": [],
      "payable": false,
      "stateMutability": "nonpayable",
      "type": "constructor"
    },
    {
      "constant": true,
      "inputs": [],
      "name": "isOperational",
      "outputs": [
        {
          "name": "",
          "type": "bool"
        }
      ],
      "payable": false,
      "stateMutability": "view",
      "type": "function"
    },
    {
      "constant": false,
      "inputs": [
        {
          "name": "mode",
          "type": "bool"
        }
      ],
      "name": "setOperatingStatus",
      "outputs": [],
      "payable": false,
      "stateMutability": "nonpayable",
      "type": "function"
    },
    {
      "constant": false,
      "inputs": [
        {
          "name": "_flightId",
          "type": "bytes32"
        },
        {
          "name": "_ticketNumber",
          "type": "string"
        }
      ],
      "name": "buy",
      "outputs": [],
      "payable": true,
      "stateMutability": "payable",
      "type": "function"
    },
    {
      "constant": false,
      "inputs": [
        {
          "name": "_policyId",
          "type": "bytes32"
        }
      ],
      "name": "pay",
      "outputs": [],
      "payable": false,
      "stateMutability": "nonpayable",
      "type": "function"
    },
    {
      "constant": true,
      "inputs": [
        {
          "name": "airline",
          "type": "address"
        },
        {
          "name": "flight",
          "type": "string"
        },
        {
          "name": "date",
          "type": "uint256"
        }
      ],
      "name": "getFlightKey",
      "outputs": [
        {
          "name": "",
          "type": "bytes32"
        }
      ],
      "payable": false,
      "stateMutability": "pure",
      "type": "function"
    },
    {
      "constant": true,
      "inputs": [
        {
          "name": "flightId",
          "type": "bytes32"
        },
        {
          "name": "ticketNumber",
          "type": "string"
        }
      ],
      "name": "getPolicyKey",
      "outputs": [
        {
          "name": "",
          "type": "bytes32"
        }
      ],
      "payable": false,
      "stateMutability": "pure",
      "type": "function"
    },
    {
      "constant": true,
      "inputs": [
        {
          "name": "_who",
          "type": "address"
        }
      ],
      "name": "isAirline",
      "outputs": [
        {
          "name": "",
          "type": "bool"
        }
      ],
      "payable": false,
      "stateMutability": "view",
      "type": "function"
    },
    {
      "constant": true,
      "inputs": [
        {
          "name": "_airline",
          "type": "address"
        },
        {
          "name": "_flight",
          "type": "string"
        },
        {
          "name": "_date",
          "type": "uint256"
        }
      ],
      "name": "isFlightRegistered",
      "outputs": [
        {
          "name": "",
          "type": "bool"
        }
      ],
      "payable": false,
      "stateMutability": "view",
      "type": "function"
    }
  ],
  "bytecode": "0x60806040526001600060146101000a81548160ff021916908315150217905550600060015534801561003057600080fd5b50336000806101000a81548173ffffffffffffffffffffffffffffffffffffffff021916908373ffffffffffffffffffffffffffffffffffffffff1602179055506111d0806100806000396000f30060806040526004361061008e576000357c0100000000000000000000000000000000000000000000000000000000900463ffffffff1680630e248a1114610093578063110466ed146100ee578063241a53cb1461011d578063791fcd39146101c85780638609cad11461025b578063cd905dff1461028c578063dfc0dff0146102bb578063f983ec301461036a575b600080fd5b34801561009f57600080fd5b506100d4600480360381019080803573ffffffffffffffffffffffffffffffffffffffff1690602001909291905050506103d4565b604051808215151515815260200191505060405180910390f35b3480156100fa57600080fd5b5061011b60048036038101908080351515906020019092919050505061042d565b005b34801561012957600080fd5b506101ae600480360381019080803573ffffffffffffffffffffffffffffffffffffffff169060200190929190803590602001908201803590602001908080601f01602080910402602001604051908101604052809392919081815260200183838082843782019150505050505091929192908035906020019092919050505061050e565b604051808215151515815260200191505060405180910390f35b3480156101d457600080fd5b5061023d6004803603810190808035600019169060200190929190803590602001908201803590602001908080601f0160208091040260200160405190810160405280939291908181526020018383808284378201915050505050509192919290505050610554565b60405180826000191660001916815260200191505060405180910390f35b34801561026757600080fd5b5061028a600480360381019080803560001916906020019092919050505061063d565b005b34801561029857600080fd5b506102a1610aca565b604051808215151515815260200191505060405180910390f35b3480156102c757600080fd5b5061034c600480360381019080803573ffffffffffffffffffffffffffffffffffffffff169060200190929190803590602001908201803590602001908080601f016020809104026020016040519081016040528093929190818152602001838380828437820191505050505050919291929080359060200190929190505050610ae0565b60405180826000191660001916815260200191505060405180910390f35b6103d26004803603810190808035600019169060200190929190803590602001908201803590602001908080601f0160208091040260200160405190810160405280939291908181526020018383808284378201915050505050509192919290505050610c05565b005b6000600260008373ffffffffffffffffffffffffffffffffffffffff1673ffffffffffffffffffffffffffffffffffffffff16815260200190815260200160002060050160009054906101000a900460ff169050919050565b6000809054906101000a900473ffffffffffffffffffffffffffffffffffffffff1673ffffffffffffffffffffffffffffffffffffffff163373ffffffffffffffffffffffffffffffffffffffff161415156104f1576040517f08c379a000000000000000000000000000000000000000000000000000000000815260040180806020018281038252601c8152602001807f43616c6c6572206973206e6f7420636f6e7472616374206f776e65720000000081525060200191505060405180910390fd5b80600060146101000a81548160ff02191690831515021790555050565b60008061051c858585610ae0565b905060056000826000191660001916815260200190815260200160002060040160009054906101000a900460ff169150509392505050565b6000828260405160200180836000191660001916815260200182805190602001908083835b60208310151561059e5780518252602082019150602081019050602083039250610579565b6001836020036101000a038019825116818451168082178552505050505050905001925050506040516020818303038152906040526040518082805190602001908083835b60208310151561060857805182526020820191506020810190506020830392506105e3565b6001836020036101000a0380198251168184511680821785525050505050509050019150506040518091039020905092915050565b600060066000836000191660001916815260200190815260200160002090508060060160029054906101000a900460ff166040805190810160405280601b81526020017f4552524f525f504f4c4943595f444f45535f4e4f545f4558495354000000000081525090151561074c576040517f08c379a00000000000000000000000000000000000000000000000000000000081526004018080602001828103825283818151815260200191508051906020019080838360005b838110156107115780820151818401526020810190506106f6565b50505050905090810190601f16801561073e5780820380516001836020036101000a031916815260200191505b509250505060405180910390fd5b503373ffffffffffffffffffffffffffffffffffffffff168160010160009054906101000a900473ffffffffffffffffffffffffffffffffffffffff1673ffffffffffffffffffffffffffffffffffffffff16146040805190810160405280601681526020017f4552524f525f4e4f545f504f4c4943595f4f574e45520000000000000000000081525090151561087e576040517f08c379a00000000000000000000000000000000000000000000000000000000081526004018080602001828103825283818151815260200191508051906020019080838360005b83811015610843578082015181840152602081019050610828565b50505050905090810190601f1680156108705780820380516001836020036101000a031916815260200191505b509250505060405180910390fd5b5060008160050154116040805190810160405280601a81526020017f4552524f525f504f4c4943595f4841535f4e4f5f5041594f5554000000000000815250901515610965576040517f08c379a00000000000000000000000000000000000000000000000000000000081526004018080602001828103825283818151815260200191508051906020019080838360005b8381101561092a57808201518184015260208101905061090f565b50505050905090810190601f1680156109575780820380516001836020036101000a031916815260200191505b509250505060405180910390fd5b50600015158160060160019054906101000a900460ff161515146040805190810160405280602081526020017f4552524f525f434c41494d5f49535f414c52454144595f57495448445241574e815250901515610a5d576040517f08c379a00000000000000000000000000000000000000000000000000000000081526004018080602001828103825283818151815260200191508051906020019080838360005b83811015610a22578082015181840152602081019050610a07565b50505050905090810190601f168015610a4f5780820380516001836020036101000a031916815260200191505b509250505060405180910390fd5b5060018160060160016101000a81548160ff0219169083151502179055503373ffffffffffffffffffffffffffffffffffffffff166108fc82600501549081150290604051600060405180830381858888f19350505050158015610ac5573d6000803e3d6000fd5b505050565b60008060149054906101000a900460ff16905090565b6000838383604051602001808473ffffffffffffffffffffffffffffffffffffffff1673ffffffffffffffffffffffffffffffffffffffff166c0100000000000000000000000002815260140183805190602001908083835b602083101515610b5e5780518252602082019150602081019050602083039250610b39565b6001836020036101000a03801982511681845116808217855250505050505090500182815260200193505050506040516020818303038152906040526040518082805190602001908083835b602083101515610bcf5780518252602082019150602081019050602083039250610baa565b6001836020036101000a038019825116818451168082178552505050505050905001915050604051809103902090509392505050565b6000806000808560006005600083600019166000191681526020019081526020016000209050600115158160070160009054906101000a900460ff161515146040805190810160405280601e81526020017f4552524f525f464c494748545f43414e4e4f545f42455f494e53555245440000815250901515610d22576040517f08c379a00000000000000000000000000000000000000000000000000000000081526004018080602001828103825283818151815260200191508051906020019080838360005b83811015610ce7578082015181840152602081019050610ccc565b50505050905090810190601f168015610d145780820380516001836020036101000a031916815260200191505b509250505060405180910390fd5b50600034116040805190810160405280601981526020017f4552524f525f50555243484153455f56414c55455f49535f3000000000000000815250901515610e05576040517f08c379a00000000000000000000000000000000000000000000000000000000081526004018080602001828103825283818151815260200191508051906020019080838360005b83811015610dca578082015181840152602081019050610daf565b50505050905090810190601f168015610df75780820380516001836020036101000a031916815260200191505b509250505060405180910390fd5b50610e108888610554565b95506006600087600019166000191681526020019081526020016000209450670de0b6b3a76400008560040154106040805190810160405280601a81526020017f4552524f525f4d4158494d554d5f5052454d49554d5f50414944000000000000815250901515610f1c576040517f08c379a00000000000000000000000000000000000000000000000000000000081526004018080602001828103825283818151815260200191508051906020019080838360005b83811015610ee1578082015181840152602081019050610ec6565b50505050905090810190601f168015610f0e5780820380516001836020036101000a031916815260200191505b509250505060405180910390fd5b508460040154670de0b6b3a76400000393508585600001816000191690555086856002019080519060200190610f539291906110ff565b5087856003018160001916905550338560010160006101000a81548173ffffffffffffffffffffffffffffffffffffffff021916908373ffffffffffffffffffffffffffffffffffffffff1602179055508334111561100c578385600401600082825401925050819055503373ffffffffffffffffffffffffffffffffffffffff166108fc8534039081150290604051600060405180830381858888f19350505050158015611006573d6000803e3d6000fd5b5061101f565b3485600401600082825401925050819055505b6000856005018190555060008560060160006101000a81548160ff02191690831515021790555060008560060160016101000a81548160ff021916908315150217905550600015158560060160029054906101000a900460ff16151514156110d857600560008960001916600019168152602001908152602001600020925085836009016000600186600a0154018152602001908152602001600020816000191690555082600a01600081548092919060010191905055505b60018560060160026101000a81548160ff0219169083151502179055505050505050505050565b828054600181600116156101000203166002900490600052602060002090601f016020900481019282601f1061114057805160ff191683800117855561116e565b8280016001018555821561116e579182015b8281111561116d578251825591602001919060010190611152565b5b50905061117b919061117f565b5090565b6111a191905b8082111561119d576000816000905550600101611185565b5090565b905600a165627a7a72305820d78f62523bb0b3b7d4c9c3d4ee1bdd172bf44725d62fb12649ce15e3e05230070029",
  "source": "pragma solidity ^0.4.25;\n\nimport \"../node_modules/openzeppelin-solidity/contracts/math/SafeMath.sol\";\n\ncontract FlightSuretyData {\n    using SafeMath for uint256;\n\n    /********************************************************************************************/\n    /*                                       DATA VARIABLES                                     */\n    /********************************************************************************************/\n\n    address private contractOwner;                                      // Account used to deploy contract\n    bool private operational = true;                                    // Blocks all state changes throughout the contract if false\n    uint256 consensus = 0;\n\n    /********************************************************************************************/\n    /*                                       SETTINGS                                           */\n    /********************************************************************************************/\n    uint256 constant quorum = 4;\n    uint256 constant minimumContribution = 10 ether;\n    uint256 constant consensusPercentage = 50;\n    uint256 constant maximumPremium = 1 ether;\n\n    /********************************************************************************************/\n    /*                                       ERROR CODES                                        */\n    /********************************************************************************************/\n    string private constant ERROR_AIRLINE_NOT_ENLISTED = \"ERROR_AIRLINE_NOT_ENLISTED\";\n    string private constant ERROR_AIRLINE_ALREADY_ENLISTED = \"ERROR_AIRLINE_ALREADY_ENLISTED\";\n    string private constant ERROR_AIRLINE_IS_NOT_REGISTERED = \"ERROR_AIRLINE_IS_NOT_REGISTERED\";\n    string private constant ERROR_AIRLINE_IS_ALREADY_REGISTERED = \"ERROR_AIRLINE_IS_ALREADY_REGISTERED\";\n\n    string internal constant ERROR_FLIGHT_NOT_ENLISTED = \"ERROR_FLIGHT_NOT_ENLISTED\";\n    string private constant ERROR_FLIGHT_ALREADY_ENLISTED = \"ERROR_FLIGHT_ALREADY_ENLISTED\";\n\n    string private constant ERROR_FLIGHT_CANNOT_BE_INSURED = \"ERROR_FLIGHT_CANNOT_BE_INSURED\";\n    string private constant ERROR_MAXIMUM_PREMIUM_PAID = \"ERROR_MAXIMUM_PREMIUM_PAID\";\n\n    string private constant ERROR_PURCHASE_VALUE_IS_0 = \"ERROR_PURCHASE_VALUE_IS_0\";\n    string private constant ERROR_POLICY_DOES_NOT_EXIST = \"ERROR_POLICY_DOES_NOT_EXIST\";\n    string internal constant ERROR_POLICY_CANNOT_CLAIM = \"ERROR_POLICY_CANNOT_CLAIM\";\n    string private constant ERROR_ALREADY_PAIDOUT_CLAIM = \"ERROR_ALREADY_PAIDOUT_CLAIM\";\n    string internal constant ERROR_ALREADY_PAIDOUT_CLAIMS = \"ERROR_ALREADY_PAIDOUT_CLAIMS\";\n    string internal constant ERROR_POLICY_HAS_NO_PAYOUT = \"ERROR_POLICY_HAS_NO_PAYOUT\";\n    string internal constant ERROR_NOT_POLICY_OWNER = \"ERROR_NOT_POLICY_OWNER\";\n\n    string internal constant ERROR_CLAIM_IS_ALREADY_WITHDRAWN = \"ERROR_CLAIM_IS_ALREADY_WITHDRAWN\";\n\n\n    struct Airline {\n        address id;\n        uint256 votes;\n        mapping (address => bool) votedBy;\n        bool isRegistered;\n        uint256 contribution;\n        bool exists;\n    }\n    mapping (address => Airline) internal airlines;\n    uint256 registered;\n    uint256 registrationQueue;\n\n    struct Flight {\n        bytes32     Id;\n        address     airline;\n        string      flightNumber;\n        uint256     date;\n        bool        isRegistered;\n        uint8       statusCode;\n        uint256     updatedTimestamp;\n        uint256     votes;\n        bool        canBeInsured;\n        mapping     (address => bool) votedBy;\n        mapping     (uint256 => bytes32) policies;\n        uint256     policyCount;\n        bool        paidoutClaims;\n        bool        exists;\n    }\n    mapping(bytes32 => Flight) internal flights;\n\n    struct Policy {\n        bytes32  Id;\n        address  insured;\n        string   ticketNumber;\n        bytes32  flightId;\n        uint256  premium;\n        uint256  payout;\n        bool     isActive;\n        bool     isWithdrawn;\n        bool     exists;\n    }\n    mapping(bytes32 => Policy) internal policies;\n\n    /********************************************************************************************/\n    /*                                       EVENT DEFINITIONS                                  */\n    /********************************************************************************************/\n\n\n    /**\n    * @dev Constructor\n    *      The deploying account becomes contractOwner\n    */\n    constructor() public {\n        contractOwner = msg.sender;\n    }\n\n    /********************************************************************************************/\n    /*                                       FUNCTION MODIFIERS                                 */\n    /********************************************************************************************/\n\n    // Modifiers help avoid duplication of code. They are typically used to validate something\n    // before a function is allowed to be executed.\n\n    modifier requireAirlineExist(address _who)\n    {\n        require(airlines[_who].exists == true, ERROR_AIRLINE_NOT_ENLISTED);\n        _;  // All modifiers require an \"_\" which indicates where the function body will be added\n    }\n\n    modifier requireAirlineNotExist(address _who)\n    {\n        require(airlines[_who].exists == false, ERROR_AIRLINE_ALREADY_ENLISTED);\n        _;  // All modifiers require an \"_\" which indicates where the function body will be added\n    }\n\n    modifier requireFlightExist(\n        bytes32      _flightId\n    )\n    {\n        require(flights[_flightId].exists == true, ERROR_FLIGHT_NOT_ENLISTED);\n        _;\n    }\n\n    modifier requireFlightNotExist(\n        bytes32      _flightId\n    )\n    {\n        require(flights[_flightId].exists == false, ERROR_FLIGHT_NOT_ENLISTED);\n        _;\n    }\n\n    modifier requireIsRegistered(address _airlineAddress)\n    {\n        Airline storage airline_ = airlines[_airlineAddress];\n        require(airline_.isRegistered == true, ERROR_AIRLINE_IS_NOT_REGISTERED);\n        _;\n    }\n\n    modifier requireNonRegisteredAirline(address _airlineAddress)\n    {\n        Airline storage airline_ = airlines[_airlineAddress];\n        require(airline_.isRegistered == false, ERROR_AIRLINE_IS_ALREADY_REGISTERED);\n        _;\n    }\n\n    modifier requireFlightCanBeInsured(bytes32 _flightId)\n    {\n        Flight storage flight_ = flights[_flightId];\n        require(flight_.canBeInsured == true, ERROR_FLIGHT_CANNOT_BE_INSURED);\n        _;\n    }\n\n    modifier requirePolicyExist(\n        bytes32      _policyId\n    )\n    {\n        require(policies[_policyId].exists == true, ERROR_POLICY_DOES_NOT_EXIST);\n        _;\n    }\n\n    /**\n    * @dev Modifier that requires the \"operational\" boolean variable to be \"true\"\n    *      This is used on all state changing functions to pause the contract in\n    *      the event there is an issue that needs to be fixed\n    */\n    modifier requireIsOperational()\n    {\n        require(operational, \"Contract is currently not operational\");\n        _;  // All modifiers require an \"_\" which indicates where the function body will be added\n    }\n\n    /**\n    * @dev Modifier that requires the \"ContractOwner\" account to be the function caller\n    */\n    modifier requireContractOwner()\n    {\n        require(msg.sender == contractOwner, \"Caller is not contract owner\");\n        _;\n    }\n\n    /********************************************************************************************/\n    /*                                       UTILITY FUNCTIONS                                  */\n    /********************************************************************************************/\n\n    /**\n    * @dev Get operating status of contract\n    *\n    * @return A bool that is the current operating status\n    */\n    function isOperational()\n                            public\n                            view\n                            returns(bool)\n    {\n        return operational;\n    }\n\n\n    /**\n    * @dev Sets contract operations on/off\n    *\n    * When operational mode is disabled, all write transactions except for this one will fail\n    */\n    function setOperatingStatus(bool mode)\n                            external\n                            requireContractOwner\n    {\n        operational = mode;\n    }\n\n    /********************************************************************************************/\n    /*                                     SMART CONTRACT FUNCTIONS                             */\n    /********************************************************************************************/\n\n   /**\n    * @dev Add an airline to the registration queue\n    *      Can only be called from FlightSuretyApp contract\n    *\n    */\n    function addAirline(address _who)\n        internal\n        requireAirlineNotExist(_who)\n        returns(Airline storage airline_)\n    {\n        airline_ = airlines[_who];\n        airline_.id = _who;\n        airline_.votes = 0;\n        airline_.isRegistered = false;\n        airline_.exists = true;\n        registrationQueue += 1;\n        return airline_;\n    }\n\n    function addFlight(\n        address     _airline,\n        string      _flightNumber,\n        uint256     _date,\n        uint8       _statusCode\n    )\n        internal\n        requireAirlineExist(_airline)\n        returns(Flight storage flight_)\n    {\n        bytes32 flightId = getFlightKey(_airline, _flightNumber, _date);\n        flight_ = flights[flightId];\n        flight_.Id = flightId;\n        flight_.flightNumber = _flightNumber;\n        flight_.date = _date;\n        flight_.statusCode = _statusCode;\n        flight_.isRegistered = false;\n        flight_.airline = _airline;\n        flight_.exists = true;\n        flight_.canBeInsured = true;\n        flight_.paidoutClaims = false;\n        return flight_;\n    }\n\n   /**\n    * @dev Buy insurance for a flight\n    *\n    */\n    function buy(\n        bytes32  _flightId,\n        string   _ticketNumber\n    )\n        public\n        requireFlightCanBeInsured(_flightId)\n        payable\n    {\n        require(msg.value > 0, ERROR_PURCHASE_VALUE_IS_0);\n        bytes32 key = getPolicyKey(_flightId, _ticketNumber);\n        Policy storage policy_ = policies[key];\n        require(policy_.premium < maximumPremium, ERROR_MAXIMUM_PREMIUM_PAID);\n        uint256 maxPayablePremium = maximumPremium - policy_.premium;\n\n        policy_.Id = key;\n        policy_.ticketNumber = _ticketNumber;\n        policy_.flightId = _flightId;\n        policy_.insured = msg.sender;\n        if (msg.value > maxPayablePremium){\n            policy_.premium += maxPayablePremium;\n            msg.sender.transfer(msg.value - maxPayablePremium); //refund excess\n        }\n        else{\n            policy_.premium += msg.value;\n        }\n        policy_.payout = 0;\n        policy_.isActive = false;\n        policy_.isWithdrawn = false;\n\n        if (policy_.exists == false){\n            Flight storage flight_ = flights[_flightId];\n            flight_.policies[flight_.policyCount + 1] = key;\n            flight_.policyCount++;\n        }\n\n        policy_.exists = true;\n    }\n\n    function creditInsuree\n    (\n        bytes32  _policyId\n    )\n    internal\n    {\n        Policy storage policy_ = policies[_policyId];\n        require(policy_.exists, ERROR_POLICY_DOES_NOT_EXIST);\n        require(policy_.payout == 0, ERROR_ALREADY_PAIDOUT_CLAIM);\n        policy_.payout = policy_.premium.mul(3).div(2);\n    }\n\n    /**\n     *  @dev Transfers eligible payout funds to insuree\n     *\n    */\n    function pay\n    (\n        bytes32  _policyId\n    )\n        external\n    {\n        Policy storage policy_ = policies[_policyId];\n        require(policy_.exists, ERROR_POLICY_DOES_NOT_EXIST);\n        require(policy_.insured == msg.sender, ERROR_NOT_POLICY_OWNER);\n        require(policy_.payout > 0, ERROR_POLICY_HAS_NO_PAYOUT);\n        require(policy_.isWithdrawn == false, ERROR_CLAIM_IS_ALREADY_WITHDRAWN);\n        policy_.isWithdrawn = true;\n        msg.sender.transfer(policy_.payout);\n\n    }\n\n\n    function contribute\n                            (\n                            )\n                            internal\n    {\n        Airline storage airline_ = airlines[msg.sender];\n        airline_.contribution += msg.value;\n    }\n\n    function getFlightKey\n    (\n        address airline,\n        string memory flight,\n        uint256 date\n    )\n    public\n    pure\n    returns(bytes32)\n    {\n        return keccak256(abi.encodePacked(airline, flight, date));\n    }\n\n    function getPolicyKey\n    (\n        bytes32 flightId,\n        string  ticketNumber\n    )\n    public\n    pure\n    returns(bytes32)\n    {\n        return keccak256(abi.encodePacked(flightId, ticketNumber));\n    }\n\n    function isAirline(address _who)\n                            public\n                            view\n                            returns(bool)\n    {\n        return airlines[_who].exists;\n    }\n\n    function isFlightRegistered(\n        address         _airline,\n        string memory   _flight,\n        uint256         _date\n    )\n        public\n        view\n        returns(bool)\n    {\n        bytes32 flightId_ = getFlightKey(_airline, _flight, _date);\n        return flights[flightId_].isRegistered;\n    }\n}\n\n",
  "sourcePath": "/Users/Tony/Documents/Projects2018/BlockChain/flightSurety/contracts/flightSuretyData.sol",
  "compiler": {
    "name": "solc",
    "version": "0.4.25+commit.59dbf8f1.Emscripten.clang"
  },
  "schemaVersion": "2.0.1",
  "updatedAt": "2019-03-23T22:03:03.926Z"
}