{
  "contractName": "FlightSuretyApp",
  "abi": [
    {
      "constant": true,
      "inputs": [],
      "name": "REGISTRATION_FEE",
      "outputs": [
        {
          "name": "",
          "type": "uint256"
        }
      ],
      "payable": false,
      "stateMutability": "view",
      "type": "function"
    },
    {
      "inputs": [
        {
          "name": "dataContract",
          "type": "address"
        }
      ],
      "payable": false,
      "stateMutability": "nonpayable",
      "type": "constructor"
    },
    {
      "payable": true,
      "stateMutability": "payable",
      "type": "fallback"
    },
    {
      "anonymous": false,
      "inputs": [
        {
          "indexed": false,
          "name": "airline",
          "type": "address"
        },
        {
          "indexed": false,
          "name": "flight",
          "type": "string"
        },
        {
          "indexed": false,
          "name": "date",
          "type": "uint256"
        },
        {
          "indexed": false,
          "name": "timestamp",
          "type": "uint256"
        },
        {
          "indexed": false,
          "name": "status",
          "type": "uint8"
        }
      ],
      "name": "FlightStatusInfo",
      "type": "event"
    },
    {
      "anonymous": false,
      "inputs": [
        {
          "indexed": false,
          "name": "airline",
          "type": "address"
        },
        {
          "indexed": false,
          "name": "flight",
          "type": "string"
        },
        {
          "indexed": false,
          "name": "date",
          "type": "uint256"
        },
        {
          "indexed": false,
          "name": "timestamp",
          "type": "uint256"
        },
        {
          "indexed": false,
          "name": "status",
          "type": "uint8"
        }
      ],
      "name": "OracleReport",
      "type": "event"
    },
    {
      "anonymous": false,
      "inputs": [
        {
          "indexed": false,
          "name": "index",
          "type": "uint32"
        },
        {
          "indexed": false,
          "name": "airline",
          "type": "address"
        },
        {
          "indexed": false,
          "name": "flight",
          "type": "string"
        },
        {
          "indexed": false,
          "name": "date",
          "type": "uint256"
        },
        {
          "indexed": false,
          "name": "timestamp",
          "type": "uint256"
        }
      ],
      "name": "OracleRequest",
      "type": "event"
    },
    {
      "constant": true,
      "inputs": [],
      "name": "isOperational",
      "outputs": [
        {
          "name": "",
          "type": "bool"
        }
      ],
      "payable": false,
      "stateMutability": "pure",
      "type": "function"
    },
    {
      "constant": false,
      "inputs": [
        {
          "name": "_airlineAddress",
          "type": "address"
        }
      ],
      "name": "registerAirline",
      "outputs": [
        {
          "name": "success",
          "type": "bool"
        },
        {
          "name": "votes",
          "type": "uint256"
        },
        {
          "name": "pendingVotes",
          "type": "uint256"
        }
      ],
      "payable": false,
      "stateMutability": "nonpayable",
      "type": "function"
    },
    {
      "constant": false,
      "inputs": [],
      "name": "fund",
      "outputs": [],
      "payable": true,
      "stateMutability": "payable",
      "type": "function"
    },
    {
      "constant": false,
      "inputs": [
        {
          "name": "_airline",
          "type": "address"
        },
        {
          "name": "_flight",
          "type": "string"
        },
        {
          "name": "_date",
          "type": "uint256"
        }
      ],
      "name": "registerFlight",
      "outputs": [
        {
          "name": "success",
          "type": "bool"
        },
        {
          "name": "votes",
          "type": "uint256"
        },
        {
          "name": "pendingVotes",
          "type": "uint256"
        }
      ],
      "payable": false,
      "stateMutability": "nonpayable",
      "type": "function"
    },
    {
      "constant": false,
      "inputs": [
        {
          "name": "_airline",
          "type": "address"
        },
        {
          "name": "_flight",
          "type": "string"
        },
        {
          "name": "_date",
          "type": "uint256"
        },
        {
          "name": "_timestamp",
          "type": "uint256"
        }
      ],
      "name": "fetchFlightStatus",
      "outputs": [],
      "payable": false,
      "stateMutability": "nonpayable",
      "type": "function"
    },
    {
      "constant": true,
      "inputs": [],
      "name": "hasQuorum",
      "outputs": [
        {
          "name": "hasQuorum_",
          "type": "bool"
        }
      ],
      "payable": false,
      "stateMutability": "view",
      "type": "function"
    },
    {
      "constant": false,
      "inputs": [
        {
          "name": "_flightId",
          "type": "bytes32"
        }
      ],
      "name": "creditInsurees",
      "outputs": [],
      "payable": false,
      "stateMutability": "nonpayable",
      "type": "function"
    },
    {
      "constant": true,
      "inputs": [],
      "name": "fetchAirlinesSummary",
      "outputs": [
        {
          "name": "registered_",
          "type": "uint256"
        },
        {
          "name": "registrationQueue_",
          "type": "uint256"
        },
        {
          "name": "quorum_",
          "type": "uint256"
        },
        {
          "name": "consensusPercentage_",
          "type": "uint256"
        },
        {
          "name": "consensus_",
          "type": "uint256"
        }
      ],
      "payable": false,
      "stateMutability": "view",
      "type": "function"
    },
    {
      "constant": true,
      "inputs": [
        {
          "name": "_airlineAddress",
          "type": "address"
        }
      ],
      "name": "fetchAirlineSummary",
      "outputs": [
        {
          "name": "votes_",
          "type": "uint256"
        },
        {
          "name": "isRegistered_",
          "type": "bool"
        },
        {
          "name": "contribution_",
          "type": "uint256"
        }
      ],
      "payable": false,
      "stateMutability": "view",
      "type": "function"
    },
    {
      "constant": true,
      "inputs": [
        {
          "name": "_flightId",
          "type": "bytes32"
        }
      ],
      "name": "fetchFlightSummary",
      "outputs": [
        {
          "name": "Id_",
          "type": "bytes32"
        },
        {
          "name": "airline_",
          "type": "address"
        },
        {
          "name": "flightNumber_",
          "type": "string"
        },
        {
          "name": "date_",
          "type": "uint256"
        },
        {
          "name": "isRegistered_",
          "type": "bool"
        },
        {
          "name": "statusCode_",
          "type": "uint8"
        },
        {
          "name": "updatedTimestamp_",
          "type": "uint256"
        },
        {
          "name": "votes_",
          "type": "uint256"
        },
        {
          "name": "canBeInsured_",
          "type": "bool"
        },
        {
          "name": "policyCount_",
          "type": "uint256"
        },
        {
          "name": "paidoutClaims_",
          "type": "bool"
        }
      ],
      "payable": false,
      "stateMutability": "view",
      "type": "function"
    },
    {
      "constant": true,
      "inputs": [
        {
          "name": "_policyId",
          "type": "bytes32"
        }
      ],
      "name": "fetchPolicySummary",
      "outputs": [
        {
          "name": "Id_",
          "type": "bytes32"
        },
        {
          "name": "insured_",
          "type": "address"
        },
        {
          "name": "ticketNumber_",
          "type": "string"
        },
        {
          "name": "flightId_",
          "type": "bytes32"
        },
        {
          "name": "premium_",
          "type": "uint256"
        },
        {
          "name": "payout_",
          "type": "uint256"
        },
        {
          "name": "isActive_",
          "type": "bool"
        },
        {
          "name": "isWithdrawn_",
          "type": "bool"
        }
      ],
      "payable": false,
      "stateMutability": "view",
      "type": "function"
    },
    {
      "constant": true,
      "inputs": [
        {
          "name": "_who",
          "type": "address"
        }
      ],
      "name": "isAirline",
      "outputs": [
        {
          "name": "",
          "type": "bool"
        }
      ],
      "payable": false,
      "stateMutability": "view",
      "type": "function"
    },
    {
      "constant": true,
      "inputs": [
        {
          "name": "_airline",
          "type": "address"
        },
        {
          "name": "_flight",
          "type": "string"
        },
        {
          "name": "_date",
          "type": "uint256"
        }
      ],
      "name": "isFlightRegistered",
      "outputs": [
        {
          "name": "",
          "type": "bool"
        }
      ],
      "payable": false,
      "stateMutability": "view",
      "type": "function"
    },
    {
      "constant": false,
      "inputs": [
        {
          "name": "_flightId",
          "type": "bytes32"
        },
        {
          "name": "_ticketNumber",
          "type": "string"
        }
      ],
      "name": "buy",
      "outputs": [],
      "payable": true,
      "stateMutability": "payable",
      "type": "function"
    },
    {
      "constant": false,
      "inputs": [
        {
          "name": "_policyId",
          "type": "bytes32"
        }
      ],
      "name": "pay",
      "outputs": [],
      "payable": false,
      "stateMutability": "nonpayable",
      "type": "function"
    },
    {
      "constant": true,
      "inputs": [
        {
          "name": "_airline",
          "type": "address"
        },
        {
          "name": "_flight",
          "type": "string"
        },
        {
          "name": "_date",
          "type": "uint256"
        }
      ],
      "name": "getFlightKey",
      "outputs": [
        {
          "name": "",
          "type": "bytes32"
        }
      ],
      "payable": false,
      "stateMutability": "view",
      "type": "function"
    },
    {
      "constant": true,
      "inputs": [
        {
          "name": "_flightId",
          "type": "bytes32"
        },
        {
          "name": "_ticketNumber",
          "type": "string"
        }
      ],
      "name": "getPolicyKey",
      "outputs": [
        {
          "name": "",
          "type": "bytes32"
        }
      ],
      "payable": false,
      "stateMutability": "view",
      "type": "function"
    },
    {
      "constant": false,
      "inputs": [],
      "name": "registerOracle",
      "outputs": [],
      "payable": true,
      "stateMutability": "payable",
      "type": "function"
    },
    {
      "constant": true,
      "inputs": [],
      "name": "getMyIndexes",
      "outputs": [
        {
          "name": "",
          "type": "uint32[3]"
        }
      ],
      "payable": false,
      "stateMutability": "view",
      "type": "function"
    },
    {
      "constant": false,
      "inputs": [
        {
          "name": "_index",
          "type": "uint32"
        },
        {
          "name": "airline",
          "type": "address"
        },
        {
          "name": "flight",
          "type": "string"
        },
        {
          "name": "date",
          "type": "uint256"
        },
        {
          "name": "timestamp",
          "type": "uint256"
        },
        {
          "name": "statusCode",
          "type": "uint8"
        }
      ],
      "name": "submitOracleResponse",
      "outputs": [],
      "payable": false,
      "stateMutability": "nonpayable",
      "type": "function"
    }
  ],
  "bytecode": "0x60806040526000600160146101000a81548160ff021916908360ff1602179055503480156200002d57600080fd5b506040516020806200379c8339810180604052810190808051906020019092919050505033600160006101000a81548173ffffffffffffffffffffffffffffffffffffffff021916908373ffffffffffffffffffffffffffffffffffffffff160217905550806000806101000a81548173ffffffffffffffffffffffffffffffffffffffff021916908373ffffffffffffffffffffffffffffffffffffffff1602179055506000809054906101000a900473ffffffffffffffffffffffffffffffffffffffff1673ffffffffffffffffffffffffffffffffffffffff16637d2ab0de336040518263ffffffff167c0100000000000000000000000000000000000000000000000000000000028152600401808273ffffffffffffffffffffffffffffffffffffffff1673ffffffffffffffffffffffffffffffffffffffff168152602001915050600060405180830381600087803b1580156200018f57600080fd5b505af1158015620001a4573d6000803e3d6000fd5b50505050620001c1620001c8640100000000026401000000009004565b50620002a0565b6000809054906101000a900473ffffffffffffffffffffffffffffffffffffffff1673ffffffffffffffffffffffffffffffffffffffff166367561d93336040518263ffffffff167c0100000000000000000000000000000000000000000000000000000000028152600401808273ffffffffffffffffffffffffffffffffffffffff1673ffffffffffffffffffffffffffffffffffffffff168152602001915050600060405180830381600087803b1580156200028557600080fd5b505af11580156200029a573d6000803e3d6000fd5b50505050565b6134ec80620002b06000396000f30060806040526004361061011d576000357c0100000000000000000000000000000000000000000000000000000000900463ffffffff1680630e248a11146101f4578063241a53cb1461024f578063339d2590146102fa5780633cc0be9c1461030457806349eb6580146103bd5780635f1cc0e61461044957806364b4f7511461049c57806377fa8224146104c7578063791fcd39146105fd578063815b4d1b146106905780638609cad1146106bf578063865561f7146106f05780639a67c59314610759578063a4595b48146107a0578063b60d42881461080f578063b841d47b14610819578063bdfd987714610938578063cc2f6eba146109a1578063cd905dff146109d2578063dfc0dff014610a01578063f983ec3014610ab0575b6000809054906101000a900473ffffffffffffffffffffffffffffffffffffffff1673ffffffffffffffffffffffffffffffffffffffff16632302440834336040518363ffffffff167c0100000000000000000000000000000000000000000000000000000000028152600401808273ffffffffffffffffffffffffffffffffffffffff1673ffffffffffffffffffffffffffffffffffffffff1681526020019150506000604051808303818588803b1580156101d957600080fd5b505af11580156101ed573d6000803e3d6000fd5b5050505050005b34801561020057600080fd5b50610235600480360381019080803573ffffffffffffffffffffffffffffffffffffffff169060200190929190505050610b1a565b604051808215151515815260200191505060405180910390f35b34801561025b57600080fd5b506102e0600480360381019080803573ffffffffffffffffffffffffffffffffffffffff169060200190929190803590602001908201803590602001908080601f016020809104026020016040519081016040528093929190818152602001838380828437820191505050505050919291929080359060200190929190505050610c1a565b604051808215151515815260200191505060405180910390f35b610302610d91565b005b34801561031057600080fd5b50610395600480360381019080803573ffffffffffffffffffffffffffffffffffffffff169060200190929190803590602001908201803590602001908080601f016020809104026020016040519081016040528093929190818152602001838380828437820191505050505050919291929080359060200190929190505050610eb9565b6040518084151515158152602001838152602001828152602001935050505060405180910390f35b3480156103c957600080fd5b50610447600480360381019080803563ffffffff169060200190929190803573ffffffffffffffffffffffffffffffffffffffff1690602001909291908035906020019082018035906020019190919293919293908035906020019092919080359060200190929190803560ff169060200190929190505050611081565b005b34801561045557600080fd5b5061045e6117af565b6040518082600360200280838360005b8381101561048957808201518184015260208101905061046e565b5050505090500191505060405180910390f35b3480156104a857600080fd5b506104b161192a565b6040518082815260200191505060405180910390f35b3480156104d357600080fd5b506104f66004803603810190808035600019169060200190929190505050611936565b604051808c600019166000191681526020018b73ffffffffffffffffffffffffffffffffffffffff1673ffffffffffffffffffffffffffffffffffffffff168152602001806020018a8152602001891515151581526020018860ff1660ff168152602001878152602001868152602001851515151581526020018481526020018315151515815260200182810382528b818151815260200191508051906020019080838360005b838110156105b857808201518184015260208101905061059d565b50505050905090810190601f1680156105e55780820380516001836020036101000a031916815260200191505b509c5050505050505050505050505060405180910390f35b34801561060957600080fd5b506106726004803603810190808035600019169060200190929190803590602001908201803590602001908080601f0160208091040260200160405190810160405280939291908181526020018383808284378201915050505050509192919290505050611afd565b60405180826000191660001916815260200191505060405180910390f35b34801561069c57600080fd5b506106a5611c47565b604051808215151515815260200191505060405180910390f35b3480156106cb57600080fd5b506106ee6004803603810190808035600019169060200190929190505050611dd0565b005b3480156106fc57600080fd5b50610731600480360381019080803573ffffffffffffffffffffffffffffffffffffffff169060200190929190505050611eb7565b6040518084815260200183151515158152602001828152602001935050505060405180910390f35b34801561076557600080fd5b5061076e611fd4565b604051808681526020018581526020018481526020018381526020018281526020019550505050505060405180910390f35b3480156107ac57600080fd5b5061080d600480360381019080803573ffffffffffffffffffffffffffffffffffffffff16906020019092919080359060200190820180359060200191909192939192939080359060200190929190803590602001909291905050506123ad565b005b610817612909565b005b34801561082557600080fd5b5061084860048036038101908080356000191690602001909291905050506129e0565b6040518089600019166000191681526020018873ffffffffffffffffffffffffffffffffffffffff1673ffffffffffffffffffffffffffffffffffffffff1681526020018060200187600019166000191681526020018681526020018581526020018415151515815260200183151515158152602001828103825288818151815260200191508051906020019080838360005b838110156108f65780820151818401526020810190506108db565b50505050905090810190601f1680156109235780820380516001836020036101000a031916815260200191505b50995050505050505050505060405180910390f35b34801561094457600080fd5b50610979600480360381019080803573ffffffffffffffffffffffffffffffffffffffff169060200190929190505050612b7b565b6040518084151515158152602001838152602001828152602001935050505060405180910390f35b3480156109ad57600080fd5b506109d06004803603810190808035600019169060200190929190505050612ccc565b005b3480156109de57600080fd5b506109e7612db3565b604051808215151515815260200191505060405180910390f35b348015610a0d57600080fd5b50610a92600480360381019080803573ffffffffffffffffffffffffffffffffffffffff169060200190929190803590602001908201803590602001908080601f016020809104026020016040519081016040528093929190818152602001838380828437820191505050505050919291929080359060200190929190505050612dbc565b60405180826000191660001916815260200191505060405180910390f35b610b186004803603810190808035600019169060200190929190803590602001908201803590602001908080601f0160208091040260200160405190810160405280939291908181526020018383808284378201915050505050509192919290505050612f33565b005b60008060009054906101000a900473ffffffffffffffffffffffffffffffffffffffff1673ffffffffffffffffffffffffffffffffffffffff16630e248a11836040518263ffffffff167c0100000000000000000000000000000000000000000000000000000000028152600401808273ffffffffffffffffffffffffffffffffffffffff1673ffffffffffffffffffffffffffffffffffffffff168152602001915050602060405180830381600087803b158015610bd857600080fd5b505af1158015610bec573d6000803e3d6000fd5b505050506040513d6020811015610c0257600080fd5b81019080805190602001909291905050509050919050565b60008060009054906101000a900473ffffffffffffffffffffffffffffffffffffffff1673ffffffffffffffffffffffffffffffffffffffff1663241a53cb8585856040518463ffffffff167c0100000000000000000000000000000000000000000000000000000000028152600401808473ffffffffffffffffffffffffffffffffffffffff1673ffffffffffffffffffffffffffffffffffffffff16815260200180602001838152602001828103825284818151815260200191508051906020019080838360005b83811015610cff578082015181840152602081019050610ce4565b50505050905090810190601f168015610d2c5780820380516001836020036101000a031916815260200191505b50945050505050602060405180830381600087803b158015610d4d57600080fd5b505af1158015610d61573d6000803e3d6000fd5b505050506040513d6020811015610d7757600080fd5b810190808051906020019092919050505090509392505050565b610d996133c7565b670de0b6b3a76400003410151515610e19576040517f08c379a000000000000000000000000000000000000000000000000000000000815260040180806020018281038252601c8152602001807f526567697374726174696f6e206665652069732072657175697265640000000081525060200191505060405180910390fd5b610e2233613089565b9050604080519081016040528060011515815260200182815250600260003373ffffffffffffffffffffffffffffffffffffffff1673ffffffffffffffffffffffffffffffffffffffff16815260200190815260200160002060008201518160000160006101000a81548160ff021916908315150217905550602082015181600101906003610eb29291906133ea565b5090505050565b60008060008060009054906101000a900473ffffffffffffffffffffffffffffffffffffffff1673ffffffffffffffffffffffffffffffffffffffff166326bc37d9338888886040518563ffffffff167c0100000000000000000000000000000000000000000000000000000000028152600401808573ffffffffffffffffffffffffffffffffffffffff1673ffffffffffffffffffffffffffffffffffffffff1681526020018473ffffffffffffffffffffffffffffffffffffffff1673ffffffffffffffffffffffffffffffffffffffff16815260200180602001838152602001828103825284818151815260200191508051906020019080838360005b83811015610fd4578082015181840152602081019050610fb9565b50505050905090810190601f1680156110015780820380516001836020036101000a031916815260200191505b5095505050505050606060405180830381600087803b15801561102357600080fd5b505af1158015611037573d6000803e3d6000fd5b505050506040513d606081101561104d57600080fd5b8101908080519060200190929190805190602001909291908051906020019092919050505092509250925093509350939050565b60008763ffffffff16600260003373ffffffffffffffffffffffffffffffffffffffff1673ffffffffffffffffffffffffffffffffffffffff16815260200190815260200160002060010160006003811015156110da57fe5b600891828204019190066004029054906101000a900463ffffffff1663ffffffff16148061117e57508763ffffffff16600260003373ffffffffffffffffffffffffffffffffffffffff1673ffffffffffffffffffffffffffffffffffffffff168152602001908152602001600020600101600160038110151561115a57fe5b600891828204019190066004029054906101000a900463ffffffff1663ffffffff16145b806111ff57508763ffffffff16600260003373ffffffffffffffffffffffffffffffffffffffff1673ffffffffffffffffffffffffffffffffffffffff16815260200190815260200160002060010160026003811015156111db57fe5b600891828204019190066004029054906101000a900463ffffffff1663ffffffff16145b1515611299576040517f08c379a00000000000000000000000000000000000000000000000000000000081526004018080602001828103825260238152602001807f496e64657820646f6573206e6f74206d61746368206f7261636c65207265717581526020017f657374000000000000000000000000000000000000000000000000000000000081525060400191505060405180910390fd5b878787878787604051602001808763ffffffff1663ffffffff167c01000000000000000000000000000000000000000000000000000000000281526004018673ffffffffffffffffffffffffffffffffffffffff1673ffffffffffffffffffffffffffffffffffffffff166c01000000000000000000000000028152601401858580828437820191505083815260200182815260200196505050505050506040516020818303038152906040526040518082805190602001908083835b60208310151561137b5780518252602082019150602081019050602083039250611356565b6001836020036101000a0380198251168184511680821785525050505050509050019150506040518091039020905060036000826000191660001916815260200190815260200160002060000160149054906101000a900460ff161515611470576040517f08c379a000000000000000000000000000000000000000000000000000000000815260040180806020018281038252602f8152602001807f466c69676874206f722074696d657374616d7020646f206e6f74206d6174636881526020017f206f7261636c652072657175657374000000000000000000000000000000000081525060400191505060405180910390fd5b60036000826000191660001916815260200190815260200160002060010160008360ff1660ff1681526020019081526020016000203390806001815401808255809150509060018203906000526020600020016000909192909190916101000a81548173ffffffffffffffffffffffffffffffffffffffff021916908373ffffffffffffffffffffffffffffffffffffffff160217905550507fabd78bf7e858d19599a8bfe8c79ea88cd6082929a3f768a19e670833ac29026d878787878787604051808773ffffffffffffffffffffffffffffffffffffffff1673ffffffffffffffffffffffffffffffffffffffff168152602001806020018581526020018481526020018360ff1660ff1681526020018281038252878782818152602001925080828437820191505097505050505050505060405180910390a16003806000836000191660001916815260200190815260200160002060010160008460ff1660ff168152602001908152602001600020805490501015156117a5577f42233d2b91f405ca7d0e77a5dffdcb8ccd9ddffee8b84f5d1f2fe8222c32aa43878787878787604051808773ffffffffffffffffffffffffffffffffffffffff1673ffffffffffffffffffffffffffffffffffffffff168152602001806020018581526020018481526020018360ff1660ff1681526020018281038252878782818152602001925080828437820191505097505050505050505060405180910390a16000809054906101000a900473ffffffffffffffffffffffffffffffffffffffff1673ffffffffffffffffffffffffffffffffffffffff1663f7c2b71e8888888888886040518763ffffffff167c0100000000000000000000000000000000000000000000000000000000028152600401808773ffffffffffffffffffffffffffffffffffffffff1673ffffffffffffffffffffffffffffffffffffffff168152602001806020018581526020018481526020018360ff1660ff16815260200182810382528787828181526020019250808284378201915050975050505050505050600060405180830381600087803b15801561178c57600080fd5b505af11580156117a0573d6000803e3d6000fd5b505050505b5050505050505050565b6117b76133c7565b600260003373ffffffffffffffffffffffffffffffffffffffff1673ffffffffffffffffffffffffffffffffffffffff16815260200190815260200160002060000160009054906101000a900460ff16151561187b576040517f08c379a000000000000000000000000000000000000000000000000000000000815260040180806020018281038252601b8152602001807f4e6f74207265676973746572656420617320616e206f7261636c65000000000081525060200191505060405180910390fd5b600260003373ffffffffffffffffffffffffffffffffffffffff1673ffffffffffffffffffffffffffffffffffffffff168152602001908152602001600020600101600380602002604051908101604052809291908260038015611920576020028201916000905b82829054906101000a900463ffffffff1663ffffffff16815260200190600401906020826003010492830192600103820291508084116118e35790505b5050505050905090565b670de0b6b3a764000081565b60008060606000806000806000806000806000809054906101000a900473ffffffffffffffffffffffffffffffffffffffff1673ffffffffffffffffffffffffffffffffffffffff166377fa82248d6040518263ffffffff167c0100000000000000000000000000000000000000000000000000000000028152600401808260001916600019168152602001915050600060405180830381600087803b1580156119df57600080fd5b505af11580156119f3573d6000803e3d6000fd5b505050506040513d6000823e3d601f19601f82011682018060405250610160811015611a1e57600080fd5b8101908080519060200190929190805190602001909291908051640100000000811115611a4a57600080fd5b82810190506020810184811115611a6057600080fd5b8151856001820283011164010000000082111715611a7d57600080fd5b505092919060200180519060200190929190805190602001909291908051906020019092919080519060200190929190805190602001909291908051906020019092919080519060200190929190805190602001909291905050509a509a509a509a509a509a509a509a509a509a509a5091939597999b90929496989a50565b60008060009054906101000a900473ffffffffffffffffffffffffffffffffffffffff1673ffffffffffffffffffffffffffffffffffffffff1663791fcd3984846040518363ffffffff167c010000000000000000000000000000000000000000000000000000000002815260040180836000191660001916815260200180602001828103825283818151815260200191508051906020019080838360005b83811015611bb7578082015181840152602081019050611b9c565b50505050905090810190601f168015611be45780820380516001836020036101000a031916815260200191505b509350505050602060405180830381600087803b158015611c0457600080fd5b505af1158015611c18573d6000803e3d6000fd5b505050506040513d6020811015611c2e57600080fd5b8101908080519060200190929190505050905092915050565b60008060009054906101000a900473ffffffffffffffffffffffffffffffffffffffff1673ffffffffffffffffffffffffffffffffffffffff16631703a0186040518163ffffffff167c0100000000000000000000000000000000000000000000000000000000028152600401602060405180830381600087803b158015611cce57600080fd5b505af1158015611ce2573d6000803e3d6000fd5b505050506040513d6020811015611cf857600080fd5b81019080805190602001909291905050506000809054906101000a900473ffffffffffffffffffffffffffffffffffffffff1673ffffffffffffffffffffffffffffffffffffffff16632de40ce36040518163ffffffff167c0100000000000000000000000000000000000000000000000000000000028152600401602060405180830381600087803b158015611d8e57600080fd5b505af1158015611da2573d6000803e3d6000fd5b505050506040513d6020811015611db857600080fd5b81019080805190602001909291905050501015905090565b6000809054906101000a900473ffffffffffffffffffffffffffffffffffffffff1673ffffffffffffffffffffffffffffffffffffffff166346f8f30433836040518363ffffffff167c0100000000000000000000000000000000000000000000000000000000028152600401808373ffffffffffffffffffffffffffffffffffffffff1673ffffffffffffffffffffffffffffffffffffffff168152602001826000191660001916815260200192505050600060405180830381600087803b158015611e9c57600080fd5b505af1158015611eb0573d6000803e3d6000fd5b5050505050565b60008060008060009054906101000a900473ffffffffffffffffffffffffffffffffffffffff1673ffffffffffffffffffffffffffffffffffffffff1663865561f7856040518263ffffffff167c0100000000000000000000000000000000000000000000000000000000028152600401808273ffffffffffffffffffffffffffffffffffffffff1673ffffffffffffffffffffffffffffffffffffffff168152602001915050606060405180830381600087803b158015611f7857600080fd5b505af1158015611f8c573d6000803e3d6000fd5b505050506040513d6060811015611fa257600080fd5b810190808051906020019092919080519060200190929190805190602001909291905050509250925092509193909250565b60008060008060008060009054906101000a900473ffffffffffffffffffffffffffffffffffffffff1673ffffffffffffffffffffffffffffffffffffffff16632de40ce36040518163ffffffff167c0100000000000000000000000000000000000000000000000000000000028152600401602060405180830381600087803b15801561206157600080fd5b505af1158015612075573d6000803e3d6000fd5b505050506040513d602081101561208b57600080fd5b810190808051906020019092919050505094506000809054906101000a900473ffffffffffffffffffffffffffffffffffffffff1673ffffffffffffffffffffffffffffffffffffffff1663e99d70996040518163ffffffff167c0100000000000000000000000000000000000000000000000000000000028152600401602060405180830381600087803b15801561212357600080fd5b505af1158015612137573d6000803e3d6000fd5b505050506040513d602081101561214d57600080fd5b810190808051906020019092919050505093506000809054906101000a900473ffffffffffffffffffffffffffffffffffffffff1673ffffffffffffffffffffffffffffffffffffffff16631703a0186040518163ffffffff167c0100000000000000000000000000000000000000000000000000000000028152600401602060405180830381600087803b1580156121e557600080fd5b505af11580156121f9573d6000803e3d6000fd5b505050506040513d602081101561220f57600080fd5b810190808051906020019092919050505092506000809054906101000a900473ffffffffffffffffffffffffffffffffffffffff1673ffffffffffffffffffffffffffffffffffffffff16635e4c0e7e6040518163ffffffff167c0100000000000000000000000000000000000000000000000000000000028152600401602060405180830381600087803b1580156122a757600080fd5b505af11580156122bb573d6000803e3d6000fd5b505050506040513d60208110156122d157600080fd5b810190808051906020019092919050505091506000809054906101000a900473ffffffffffffffffffffffffffffffffffffffff1673ffffffffffffffffffffffffffffffffffffffff16638ef3f7616040518163ffffffff167c0100000000000000000000000000000000000000000000000000000000028152600401602060405180830381600087803b15801561236957600080fd5b505af115801561237d573d6000803e3d6000fd5b505050506040513d602081101561239357600080fd5b810190808051906020019092919050505090509091929394565b60008060008060009054906101000a900473ffffffffffffffffffffffffffffffffffffffff1673ffffffffffffffffffffffffffffffffffffffff1663dfc0dff0898989896040518563ffffffff167c0100000000000000000000000000000000000000000000000000000000028152600401808573ffffffffffffffffffffffffffffffffffffffff1673ffffffffffffffffffffffffffffffffffffffff168152602001806020018381526020018281038252858582818152602001925080828437820191505095505050505050602060405180830381600087803b15801561249857600080fd5b505af11580156124ac573d6000803e3d6000fd5b505050506040513d60208110156124c257600080fd5b810190808051906020019092919050505092506000809054906101000a900473ffffffffffffffffffffffffffffffffffffffff1673ffffffffffffffffffffffffffffffffffffffff166353abffdd846040518263ffffffff167c0100000000000000000000000000000000000000000000000000000000028152600401808260001916600019168152602001915050602060405180830381600087803b15801561256d57600080fd5b505af1158015612581573d6000803e3d6000fd5b505050506040513d602081101561259757600080fd5b81019080805190602001909291905050506040805190810160405280601981526020017f4552524f525f464c494748545f4e4f545f454e4c495354454400000000000000815250901515612686576040517f08c379a00000000000000000000000000000000000000000000000000000000081526004018080602001828103825283818151815260200191508051906020019080838360005b8381101561264b578082015181840152602081019050612630565b50505050905090810190601f1680156126785780820380516001836020036101000a031916815260200191505b509250505060405180910390fd5b506126903361325f565b9150818888888888604051602001808763ffffffff1663ffffffff167c01000000000000000000000000000000000000000000000000000000000281526004018673ffffffffffffffffffffffffffffffffffffffff1673ffffffffffffffffffffffffffffffffffffffff166c01000000000000000000000000028152601401858580828437820191505083815260200182815260200196505050505050506040516020818303038152906040526040518082805190602001908083835b602083101515612774578051825260208201915060208101905060208303925061274f565b6001836020036101000a0380198251168184511680821785525050505050509050019150506040518091039020905060408051908101604052803373ffffffffffffffffffffffffffffffffffffffff1681526020016001151581525060036000836000191660001916815260200190815260200160002060008201518160000160006101000a81548173ffffffffffffffffffffffffffffffffffffffff021916908373ffffffffffffffffffffffffffffffffffffffff16021790555060208201518160000160146101000a81548160ff0219169083151502179055509050507fafb0d223c70bba9cfdcac516cc0962cf450c1161fa00b6d8c92057eea0420e26828989898989604051808763ffffffff1663ffffffff1681526020018673ffffffffffffffffffffffffffffffffffffffff1673ffffffffffffffffffffffffffffffffffffffff168152602001806020018481526020018381526020018281038252868682818152602001925080828437820191505097505050505050505060405180910390a15050505050505050565b6000809054906101000a900473ffffffffffffffffffffffffffffffffffffffff1673ffffffffffffffffffffffffffffffffffffffff16632302440834336040518363ffffffff167c0100000000000000000000000000000000000000000000000000000000028152600401808273ffffffffffffffffffffffffffffffffffffffff1673ffffffffffffffffffffffffffffffffffffffff1681526020019150506000604051808303818588803b1580156129c557600080fd5b505af11580156129d9573d6000803e3d6000fd5b5050505050565b600080606060008060008060008060009054906101000a900473ffffffffffffffffffffffffffffffffffffffff1673ffffffffffffffffffffffffffffffffffffffff1663b841d47b8a6040518263ffffffff167c0100000000000000000000000000000000000000000000000000000000028152600401808260001916600019168152602001915050600060405180830381600087803b158015612a8557600080fd5b505af1158015612a99573d6000803e3d6000fd5b505050506040513d6000823e3d601f19601f82011682018060405250610100811015612ac457600080fd5b8101908080519060200190929190805190602001909291908051640100000000811115612af057600080fd5b82810190506020810184811115612b0657600080fd5b8151856001820283011164010000000082111715612b2357600080fd5b5050929190602001805190602001909291908051906020019092919080519060200190929190805190602001909291908051906020019092919050505097509750975097509750975097509750919395975091939597565b60008060008060009054906101000a900473ffffffffffffffffffffffffffffffffffffffff1673ffffffffffffffffffffffffffffffffffffffff1663c7ba501833866040518363ffffffff167c0100000000000000000000000000000000000000000000000000000000028152600401808373ffffffffffffffffffffffffffffffffffffffff1673ffffffffffffffffffffffffffffffffffffffff1681526020018273ffffffffffffffffffffffffffffffffffffffff1673ffffffffffffffffffffffffffffffffffffffff16815260200192505050606060405180830381600087803b158015612c7057600080fd5b505af1158015612c84573d6000803e3d6000fd5b505050506040513d6060811015612c9a57600080fd5b810190808051906020019092919080519060200190929190805190602001909291905050509250925092509193909250565b6000809054906101000a900473ffffffffffffffffffffffffffffffffffffffff1673ffffffffffffffffffffffffffffffffffffffff16631a86186533836040518363ffffffff167c0100000000000000000000000000000000000000000000000000000000028152600401808373ffffffffffffffffffffffffffffffffffffffff1673ffffffffffffffffffffffffffffffffffffffff168152602001826000191660001916815260200192505050600060405180830381600087803b158015612d9857600080fd5b505af1158015612dac573d6000803e3d6000fd5b5050505050565b60006001905090565b60008060009054906101000a900473ffffffffffffffffffffffffffffffffffffffff1673ffffffffffffffffffffffffffffffffffffffff1663dfc0dff08585856040518463ffffffff167c0100000000000000000000000000000000000000000000000000000000028152600401808473ffffffffffffffffffffffffffffffffffffffff1673ffffffffffffffffffffffffffffffffffffffff16815260200180602001838152602001828103825284818151815260200191508051906020019080838360005b83811015612ea1578082015181840152602081019050612e86565b50505050905090810190601f168015612ece5780820380516001836020036101000a031916815260200191505b50945050505050602060405180830381600087803b158015612eef57600080fd5b505af1158015612f03573d6000803e3d6000fd5b505050506040513d6020811015612f1957600080fd5b810190808051906020019092919050505090509392505050565b6000809054906101000a900473ffffffffffffffffffffffffffffffffffffffff1673ffffffffffffffffffffffffffffffffffffffff1663c2379b75343385856040518563ffffffff167c0100000000000000000000000000000000000000000000000000000000028152600401808473ffffffffffffffffffffffffffffffffffffffff1673ffffffffffffffffffffffffffffffffffffffff168152602001836000191660001916815260200180602001828103825283818151815260200191508051906020019080838360005b8381101561301f578082015181840152602081019050613004565b50505050905090810190601f16801561304c5780820380516001836020036101000a031916815260200191505b509450505050506000604051808303818588803b15801561306c57600080fd5b505af1158015613080573d6000803e3d6000fd5b50505050505050565b6130916133c7565b6130996133c7565b6130a28361325f565b8160006003811015156130b157fe5b602002019063ffffffff16908163ffffffff16815250508060006003811015156130d757fe5b60200201518160016003811015156130eb57fe5b602002019063ffffffff16908163ffffffff16815250505b80600060038110151561311257fe5b602002015163ffffffff1681600160038110151561312c57fe5b602002015163ffffffff161415613171576131468361325f565b81600160038110151561315557fe5b602002019063ffffffff16908163ffffffff1681525050613103565b80600160038110151561318057fe5b602002015181600260038110151561319457fe5b602002019063ffffffff16908163ffffffff16815250505b8060006003811015156131bb57fe5b602002015163ffffffff168160026003811015156131d557fe5b602002015163ffffffff16148061321d57508060016003811015156131f657fe5b602002015163ffffffff1681600260038110151561321057fe5b602002015163ffffffff16145b156132565761322b8361325f565b81600260038110151561323a57fe5b602002019063ffffffff16908163ffffffff16815250506131ac565b80915050919050565b6000806000600591508163ffffffff166001601481819054906101000a900460ff168092919060010191906101000a81548160ff021916908360ff16021790555060ff16430340856040516020018083600019166000191681526020018273ffffffffffffffffffffffffffffffffffffffff1673ffffffffffffffffffffffffffffffffffffffff166c01000000000000000000000000028152601401925050506040516020818303038152906040526040518082805190602001908083835b6020831015156133455780518252602082019150602081019050602083039250613320565b6001836020036101000a03801982511681845116808217855250505050505090500191505060405180910390206001900481151561337f57fe5b06905060fa600160149054906101000a900460ff1660ff1611156133ba576000600160146101000a81548160ff021916908360ff1602179055505b8060ff1692505050919050565b606060405190810160405280600390602082028038833980820191505090505090565b82600360070160089004810192821561347c5791602002820160005b8382111561344a57835183826101000a81548163ffffffff021916908363ffffffff1602179055509260200192600401602081600301049283019260010302613406565b801561347a5782816101000a81549063ffffffff021916905560040160208160030104928301926001030261344a565b505b509050613489919061348d565b5090565b6134bd91905b808211156134b957600081816101000a81549063ffffffff021916905550600101613493565b5090565b905600a165627a7a723058203eddf9719527bfb2848d0583b83471f3bea307fe9b3ebba73866e7cbc7d1bc470029",
  "source": "pragma solidity ^0.4.25;\n\n// It's important to avoid vulnerabilities due to numeric overflow bugs\n// OpenZeppelin's SafeMath library, when used correctly, protects agains such bugs\n// More info: https://www.nccgroup.trust/us/about-us/newsroom-and-events/blog/2018/november/smart-contract-insecurity-bad-arithmetic/\n\nimport \"../node_modules/openzeppelin-solidity/contracts/math/SafeMath.sol\";\n\n/************************************************** */\n/* FlightSurety Smart Contract                      */\n/************************************************** */\n//contract FlightSuretyApp is FlightSuretyData {\ncontract FlightSuretyApp {\n    using SafeMath for uint256; // Allow SafeMath functions to be called for all uint256 types (similar to \"prototype\" in Javascript)\n\n    FlightSuretyData flightSuretyData;\n    /********************************************************************************************/\n    /*                                       DATA VARIABLES                                     */\n    /********************************************************************************************/\n    // Flight status codees\n    uint8 private constant STATUS_CODE_UNKNOWN = 0;\n    uint8 private constant STATUS_CODE_ON_TIME = 10;\n    uint8 private constant STATUS_CODE_LATE_AIRLINE = 20;\n    uint8 private constant STATUS_CODE_LATE_WEATHER = 30;\n    uint8 private constant STATUS_CODE_LATE_TECHNICAL = 40;\n    uint8 private constant STATUS_CODE_LATE_OTHER = 50;\n\n    string private constant ERROR_CONTRACT_NOT_OPERATIONAL = \"ERROR_CONTRACT_NOT_OPERATIONAL\";\n    string private constant ERROR_NO_QUORUM = \"ERROR_NO_QUORUM\";\n\n    string private constant ERROR_CALLER_NOT_CONTRACT_OWNER = \"ERROR_CALLER_NOT_CONTRACT_OWNER\";\n    string private constant ERROR_AIRLINE_IS_NOT_REGISTERED = \"ERROR_AIRLINE_IS_NOT_REGISTERED\";\n    string private constant ERROR_AIRLINE_IS_ALREADY_REGISTERED = \"ERROR_AIRLINE_IS_ALREADY_REGISTERED\";\n    string private constant ERROR_AIRLINE_ALREADY_VOTED_FOR_AIRLINE = \"ERROR_AIRLINE_HAS_ALREADY_VOTED_FOR_THIS_AIRLINE\";\n\n    string private constant ERROR_FLIGHT_NOT_ENLISTED = \"ERROR_FLIGHT_NOT_ENLISTED\";\n    string private constant ERROR_FLIGHT_IS_NOT_REGISTERED = \"ERROR_FLIGHT_IS_NOT_REGISTERED\";\n    string private constant ERROR_FLIGHT_IS_ALREADY_REGISTERED = \"ERROR_FLIGHT_IS_ALREADY_REGISTERED\";\n    string private constant ERROR_AIRLINE_ALREADY_VOTED_FOR_FLIGHT = \"ERROR_AIRLINE_HAS_ALREADY_VOTED_FOR_THIS_FLIGHT\";\n\n\n    address private contractOwner;          // Account used to deploy contract\n\n    /********************************************************************************************/\n    /*                                       FUNCTION MODIFIERS                                 */\n    /********************************************************************************************/\n\n    // Modifiers help avoid duplication of code. They are typically used to validate something\n    // before a function is allowed to be executed.\n\n\n    /**\n    * @dev Modifier that requires the \"operational\" boolean variable to be \"true\"\n    *      This is used on all state changing functions to pause the contract in\n    *      the event there is an issue that needs to be fixed\n    */\n    modifier requireIsOperational()\n    {\n         // Modify to call data contract's status\n        require(true, ERROR_CONTRACT_NOT_OPERATIONAL);\n        _;  // All modifiers require an \"_\" which indicates where the function body will be added\n    }\n\n\n\n    /**\n    * @dev Modifier that requires the \"ContractOwner\" account to be the function caller\n    */\n    modifier requireContractOwner()\n    {\n        require(msg.sender == contractOwner, ERROR_CALLER_NOT_CONTRACT_OWNER);\n        _;\n    }\n\n    /********************************************************************************************/\n    /*                                       CONSTRUCTOR                                        */\n    /********************************************************************************************/\n\n    /**\n    * @dev Contract constructor\n    *\n    */\n    constructor\n    (\n        address dataContract\n    )\n    public\n    {\n        contractOwner = msg.sender;\n        flightSuretyData = FlightSuretyData(dataContract);\n        flightSuretyData.registerFirstAirline(msg.sender);\n        authorizeDataContract();\n    }\n\n    /********************************************************************************************/\n    /*                                       UTILITY FUNCTIONS                                  */\n    /********************************************************************************************/\n\n    function isOperational()\n                            public\n                            pure\n                            returns(bool)\n    {\n        return true;\n    }\n\n    /********************************************************************************************/\n    /*                                     SMART CONTRACT FUNCTIONS                             */\n    /********************************************************************************************/\n\n\n        /**\n    * @dev Add an airline to the registration queue\n    *\n    */\n    function registerAirline(\n        address _airlineAddress)\n        public\n        returns(bool success, uint256 votes, uint256 pendingVotes)\n    {\n        return flightSuretyData.registerAirline(msg.sender, _airlineAddress);\n    }\n\n    /**\n    * @dev Fallback function for funding smart contract.\n    *\n    */\n    function()\n                            external\n                            payable\n    {\n        flightSuretyData.fund.value(msg.value)(msg.sender);\n    }\n\n    function fund\n    (\n    )\n    public\n    payable\n    {\n        flightSuretyData.fund.value(msg.value)(msg.sender);\n    }\n\n    /********************************************************************************************/\n    /*                                       Flight Functions                                   */\n    /********************************************************************************************/\n\n    function registerFlight(\n        address     _airline,\n        string      _flight,\n        uint256     _date\n    )\n        public\n        returns(bool success, uint256 votes, uint256 pendingVotes)\n    {\n        return flightSuretyData.registerFlight(msg.sender, _airline, _flight, _date);\n    }\n\n    // Generate a request for oracles to fetch flight information\n    function fetchFlightStatus\n    (\n        address     _airline,\n        string      _flight,\n        uint256     _date,\n        uint256     _timestamp\n    )\n    external\n    {\n        bytes32 flightId_ = flightSuretyData.getFlightKey(_airline, _flight, _date);\n        require(flightSuretyData.flightExist(flightId_), ERROR_FLIGHT_NOT_ENLISTED);\n        uint32 index_ = getRandomIndex(msg.sender);\n\n        // Generate a unique key for storing the request\n        bytes32 key = keccak256(abi.encodePacked(index_, _airline, _flight, _date, _timestamp));\n        oracleResponses[key] = ResponseInfo({requester: msg.sender, isOpen: true});\n\n        emit OracleRequest(index_, _airline, _flight, _date, _timestamp);\n    }\n\n    function hasQuorum()  public view returns(bool hasQuorum_){\n        hasQuorum_ = flightSuretyData.registered() >= flightSuretyData.quorum();\n    }\n\n\n    function creditInsurees\n    (\n        bytes32  _flightId\n    )\n    external{\n        return flightSuretyData.creditInsurees(msg.sender, _flightId);\n    }\n\n    /********************************************************************************************/\n    /*                                       Fetch Summaries                                    */\n    /********************************************************************************************/\n    function fetchAirlinesSummary() public view returns\n    (\n        uint256     registered_,\n        uint256     registrationQueue_,\n        uint256     quorum_,\n        uint256     consensusPercentage_,\n        uint256     consensus_\n    )\n    {\n        registered_ = flightSuretyData.registered();\n        registrationQueue_ = flightSuretyData.registrationQueue();\n        quorum_ = flightSuretyData.quorum();\n        consensusPercentage_ = flightSuretyData.consensusPercentage();\n        consensus_ = flightSuretyData.consensus();\n    }\n\n    function fetchAirlineSummary(address _airlineAddress)\n    public\n    view returns\n    (\n        uint256     votes_,\n        bool        isRegistered_,\n        uint256     contribution_\n    )\n    {\n        return flightSuretyData.fetchAirlineSummary(_airlineAddress);\n    }\n\n    function fetchFlightSummary(bytes32 _flightId)\n    public\n    view returns\n    (\n        bytes32     Id_,\n        address     airline_,\n        string      flightNumber_,\n        uint256     date_,\n        bool        isRegistered_,\n        uint8       statusCode_,\n        uint256     updatedTimestamp_,\n        uint256     votes_,\n        bool        canBeInsured_,\n        uint256     policyCount_,\n        bool        paidoutClaims_\n    )\n    {\n\n        return flightSuretyData.fetchFlightSummary(_flightId);\n    }\n\n    function fetchPolicySummary(bytes32 _policyId)\n    public\n    view returns\n    (\n        bytes32  Id_,\n        address  insured_,\n        string   ticketNumber_,\n        bytes32  flightId_,\n        uint256  premium_,\n        uint256  payout_,\n        bool     isActive_,\n        bool     isWithdrawn_\n    )\n    {\n        return flightSuretyData.fetchPolicySummary(_policyId);\n    }\n\n    /********************************************************************************************/\n    /*                                       Status Functions                                   */\n    /********************************************************************************************/\n    function isAirline(address _who)\n                            public\n                            view\n                            returns(bool)\n    {\n        return flightSuretyData.isAirline(_who);\n    }\n\n    function isFlightRegistered(\n        address         _airline,\n        string memory   _flight,\n        uint256         _date\n    )\n        public\n        view\n        returns(bool)\n    {\n        return flightSuretyData.isFlightRegistered(_airline, _flight, _date);\n    }\n\n    /********************************************************************************************/\n    /*                                       Policy Functions                                   */\n    /********************************************************************************************/\n\n    function buy(\n        bytes32  _flightId,\n        string   _ticketNumber\n    )\n        public\n        payable\n    {\n        return flightSuretyData.buy.value(msg.value)(msg.sender, _flightId, _ticketNumber);\n    }\n\n    function pay\n    (\n        bytes32  _policyId\n    )\n        external\n    {\n        return flightSuretyData.pay(msg.sender, _policyId);\n    }\n\n    /********************************************************************************************/\n    /*                                       Key Generators                                     */\n    /********************************************************************************************/\n\n    function getFlightKey\n    (\n        address _airline,\n        string memory _flight,\n        uint256 _date\n    )\n    public\n    view\n    returns(bytes32)\n    {\n        return flightSuretyData.getFlightKey(_airline, _flight, _date);\n    }\n\n    function getPolicyKey\n    (\n        bytes32 _flightId,\n        string  _ticketNumber\n    )\n    public\n    view\n    returns(bytes32)\n    {\n        return flightSuretyData.getPolicyKey(_flightId, _ticketNumber);\n    }\n\n\nfunction authorizeDataContract() internal{\n    return flightSuretyData.authorizeContract(msg.sender);\n}\n\n// region ORACLE MANAGEMENT\n\n    // Incremented to add pseudo-randomness at various points\n    uint8 private nonce = 0;\n\n    // Fee to be paid when registering oracle\n    uint256 public constant REGISTRATION_FEE = 1 ether;\n\n    // Number of oracles that must respond for valid status\n    uint256 private constant MIN_RESPONSES = 3;\n\n\n    struct Oracle {\n        bool isRegistered;\n        uint32[3] indexes;\n    }\n\n    // Track all registered oracles\n    mapping(address => Oracle) private oracles;\n\n    // Model for responses from oracles\n    struct ResponseInfo {\n        address requester;                              // Account that requested status\n        bool isOpen;                                    // If open, oracle responses are accepted\n        mapping(uint8 => address[]) responses;          // Mapping key is the status code reported\n                                                        // This lets us group responses and identify\n                                                        // the response that majority of the oracles\n    }\n\n    // Track all oracle responses\n    // Key = hash(index, flight, timestamp)\n    mapping(bytes32 => ResponseInfo) private oracleResponses;\n\n    // Event fired each time an oracle submits a response\n    event FlightStatusInfo(address airline, string flight, uint256 date, uint256 timestamp, uint8 status);\n\n    event OracleReport(address airline, string flight, uint256 date, uint256 timestamp, uint8 status);\n\n    // Event fired when flight status request is submitted\n    // Oracles track this and if they have a matching index\n    // they fetch data and submit a response\n    event OracleRequest(uint32 index, address airline, string flight, uint256 date, uint256 timestamp);\n\n    // Register an oracle with the contract\n    function registerOracle\n                            (\n                            )\n                            external\n                            payable\n    {\n        // Require registration fee\n        require(msg.value >= REGISTRATION_FEE, \"Registration fee is required\");\n\n        uint32[3] memory indexes = generateIndexes(msg.sender);\n\n        oracles[msg.sender] = Oracle({\n            isRegistered: true,\n            indexes: indexes\n        });\n    }\n\n    function getMyIndexes\n                            (\n                            )\n                            external\n                            view\n                            returns(uint32[3])\n    {\n        require(oracles[msg.sender].isRegistered, \"Not registered as an oracle\");\n\n        return oracles[msg.sender].indexes;\n    }\n\n    // Called by oracle when a response is available to an outstanding request\n    // For the response to be accepted, there must be a pending request that is open\n    // and matches one of the three Indexes randomly assigned to the oracle at the\n    // time of registration (i.e. uninvited oracles are not welcome)\n    function submitOracleResponse\n    (\n        uint32 _index,\n        address airline,\n        string flight,\n        uint256 date,\n        uint256 timestamp,\n        uint8 statusCode\n    )\n    external\n    {\n        require((oracles[msg.sender].indexes[0] == _index) || (oracles[msg.sender].indexes[1] == _index) || (oracles[msg.sender].indexes[2] == _index), \"Index does not match oracle request\");\n\n        bytes32 key = keccak256(abi.encodePacked(_index, airline, flight, date, timestamp));\n        require(oracleResponses[key].isOpen, \"Flight or timestamp do not match oracle request\");\n\n        oracleResponses[key].responses[statusCode].push(msg.sender);\n\n        // Information isn't considered verified until at least MIN_RESPONSES\n        // oracles respond with the *** same *** information\n        emit OracleReport(airline, flight, date, timestamp,  statusCode);\n        if (oracleResponses[key].responses[statusCode].length >= MIN_RESPONSES) {\n\n            emit FlightStatusInfo(airline, flight, date, timestamp, statusCode);\n\n            // Handle flight status as appropriate\n            flightSuretyData.processFlightStatus(airline, flight, date, timestamp, statusCode);\n        }\n    }\n\n\n\n    // Returns array of three non-duplicating integers from 0-9\n    function generateIndexes\n    (\n        address account\n    )\n    internal\n    returns(uint32[3])\n    {\n        uint32[3] memory indexes;\n        indexes[0] = getRandomIndex(account);\n\n        indexes[1] = indexes[0];\n        while(indexes[1] == indexes[0]) {\n            indexes[1] = getRandomIndex(account);\n        }\n\n        indexes[2] = indexes[1];\n        while((indexes[2] == indexes[0]) || (indexes[2] == indexes[1])) {\n            indexes[2] = getRandomIndex(account);\n        }\n\n        return indexes;\n    }\n\n    // Returns array of three non-duplicating integers from 0-9\n    function getRandomIndex\n    (\n        address account\n    )\n    internal\n    returns (uint32)\n    {\n        uint32 maxValue = 5;\n\n        // Pseudo random number...the incrementing nonce adds variation\n        uint8 random = uint8(uint256(keccak256(abi.encodePacked(blockhash(block.number - nonce++), account))) % maxValue);\n\n        if (nonce > 250) {\n            nonce = 0;  // Can only fetch blockhashes for last 256 blocks so we adapt\n        }\n\n        return random;\n    }\n\n// endregion\n\n}\n\ncontract FlightSuretyData{\n    uint256 public registered;\n    uint256 public registrationQueue;\n    uint256 public quorum;\n    uint256 public consensus;\n    uint256 public minimumContribution;\n    uint256 public consensusPercentage;\n    uint256 public maximumPremium;\n\n    function authorizeContract(address _registrar) external;\n\n    function registerFirstAirline(address _airlineAddress) external;\n\n    function registerAirline(address _registrar, address _airlineAddress)\n                            external\n                            returns(bool success, uint256 votes, uint256 pendingVotes);\n\n    function fund(address _caller) external\n        payable;\n\n    function getFlightKey\n        (\n        address airline,\n        string memory flight,\n        uint256 date\n        )\n        public\n        pure\n        returns(bytes32);\n\n    function flightExist\n        (\n            bytes32  _flightId\n        )\n        public\n        view\n        returns(bool);\n\n    function isAirline(address _who)\n                            public\n                            view\n                            returns(bool);\n\n    function isFlightRegistered(\n        address         _airline,\n        string memory   _flight,\n        uint256         _date\n    )\n        public\n        view\n        returns(bool);\n\n    function processFlightStatus\n    (\n        address         _airline,\n        string          _flight,\n        uint256         _date,\n        uint256         _timestamp,\n        uint8           _statusCode\n    )\n    external;\n\n    function buy(\n        address   _buyer,\n        bytes32  _flightId,\n        string   _ticketNumber\n    )\n        public\n        payable;\n\n    function pay\n    (\n        address  _payee,\n        bytes32  _policyId\n    )\n        external;\n\n    function fetchAirlineSummary(address _airlineAddress) public view returns\n        (\n            uint256     votes_,\n            bool        isRegistered_,\n            uint256     contribution_\n        );\n\n    function fetchFlightSummary(bytes32 _flightId)\n    public\n    view returns\n        (\n            bytes32     Id_,\n            address     airline_,\n            string      flightNumber_,\n            uint256     date_,\n            bool        isRegistered_,\n            uint8       statusCode_,\n            uint256     updatedTimestamp_,\n            uint256     votes_,\n            bool        canBeInsured_,\n            uint256     policyCount_,\n            bool        paidoutClaims_\n        );\n\n    function fetchPolicySummary(bytes32 _policyId)\n    public\n    view returns\n        (\n            bytes32  Id_,\n            address  insured_,\n            string   ticketNumber_,\n            bytes32  flightId_,\n            uint256  premium_,\n            uint256  payout_,\n            bool     isActive_,\n            bool     isWithdrawn_\n        );\n\n    function registerFlight(\n        address     _registrar,\n        address     _airline,\n        string      _flight,\n        uint256     _date\n    )\n        public\n        returns(bool success, uint256 votes, uint256 pendingVotes);\n\n    function creditInsurees\n    (\n        address  _caller,\n        bytes32  _flightId\n    )\n    external;\n\n    function getPolicyKey\n    (\n        bytes32 flightId,\n        string  ticketNumber\n    )\n        public\n        pure\n        returns(bytes32);\n}",
  "sourcePath": "/Users/Tony/Documents/Projects2018/BlockChain/flightSurety/contracts/FlightSuretyApp.sol",
  "compiler": {
    "name": "solc",
    "version": "0.4.25+commit.59dbf8f1.Emscripten.clang"
  },
  "schemaVersion": "2.0.1",
  "updatedAt": "2019-03-31T05:19:07.056Z"
}