{
  "contractName": "FlightSuretyData",
  "abi": [
    {
      "constant": true,
      "inputs": [],
      "name": "AIRLINE_REGISTRATION_ROLE",
      "outputs": [
        {
          "name": "",
          "type": "bytes32"
        }
      ],
      "payable": false,
      "stateMutability": "view",
      "type": "function"
    },
    {
      "constant": true,
      "inputs": [],
      "name": "ERROR_MISSING_CLAIMS_PAYOUT_ROLE",
      "outputs": [
        {
          "name": "",
          "type": "string"
        }
      ],
      "payable": false,
      "stateMutability": "view",
      "type": "function"
    },
    {
      "constant": true,
      "inputs": [],
      "name": "CLAIMS_PAYOUT_ROLE",
      "outputs": [
        {
          "name": "",
          "type": "bytes32"
        }
      ],
      "payable": false,
      "stateMutability": "view",
      "type": "function"
    },
    {
      "constant": true,
      "inputs": [],
      "name": "ERROR_MISSING_FLIGHT_REGISTRATION_PERMISSION",
      "outputs": [
        {
          "name": "",
          "type": "string"
        }
      ],
      "payable": false,
      "stateMutability": "view",
      "type": "function"
    },
    {
      "constant": true,
      "inputs": [],
      "name": "ERROR_MISSING_AIRLINE_REGISTRATION_PERMISSION",
      "outputs": [
        {
          "name": "",
          "type": "string"
        }
      ],
      "payable": false,
      "stateMutability": "view",
      "type": "function"
    },
    {
      "constant": true,
      "inputs": [],
      "name": "FLIGHT_REGISTRATION_ROLE",
      "outputs": [
        {
          "name": "",
          "type": "bytes32"
        }
      ],
      "payable": false,
      "stateMutability": "view",
      "type": "function"
    },
    {
      "inputs": [],
      "payable": false,
      "stateMutability": "nonpayable",
      "type": "constructor"
    },
    {
      "constant": true,
      "inputs": [],
      "name": "isOperational",
      "outputs": [
        {
          "name": "",
          "type": "bool"
        }
      ],
      "payable": false,
      "stateMutability": "view",
      "type": "function"
    },
    {
      "constant": true,
      "inputs": [],
      "name": "hasQuorum",
      "outputs": [
        {
          "name": "hasQuorum_",
          "type": "bool"
        }
      ],
      "payable": false,
      "stateMutability": "view",
      "type": "function"
    },
    {
      "constant": false,
      "inputs": [
        {
          "name": "mode",
          "type": "bool"
        }
      ],
      "name": "setOperatingStatus",
      "outputs": [],
      "payable": false,
      "stateMutability": "nonpayable",
      "type": "function"
    },
    {
      "constant": false,
      "inputs": [
        {
          "name": "_airlineAddress",
          "type": "address"
        }
      ],
      "name": "registerAirline",
      "outputs": [
        {
          "name": "success",
          "type": "bool"
        },
        {
          "name": "votes",
          "type": "uint256"
        },
        {
          "name": "pendingVotes",
          "type": "uint256"
        }
      ],
      "payable": false,
      "stateMutability": "nonpayable",
      "type": "function"
    },
    {
      "constant": false,
      "inputs": [],
      "name": "incorporateOwner",
      "outputs": [],
      "payable": false,
      "stateMutability": "nonpayable",
      "type": "function"
    },
    {
      "constant": false,
      "inputs": [
        {
          "name": "_airline",
          "type": "address"
        },
        {
          "name": "_flight",
          "type": "string"
        },
        {
          "name": "_date",
          "type": "uint256"
        }
      ],
      "name": "registerFlight",
      "outputs": [
        {
          "name": "success",
          "type": "bool"
        },
        {
          "name": "votes",
          "type": "uint256"
        },
        {
          "name": "pendingVotes",
          "type": "uint256"
        }
      ],
      "payable": false,
      "stateMutability": "nonpayable",
      "type": "function"
    },
    {
      "constant": false,
      "inputs": [
        {
          "name": "_flightId",
          "type": "bytes32"
        },
        {
          "name": "_ticketNumber",
          "type": "string"
        }
      ],
      "name": "buy",
      "outputs": [],
      "payable": true,
      "stateMutability": "payable",
      "type": "function"
    },
    {
      "constant": false,
      "inputs": [
        {
          "name": "_policyId",
          "type": "bytes32"
        }
      ],
      "name": "pay",
      "outputs": [],
      "payable": false,
      "stateMutability": "nonpayable",
      "type": "function"
    },
    {
      "constant": true,
      "inputs": [
        {
          "name": "airline",
          "type": "address"
        },
        {
          "name": "flight",
          "type": "string"
        },
        {
          "name": "date",
          "type": "uint256"
        }
      ],
      "name": "getFlightKey",
      "outputs": [
        {
          "name": "",
          "type": "bytes32"
        }
      ],
      "payable": false,
      "stateMutability": "pure",
      "type": "function"
    },
    {
      "constant": true,
      "inputs": [
        {
          "name": "flightId",
          "type": "bytes32"
        },
        {
          "name": "ticketNumber",
          "type": "string"
        }
      ],
      "name": "getPolicyKey",
      "outputs": [
        {
          "name": "",
          "type": "bytes32"
        }
      ],
      "payable": false,
      "stateMutability": "pure",
      "type": "function"
    },
    {
      "constant": true,
      "inputs": [
        {
          "name": "_who",
          "type": "address"
        }
      ],
      "name": "isAirline",
      "outputs": [
        {
          "name": "",
          "type": "bool"
        }
      ],
      "payable": false,
      "stateMutability": "view",
      "type": "function"
    },
    {
      "constant": true,
      "inputs": [
        {
          "name": "_airline",
          "type": "address"
        },
        {
          "name": "_flight",
          "type": "string"
        },
        {
          "name": "_date",
          "type": "uint256"
        }
      ],
      "name": "isFlightRegistered",
      "outputs": [
        {
          "name": "",
          "type": "bool"
        }
      ],
      "payable": false,
      "stateMutability": "view",
      "type": "function"
    }
  ],
  "bytecode": "0x60806040526001600260146101000a81548160ff02191690831515021790555060006003553480156200003157600080fd5b506200008160405180807f4149524c494e455f524547495354524154494f4e5f524f4c45000000000000008152506019019050604051809103902062000166640100000000026401000000009004565b620000d060405180807f464c494748545f524547495354524154494f4e5f524f4c4500000000000000008152506018019050604051809103902062000166640100000000026401000000009004565b6200011f60405180807f434c41494d535f5041594f55545f524f4c4500000000000000000000000000008152506012019050604051809103902062000166640100000000026401000000009004565b33600260006101000a81548173ffffffffffffffffffffffffffffffffffffffff021916908373ffffffffffffffffffffffffffffffffffffffff1602179055506200031c565b600062000182826200025f640100000000026401000000009004565b905060001515600080836000191660001916815260200190815260200160002060009054906101000a900460ff16151514151562000228576040517f08c379a00000000000000000000000000000000000000000000000000000000081526004018080602001828103825260138152602001807f526f6c6520416c7265616479204578697374730000000000000000000000000081525060200191505060405180910390fd5b6001600080836000191660001916815260200190815260200160002060006101000a81548160ff0219169083151502179055505050565b60008160405160200180807f524f4c450000000000000000000000000000000000000000000000000000000081525060040182600019166000191681526020019150506040516020818303038152906040526040518082805190602001908083835b602083101515620002e85780518252602082019150602081019050602083039250620002c1565b6001836020036101000a03801982511681845116808217855250505050505090500191505060405180910390209050919050565b612eb7806200032c6000396000f3006080604052600436106100fc576000357c0100000000000000000000000000000000000000000000000000000000900463ffffffff1680630c6d1af5146101015780630e248a1114610134578063110466ed1461018f57806316154ef2146101be578063241a53cb146101d55780633cc0be9c14610280578063717cb5f114610339578063791fcd39146103c9578063815b4d1b1461045c5780638609cad11461048b578063969b3087146104bc5780639dba96a7146104ef578063ac9eccc31461057f578063bdfd98771461060f578063c28ffa9c14610678578063cd905dff146106ab578063dfc0dff0146106da578063f983ec3014610789575b600080fd5b34801561010d57600080fd5b506101166107f3565b60405180826000191660001916815260200191505060405180910390f35b34801561014057600080fd5b50610175600480360381019080803573ffffffffffffffffffffffffffffffffffffffff16906020019092919050505061082c565b604051808215151515815260200191505060405180910390f35b34801561019b57600080fd5b506101bc600480360381019080803515159060200190929190505050610885565b005b3480156101ca57600080fd5b506101d3610967565b005b3480156101e157600080fd5b50610266600480360381019080803573ffffffffffffffffffffffffffffffffffffffff169060200190929190803590602001908201803590602001908080601f016020809104026020016040519081016040528093929190818152602001838380828437820191505050505050919291929080359060200190929190505050610af1565b604051808215151515815260200191505060405180910390f35b34801561028c57600080fd5b50610311600480360381019080803573ffffffffffffffffffffffffffffffffffffffff169060200190929190803590602001908201803590602001908080601f016020809104026020016040519081016040528093929190818152602001838380828437820191505050505050919291929080359060200190929190505050610b37565b6040518084151515158152602001838152602001828152602001935050505060405180910390f35b34801561034557600080fd5b5061034e610f11565b6040518080602001828103825283818151815260200191508051906020019080838360005b8381101561038e578082015181840152602081019050610373565b50505050905090810190601f1680156103bb5780820380516001836020036101000a031916815260200191505b509250505060405180910390f35b3480156103d557600080fd5b5061043e6004803603810190808035600019169060200190929190803590602001908201803590602001908080601f0160208091040260200160405190810160405280939291908181526020018383808284378201915050505050509192919290505050610f4a565b60405180826000191660001916815260200191505060405180910390f35b34801561046857600080fd5b50610471611033565b604051808215151515815260200191505060405180910390f35b34801561049757600080fd5b506104ba6004803603810190808035600019169060200190929190505050611041565b005b3480156104c857600080fd5b506104d16114ce565b60405180826000191660001916815260200191505060405180910390f35b3480156104fb57600080fd5b50610504611507565b6040518080602001828103825283818151815260200191508051906020019080838360005b83811015610544578082015181840152602081019050610529565b50505050905090810190601f1680156105715780820380516001836020036101000a031916815260200191505b509250505060405180910390f35b34801561058b57600080fd5b50610594611567565b6040518080602001828103825283818151815260200191508051906020019080838360005b838110156105d45780820151818401526020810190506105b9565b50505050905090810190601f1680156106015780820380516001836020036101000a031916815260200191505b509250505060405180910390f35b34801561061b57600080fd5b50610650600480360381019080803573ffffffffffffffffffffffffffffffffffffffff1690602001909291905050506115c7565b6040518084151515158152602001838152602001828152602001935050505060405180910390f35b34801561068457600080fd5b5061068d6119ec565b60405180826000191660001916815260200191505060405180910390f35b3480156106b757600080fd5b506106c0611a25565b604051808215151515815260200191505060405180910390f35b3480156106e657600080fd5b5061076b600480360381019080803573ffffffffffffffffffffffffffffffffffffffff169060200190929190803590602001908201803590602001908080601f016020809104026020016040519081016040528093929190818152602001838380828437820191505050505050919291929080359060200190929190505050611a3c565b60405180826000191660001916815260200191505060405180910390f35b6107f16004803603810190808035600019169060200190929190803590602001908201803590602001908080601f0160208091040260200160405190810160405280939291908181526020018383808284378201915050505050509192919290505050611b61565b005b60405180807f4149524c494e455f524547495354524154494f4e5f524f4c45000000000000008152506019019050604051809103902081565b6000600460008373ffffffffffffffffffffffffffffffffffffffff1673ffffffffffffffffffffffffffffffffffffffff16815260200190815260200160002060050160009054906101000a900460ff169050919050565b600260009054906101000a900473ffffffffffffffffffffffffffffffffffffffff1673ffffffffffffffffffffffffffffffffffffffff163373ffffffffffffffffffffffffffffffffffffffff1614151561094a576040517f08c379a000000000000000000000000000000000000000000000000000000000815260040180806020018281038252601c8152602001807f43616c6c6572206973206e6f7420636f6e7472616374206f776e65720000000081525060200191505060405180910390fd5b80600260146101000a81548160ff02191690831515021790555050565b6000600260009054906101000a900473ffffffffffffffffffffffffffffffffffffffff1673ffffffffffffffffffffffffffffffffffffffff163373ffffffffffffffffffffffffffffffffffffffff16141515610a2e576040517f08c379a000000000000000000000000000000000000000000000000000000000815260040180806020018281038252601c8152602001807f43616c6c6572206973206e6f7420636f6e7472616374206f776e65720000000081525060200191505060405180910390fd5b610a373361205b565b9050610aee8160a060405190810160405290816000820160009054906101000a900473ffffffffffffffffffffffffffffffffffffffff1673ffffffffffffffffffffffffffffffffffffffff1673ffffffffffffffffffffffffffffffffffffffff168152602001600182015481526020016003820160009054906101000a900460ff16151515158152602001600482015481526020016005820160009054906101000a900460ff161515151581525050612276565b50565b600080610aff858585611a3c565b905060076000826000191660001916815260200190815260200160002060040160009054906101000a900460ff169150509392505050565b600080600080600060011515610b4b611033565b1515146040805190810160405280600f81526020017f4552524f525f4e4f5f51554f52554d0000000000000000000000000000000000815250901515610c2c576040517f08c379a00000000000000000000000000000000000000000000000000000000081526004018080602001828103825283818151815260200191508051906020019080838360005b83811015610bf1578082015181840152602081019050610bd6565b50505050905090810190601f168015610c1e5780820380516001836020036101000a031916815260200191505b509250505060405180910390fd5b50610c6e60405180807f464c494748545f524547495354524154494f4e5f524f4c450000000000000000815250601801905060405180910390203360006122db565b606060405190810160405280602c81526020017f4552524f525f4d495353494e475f464c494748545f524547495354524154494f81526020017f4e5f5045524d495353494f4e0000000000000000000000000000000000000000815250901515610d73576040517f08c379a00000000000000000000000000000000000000000000000000000000081526004018080602001828103825283818151815260200191508051906020019080838360005b83811015610d38578082015181840152602081019050610d1d565b50505050905090810190601f168015610d655780820380516001836020036101000a031916815260200191505b509250505060405180910390fd5b5087878760001515610d86848484610af1565b151514606060405190810160405280602281526020017f4552524f525f464c494748545f49535f414c52454144595f524547495354455281526020017f4544000000000000000000000000000000000000000000000000000000000000815250901515610e8e576040517f08c379a00000000000000000000000000000000000000000000000000000000081526004018080602001828103825283818151815260200191508051906020019080838360005b83811015610e53578082015181840152602081019050610e38565b50505050905090810190601f168015610e805780820380516001836020036101000a031916815260200191505b509250505060405180910390fd5b50610e9a8b8b8b611a3c565b945060076000866000191660001916815260200190815260200160002093506000151584600b0160019054906101000a900460ff1615151415610ee757610ee48b8b8b600061231e565b93505b610ef084612592565b97508784600601546000809050975097509750505050505093509350939050565b6040805190810160405280602081526020017f4552524f525f4d495353494e475f434c41494d535f5041594f55545f524f4c4581525081565b6000828260405160200180836000191660001916815260200182805190602001908083835b602083101515610f945780518252602082019150602081019050602083039250610f6f565b6001836020036101000a038019825116818451168082178552505050505050905001925050506040516020818303038152906040526040518082805190602001908083835b602083101515610ffe5780518252602082019150602081019050602083039250610fd9565b6001836020036101000a0380198251168184511680821785525050505050509050019150506040518091039020905092915050565b600060046005541015905090565b600060086000836000191660001916815260200190815260200160002090508060060160029054906101000a900460ff166040805190810160405280601b81526020017f4552524f525f504f4c4943595f444f45535f4e4f545f45584953540000000000815250901515611150576040517f08c379a00000000000000000000000000000000000000000000000000000000081526004018080602001828103825283818151815260200191508051906020019080838360005b838110156111155780820151818401526020810190506110fa565b50505050905090810190601f1680156111425780820380516001836020036101000a031916815260200191505b509250505060405180910390fd5b503373ffffffffffffffffffffffffffffffffffffffff168160010160009054906101000a900473ffffffffffffffffffffffffffffffffffffffff1673ffffffffffffffffffffffffffffffffffffffff16146040805190810160405280601681526020017f4552524f525f4e4f545f504f4c4943595f4f574e455200000000000000000000815250901515611282576040517f08c379a00000000000000000000000000000000000000000000000000000000081526004018080602001828103825283818151815260200191508051906020019080838360005b8381101561124757808201518184015260208101905061122c565b50505050905090810190601f1680156112745780820380516001836020036101000a031916815260200191505b509250505060405180910390fd5b5060008160050154116040805190810160405280601a81526020017f4552524f525f504f4c4943595f4841535f4e4f5f5041594f5554000000000000815250901515611369576040517f08c379a00000000000000000000000000000000000000000000000000000000081526004018080602001828103825283818151815260200191508051906020019080838360005b8381101561132e578082015181840152602081019050611313565b50505050905090810190601f16801561135b5780820380516001836020036101000a031916815260200191505b509250505060405180910390fd5b50600015158160060160019054906101000a900460ff161515146040805190810160405280602081526020017f4552524f525f434c41494d5f49535f414c52454144595f57495448445241574e815250901515611461576040517f08c379a00000000000000000000000000000000000000000000000000000000081526004018080602001828103825283818151815260200191508051906020019080838360005b8381101561142657808201518184015260208101905061140b565b50505050905090810190601f1680156114535780820380516001836020036101000a031916815260200191505b509250505060405180910390fd5b5060018160060160016101000a81548160ff0219169083151502179055503373ffffffffffffffffffffffffffffffffffffffff166108fc82600501549081150290604051600060405180830381858888f193505050501580156114c9573d6000803e3d6000fd5b505050565b60405180807f434c41494d535f5041594f55545f524f4c4500000000000000000000000000008152506012019050604051809103902081565b606060405190810160405280602c81526020017f4552524f525f4d495353494e475f464c494748545f524547495354524154494f81526020017f4e5f5045524d495353494f4e000000000000000000000000000000000000000081525081565b606060405190810160405280602d81526020017f4552524f525f4d495353494e475f4149524c494e455f5245474953545241544981526020017f4f4e5f5045524d495353494f4e0000000000000000000000000000000000000081525081565b60008060008061160e60405180807f4149524c494e455f524547495354524154494f4e5f524f4c4500000000000000815250601901905060405180910390203360006122db565b606060405190810160405280602d81526020017f4552524f525f4d495353494e475f4149524c494e455f5245474953545241544981526020017f4f4e5f5045524d495353494f4e00000000000000000000000000000000000000815250901515611713576040517f08c379a00000000000000000000000000000000000000000000000000000000081526004018080602001828103825283818151815260200191508051906020019080838360005b838110156116d85780820151818401526020810190506116bd565b50505050905090810190601f1680156117055780820380516001836020036101000a031916815260200191505b509250505060405180910390fd5b50846000600460008373ffffffffffffffffffffffffffffffffffffffff1673ffffffffffffffffffffffffffffffffffffffff1681526020019081526020016000209050600015158160030160009054906101000a900460ff16151514606060405190810160405280602381526020017f4552524f525f4149524c494e455f49535f414c52454144595f5245474953544581526020017f5245440000000000000000000000000000000000000000000000000000000000815250901515611876576040517f08c379a00000000000000000000000000000000000000000000000000000000081526004018080602001828103825283818151815260200191508051906020019080838360005b8381101561183b578082015181840152602081019050611820565b50505050905090810190601f1680156118685780820380516001836020036101000a031916815260200191505b509250505060405180910390fd5b50600460008873ffffffffffffffffffffffffffffffffffffffff1673ffffffffffffffffffffffffffffffffffffffff1681526020019081526020016000209250600015158360050160009054906101000a900460ff16151514156119c5576118df8761205b565b9250600015156118ed611033565b151514156119c4576119aa8360a060405190810160405290816000820160009054906101000a900473ffffffffffffffffffffffffffffffffffffffff1673ffffffffffffffffffffffffffffffffffffffff1673ffffffffffffffffffffffffffffffffffffffff168152602001600182015481526020016003820160009054906101000a900460ff16151515158152602001600482015481526020016005820160009054906101000a900460ff161515151581525050612276565b6001955085836001015460008090509550955095506119e2565b5b6119ce8361296f565b955085836001015460008090509550955095505b5050509193909250565b60405180807f464c494748545f524547495354524154494f4e5f524f4c4500000000000000008152506018019050604051809103902081565b6000600260149054906101000a900460ff16905090565b6000838383604051602001808473ffffffffffffffffffffffffffffffffffffffff1673ffffffffffffffffffffffffffffffffffffffff166c0100000000000000000000000002815260140183805190602001908083835b602083101515611aba5780518252602082019150602081019050602083039250611a95565b6001836020036101000a03801982511681845116808217855250505050505090500182815260200193505050506040516020818303038152906040526040518082805190602001908083835b602083101515611b2b5780518252602082019150602081019050602083039250611b06565b6001836020036101000a038019825116818451168082178552505050505050905001915050604051809103902090509392505050565b6000806000808560006007600083600019166000191681526020019081526020016000209050600115158160070160009054906101000a900460ff161515146040805190810160405280601e81526020017f4552524f525f464c494748545f43414e4e4f545f42455f494e53555245440000815250901515611c7e576040517f08c379a00000000000000000000000000000000000000000000000000000000081526004018080602001828103825283818151815260200191508051906020019080838360005b83811015611c43578082015181840152602081019050611c28565b50505050905090810190601f168015611c705780820380516001836020036101000a031916815260200191505b509250505060405180910390fd5b50600034116040805190810160405280601981526020017f4552524f525f50555243484153455f56414c55455f49535f3000000000000000815250901515611d61576040517f08c379a00000000000000000000000000000000000000000000000000000000081526004018080602001828103825283818151815260200191508051906020019080838360005b83811015611d26578082015181840152602081019050611d0b565b50505050905090810190601f168015611d535780820380516001836020036101000a031916815260200191505b509250505060405180910390fd5b50611d6c8888610f4a565b95506008600087600019166000191681526020019081526020016000209450670de0b6b3a76400008560040154106040805190810160405280601a81526020017f4552524f525f4d4158494d554d5f5052454d49554d5f50414944000000000000815250901515611e78576040517f08c379a00000000000000000000000000000000000000000000000000000000081526004018080602001828103825283818151815260200191508051906020019080838360005b83811015611e3d578082015181840152602081019050611e22565b50505050905090810190601f168015611e6a5780820380516001836020036101000a031916815260200191505b509250505060405180910390fd5b508460040154670de0b6b3a76400000393508585600001816000191690555086856002019080519060200190611eaf929190612de6565b5087856003018160001916905550338560010160006101000a81548173ffffffffffffffffffffffffffffffffffffffff021916908373ffffffffffffffffffffffffffffffffffffffff16021790555083341115611f68578385600401600082825401925050819055503373ffffffffffffffffffffffffffffffffffffffff166108fc8534039081150290604051600060405180830381858888f19350505050158015611f62573d6000803e3d6000fd5b50611f7b565b3485600401600082825401925050819055505b6000856005018190555060008560060160006101000a81548160ff02191690831515021790555060008560060160016101000a81548160ff021916908315150217905550600015158560060160029054906101000a900460ff161515141561203457600760008960001916600019168152602001908152602001600020925085836009016000600186600a0154018152602001908152602001600020816000191690555082600a01600081548092919060010191905055505b60018560060160026101000a81548160ff0219169083151502179055505050505050505050565b60008160001515600460008373ffffffffffffffffffffffffffffffffffffffff1673ffffffffffffffffffffffffffffffffffffffff16815260200190815260200160002060050160009054906101000a900460ff161515146040805190810160405280601e81526020017f4552524f525f4149524c494e455f414c52454144595f454e4c49535445440000815250901515612193576040517f08c379a00000000000000000000000000000000000000000000000000000000081526004018080602001828103825283818151815260200191508051906020019080838360005b8381101561215857808201518184015260208101905061213d565b50505050905090810190601f1680156121855780820380516001836020036101000a031916815260200191505b509250505060405180910390fd5b50600460008473ffffffffffffffffffffffffffffffffffffffff1673ffffffffffffffffffffffffffffffffffffffff1681526020019081526020016000209150828260000160006101000a81548173ffffffffffffffffffffffffffffffffffffffff021916908373ffffffffffffffffffffffffffffffffffffffff1602179055506000826001018190555060008260030160006101000a81548160ff02191690831515021790555060018260050160006101000a81548160ff021916908315150217905550600160066000828254019250508190555081915050919050565b6001816040019015159081151581525050600160056000828254019250508190555060016006600082825403925050819055506122d260646122c46032600554612c7490919063ffffffff16565b612cac90919063ffffffff16565b60038190555050565b6000806122e9848685612cc2565b905060016000826000191660001916815260200190815260200160002060009054906101000a900460ff169150509392505050565b6000808560011515600460008373ffffffffffffffffffffffffffffffffffffffff1673ffffffffffffffffffffffffffffffffffffffff16815260200190815260200160002060050160009054906101000a900460ff161515146040805190810160405280601a81526020017f4552524f525f4149524c494e455f4e4f545f454e4c4953544544000000000000815250901515612457576040517f08c379a00000000000000000000000000000000000000000000000000000000081526004018080602001828103825283818151815260200191508051906020019080838360005b8381101561241c578082015181840152602081019050612401565b50505050905090810190601f1680156124495780820380516001836020036101000a031916815260200191505b509250505060405180910390fd5b50612463878787611a3c565b9150600760008360001916600019168152602001908152602001600020925081836000018160001916905550858360020190805190602001906124a7929190612de6565b50848360030181905550838360040160016101000a81548160ff021916908360ff16021790555060008360040160006101000a81548160ff021916908315150217905550868360010160006101000a81548173ffffffffffffffffffffffffffffffffffffffff021916908373ffffffffffffffffffffffffffffffffffffffff160217905550600183600b0160016101000a81548160ff02191690831515021790555060018360070160006101000a81548160ff021916908315150217905550600083600b0160006101000a81548160ff0219169083151502179055508292505050949350505050565b600033826000015460006007600083600019166000191681526020019081526020016000209050600015158160080160008573ffffffffffffffffffffffffffffffffffffffff1673ffffffffffffffffffffffffffffffffffffffff16815260200190815260200160002060009054906101000a900460ff16151514606060405190810160405280602f81526020017f4552524f525f4149524c494e455f4841535f414c52454144595f564f5445445f81526020017f464f525f544849535f464c494748540000000000000000000000000000000000815250901515612714576040517f08c379a00000000000000000000000000000000000000000000000000000000081526004018080602001828103825283818151815260200191508051906020019080838360005b838110156126d95780820151818401526020810190506126be565b50505050905090810190601f1680156127065780820380516001836020036101000a031916815260200191505b509250505060405180910390fd5b506001856006016000828254019250508190555060018560080160003373ffffffffffffffffffffffffffffffffffffffff1673ffffffffffffffffffffffffffffffffffffffff16815260200190815260200160002060006101000a81548160ff0219169083151502179055508460060154600354111515612967576129628561018060405190810160405290816000820154600019166000191681526020016001820160009054906101000a900473ffffffffffffffffffffffffffffffffffffffff1673ffffffffffffffffffffffffffffffffffffffff1673ffffffffffffffffffffffffffffffffffffffff168152602001600282018054600181600116156101000203166002900480601f0160208091040260200160405190810160405280929190818152602001828054600181600116156101000203166002900480156128a35780601f10612878576101008083540402835291602001916128a3565b820191906000526020600020905b81548152906001019060200180831161288657829003601f168201915b50505050508152602001600382015481526020016004820160009054906101000a900460ff161515151581526020016004820160019054906101000a900460ff1660ff1660ff16815260200160058201548152602001600682015481526020016007820160009054906101000a900460ff16151515158152602001600a8201548152602001600b820160009054906101000a900460ff16151515158152602001600b820160019054906101000a900460ff161515151581525050612dd2565b600193505b505050919050565b6000338260000160009054906101000a900473ffffffffffffffffffffffffffffffffffffffff166000600460008373ffffffffffffffffffffffffffffffffffffffff1673ffffffffffffffffffffffffffffffffffffffff1681526020019081526020016000209050600015158160020160008573ffffffffffffffffffffffffffffffffffffffff1673ffffffffffffffffffffffffffffffffffffffff16815260200190815260200160002060009054906101000a900460ff16151514606060405190810160405280603081526020017f4552524f525f4149524c494e455f4841535f414c52454144595f564f5445445f81526020017f464f525f544849535f4149524c494e4500000000000000000000000000000000815250901515612b35576040517f08c379a00000000000000000000000000000000000000000000000000000000081526004018080602001828103825283818151815260200191508051906020019080838360005b83811015612afa578082015181840152602081019050612adf565b50505050905090810190601f168015612b275780820380516001836020036101000a031916815260200191505b509250505060405180910390fd5b506001856001016000828254019250508190555060018560020160003373ffffffffffffffffffffffffffffffffffffffff1673ffffffffffffffffffffffffffffffffffffffff16815260200190815260200160002060006101000a81548160ff0219169083151502179055508460010154600354111515612c6c57612c678560a060405190810160405290816000820160009054906101000a900473ffffffffffffffffffffffffffffffffffffffff1673ffffffffffffffffffffffffffffffffffffffff1673ffffffffffffffffffffffffffffffffffffffff168152602001600182015481526020016003820160009054906101000a900460ff16151515158152602001600482015481526020016005820160009054906101000a900460ff161515151581525050612276565b600193505b505050919050565b600080831415612c875760009050612ca6565b8183029050818382811515612c9857fe5b04141515612ca257fe5b8090505b92915050565b60008183811515612cb957fe5b04905092915050565b600083838360405160200180807f5045524d495353494f4e00000000000000000000000000000000000000000000815250600a018473ffffffffffffffffffffffffffffffffffffffff1673ffffffffffffffffffffffffffffffffffffffff166c010000000000000000000000000281526014018360001916600019168152602001826000191660001916815260200193505050506040516020818303038152906040526040518082805190602001908083835b602083101515612d9c5780518252602082019150602081019050602083039250612d77565b6001836020036101000a038019825116818451168082178552505050505050905001915050604051809103902090509392505050565b600181608001901515908115158152505050565b828054600181600116156101000203166002900490600052602060002090601f016020900481019282601f10612e2757805160ff1916838001178555612e55565b82800160010185558215612e55579182015b82811115612e54578251825591602001919060010190612e39565b5b509050612e629190612e66565b5090565b612e8891905b80821115612e84576000816000905550600101612e6c565b5090565b905600a165627a7a723058204571833a8731a791cc70b7a509a2d591e51a295b28d141064379b54077d467370029",
  "source": "pragma solidity ^0.4.25;\n\nimport \"../node_modules/openzeppelin-solidity/contracts/math/SafeMath.sol\";\nimport \"./Accesscontrol.sol\";\n\ncontract FlightSuretyData is AccessControl{\n    using SafeMath for uint256;\n\n    /********************************************************************************************/\n    /*                                       DATA VARIABLES                                     */\n    /********************************************************************************************/\n\n    address private contractOwner;                                      // Account used to deploy contract\n    bool private operational = true;                                    // Blocks all state changes throughout the contract if false\n    uint256 consensus = 0;\n\n    /********************************************************************************************/\n    /*                                       SETTINGS                                           */\n    /********************************************************************************************/\n    uint256 constant quorum = 4;\n    uint256 constant minimumContribution = 10 ether;\n    uint256 constant consensusPercentage = 50;\n    uint256 constant maximumPremium = 1 ether;\n\n    /********************************************************************************************/\n    /*                                       ERROR CODES                                        */\n    /********************************************************************************************/\n    string private constant ERROR_NO_QUORUM = \"ERROR_NO_QUORUM\";\n    string private constant ERROR_AIRLINE_NOT_ENLISTED = \"ERROR_AIRLINE_NOT_ENLISTED\";\n    string private constant ERROR_AIRLINE_ALREADY_ENLISTED = \"ERROR_AIRLINE_ALREADY_ENLISTED\";\n    string private constant ERROR_AIRLINE_IS_NOT_REGISTERED = \"ERROR_AIRLINE_IS_NOT_REGISTERED\";\n    string private constant ERROR_AIRLINE_IS_ALREADY_REGISTERED = \"ERROR_AIRLINE_IS_ALREADY_REGISTERED\";\n\n    string internal constant ERROR_FLIGHT_NOT_ENLISTED = \"ERROR_FLIGHT_NOT_ENLISTED\";\n    string private constant ERROR_FLIGHT_ALREADY_ENLISTED = \"ERROR_FLIGHT_ALREADY_ENLISTED\";\n\n    string private constant ERROR_FLIGHT_CANNOT_BE_INSURED = \"ERROR_FLIGHT_CANNOT_BE_INSURED\";\n    string private constant ERROR_MAXIMUM_PREMIUM_PAID = \"ERROR_MAXIMUM_PREMIUM_PAID\";\n\n    string private constant ERROR_PURCHASE_VALUE_IS_0 = \"ERROR_PURCHASE_VALUE_IS_0\";\n    string private constant ERROR_POLICY_DOES_NOT_EXIST = \"ERROR_POLICY_DOES_NOT_EXIST\";\n    string internal constant ERROR_POLICY_CANNOT_CLAIM = \"ERROR_POLICY_CANNOT_CLAIM\";\n    string private constant ERROR_ALREADY_PAIDOUT_CLAIM = \"ERROR_ALREADY_PAIDOUT_CLAIM\";\n    string internal constant ERROR_ALREADY_PAIDOUT_CLAIMS = \"ERROR_ALREADY_PAIDOUT_CLAIMS\";\n    string internal constant ERROR_POLICY_HAS_NO_PAYOUT = \"ERROR_POLICY_HAS_NO_PAYOUT\";\n    string internal constant ERROR_NOT_POLICY_OWNER = \"ERROR_NOT_POLICY_OWNER\";\n\n    string internal constant ERROR_CLAIM_IS_ALREADY_WITHDRAWN = \"ERROR_CLAIM_IS_ALREADY_WITHDRAWN\";\n\n    string private constant ERROR_CALLER_NOT_CONTRACT_OWNER = \"ERROR_CALLER_NOT_CONTRACT_OWNER\";\n    string private constant ERROR_AIRLINE_ALREADY_VOTED_FOR_AIRLINE = \"ERROR_AIRLINE_HAS_ALREADY_VOTED_FOR_THIS_AIRLINE\";\n\n    string private constant ERROR_FLIGHT_IS_NOT_REGISTERED = \"ERROR_FLIGHT_IS_NOT_REGISTERED\";\n    string private constant ERROR_FLIGHT_IS_ALREADY_REGISTERED = \"ERROR_FLIGHT_IS_ALREADY_REGISTERED\";\n    string private constant ERROR_AIRLINE_ALREADY_VOTED_FOR_FLIGHT = \"ERROR_AIRLINE_HAS_ALREADY_VOTED_FOR_THIS_FLIGHT\";\n\n\n\n    struct Airline {\n        address id;\n        uint256 votes;\n        mapping (address => bool) votedBy;\n        bool isRegistered;\n        uint256 contribution;\n        bool exists;\n    }\n    mapping (address => Airline) internal airlines;\n    uint256 registered;\n    uint256 registrationQueue;\n\n    struct Flight {\n        bytes32     Id;\n        address     airline;\n        string      flightNumber;\n        uint256     date;\n        bool        isRegistered;\n        uint8       statusCode;\n        uint256     updatedTimestamp;\n        uint256     votes;\n        bool        canBeInsured;\n        mapping     (address => bool) votedBy;\n        mapping     (uint256 => bytes32) policies;\n        uint256     policyCount;\n        bool        paidoutClaims;\n        bool        exists;\n    }\n    mapping(bytes32 => Flight) internal flights;\n\n    struct Policy {\n        bytes32  Id;\n        address  insured;\n        string   ticketNumber;\n        bytes32  flightId;\n        uint256  premium;\n        uint256  payout;\n        bool     isActive;\n        bool     isWithdrawn;\n        bool     exists;\n    }\n    mapping(bytes32 => Policy) internal policies;\n\n    /********************************************************************************************/\n    /*                                       EVENT DEFINITIONS                                  */\n    /********************************************************************************************/\n\n\n    /**\n    * @dev Constructor\n    *      The deploying account becomes contractOwner\n    */\n    constructor() public {\n        contractOwner = msg.sender;\n    }\n\n    /********************************************************************************************/\n    /*                                       FUNCTION MODIFIERS                                 */\n    /********************************************************************************************/\n\n    // Modifiers help avoid duplication of code. They are typically used to validate something\n    // before a function is allowed to be executed.\n\n\n    modifier requireHasQuorum()\n    {\n        require(hasQuorum() == true, ERROR_NO_QUORUM);\n        _;\n    }\n\n    modifier requireAirlineExist(address _who)\n    {\n        require(airlines[_who].exists == true, ERROR_AIRLINE_NOT_ENLISTED);\n        _;  // All modifiers require an \"_\" which indicates where the function body will be added\n    }\n\n    modifier requireAirlineNotExist(address _who)\n    {\n        require(airlines[_who].exists == false, ERROR_AIRLINE_ALREADY_ENLISTED);\n        _;  // All modifiers require an \"_\" which indicates where the function body will be added\n    }\n\n    modifier requireFlightExist(\n        bytes32      _flightId\n    )\n    {\n        require(flights[_flightId].exists == true, ERROR_FLIGHT_NOT_ENLISTED);\n        _;\n    }\n\n    modifier canRegisterAirline() {\n        require(has(AIRLINE_REGISTRATION_ROLE, msg.sender, \"\"), ERROR_MISSING_AIRLINE_REGISTRATION_PERMISSION);\n        _;\n    }\n\n    modifier canRegisterFlight() {\n        require(has(FLIGHT_REGISTRATION_ROLE, msg.sender, \"\"), ERROR_MISSING_FLIGHT_REGISTRATION_PERMISSION);\n        _;\n    }\n\n    modifier requireFlightNotExist(\n        bytes32      _flightId\n    )\n    {\n        require(flights[_flightId].exists == false, ERROR_FLIGHT_NOT_ENLISTED);\n        _;\n    }\n\n    modifier requireIsRegistered(address _airlineAddress)\n    {\n        Airline storage airline_ = airlines[_airlineAddress];\n        require(airline_.isRegistered == true, ERROR_AIRLINE_IS_NOT_REGISTERED);\n        _;\n    }\n\n    modifier requireNonRegisteredAirline(address _airlineAddress)\n    {\n        Airline storage airline_ = airlines[_airlineAddress];\n        require(airline_.isRegistered == false, ERROR_AIRLINE_IS_ALREADY_REGISTERED);\n        _;\n    }\n\n    modifier requireFlightCanBeInsured(bytes32 _flightId)\n    {\n        Flight storage flight_ = flights[_flightId];\n        require(flight_.canBeInsured == true, ERROR_FLIGHT_CANNOT_BE_INSURED);\n        _;\n    }\n\n    modifier requireNonRegisteredFlight(\n    address     _airline,\n    string      _flight,\n    uint256     _date\n    )\n    {\n        require(isFlightRegistered(_airline, _flight, _date) == false, ERROR_FLIGHT_IS_ALREADY_REGISTERED);\n        _;\n    }\n\n    modifier requireNotYetVotedAirlineXAirline(address _voter, address _votingFor)\n    {\n        Airline storage airline_ = airlines[_votingFor];\n        require(airline_.votedBy[_voter] == false, ERROR_AIRLINE_ALREADY_VOTED_FOR_AIRLINE);\n        _;\n    }\n\n    modifier requireNotYetVotedAirlineXFlight(address _voter, bytes32 _votingForFlightId)\n    {\n        Flight storage flight_ = flights[_votingForFlightId];\n        require(flight_.votedBy[_voter] == false, ERROR_AIRLINE_ALREADY_VOTED_FOR_FLIGHT);\n        _;\n    }\n\n    modifier requirePolicyExist(\n        bytes32      _policyId\n    )\n    {\n        require(policies[_policyId].exists == true, ERROR_POLICY_DOES_NOT_EXIST);\n        _;\n    }\n\n    /**\n    * @dev Modifier that requires the \"operational\" boolean variable to be \"true\"\n    *      This is used on all state changing functions to pause the contract in\n    *      the event there is an issue that needs to be fixed\n    */\n    modifier requireIsOperational()\n    {\n        require(operational, \"Contract is currently not operational\");\n        _;  // All modifiers require an \"_\" which indicates where the function body will be added\n    }\n\n    /**\n    * @dev Modifier that requires the \"ContractOwner\" account to be the function caller\n    */\n    modifier requireContractOwner()\n    {\n        require(msg.sender == contractOwner, \"Caller is not contract owner\");\n        _;\n    }\n\n    /********************************************************************************************/\n    /*                                       UTILITY FUNCTIONS                                  */\n    /********************************************************************************************/\n\n    /**\n    * @dev Get operating status of contract\n    *\n    * @return A bool that is the current operating status\n    */\n    function isOperational()\n                            public\n                            view\n                            returns(bool)\n    {\n        return operational;\n    }\n\n    function hasQuorum()  public view returns(bool hasQuorum_){\n        hasQuorum_ = registered >= quorum;\n    }\n\n\n    /**\n    * @dev Sets contract operations on/off\n    *\n    * When operational mode is disabled, all write transactions except for this one will fail\n    */\n    function setOperatingStatus(bool mode)\n                            external\n                            requireContractOwner\n    {\n        operational = mode;\n    }\n\n    /********************************************************************************************/\n    /*                                     SMART CONTRACT FUNCTIONS                             */\n    /********************************************************************************************/\n\n    /**\n    * @dev Add an airline to the registration queue\n    *\n    */\n    function registerAirline(address _airlineAddress)\n                            public\n                            canRegisterAirline()\n                            requireNonRegisteredAirline(_airlineAddress)\n                            returns(bool success, uint256 votes, uint256 pendingVotes)\n    {\n        Airline storage airline_ = airlines[_airlineAddress];\n        if (airline_.exists == false) {\n            airline_ = addAirline(_airlineAddress);\n            if (hasQuorum() == false){\n                incorporateAirline(airline_);\n                success = true;\n                return (success, airline_.votes, 0);\n            }\n        }\n\n        success = voteAirlineXAirline(airline_);\n\n        return (success, airline_.votes, 0);\n    }\n\n   /**\n    * @dev Add an airline to the registration queue\n    *      Can only be called from FlightSuretyApp contract\n    *\n    */\n    function addAirline(address _who)\n        internal\n        requireAirlineNotExist(_who)\n        returns(Airline storage airline_)\n    {\n        airline_ = airlines[_who];\n        airline_.id = _who;\n        airline_.votes = 0;\n        airline_.isRegistered = false;\n        airline_.exists = true;\n        registrationQueue += 1;\n        return airline_;\n    }\n\n    function addFlight(\n        address     _airline,\n        string      _flightNumber,\n        uint256     _date,\n        uint8       _statusCode\n    )\n        internal\n        requireAirlineExist(_airline)\n        returns(Flight storage flight_)\n    {\n        bytes32 flightId = getFlightKey(_airline, _flightNumber, _date);\n        flight_ = flights[flightId];\n        flight_.Id = flightId;\n        flight_.flightNumber = _flightNumber;\n        flight_.date = _date;\n        flight_.statusCode = _statusCode;\n        flight_.isRegistered = false;\n        flight_.airline = _airline;\n        flight_.exists = true;\n        flight_.canBeInsured = true;\n        flight_.paidoutClaims = false;\n        return flight_;\n    }\n\n    function incorporateOwner()\n    public\n    requireContractOwner()\n    {\n       Airline storage airline_ = addAirline(msg.sender);\n       incorporateAirline(airline_);\n    }\n\n    function incorporateAirline(Airline _airline)\n    private\n    {\n        _airline.isRegistered = true;\n        registered += 1;\n        registrationQueue -= 1;\n        consensus = registered.mul(consensusPercentage).div(100);\n    }\n\n    function voteAirlineXAirline(Airline storage _airline)\n    private\n    requireNotYetVotedAirlineXAirline(msg.sender, _airline.id)\n    returns(bool isRegistered_)\n    {\n        _airline.votes += 1;\n        _airline.votedBy[msg.sender] = true;\n        if (consensus <= _airline.votes){\n            incorporateAirline(_airline);\n            isRegistered_ = true;\n        }\n    }\n\n\n    function registerFlight(\n        address     _airline,\n        string      _flight,\n        uint256     _date\n    )\n        public\n        requireHasQuorum()\n        canRegisterFlight()\n        requireNonRegisteredFlight(_airline, _flight, _date)\n        returns(bool success, uint256 votes, uint256 pendingVotes)\n    {\n        bytes32 flightId = getFlightKey(_airline, _flight, _date);\n        Flight storage flight_ = flights[flightId];\n        if (flight_.exists == false) {\n            flight_ = addFlight(_airline, _flight, _date, 0); // 0 is status code unknown\n        }\n\n        success = voteAirlineXFlight(flight_);\n\n        return (success, flight_.votes, 0);\n    }\n\n\n    function voteAirlineXFlight(Flight storage _flight)\n    private\n    requireNotYetVotedAirlineXFlight(msg.sender, _flight.Id)\n    returns(bool isRegistered_)\n    {\n        _flight.votes += 1;\n        _flight.votedBy[msg.sender] = true;\n        if (consensus <= _flight.votes){\n            incorporateFlight(_flight);\n            isRegistered_ = true;\n        }\n    }\n\n    function incorporateFlight(Flight _flight)\n    private\n    {\n        _flight.isRegistered = true;\n    }\n   /**\n    * @dev Buy insurance for a flight\n    *\n    */\n    function buy(\n        bytes32  _flightId,\n        string   _ticketNumber\n    )\n        public\n        requireFlightCanBeInsured(_flightId)\n        payable\n    {\n        require(msg.value > 0, ERROR_PURCHASE_VALUE_IS_0);\n        bytes32 key = getPolicyKey(_flightId, _ticketNumber);\n        Policy storage policy_ = policies[key];\n        require(policy_.premium < maximumPremium, ERROR_MAXIMUM_PREMIUM_PAID);\n        uint256 maxPayablePremium = maximumPremium - policy_.premium;\n\n        policy_.Id = key;\n        policy_.ticketNumber = _ticketNumber;\n        policy_.flightId = _flightId;\n        policy_.insured = msg.sender;\n        if (msg.value > maxPayablePremium){\n            policy_.premium += maxPayablePremium;\n            msg.sender.transfer(msg.value - maxPayablePremium); //refund excess\n        }\n        else{\n            policy_.premium += msg.value;\n        }\n        policy_.payout = 0;\n        policy_.isActive = false;\n        policy_.isWithdrawn = false;\n\n        if (policy_.exists == false){\n            Flight storage flight_ = flights[_flightId];\n            flight_.policies[flight_.policyCount + 1] = key;\n            flight_.policyCount++;\n        }\n\n        policy_.exists = true;\n    }\n\n    function creditInsuree\n    (\n        bytes32  _policyId\n    )\n    internal\n    {\n        Policy storage policy_ = policies[_policyId];\n        require(policy_.exists, ERROR_POLICY_DOES_NOT_EXIST);\n        require(policy_.payout == 0, ERROR_ALREADY_PAIDOUT_CLAIM);\n        policy_.payout = policy_.premium.mul(3).div(2);\n    }\n\n    /**\n     *  @dev Transfers eligible payout funds to insuree\n     *\n    */\n    function pay\n    (\n        bytes32  _policyId\n    )\n        external\n    {\n        Policy storage policy_ = policies[_policyId];\n        require(policy_.exists, ERROR_POLICY_DOES_NOT_EXIST);\n        require(policy_.insured == msg.sender, ERROR_NOT_POLICY_OWNER);\n        require(policy_.payout > 0, ERROR_POLICY_HAS_NO_PAYOUT);\n        require(policy_.isWithdrawn == false, ERROR_CLAIM_IS_ALREADY_WITHDRAWN);\n        policy_.isWithdrawn = true;\n        msg.sender.transfer(policy_.payout);\n\n    }\n\n\n    function contribute\n                            (\n                            )\n                            internal\n    {\n        Airline storage airline_ = airlines[msg.sender];\n        airline_.contribution += msg.value;\n    }\n\n    function getFlightKey\n    (\n        address airline,\n        string memory flight,\n        uint256 date\n    )\n    public\n    pure\n    returns(bytes32)\n    {\n        return keccak256(abi.encodePacked(airline, flight, date));\n    }\n\n    function getPolicyKey\n    (\n        bytes32 flightId,\n        string  ticketNumber\n    )\n    public\n    pure\n    returns(bytes32)\n    {\n        return keccak256(abi.encodePacked(flightId, ticketNumber));\n    }\n\n    function isAirline(address _who)\n                            public\n                            view\n                            returns(bool)\n    {\n        return airlines[_who].exists;\n    }\n\n    function isFlightRegistered(\n        address         _airline,\n        string memory   _flight,\n        uint256         _date\n    )\n        public\n        view\n        returns(bool)\n    {\n        bytes32 flightId_ = getFlightKey(_airline, _flight, _date);\n        return flights[flightId_].isRegistered;\n    }\n}\n\n",
  "sourcePath": "/Users/Tony/Documents/Projects2018/BlockChain/flightSurety/contracts/flightSuretyData.sol",
  "compiler": {
    "name": "solc",
    "version": "0.4.25+commit.59dbf8f1.Emscripten.clang"
  },
  "schemaVersion": "2.0.1",
  "updatedAt": "2019-03-27T19:08:13.318Z"
}